{
  "contractName": "LinkedTAX",
  "abi": [
    {
      "constant": true,
      "inputs": [],
      "name": "initialized",
      "outputs": [
        {
          "internalType": "bool",
          "name": "",
          "type": "bool"
        }
      ],
      "payable": false,
      "stateMutability": "view",
      "type": "function"
    },
    {
      "constant": true,
      "inputs": [],
      "name": "baseRateReward",
      "outputs": [
        {
          "internalType": "uint256",
          "name": "",
          "type": "uint256"
        }
      ],
      "payable": false,
      "stateMutability": "view",
      "type": "function"
    },
    {
      "constant": false,
      "inputs": [],
      "name": "renounceOwnership",
      "outputs": [],
      "payable": false,
      "stateMutability": "nonpayable",
      "type": "function"
    },
    {
      "constant": true,
      "inputs": [],
      "name": "owner",
      "outputs": [
        {
          "internalType": "address",
          "name": "",
          "type": "address"
        }
      ],
      "payable": false,
      "stateMutability": "view",
      "type": "function"
    },
    {
      "constant": true,
      "inputs": [],
      "name": "isOwner",
      "outputs": [
        {
          "internalType": "bool",
          "name": "",
          "type": "bool"
        }
      ],
      "payable": false,
      "stateMutability": "view",
      "type": "function"
    },
    {
      "constant": true,
      "inputs": [],
      "name": "proxy",
      "outputs": [
        {
          "internalType": "contract IPROX",
          "name": "",
          "type": "address"
        }
      ],
      "payable": false,
      "stateMutability": "view",
      "type": "function"
    },
    {
      "constant": false,
      "inputs": [
        {
          "internalType": "address",
          "name": "newOwner",
          "type": "address"
        }
      ],
      "name": "transferOwnership",
      "outputs": [],
      "payable": false,
      "stateMutability": "nonpayable",
      "type": "function"
    },
    {
      "constant": true,
      "inputs": [],
      "name": "baseRateFee",
      "outputs": [
        {
          "internalType": "uint256",
          "name": "",
          "type": "uint256"
        }
      ],
      "payable": false,
      "stateMutability": "view",
      "type": "function"
    },
    {
      "anonymous": false,
      "inputs": [
        {
          "indexed": true,
          "internalType": "address",
          "name": "previousOwner",
          "type": "address"
        },
        {
          "indexed": true,
          "internalType": "address",
          "name": "newOwner",
          "type": "address"
        }
      ],
      "name": "OwnershipTransferred",
      "type": "event"
    },
    {
      "constant": false,
      "inputs": [
        {
          "internalType": "address",
          "name": "proxyAddress",
          "type": "address"
        }
      ],
      "name": "initialize",
      "outputs": [
        {
          "internalType": "bool",
          "name": "success",
          "type": "bool"
        }
      ],
      "payable": false,
      "stateMutability": "nonpayable",
      "type": "function"
    },
    {
      "constant": true,
      "inputs": [],
      "name": "viewNormRateReward",
      "outputs": [
        {
          "internalType": "uint256",
          "name": "",
          "type": "uint256"
        }
      ],
      "payable": false,
      "stateMutability": "view",
      "type": "function"
    },
    {
      "constant": true,
      "inputs": [],
      "name": "viewNormRateFee",
      "outputs": [
        {
          "internalType": "uint256",
          "name": "",
          "type": "uint256"
        }
      ],
      "payable": false,
      "stateMutability": "view",
      "type": "function"
    }
  ],
  "bytecode": "0x6080604052336000806101000a81548173ffffffffffffffffffffffffffffffffffffffff021916908373ffffffffffffffffffffffffffffffffffffffff1602179055506000809054906101000a900473ffffffffffffffffffffffffffffffffffffffff1673ffffffffffffffffffffffffffffffffffffffff16600073ffffffffffffffffffffffffffffffffffffffff167f8be0079c531659141344cd1fd0a4f28419497f9722a3daafe3b4186f6b6457e060405160405180910390a3610b54806100cf6000396000f3fe608060405234801561001057600080fd5b50600436106100a95760003560e01c80638da5cb5b116100715780638da5cb5b146101345780638f32d59b1461017e578063c4d66de8146101a0578063ec556889146101fc578063f2fde38b14610246578063feaae4f21461028a576100a9565b8063158ef93e146100ae57806316d4a353146100d05780634357e738146100ee5780635840f0c81461010c578063715018a61461012a575b600080fd5b6100b66102a8565b604051808215151515815260200191505060405180910390f35b6100d86102bb565b6040518082815260200191505060405180910390f35b6100f66103ac565b6040518082815260200191505060405180910390f35b61011461049d565b6040518082815260200191505060405180910390f35b6101326104a3565b005b61013c6105dc565b604051808273ffffffffffffffffffffffffffffffffffffffff1673ffffffffffffffffffffffffffffffffffffffff16815260200191505060405180910390f35b610186610605565b604051808215151515815260200191505060405180910390f35b6101e2600480360360208110156101b657600080fd5b81019080803573ffffffffffffffffffffffffffffffffffffffff16906020019092919050505061065c565b604051808215151515815260200191505060405180910390f35b6102046107b4565b604051808273ffffffffffffffffffffffffffffffffffffffff1673ffffffffffffffffffffffffffffffffffffffff16815260200191505060405180910390f35b6102886004803603602081101561025c57600080fd5b81019080803573ffffffffffffffffffffffffffffffffffffffff1690602001909291905050506107da565b005b610292610860565b6040518082815260200191505060405180910390f35b600160149054906101000a900460ff1681565b600080600160009054906101000a900473ffffffffffffffffffffffffffffffffffffffff1673ffffffffffffffffffffffffffffffffffffffff166348cd4cb16040518163ffffffff1660e01b815260040160206040518083038186803b15801561032657600080fd5b505afa15801561033a573d6000803e3d6000fd5b505050506040513d602081101561035057600080fd5b810190808051906020019092919050505090506000439050600061037d838361086690919063ffffffff16565b905060006103a082670de0b6b3a76400006002546108ef9092919063ffffffff16565b90508094505050505090565b600080600160009054906101000a900473ffffffffffffffffffffffffffffffffffffffff1673ffffffffffffffffffffffffffffffffffffffff166348cd4cb16040518163ffffffff1660e01b815260040160206040518083038186803b15801561041757600080fd5b505afa15801561042b573d6000803e3d6000fd5b505050506040513d602081101561044157600080fd5b810190808051906020019092919050505090506000439050600061046e838361086690919063ffffffff16565b9050600061049182670de0b6b3a76400006003546108ef9092919063ffffffff16565b90508094505050505090565b60025481565b6104ab610605565b61051d576040517f08c379a00000000000000000000000000000000000000000000000000000000081526004018080602001828103825260208152602001807f4f776e61626c653a2063616c6c6572206973206e6f7420746865206f776e657281525060200191505060405180910390fd5b600073ffffffffffffffffffffffffffffffffffffffff166000809054906101000a900473ffffffffffffffffffffffffffffffffffffffff1673ffffffffffffffffffffffffffffffffffffffff167f8be0079c531659141344cd1fd0a4f28419497f9722a3daafe3b4186f6b6457e060405160405180910390a360008060006101000a81548173ffffffffffffffffffffffffffffffffffffffff021916908373ffffffffffffffffffffffffffffffffffffffff160217905550565b60008060009054906101000a900473ffffffffffffffffffffffffffffffffffffffff16905090565b60008060009054906101000a900473ffffffffffffffffffffffffffffffffffffffff1673ffffffffffffffffffffffffffffffffffffffff163373ffffffffffffffffffffffffffffffffffffffff1614905090565b6000610666610605565b6106d8576040517f08c379a00000000000000000000000000000000000000000000000000000000081526004018080602001828103825260208152602001807f4f776e61626c653a2063616c6c6572206973206e6f7420746865206f776e657281525060200191505060405180910390fd5b60001515600160149054906101000a900460ff161515146106f857600080fd5b600073ffffffffffffffffffffffffffffffffffffffff168273ffffffffffffffffffffffffffffffffffffffff16141561073257600080fd5b60018060146101000a81548160ff02191690831515021790555081600160006101000a81548173ffffffffffffffffffffffffffffffffffffffff021916908373ffffffffffffffffffffffffffffffffffffffff160217905550670de0b6b5315aa510600281905550670de0b6b5b361d88060038190555060019050919050565b600160009054906101000a900473ffffffffffffffffffffffffffffffffffffffff1681565b6107e2610605565b610854576040517f08c379a00000000000000000000000000000000000000000000000000000000081526004018080602001828103825260208152602001807f4f776e61626c653a2063616c6c6572206973206e6f7420746865206f776e657281525060200191505060405180910390fd5b61085d816109b5565b50565b60035481565b6000828211156108de576040517f08c379a000000000000000000000000000000000000000000000000000000000815260040180806020018281038252601e8152602001807f536166654d6174683a207375627472616374696f6e206f766572666c6f77000081525060200191505060405180910390fd5b600082840390508091505092915050565b6000836000811461099557600284066000811461090e57859250610912565b8392505b50600283046002850494505b841561098f57858602868782041461093557600080fd5b8181018181101561094557600080fd5b8581049750600287061561098257878502858982041415891515161561096a57600080fd5b8381018181101561097a57600080fd5b878104965050505b505060028504945061091e565b506109ad565b83600081146109a757600092506109ab565b8392505b505b509392505050565b600073ffffffffffffffffffffffffffffffffffffffff168173ffffffffffffffffffffffffffffffffffffffff161415610a3b576040517f08c379a0000000000000000000000000000000000000000000000000000000008152600401808060200182810382526026815260200180610afa6026913960400191505060405180910390fd5b8073ffffffffffffffffffffffffffffffffffffffff166000809054906101000a900473ffffffffffffffffffffffffffffffffffffffff1673ffffffffffffffffffffffffffffffffffffffff167f8be0079c531659141344cd1fd0a4f28419497f9722a3daafe3b4186f6b6457e060405160405180910390a3806000806101000a81548173ffffffffffffffffffffffffffffffffffffffff021916908373ffffffffffffffffffffffffffffffffffffffff1602179055505056fe4f776e61626c653a206e6577206f776e657220697320746865207a65726f2061646472657373a265627a7a72315820989c7d4fe459b3c4c6c0255759704e5b3a95c5ba9f3725f465e6982ccb36ce4664736f6c634300050b0032",
  "source": "pragma solidity 0.5.11;\n\nimport \"@openzeppelin/contracts/ownership/Ownable.sol\";\nimport \"@openzeppelin/contracts/math/SafeMath.sol\";\nimport \"@openzeppelin/contracts/token/ERC20/IERC20.sol\";\n\nimport \"./ICOL.sol\"; \nimport \"./IPROXY.sol\";\n\n/**\n *   Tax contract for the linked stablecoin.\n *   Contains the stability tax data.\n */\ncontract LinkedTAX is Ownable {\n    using SafeMath for uint256;\n    \n    //Proxy address for system contracts\n    IPROX public proxy;\n    bool public initialized;\n    //Variables for the normalisation calculation\n\tuint256 public baseRateReward;\n\tuint256 public baseRateFee;\n\t\n\t\n    /**\n     * @dev Set proxy address\n     */\n    function initialize(address proxyAddress) onlyOwner external returns (bool success) {\n            require (initialized == false);\n            require (proxyAddress != address(0));\n            initialized = true;\n            proxy = IPROX(proxyAddress);\n            baseRateReward = 1000000006609610000;             //initial 1.00000000660961 * 10^18 ~= 1.5% per year \n            baseRateFee = 1000000008791120000;             //initial 1.00000000879112 * 10^18 ~= 2% per year\n            return true;\n    }\n    \n    /**\n\t * @dev Update the normalisation rate for the stability fee decuction.\n     */\n    function viewNormRateReward() external view returns (uint256) {\n            uint256 startBlockNum = proxy.startBlock();\n\t        uint256 newBlockNum = block.number;\n\t        uint256 blockDiff = newBlockNum.sub(startBlockNum);\n            uint256 tempnormRate = baseRateReward.rpow(blockDiff, 10**18);            \n            return tempnormRate;\n    }\n    \n    function viewNormRateFee() external view returns (uint256) {\n            uint256 startBlockNum = proxy.startBlock();\n\t        uint256 newBlockNum = block.number;\n\t        uint256 blockDiff = newBlockNum.sub(startBlockNum);\n            uint256 tempnormRate = baseRateFee.rpow(blockDiff, 10**18);            \n            return tempnormRate;\n    }\n}",
  "sourcePath": "/Users/kevinfoesenek/Desktop/Linked_FC/contracts/LinkedTAX.sol",
  "compiler": {
    "name": "solc",
    "version": "0.5.11+commit.c082d0b4.Emscripten.clang"
  },
  "schemaVersion": "3.0.21",
  "updatedAt": "2020-02-07T14:03:05.251Z",
  "networkType": "ethereum",
  "devdoc": {
    "methods": {
      "initialize(address)": {
        "details": "Set proxy address"
      },
      "isOwner()": {
        "details": "Returns true if the caller is the current owner."
      },
      "owner()": {
        "details": "Returns the address of the current owner."
      },
      "renounceOwnership()": {
        "details": "Leaves the contract without owner. It will not be possible to call `onlyOwner` functions anymore. Can only be called by the current owner.     * > Note: Renouncing ownership will leave the contract without an owner, thereby removing any functionality that is only available to the owner."
      },
      "transferOwnership(address)": {
        "details": "Transfers ownership of the contract to a new account (`newOwner`). Can only be called by the current owner."
      },
      "viewNormRateReward()": {
        "details": "Update the normalisation rate for the stability fee decuction."
      }
    }
  },
  "userdoc": {
    "methods": {},
    "notice": "Tax contract for the linked stablecoin.  Contains the stability tax data."
  }
}