{
  "contractName": "LinkedCOL",
  "abi": [
    {
      "constant": true,
      "inputs": [],
      "name": "initialized",
      "outputs": [
        {
          "internalType": "bool",
          "name": "",
          "type": "bool"
        }
      ],
      "payable": false,
      "stateMutability": "view",
      "type": "function"
    },
    {
      "constant": true,
      "inputs": [
        {
          "internalType": "address",
          "name": "",
          "type": "address"
        }
      ],
      "name": "index",
      "outputs": [
        {
          "internalType": "uint256",
          "name": "",
          "type": "uint256"
        }
      ],
      "payable": false,
      "stateMutability": "view",
      "type": "function"
    },
    {
      "constant": true,
      "inputs": [
        {
          "internalType": "uint256",
          "name": "",
          "type": "uint256"
        },
        {
          "internalType": "uint256",
          "name": "",
          "type": "uint256"
        }
      ],
      "name": "liqInfo",
      "outputs": [
        {
          "internalType": "uint256",
          "name": "id",
          "type": "uint256"
        },
        {
          "internalType": "address",
          "name": "account",
          "type": "address"
        }
      ],
      "payable": false,
      "stateMutability": "view",
      "type": "function"
    },
    {
      "constant": true,
      "inputs": [],
      "name": "tldata",
      "outputs": [
        {
          "internalType": "uint256",
          "name": "_totalCPs",
          "type": "uint256"
        },
        {
          "internalType": "uint256",
          "name": "_supplyCPETH",
          "type": "uint256"
        },
        {
          "internalType": "uint256",
          "name": "_supplyCPToken",
          "type": "uint256"
        }
      ],
      "payable": false,
      "stateMutability": "view",
      "type": "function"
    },
    {
      "constant": true,
      "inputs": [],
      "name": "remFund",
      "outputs": [
        {
          "internalType": "uint256",
          "name": "",
          "type": "uint256"
        }
      ],
      "payable": false,
      "stateMutability": "view",
      "type": "function"
    },
    {
      "constant": false,
      "inputs": [],
      "name": "renounceOwnership",
      "outputs": [],
      "payable": false,
      "stateMutability": "nonpayable",
      "type": "function"
    },
    {
      "constant": true,
      "inputs": [],
      "name": "liqPer",
      "outputs": [
        {
          "internalType": "uint256",
          "name": "",
          "type": "uint256"
        }
      ],
      "payable": false,
      "stateMutability": "view",
      "type": "function"
    },
    {
      "constant": true,
      "inputs": [
        {
          "internalType": "address",
          "name": "",
          "type": "address"
        },
        {
          "internalType": "uint256",
          "name": "",
          "type": "uint256"
        }
      ],
      "name": "cPosition",
      "outputs": [
        {
          "internalType": "uint256",
          "name": "amountETH",
          "type": "uint256"
        },
        {
          "internalType": "uint256",
          "name": "amountToken",
          "type": "uint256"
        },
        {
          "internalType": "uint256",
          "name": "liquidation",
          "type": "uint256"
        },
        {
          "internalType": "uint256",
          "name": "liqrange",
          "type": "uint256"
        },
        {
          "internalType": "uint256",
          "name": "liqid",
          "type": "uint256"
        }
      ],
      "payable": false,
      "stateMutability": "view",
      "type": "function"
    },
    {
      "constant": true,
      "inputs": [],
      "name": "owner",
      "outputs": [
        {
          "internalType": "address",
          "name": "",
          "type": "address"
        }
      ],
      "payable": false,
      "stateMutability": "view",
      "type": "function"
    },
    {
      "constant": true,
      "inputs": [],
      "name": "isOwner",
      "outputs": [
        {
          "internalType": "bool",
          "name": "",
          "type": "bool"
        }
      ],
      "payable": false,
      "stateMutability": "view",
      "type": "function"
    },
    {
      "constant": true,
      "inputs": [],
      "name": "tax",
      "outputs": [
        {
          "internalType": "contract ITAX",
          "name": "",
          "type": "address"
        }
      ],
      "payable": false,
      "stateMutability": "view",
      "type": "function"
    },
    {
      "constant": true,
      "inputs": [
        {
          "internalType": "uint256",
          "name": "",
          "type": "uint256"
        }
      ],
      "name": "liqRange",
      "outputs": [
        {
          "internalType": "uint256",
          "name": "",
          "type": "uint256"
        }
      ],
      "payable": false,
      "stateMutability": "view",
      "type": "function"
    },
    {
      "constant": true,
      "inputs": [],
      "name": "minCol",
      "outputs": [
        {
          "internalType": "uint256",
          "name": "",
          "type": "uint256"
        }
      ],
      "payable": false,
      "stateMutability": "view",
      "type": "function"
    },
    {
      "constant": true,
      "inputs": [],
      "name": "proxy",
      "outputs": [
        {
          "internalType": "contract IPROX",
          "name": "",
          "type": "address"
        }
      ],
      "payable": false,
      "stateMutability": "view",
      "type": "function"
    },
    {
      "constant": false,
      "inputs": [
        {
          "internalType": "address",
          "name": "newOwner",
          "type": "address"
        }
      ],
      "name": "transferOwnership",
      "outputs": [],
      "payable": false,
      "stateMutability": "nonpayable",
      "type": "function"
    },
    {
      "payable": true,
      "stateMutability": "payable",
      "type": "fallback"
    },
    {
      "anonymous": false,
      "inputs": [
        {
          "indexed": false,
          "internalType": "address",
          "name": "account",
          "type": "address"
        },
        {
          "indexed": false,
          "internalType": "uint256",
          "name": "id",
          "type": "uint256"
        }
      ],
      "name": "OpenCP",
      "type": "event"
    },
    {
      "anonymous": false,
      "inputs": [
        {
          "indexed": false,
          "internalType": "address",
          "name": "account",
          "type": "address"
        },
        {
          "indexed": false,
          "internalType": "uint256",
          "name": "id",
          "type": "uint256"
        }
      ],
      "name": "CloseCP",
      "type": "event"
    },
    {
      "anonymous": false,
      "inputs": [
        {
          "indexed": false,
          "internalType": "address",
          "name": "sender",
          "type": "address"
        },
        {
          "indexed": false,
          "internalType": "address",
          "name": "receiver",
          "type": "address"
        },
        {
          "indexed": false,
          "internalType": "uint256",
          "name": "id",
          "type": "uint256"
        }
      ],
      "name": "TransferCP",
      "type": "event"
    },
    {
      "anonymous": false,
      "inputs": [
        {
          "indexed": true,
          "internalType": "address",
          "name": "previousOwner",
          "type": "address"
        },
        {
          "indexed": true,
          "internalType": "address",
          "name": "newOwner",
          "type": "address"
        }
      ],
      "name": "OwnershipTransferred",
      "type": "event"
    },
    {
      "constant": false,
      "inputs": [
        {
          "internalType": "address",
          "name": "proxyAddress",
          "type": "address"
        }
      ],
      "name": "initialize",
      "outputs": [
        {
          "internalType": "bool",
          "name": "success",
          "type": "bool"
        }
      ],
      "payable": false,
      "stateMutability": "nonpayable",
      "type": "function"
    },
    {
      "constant": true,
      "inputs": [
        {
          "internalType": "address",
          "name": "account",
          "type": "address"
        },
        {
          "internalType": "uint256",
          "name": "id",
          "type": "uint256"
        }
      ],
      "name": "individualCPdata",
      "outputs": [
        {
          "internalType": "uint256[2]",
          "name": "",
          "type": "uint256[2]"
        }
      ],
      "payable": false,
      "stateMutability": "view",
      "type": "function"
    },
    {
      "constant": true,
      "inputs": [],
      "name": "dataTotalCP",
      "outputs": [
        {
          "internalType": "uint256[3]",
          "name": "",
          "type": "uint256[3]"
        }
      ],
      "payable": false,
      "stateMutability": "view",
      "type": "function"
    },
    {
      "constant": false,
      "inputs": [
        {
          "internalType": "uint256",
          "name": "amount",
          "type": "uint256"
        }
      ],
      "name": "openCP",
      "outputs": [
        {
          "internalType": "bool",
          "name": "success",
          "type": "bool"
        }
      ],
      "payable": true,
      "stateMutability": "payable",
      "type": "function"
    },
    {
      "constant": false,
      "inputs": [
        {
          "internalType": "address",
          "name": "recipient",
          "type": "address"
        },
        {
          "internalType": "uint256",
          "name": "id",
          "type": "uint256"
        }
      ],
      "name": "transfer",
      "outputs": [
        {
          "internalType": "bool",
          "name": "",
          "type": "bool"
        }
      ],
      "payable": false,
      "stateMutability": "nonpayable",
      "type": "function"
    },
    {
      "constant": false,
      "inputs": [
        {
          "internalType": "uint256",
          "name": "id",
          "type": "uint256"
        }
      ],
      "name": "depositETHCP",
      "outputs": [
        {
          "internalType": "bool",
          "name": "success",
          "type": "bool"
        }
      ],
      "payable": true,
      "stateMutability": "payable",
      "type": "function"
    },
    {
      "constant": false,
      "inputs": [
        {
          "internalType": "uint256",
          "name": "amount",
          "type": "uint256"
        },
        {
          "internalType": "uint256",
          "name": "id",
          "type": "uint256"
        }
      ],
      "name": "withdrawETHCP",
      "outputs": [
        {
          "internalType": "bool",
          "name": "success",
          "type": "bool"
        }
      ],
      "payable": true,
      "stateMutability": "payable",
      "type": "function"
    },
    {
      "constant": false,
      "inputs": [
        {
          "internalType": "uint256",
          "name": "amount",
          "type": "uint256"
        },
        {
          "internalType": "uint256",
          "name": "id",
          "type": "uint256"
        }
      ],
      "name": "depositTokenCP",
      "outputs": [
        {
          "internalType": "bool",
          "name": "success",
          "type": "bool"
        }
      ],
      "payable": true,
      "stateMutability": "payable",
      "type": "function"
    },
    {
      "constant": false,
      "inputs": [
        {
          "internalType": "uint256",
          "name": "amount",
          "type": "uint256"
        },
        {
          "internalType": "uint256",
          "name": "id",
          "type": "uint256"
        }
      ],
      "name": "withdrawTokenCP",
      "outputs": [
        {
          "internalType": "bool",
          "name": "success",
          "type": "bool"
        }
      ],
      "payable": true,
      "stateMutability": "payable",
      "type": "function"
    },
    {
      "constant": false,
      "inputs": [
        {
          "internalType": "address",
          "name": "account",
          "type": "address"
        },
        {
          "internalType": "uint256",
          "name": "id",
          "type": "uint256"
        }
      ],
      "name": "liquidateCP",
      "outputs": [
        {
          "internalType": "bool",
          "name": "success",
          "type": "bool"
        }
      ],
      "payable": true,
      "stateMutability": "payable",
      "type": "function"
    }
  ],
  "bytecode": "0x6080604052336000806101000a81548173ffffffffffffffffffffffffffffffffffffffff021916908373ffffffffffffffffffffffffffffffffffffffff1602179055506000809054906101000a900473ffffffffffffffffffffffffffffffffffffffff1673ffffffffffffffffffffffffffffffffffffffff16600073ffffffffffffffffffffffffffffffffffffffff167f8be0079c531659141344cd1fd0a4f28419497f9722a3daafe3b4186f6b6457e060405160405180910390a3615f0c806100cf6000396000f3fe6080604052600436106101665760003560e01c80637ac6ccb2116100d1578063a9059cbb1161008a578063e42e7c9b11610064578063e42e7c9b14610802578063ec55688914610852578063f2fde38b146108a9578063f6ad4e9c146108fa57610166565b8063a9059cbb146106fb578063c4d66de81461076e578063ca6c868f146107d757610166565b80637ac6ccb2146104fe5780638da5cb5b146105895780638f32d59b146105e057806393983eec1461060f57806399c8d55614610655578063a0271b83146106ac57610166565b8063568fc31411610123578063568fc3141461039e57806364babf3e146103c95780636503cf0d1461041c578063715018a61461046c57806374534f59146104835780637a338cb7146104ae57610166565b806303d025661461016857806311000492146101ff578063158ef93e1461024557806318def8ef1461027457806334514900146102d95780634717890714610365575b005b34801561017457600080fd5b506101c16004803603604081101561018b57600080fd5b81019080803573ffffffffffffffffffffffffffffffffffffffff16906020019092919080359060200190929190505050610960565b6040518082600260200280838360005b838110156101ec5780820151818401526020810190506101d1565b5050505090500191505060405180910390f35b61022b6004803603602081101561021557600080fd5b8101908080359060200190929190505050610bbc565b604051808215151515815260200191505060405180910390f35b34801561025157600080fd5b5061025a610e62565b604051808215151515815260200191505060405180910390f35b34801561028057600080fd5b506102c36004803603602081101561029757600080fd5b81019080803573ffffffffffffffffffffffffffffffffffffffff169060200190929190505050610e75565b6040518082815260200191505060405180910390f35b3480156102e557600080fd5b5061031c600480360360408110156102fc57600080fd5b810190808035906020019092919080359060200190929190505050610e8d565b604051808381526020018273ffffffffffffffffffffffffffffffffffffffff1673ffffffffffffffffffffffffffffffffffffffff1681526020019250505060405180910390f35b34801561037157600080fd5b5061037a610ede565b60405180848152602001838152602001828152602001935050505060405180910390f35b3480156103aa57600080fd5b506103b3610ef6565b6040518082815260200191505060405180910390f35b3480156103d557600080fd5b506103de610efc565b6040518082600360200280838360005b838110156104095780820151818401526020810190506103ee565b5050505090500191505060405180910390f35b6104526004803603604081101561043257600080fd5b8101908080359060200190929190803590602001909291905050506110d5565b604051808215151515815260200191505060405180910390f35b34801561047857600080fd5b506104816117fa565b005b34801561048f57600080fd5b50610498611933565b6040518082815260200191505060405180910390f35b6104e4600480360360408110156104c457600080fd5b810190808035906020019092919080359060200190929190505050611939565b604051808215151515815260200191505060405180910390f35b34801561050a57600080fd5b506105576004803603604081101561052157600080fd5b81019080803573ffffffffffffffffffffffffffffffffffffffff169060200190929190803590602001909291905050506120d2565b604051808681526020018581526020018481526020018381526020018281526020019550505050505060405180910390f35b34801561059557600080fd5b5061059e612115565b604051808273ffffffffffffffffffffffffffffffffffffffff1673ffffffffffffffffffffffffffffffffffffffff16815260200191505060405180910390f35b3480156105ec57600080fd5b506105f561213e565b604051808215151515815260200191505060405180910390f35b61063b6004803603602081101561062557600080fd5b8101908080359060200190929190505050612195565b604051808215151515815260200191505060405180910390f35b34801561066157600080fd5b5061066a6126ee565b604051808273ffffffffffffffffffffffffffffffffffffffff1673ffffffffffffffffffffffffffffffffffffffff16815260200191505060405180910390f35b3480156106b857600080fd5b506106e5600480360360208110156106cf57600080fd5b8101908080359060200190929190505050612714565b6040518082815260200191505060405180910390f35b34801561070757600080fd5b506107546004803603604081101561071e57600080fd5b81019080803573ffffffffffffffffffffffffffffffffffffffff1690602001909291908035906020019092919050505061272c565b604051808215151515815260200191505060405180910390f35b34801561077a57600080fd5b506107bd6004803603602081101561079157600080fd5b81019080803573ffffffffffffffffffffffffffffffffffffffff1690602001909291905050506128f8565b604051808215151515815260200191505060405180910390f35b3480156107e357600080fd5b506107ec612b45565b6040518082815260200191505060405180910390f35b6108386004803603604081101561081857600080fd5b810190808035906020019092919080359060200190929190505050612b4b565b604051808215151515815260200191505060405180910390f35b34801561085e57600080fd5b506108676134ca565b604051808273ffffffffffffffffffffffffffffffffffffffff1673ffffffffffffffffffffffffffffffffffffffff16815260200191505060405180910390f35b3480156108b557600080fd5b506108f8600480360360208110156108cc57600080fd5b81019080803573ffffffffffffffffffffffffffffffffffffffff1690602001909291905050506134f0565b005b6109466004803603604081101561091057600080fd5b81019080803573ffffffffffffffffffffffffffffffffffffffff16906020019092919080359060200190929190505050613576565b604051808215151515815260200191505060405180910390f35b610968615d45565b610970615d45565b6000600660009054906101000a900473ffffffffffffffffffffffffffffffffffffffff1673ffffffffffffffffffffffffffffffffffffffff166316d4a3536040518163ffffffff1660e01b815260040160206040518083038186803b1580156109da57600080fd5b505afa1580156109ee573d6000803e3d6000fd5b505050506040513d6020811015610a0457600080fd5b81019080805190602001909291905050509050600260008673ffffffffffffffffffffffffffffffffffffffff1673ffffffffffffffffffffffffffffffffffffffff16815260200190815260200160002060008581526020019081526020016000206000015482600060028110610a7857fe5b602002018181525050610b9b81610b8d600560009054906101000a900473ffffffffffffffffffffffffffffffffffffffff1673ffffffffffffffffffffffffffffffffffffffff16635001f3b56040518163ffffffff1660e01b815260040160206040518083038186803b158015610af057600080fd5b505afa158015610b04573d6000803e3d6000fd5b505050506040513d6020811015610b1a57600080fd5b8101908080519060200190929190505050600260008a73ffffffffffffffffffffffffffffffffffffffff1673ffffffffffffffffffffffffffffffffffffffff1681526020019081526020016000206000898152602001908152602001600020600101546143d690919063ffffffff16565b61445c90919063ffffffff16565b82600160028110610ba857fe5b602002018181525050819250505092915050565b6000600560009054906101000a900473ffffffffffffffffffffffffffffffffffffffff1673ffffffffffffffffffffffffffffffffffffffff1663a0b9f0e16040518163ffffffff1660e01b815260040160206040518083038186803b158015610c2657600080fd5b505afa158015610c3a573d6000803e3d6000fd5b505050506040513d6020811015610c5057600080fd5b810190808051906020019092919050505015610cd4576040517f08c379a00000000000000000000000000000000000000000000000000000000081526004018080602001828103825260108152602001807f5061757361626c653a207061757365640000000000000000000000000000000081525060200191505060405180910390fd5b610cdc615d67565b610ce73360006144eb565b90506000610dc3600560009054906101000a900473ffffffffffffffffffffffffffffffffffffffff1673ffffffffffffffffffffffffffffffffffffffff16635001f3b56040518163ffffffff1660e01b815260040160206040518083038186803b158015610d5657600080fd5b505afa158015610d6a573d6000803e3d6000fd5b505050506040513d6020811015610d8057600080fd5b8101908080519060200190929190505050610db584600160078110610da157fe5b6020020151876143d690919063ffffffff16565b61445c90919063ffffffff16565b90506000610e016064610df3600a54610de5348761445c90919063ffffffff16565b6143d690919063ffffffff16565b61445c90919063ffffffff16565b90506000610e1a6103e88361445c90919063ffffffff16565b9050610e378185600060078110610e2d57fe5b60200201516147a4565b610e5584600060078110610e4757fe5b60200201518785858561489e565b6001945050505050919050565b600660149054906101000a900460ff1681565b60016020528060005260406000206000915090505481565b6004602052816000526040600020602052806000526040600020600091509150508060000154908060010160009054906101000a900473ffffffffffffffffffffffffffffffffffffffff16905082565b60078060000154908060010154908060020154905083565b600c5481565b610f04615d89565b610f0c615d89565b6000600660009054906101000a900473ffffffffffffffffffffffffffffffffffffffff1673ffffffffffffffffffffffffffffffffffffffff166316d4a3536040518163ffffffff1660e01b815260040160206040518083038186803b158015610f7657600080fd5b505afa158015610f8a573d6000803e3d6000fd5b505050506040513d6020811015610fa057600080fd5b8101908080519060200190929190505050905060076000015482600060038110610fc657fe5b60200201818152505060076001015482600160038110610fe257fe5b6020020181815250506110b7816110a9600560009054906101000a900473ffffffffffffffffffffffffffffffffffffffff1673ffffffffffffffffffffffffffffffffffffffff16635001f3b56040518163ffffffff1660e01b815260040160206040518083038186803b15801561105a57600080fd5b505afa15801561106e573d6000803e3d6000fd5b505050506040513d602081101561108457600080fd5b81019080805190602001909291905050506007600201546143d690919063ffffffff16565b61445c90919063ffffffff16565b826002600381106110c457fe5b602002018181525050819250505090565b6000600560009054906101000a900473ffffffffffffffffffffffffffffffffffffffff1673ffffffffffffffffffffffffffffffffffffffff1663a0b9f0e16040518163ffffffff1660e01b815260040160206040518083038186803b15801561113f57600080fd5b505afa158015611153573d6000803e3d6000fd5b505050506040513d602081101561116957600080fd5b8101908080519060200190929190505050156111ed576040517f08c379a00000000000000000000000000000000000000000000000000000000081526004018080602001828103825260108152602001807f5061757361626c653a207061757365640000000000000000000000000000000081525060200191505060405180910390fd5b600061125584600260003373ffffffffffffffffffffffffffffffffffffffff1673ffffffffffffffffffffffffffffffffffffffff168152602001908152602001600020600086815260200190815260200160002060000154614f8d90919063ffffffff16565b10156112c9576040517f08c379a00000000000000000000000000000000000000000000000000000000081526004018080602001828103825260158152602001807f6e6f7420656e6f75676820636f6c6c61746572616c000000000000000000000081525060200191505060405180910390fd5b6000600560009054906101000a900473ffffffffffffffffffffffffffffffffffffffff1673ffffffffffffffffffffffffffffffffffffffff16632ee8c2fa6040518163ffffffff1660e01b81526004016101006040518083038186803b15801561133457600080fd5b505afa158015611348573d6000803e3d6000fd5b505050506040513d601f19601f8201168201806040525061010081101561136e57600080fd5b810190809190505060026008811061138257fe5b60200201519050611391615d67565b61139b33856144eb565b905060006113c386836002600781106113b057fe5b6020020151614f8d90919063ffffffff16565b905060006114b0836001600781106113d757fe5b60200201516114a2600560009054906101000a900473ffffffffffffffffffffffffffffffffffffffff1673ffffffffffffffffffffffffffffffffffffffff16635001f3b56040518163ffffffff1660e01b815260040160206040518083038186803b15801561144757600080fd5b505afa15801561145b573d6000803e3d6000fd5b505050506040513d602081101561147157600080fd5b81019080805190602001909291905050508660036007811061148f57fe5b60200201516143d690919063ffffffff16565b61445c90919063ffffffff16565b90506114f0836004600781106114c257fe5b6020020151846005600781106114d457fe5b6020020151856006600781106114e657fe5b6020020151615016565b600082141561151b576115168688838660036007811061150c57fe5b6020020151615222565b611724565b6000611568606461155a600a5461154c878960036007811061153957fe5b602002015161445c90919063ffffffff16565b6143d690919063ffffffff16565b61445c90919063ffffffff16565b905060006115816103e88361445c90919063ffffffff16565b905061158d81896147a4565b81600260003373ffffffffffffffffffffffffffffffffffffffff1673ffffffffffffffffffffffffffffffffffffffff16815260200190815260200160002060008a81526020019081526020016000206002018190555080600260003373ffffffffffffffffffffffffffffffffffffffff1673ffffffffffffffffffffffffffffffffffffffff16815260200190815260200160002060008a8152602001908152602001600020600301819055506003600082815260200190815260200160002054600260003373ffffffffffffffffffffffffffffffffffffffff1673ffffffffffffffffffffffffffffffffffffffff16815260200190815260200160002060008a81526020019081526020016000206004018190555083600260003373ffffffffffffffffffffffffffffffffffffffff1673ffffffffffffffffffffffffffffffffffffffff16815260200190815260200160002060008a81526020019081526020016000206000018190555061171889600760010154614f8d90919063ffffffff16565b60076001018190555050505b8373ffffffffffffffffffffffffffffffffffffffff1663a9059cbb33896040518363ffffffff1660e01b8152600401808373ffffffffffffffffffffffffffffffffffffffff1673ffffffffffffffffffffffffffffffffffffffff16815260200182815260200192505050602060405180830381600087803b1580156117ab57600080fd5b505af11580156117bf573d6000803e3d6000fd5b505050506040513d60208110156117d557600080fd5b81019080805190602001909291905050506117ec57fe5b600194505050505092915050565b61180261213e565b611874576040517f08c379a00000000000000000000000000000000000000000000000000000000081526004018080602001828103825260208152602001807f4f776e61626c653a2063616c6c6572206973206e6f7420746865206f776e657281525060200191505060405180910390fd5b600073ffffffffffffffffffffffffffffffffffffffff166000809054906101000a900473ffffffffffffffffffffffffffffffffffffffff1673ffffffffffffffffffffffffffffffffffffffff167f8be0079c531659141344cd1fd0a4f28419497f9722a3daafe3b4186f6b6457e060405160405180910390a360008060006101000a81548173ffffffffffffffffffffffffffffffffffffffff021916908373ffffffffffffffffffffffffffffffffffffffff160217905550565b600b5481565b6000600560009054906101000a900473ffffffffffffffffffffffffffffffffffffffff1673ffffffffffffffffffffffffffffffffffffffff1663a0b9f0e16040518163ffffffff1660e01b815260040160206040518083038186803b1580156119a357600080fd5b505afa1580156119b7573d6000803e3d6000fd5b505050506040513d60208110156119cd57600080fd5b810190808051906020019092919050505015611a51576040517f08c379a00000000000000000000000000000000000000000000000000000000081526004018080602001828103825260108152602001807f5061757361626c653a207061757365640000000000000000000000000000000081525060200191505060405180910390fd5b6000600560009054906101000a900473ffffffffffffffffffffffffffffffffffffffff1673ffffffffffffffffffffffffffffffffffffffff16632ee8c2fa6040518163ffffffff1660e01b81526004016101006040518083038186803b158015611abc57600080fd5b505afa158015611ad0573d6000803e3d6000fd5b505050506040513d601f19601f82011682018060405250610100811015611af657600080fd5b8101908091905050600260088110611b0a57fe5b60200201519050611b19615d67565b611b2333856144eb565b90506000611bff600560009054906101000a900473ffffffffffffffffffffffffffffffffffffffff1673ffffffffffffffffffffffffffffffffffffffff16635001f3b56040518163ffffffff1660e01b815260040160206040518083038186803b158015611b9257600080fd5b505afa158015611ba6573d6000803e3d6000fd5b505050506040513d6020811015611bbc57600080fd5b8101908080519060200190929190505050611bf184600160078110611bdd57fe5b6020020151896143d690919063ffffffff16565b61445c90919063ffffffff16565b90506000611c278284600360078110611c1457fe5b602002015161573f90919063ffffffff16565b90506000611c766064611c68600a54611c5a88600260078110611c4657fe5b60200201518761445c90919063ffffffff16565b6143d690919063ffffffff16565b61445c90919063ffffffff16565b90506000611c8f6103e88361445c90919063ffffffff16565b905060008311611d07576040517f08c379a00000000000000000000000000000000000000000000000000000000081526004018080602001828103825260118152602001807f6e6f7420656e6f75676820746f6b656e7300000000000000000000000000000081525060200191505060405180910390fd5b81600560009054906101000a900473ffffffffffffffffffffffffffffffffffffffff1673ffffffffffffffffffffffffffffffffffffffff16632c4e722e6040518163ffffffff1660e01b815260040160206040518083038186803b158015611d7057600080fd5b505afa158015611d84573d6000803e3d6000fd5b505050506040513d6020811015611d9a57600080fd5b810190808051906020019092919050505011611e1e576040517f08c379a00000000000000000000000000000000000000000000000000000000081526004018080602001828103825260158152602001807f6e6f7420656e6f75676820636f6c6c61746572616c000000000000000000000081525060200191505060405180910390fd5b611e368960076002015461573f90919063ffffffff16565b600760020181905550611e7d85600460078110611e4f57fe5b602002015186600560078110611e6157fe5b602002015187600660078110611e7357fe5b6020020151615016565b611e8781896147a4565b81600260003373ffffffffffffffffffffffffffffffffffffffff1673ffffffffffffffffffffffffffffffffffffffff16815260200190815260200160002060008a81526020019081526020016000206002018190555082600260003373ffffffffffffffffffffffffffffffffffffffff1673ffffffffffffffffffffffffffffffffffffffff16815260200190815260200160002060008a81526020019081526020016000206001018190555080600260003373ffffffffffffffffffffffffffffffffffffffff1673ffffffffffffffffffffffffffffffffffffffff16815260200190815260200160002060008a8152602001908152602001600020600301819055506003600082815260200190815260200160002054600260003373ffffffffffffffffffffffffffffffffffffffff1673ffffffffffffffffffffffffffffffffffffffff16815260200190815260200160002060008a8152602001908152602001600020600401819055508573ffffffffffffffffffffffffffffffffffffffff166340c10f19338b6040518363ffffffff1660e01b8152600401808373ffffffffffffffffffffffffffffffffffffffff1673ffffffffffffffffffffffffffffffffffffffff16815260200182815260200192505050602060405180830381600087803b15801561208157600080fd5b505af1158015612095573d6000803e3d6000fd5b505050506040513d60208110156120ab57600080fd5b81019080805190602001909291905050506120c257fe5b6001965050505050505092915050565b6002602052816000526040600020602052806000526040600020600091509150508060000154908060010154908060020154908060030154908060040154905085565b60008060009054906101000a900473ffffffffffffffffffffffffffffffffffffffff16905090565b60008060009054906101000a900473ffffffffffffffffffffffffffffffffffffffff1673ffffffffffffffffffffffffffffffffffffffff163373ffffffffffffffffffffffffffffffffffffffff1614905090565b6000600560009054906101000a900473ffffffffffffffffffffffffffffffffffffffff1673ffffffffffffffffffffffffffffffffffffffff1663a0b9f0e16040518163ffffffff1660e01b815260040160206040518083038186803b1580156121ff57600080fd5b505afa158015612213573d6000803e3d6000fd5b505050506040513d602081101561222957600080fd5b8101908080519060200190929190505050156122ad576040517f08c379a00000000000000000000000000000000000000000000000000000000081526004018080602001828103825260108152602001807f5061757361626c653a207061757365640000000000000000000000000000000081525060200191505060405180910390fd5b6000600260003373ffffffffffffffffffffffffffffffffffffffff1673ffffffffffffffffffffffffffffffffffffffff16815260200190815260200160002060008481526020019081526020016000206000015411612359576040517f08c379a0000000000000000000000000000000000000000000000000000000008152600401808060200182810382526021815260200180615e4b6021913960400191505060405180910390fd5b612361615d67565b61236b33846144eb565b90506000600560009054906101000a900473ffffffffffffffffffffffffffffffffffffffff1673ffffffffffffffffffffffffffffffffffffffff16632ee8c2fa6040518163ffffffff1660e01b81526004016101006040518083038186803b1580156123d857600080fd5b505afa1580156123ec573d6000803e3d6000fd5b505050506040513d601f19601f8201168201806040525061010081101561241257600080fd5b810190809190505060026008811061242657fe5b602002015190506000612453348460026007811061244057fe5b602002015161573f90919063ffffffff16565b905060006124a26064612494600a54612486868960036007811061247357fe5b602002015161445c90919063ffffffff16565b6143d690919063ffffffff16565b61445c90919063ffffffff16565b905060006124bb6103e88361445c90919063ffffffff16565b90506124d53460076001015461573f90919063ffffffff16565b60076001018190555061251c856004600781106124ee57fe5b60200201518660056007811061250057fe5b60200201518760066007811061251257fe5b6020020151615016565b61252681886147a4565b81600260003373ffffffffffffffffffffffffffffffffffffffff1673ffffffffffffffffffffffffffffffffffffffff16815260200190815260200160002060008981526020019081526020016000206002018190555082600260003373ffffffffffffffffffffffffffffffffffffffff1673ffffffffffffffffffffffffffffffffffffffff16815260200190815260200160002060008981526020019081526020016000206000018190555080600260003373ffffffffffffffffffffffffffffffffffffffff1673ffffffffffffffffffffffffffffffffffffffff1681526020019081526020016000206000898152602001908152602001600020600301819055506003600082815260200190815260200160002054600260003373ffffffffffffffffffffffffffffffffffffffff1673ffffffffffffffffffffffffffffffffffffffff1681526020019081526020016000206000898152602001908152602001600020600401819055508373ffffffffffffffffffffffffffffffffffffffff166108fc349081150290604051600060405180830381858888f193505050501580156126df573d6000803e3d6000fd5b50600195505050505050919050565b600660009054906101000a900473ffffffffffffffffffffffffffffffffffffffff1681565b60036020528060005260406000206000915090505481565b6000600560009054906101000a900473ffffffffffffffffffffffffffffffffffffffff1673ffffffffffffffffffffffffffffffffffffffff1663a0b9f0e16040518163ffffffff1660e01b815260040160206040518083038186803b15801561279657600080fd5b505afa1580156127aa573d6000803e3d6000fd5b505050506040513d60208110156127c057600080fd5b810190808051906020019092919050505015612844576040517f08c379a00000000000000000000000000000000000000000000000000000000081526004018080602001828103825260108152602001807f5061757361626c653a207061757365640000000000000000000000000000000081525060200191505060405180910390fd5b61284f3384846157c7565b7f204f9e99011ae31c4c782355672297ed6532e9ca30f9c825943e82a205dd15e4338484604051808473ffffffffffffffffffffffffffffffffffffffff1673ffffffffffffffffffffffffffffffffffffffff1681526020018373ffffffffffffffffffffffffffffffffffffffff1673ffffffffffffffffffffffffffffffffffffffff168152602001828152602001935050505060405180910390a16001905092915050565b600061290261213e565b612974576040517f08c379a00000000000000000000000000000000000000000000000000000000081526004018080602001828103825260208152602001807f4f776e61626c653a2063616c6c6572206973206e6f7420746865206f776e657281525060200191505060405180910390fd5b60001515600660149054906101000a900460ff1615151461299457600080fd5b600073ffffffffffffffffffffffffffffffffffffffff168273ffffffffffffffffffffffffffffffffffffffff1614156129ce57600080fd5b6001600660146101000a81548160ff02191690831515021790555081600560006101000a81548173ffffffffffffffffffffffffffffffffffffffff021916908373ffffffffffffffffffffffffffffffffffffffff1602179055506000600560009054906101000a900473ffffffffffffffffffffffffffffffffffffffff1673ffffffffffffffffffffffffffffffffffffffff16632ee8c2fa6040518163ffffffff1660e01b81526004016101006040518083038186803b158015612a9557600080fd5b505afa158015612aa9573d6000803e3d6000fd5b505050506040513d601f19601f82011682018060405250610100811015612acf57600080fd5b8101908091905050600460088110612ae357fe5b6020020151905080600660006101000a81548173ffffffffffffffffffffffffffffffffffffffff021916908373ffffffffffffffffffffffffffffffffffffffff1602179055506096600a81905550606e600b819055506001915050919050565b600a5481565b6000600560009054906101000a900473ffffffffffffffffffffffffffffffffffffffff1673ffffffffffffffffffffffffffffffffffffffff1663a0b9f0e16040518163ffffffff1660e01b815260040160206040518083038186803b158015612bb557600080fd5b505afa158015612bc9573d6000803e3d6000fd5b505050506040513d6020811015612bdf57600080fd5b810190808051906020019092919050505015612c63576040517f08c379a00000000000000000000000000000000000000000000000000000000081526004018080602001828103825260108152602001807f5061757361626c653a207061757365640000000000000000000000000000000081525060200191505060405180910390fd5b6000600560009054906101000a900473ffffffffffffffffffffffffffffffffffffffff1673ffffffffffffffffffffffffffffffffffffffff16632ee8c2fa6040518163ffffffff1660e01b81526004016101006040518083038186803b158015612cce57600080fd5b505afa158015612ce2573d6000803e3d6000fd5b505050506040513d601f19601f82011682018060405250610100811015612d0857600080fd5b8101908091905050600260088110612d1c57fe5b602002015190506000600560009054906101000a900473ffffffffffffffffffffffffffffffffffffffff1673ffffffffffffffffffffffffffffffffffffffff16632ee8c2fa6040518163ffffffff1660e01b81526004016101006040518083038186803b158015612d8e57600080fd5b505afa158015612da2573d6000803e3d6000fd5b505050506040513d601f19601f82011682018060405250610100811015612dc857600080fd5b8101908091905050600060088110612ddc57fe5b60200201519050612deb615d67565b612df533866144eb565b90506000612ed1600560009054906101000a900473ffffffffffffffffffffffffffffffffffffffff1673ffffffffffffffffffffffffffffffffffffffff16635001f3b56040518163ffffffff1660e01b815260040160206040518083038186803b158015612e6457600080fd5b505afa158015612e78573d6000803e3d6000fd5b505050506040513d6020811015612e8e57600080fd5b8101908080519060200190929190505050612ec384600160078110612eaf57fe5b60200201518a6143d690919063ffffffff16565b61445c90919063ffffffff16565b90506000612ef98284600360078110612ee657fe5b6020020151614f8d90919063ffffffff16565b90506000612f486064612f3a600a54612f2c88600260078110612f1857fe5b60200201518761445c90919063ffffffff16565b6143d690919063ffffffff16565b61445c90919063ffffffff16565b90506000612f616103e88361445c90919063ffffffff16565b9050898673ffffffffffffffffffffffffffffffffffffffff166370a08231336040518263ffffffff1660e01b8152600401808273ffffffffffffffffffffffffffffffffffffffff1673ffffffffffffffffffffffffffffffffffffffff16815260200191505060206040518083038186803b158015612fe157600080fd5b505afa158015612ff5573d6000803e3d6000fd5b505050506040513d602081101561300b57600080fd5b8101908080519060200190929190505050101561302757600080fd5b6130ff8560016007811061303757fe5b60200201516130f1600560009054906101000a900473ffffffffffffffffffffffffffffffffffffffff1673ffffffffffffffffffffffffffffffffffffffff16635001f3b56040518163ffffffff1660e01b815260040160206040518083038186803b1580156130a757600080fd5b505afa1580156130bb573d6000803e3d6000fd5b505050506040513d60208110156130d157600080fd5b8101908080519060200190929190505050856143d690919063ffffffff16565b61445c90919063ffffffff16565b600560009054906101000a900473ffffffffffffffffffffffffffffffffffffffff1673ffffffffffffffffffffffffffffffffffffffff16632c4e722e6040518163ffffffff1660e01b815260040160206040518083038186803b15801561316757600080fd5b505afa15801561317b573d6000803e3d6000fd5b505050506040513d602081101561319157600080fd5b810190808051906020019092919050505011613215576040517f08c379a00000000000000000000000000000000000000000000000000000000081526004018080602001828103825260158152602001807f6e6f7420656e6f75676820636f6c6c61746572616c000000000000000000000081525060200191505060405180910390fd5b61322d8a600760020154614f8d90919063ffffffff16565b6007600201819055506132748560046007811061324657fe5b60200201518660056007811061325857fe5b60200201518760066007811061326a57fe5b6020020151615016565b61327e818a6147a4565b81600260003373ffffffffffffffffffffffffffffffffffffffff1673ffffffffffffffffffffffffffffffffffffffff16815260200190815260200160002060008b81526020019081526020016000206002018190555082600260003373ffffffffffffffffffffffffffffffffffffffff1673ffffffffffffffffffffffffffffffffffffffff16815260200190815260200160002060008b81526020019081526020016000206001018190555080600260003373ffffffffffffffffffffffffffffffffffffffff1673ffffffffffffffffffffffffffffffffffffffff16815260200190815260200160002060008b8152602001908152602001600020600301819055506003600082815260200190815260200160002054600260003373ffffffffffffffffffffffffffffffffffffffff1673ffffffffffffffffffffffffffffffffffffffff16815260200190815260200160002060008b8152602001908152602001600020600401819055508673ffffffffffffffffffffffffffffffffffffffff16639dc29fac338c6040518363ffffffff1660e01b8152600401808373ffffffffffffffffffffffffffffffffffffffff1673ffffffffffffffffffffffffffffffffffffffff16815260200182815260200192505050602060405180830381600087803b15801561347857600080fd5b505af115801561348c573d6000803e3d6000fd5b505050506040513d60208110156134a257600080fd5b81019080805190602001909291905050506134b957fe5b600197505050505050505092915050565b600560009054906101000a900473ffffffffffffffffffffffffffffffffffffffff1681565b6134f861213e565b61356a576040517f08c379a00000000000000000000000000000000000000000000000000000000081526004018080602001828103825260208152602001807f4f776e61626c653a2063616c6c6572206973206e6f7420746865206f776e657281525060200191505060405180910390fd5b61357381615c01565b50565b6000600560009054906101000a900473ffffffffffffffffffffffffffffffffffffffff1673ffffffffffffffffffffffffffffffffffffffff1663a0b9f0e16040518163ffffffff1660e01b815260040160206040518083038186803b1580156135e057600080fd5b505afa1580156135f4573d6000803e3d6000fd5b505050506040513d602081101561360a57600080fd5b81019080805190602001909291905050501561368e576040517f08c379a00000000000000000000000000000000000000000000000000000000081526004018080602001828103825260108152602001807f5061757361626c653a207061757365640000000000000000000000000000000081525060200191505060405180910390fd5b6000600560009054906101000a900473ffffffffffffffffffffffffffffffffffffffff1673ffffffffffffffffffffffffffffffffffffffff16632ee8c2fa6040518163ffffffff1660e01b81526004016101006040518083038186803b1580156136f957600080fd5b505afa15801561370d573d6000803e3d6000fd5b505050506040513d601f19601f8201168201806040525061010081101561373357600080fd5b810190809190505060026008811061374757fe5b602002015190506000600560009054906101000a900473ffffffffffffffffffffffffffffffffffffffff1673ffffffffffffffffffffffffffffffffffffffff16632ee8c2fa6040518163ffffffff1660e01b81526004016101006040518083038186803b1580156137b957600080fd5b505afa1580156137cd573d6000803e3d6000fd5b505050506040513d601f19601f820116820180604052506101008110156137f357600080fd5b810190809190505060006008811061380757fe5b60200201519050613816615d67565b61382033866144eb565b9050600061390d8260016007811061383457fe5b60200201516138ff600560009054906101000a900473ffffffffffffffffffffffffffffffffffffffff1673ffffffffffffffffffffffffffffffffffffffff16635001f3b56040518163ffffffff1660e01b815260040160206040518083038186803b1580156138a457600080fd5b505afa1580156138b8573d6000803e3d6000fd5b505050506040513d60208110156138ce57600080fd5b8101908080519060200190929190505050856003600781106138ec57fe5b60200201516143d690919063ffffffff16565b61445c90919063ffffffff16565b9050600560009054906101000a900473ffffffffffffffffffffffffffffffffffffffff1673ffffffffffffffffffffffffffffffffffffffff16632c4e722e6040518163ffffffff1660e01b815260040160206040518083038186803b15801561397757600080fd5b505afa15801561398b573d6000803e3d6000fd5b505050506040513d60208110156139a157600080fd5b8101908080519060200190929190505050613add836001600781106139c257fe5b6020020151613acf600560009054906101000a900473ffffffffffffffffffffffffffffffffffffffff1673ffffffffffffffffffffffffffffffffffffffff16635001f3b56040518163ffffffff1660e01b815260040160206040518083038186803b158015613a3257600080fd5b505afa158015613a46573d6000803e3d6000fd5b505050506040513d6020811015613a5c57600080fd5b8101908080519060200190929190505050600260008d73ffffffffffffffffffffffffffffffffffffffff1673ffffffffffffffffffffffffffffffffffffffff16815260200190815260200160002060008c8152602001908152602001600020600201546143d690919063ffffffff16565b61445c90919063ffffffff16565b1015613b51576040517f08c379a00000000000000000000000000000000000000000000000000000000081526004018080602001828103825260168152602001807f61626f7665206c69717569646174696f6e20726174650000000000000000000081525060200191505060405180910390fd5b613b796064613b6b600b54846143d690919063ffffffff16565b61445c90919063ffffffff16565b613c3f600560009054906101000a900473ffffffffffffffffffffffffffffffffffffffff1673ffffffffffffffffffffffffffffffffffffffff16632c4e722e6040518163ffffffff1660e01b815260040160206040518083038186803b158015613be457600080fd5b505afa158015613bf8573d6000803e3d6000fd5b505050506040513d6020811015613c0e57600080fd5b810190808051906020019092919050505084600260078110613c2c57fe5b60200201516143d690919063ffffffff16565b10614067576000613d226064613d14600b54613d06600560009054906101000a900473ffffffffffffffffffffffffffffffffffffffff1673ffffffffffffffffffffffffffffffffffffffff16632c4e722e6040518163ffffffff1660e01b815260040160206040518083038186803b158015613cbc57600080fd5b505afa158015613cd0573d6000803e3d6000fd5b505050506040513d6020811015613ce657600080fd5b81019080805190602001909291905050508761445c90919063ffffffff16565b6143d690919063ffffffff16565b61445c90919063ffffffff16565b90506000613d4a8285600260078110613d3757fe5b6020020151614f8d90919063ffffffff16565b9050828573ffffffffffffffffffffffffffffffffffffffff166370a08231336040518263ffffffff1660e01b8152600401808273ffffffffffffffffffffffffffffffffffffffff1673ffffffffffffffffffffffffffffffffffffffff16815260200191505060206040518083038186803b158015613dca57600080fd5b505afa158015613dde573d6000803e3d6000fd5b505050506040513d6020811015613df457600080fd5b81019080805190602001909291905050501015613e5c576040517f08c379a0000000000000000000000000000000000000000000000000000000008152600401808060200182810382526026815260200180615eb26026913960400191505060405180910390fd5b613e9a84600460078110613e6c57fe5b602002015185600560078110613e7e57fe5b602002015186600660078110613e9057fe5b6020020151615016565b613ec88885600260078110613eab57fe5b60200201518587600360078110613ebe57fe5b6020020151615222565b8573ffffffffffffffffffffffffffffffffffffffff1663a9059cbb33846040518363ffffffff1660e01b8152600401808373ffffffffffffffffffffffffffffffffffffffff1673ffffffffffffffffffffffffffffffffffffffff16815260200182815260200192505050602060405180830381600087803b158015613f4f57600080fd5b505af1158015613f63573d6000803e3d6000fd5b505050506040513d6020811015613f7957600080fd5b8101908080519060200190929190505050613f9057fe5b8573ffffffffffffffffffffffffffffffffffffffff1663a9059cbb8a836040518363ffffffff1660e01b8152600401808373ffffffffffffffffffffffffffffffffffffffff1673ffffffffffffffffffffffffffffffffffffffff16815260200182815260200192505050602060405180830381600087803b15801561401757600080fd5b505af115801561402b573d6000803e3d6000fd5b505050506040513d602081101561404157600080fd5b810190808051906020019092919050505061405857fe5b600196505050505050506143d0565b6000614156600b54614148606461413a600560009054906101000a900473ffffffffffffffffffffffffffffffffffffffff1673ffffffffffffffffffffffffffffffffffffffff16632c4e722e6040518163ffffffff1660e01b815260040160206040518083038186803b1580156140df57600080fd5b505afa1580156140f3573d6000803e3d6000fd5b505050506040513d602081101561410957600080fd5b81019080805190602001909291905050508860026007811061412757fe5b60200201516143d690919063ffffffff16565b6143d690919063ffffffff16565b61445c90919063ffffffff16565b9050808473ffffffffffffffffffffffffffffffffffffffff166370a08231336040518263ffffffff1660e01b8152600401808273ffffffffffffffffffffffffffffffffffffffff1673ffffffffffffffffffffffffffffffffffffffff16815260200191505060206040518083038186803b1580156141d657600080fd5b505afa1580156141ea573d6000803e3d6000fd5b505050506040513d602081101561420057600080fd5b81019080805190602001909291905050501015614268576040517f08c379a0000000000000000000000000000000000000000000000000000000008152600401808060200182810382526026815260200180615e256026913960400191505060405180910390fd5b61427b8183614f8d90919063ffffffff16565b600c819055506142bf8360046007811061429157fe5b6020020151846005600781106142a357fe5b6020020151856006600781106142b557fe5b6020020151615016565b6142ed87846002600781106142d057fe5b602002015184866003600781106142e357fe5b6020020151615222565b8473ffffffffffffffffffffffffffffffffffffffff1663a9059cbb338560026007811061431757fe5b60200201516040518363ffffffff1660e01b8152600401808373ffffffffffffffffffffffffffffffffffffffff1673ffffffffffffffffffffffffffffffffffffffff16815260200182815260200192505050602060405180830381600087803b15801561438557600080fd5b505af1158015614399573d6000803e3d6000fd5b505050506040513d60208110156143af57600080fd5b81019080805190602001909291905050506143c657fe5b6000955050505050505b92915050565b6000808314156143e95760009050614456565b60008284029050828482816143fa57fe5b0414614451576040517f08c379a0000000000000000000000000000000000000000000000000000000008152600401808060200182810382526021815260200180615e6c6021913960400191505060405180910390fd5b809150505b92915050565b60008082116144d3576040517f08c379a000000000000000000000000000000000000000000000000000000000815260040180806020018281038252601a8152602001807f536166654d6174683a206469766973696f6e206279207a65726f00000000000081525060200191505060405180910390fd5b60008284816144de57fe5b0490508091505092915050565b6144f3615d67565b6144fb615d67565b6000600160008673ffffffffffffffffffffffffffffffffffffffff1673ffffffffffffffffffffffffffffffffffffffff1681526020019081526020016000205490506000600660009054906101000a900473ffffffffffffffffffffffffffffffffffffffff1673ffffffffffffffffffffffffffffffffffffffff166316d4a3536040518163ffffffff1660e01b815260040160206040518083038186803b1580156145a957600080fd5b505afa1580156145bd573d6000803e3d6000fd5b505050506040513d60208110156145d357600080fd5b810190808051906020019092919050505090506000600260008873ffffffffffffffffffffffffffffffffffffffff1673ffffffffffffffffffffffffffffffffffffffff16815260200190815260200160002060008781526020019081526020016000206000015490506000600260008973ffffffffffffffffffffffffffffffffffffffff1673ffffffffffffffffffffffffffffffffffffffff16815260200190815260200160002060008881526020019081526020016000206001015490506000600260008a73ffffffffffffffffffffffffffffffffffffffff1673ffffffffffffffffffffffffffffffffffffffff16815260200190815260200160002060008981526020019081526020016000206003015490506000600260008b73ffffffffffffffffffffffffffffffffffffffff1673ffffffffffffffffffffffffffffffffffffffff16815260200190815260200160002060008a81526020019081526020016000206004015490506000600360008481526020019081526020016000205490506040518060e00160405280888152602001878152602001868152602001858152602001848152602001838152602001828152509750879850505050505050505092915050565b6147cb6001600360008581526020019081526020016000205461573f90919063ffffffff16565b6003600084815260200190815260200160002081905550806004600084815260200190815260200160002060006003600086815260200190815260200160002054815260200190815260200160002060000181905550336004600084815260200190815260200160002060006003600086815260200190815260200160002054815260200190815260200160002060010160006101000a81548173ffffffffffffffffffffffffffffffffffffffff021916908373ffffffffffffffffffffffffffffffffffffffff1602179055505050565b6000600560009054906101000a900473ffffffffffffffffffffffffffffffffffffffff1673ffffffffffffffffffffffffffffffffffffffff16632ee8c2fa6040518163ffffffff1660e01b81526004016101006040518083038186803b15801561490957600080fd5b505afa15801561491d573d6000803e3d6000fd5b505050506040513d601f19601f8201168201806040525061010081101561494357600080fd5b810190809190505060026008811061495757fe5b602002015190506000600560009054906101000a900473ffffffffffffffffffffffffffffffffffffffff1673ffffffffffffffffffffffffffffffffffffffff16632ee8c2fa6040518163ffffffff1660e01b81526004016101006040518083038186803b1580156149c957600080fd5b505afa1580156149dd573d6000803e3d6000fd5b505050506040513d601f19601f82011682018060405250610100811015614a0357600080fd5b8101908091905050600260088110614a1757fe5b60200201519050614ae7600a54614ad9600560009054906101000a900473ffffffffffffffffffffffffffffffffffffffff1673ffffffffffffffffffffffffffffffffffffffff16632c4e722e6040518163ffffffff1660e01b815260040160206040518083038186803b158015614a8f57600080fd5b505afa158015614aa3573d6000803e3d6000fd5b505050506040513d6020811015614ab957600080fd5b81019080805190602001909291905050508961445c90919063ffffffff16565b6143d690919063ffffffff16565b614afb6064346143d690919063ffffffff16565b11614b6e576040517f08c379a00000000000000000000000000000000000000000000000000000000081526004018080602001828103825260158152602001807f6e6f7420656e6f75676820636f6c6c61746572616c000000000000000000000081525060200191505060405180910390fd5b6040518060600160405280614b92600160076000015461573f90919063ffffffff16565b8152602001614baf3460076001015461573f90919063ffffffff16565b8152602001614bcc8760076002015461573f90919063ffffffff16565b815250600760008201518160000155602082015181600101556040820151816002015590505060018060003373ffffffffffffffffffffffffffffffffffffffff1673ffffffffffffffffffffffffffffffffffffffff1681526020019081526020016000206000828254019250508190555034600260003373ffffffffffffffffffffffffffffffffffffffff1673ffffffffffffffffffffffffffffffffffffffff16815260200190815260200160002060008981526020019081526020016000206000018190555083600260003373ffffffffffffffffffffffffffffffffffffffff1673ffffffffffffffffffffffffffffffffffffffff16815260200190815260200160002060008981526020019081526020016000206002018190555084600260003373ffffffffffffffffffffffffffffffffffffffff1673ffffffffffffffffffffffffffffffffffffffff16815260200190815260200160002060008981526020019081526020016000206001018190555082600260003373ffffffffffffffffffffffffffffffffffffffff1673ffffffffffffffffffffffffffffffffffffffff1681526020019081526020016000206000898152602001908152602001600020600301819055506003600084815260200190815260200160002054600260003373ffffffffffffffffffffffffffffffffffffffff1673ffffffffffffffffffffffffffffffffffffffff1681526020019081526020016000206000898152602001908152602001600020600401819055507fc2bde2869d34f0d99f3f33fcdb12ab7030894b9d89b00e07d779c852ba12abb23388604051808373ffffffffffffffffffffffffffffffffffffffff1673ffffffffffffffffffffffffffffffffffffffff1681526020018281526020019250505060405180910390a18073ffffffffffffffffffffffffffffffffffffffff166108fc349081150290604051600060405180830381858888f19350505050158015614ebb573d6000803e3d6000fd5b508173ffffffffffffffffffffffffffffffffffffffff166340c10f1933886040518363ffffffff1660e01b8152600401808373ffffffffffffffffffffffffffffffffffffffff1673ffffffffffffffffffffffffffffffffffffffff16815260200182815260200192505050602060405180830381600087803b158015614f4357600080fd5b505af1158015614f57573d6000803e3d6000fd5b505050506040513d6020811015614f6d57600080fd5b8101908080519060200190929190505050614f8457fe5b50505050505050565b600082821115615005576040517f08c379a000000000000000000000000000000000000000000000000000000000815260040180806020018281038252601e8152602001807f536166654d6174683a207375627472616374696f6e206f766572666c6f77000081525060200191505060405180910390fd5b600082840390508091505092915050565b61501e615dab565b600460008581526020019081526020016000206000838152602001908152602001600020604051806040016040529081600082015481526020016001820160009054906101000a900473ffffffffffffffffffffffffffffffffffffffff1673ffffffffffffffffffffffffffffffffffffffff1673ffffffffffffffffffffffffffffffffffffffff168152505090506150d660016003600087815260200190815260200160002054614f8d90919063ffffffff16565b6003600086815260200190815260200160002081905550806004600086815260200190815260200160002060008581526020019081526020016000206000820151816000015560208201518160010160006101000a81548173ffffffffffffffffffffffffffffffffffffffff021916908373ffffffffffffffffffffffffffffffffffffffff1602179055509050506004600085815260200190815260200160002060008381526020019081526020016000206000808201600090556001820160006101000a81549073ffffffffffffffffffffffffffffffffffffffff021916905550508260026000836020015173ffffffffffffffffffffffffffffffffffffffff1673ffffffffffffffffffffffffffffffffffffffff1681526020019081526020016000206000836000015181526020019081526020016000206004018190555050505050565b6000600560009054906101000a900473ffffffffffffffffffffffffffffffffffffffff1673ffffffffffffffffffffffffffffffffffffffff16632ee8c2fa6040518163ffffffff1660e01b81526004016101006040518083038186803b15801561528d57600080fd5b505afa1580156152a1573d6000803e3d6000fd5b505050506040513d601f19601f820116820180604052506101008110156152c757600080fd5b81019080919050506002600881106152db57fe5b602002015190506000600560009054906101000a900473ffffffffffffffffffffffffffffffffffffffff1673ffffffffffffffffffffffffffffffffffffffff16632ee8c2fa6040518163ffffffff1660e01b81526004016101006040518083038186803b15801561534d57600080fd5b505afa158015615361573d6000803e3d6000fd5b505050506040513d601f19601f8201168201806040525061010081101561538757600080fd5b810190809190505060006008811061539b57fe5b60200201519050838173ffffffffffffffffffffffffffffffffffffffff166370a08231336040518263ffffffff1660e01b8152600401808273ffffffffffffffffffffffffffffffffffffffff1673ffffffffffffffffffffffffffffffffffffffff16815260200191505060206040518083038186803b15801561542057600080fd5b505afa158015615434573d6000803e3d6000fd5b505050506040513d602081101561544a57600080fd5b810190808051906020019092919050505010156154cf576040517f08c379a00000000000000000000000000000000000000000000000000000000081526004018080602001828103825260118152602001807f6e6f7420656e6f75676820746f6b656e7300000000000000000000000000000081525060200191505060405180910390fd5b60405180606001604052806154f36001600760000154614f8d90919063ffffffff16565b815260200161551087600760010154614f8d90919063ffffffff16565b815260200161552d85600760020154614f8d90919063ffffffff16565b81525060076000820151816000015560208201518160010155604082015181600201559050506040518060a00160405280600081526020016000815260200160008152602001600081526020016000815250600260003373ffffffffffffffffffffffffffffffffffffffff1673ffffffffffffffffffffffffffffffffffffffff168152602001908152602001600020600088815260200190815260200160002060008201518160000155602082015181600101556040820151816002015560608201518160030155608082015181600401559050507fc4e1df4952dc60d5bb87ac41461f223bc08e05506be88ef67a63471f4518e8a13387604051808373ffffffffffffffffffffffffffffffffffffffff1673ffffffffffffffffffffffffffffffffffffffff1681526020018281526020019250505060405180910390a18173ffffffffffffffffffffffffffffffffffffffff16639dc29fac33866040518363ffffffff1660e01b8152600401808373ffffffffffffffffffffffffffffffffffffffff1673ffffffffffffffffffffffffffffffffffffffff16815260200182815260200192505050602060405180830381600087803b1580156156f657600080fd5b505af115801561570a573d6000803e3d6000fd5b505050506040513d602081101561572057600080fd5b810190808051906020019092919050505061573757fe5b505050505050565b6000808284019050838110156157bd576040517f08c379a000000000000000000000000000000000000000000000000000000000815260040180806020018281038252601b8152602001807f536166654d6174683a206164646974696f6e206f766572666c6f77000000000081525060200191505060405180910390fd5b8091505092915050565b6157cf615d67565b6157d933836144eb565b90506000600260008673ffffffffffffffffffffffffffffffffffffffff1673ffffffffffffffffffffffffffffffffffffffff1681526020019081526020016000206000848152602001908152602001600020600201549050600073ffffffffffffffffffffffffffffffffffffffff168573ffffffffffffffffffffffffffffffffffffffff1614156158b9576040517f08c379a0000000000000000000000000000000000000000000000000000000008152600401808060200182810382526025815260200180615e8d6025913960400191505060405180910390fd5b600073ffffffffffffffffffffffffffffffffffffffff168473ffffffffffffffffffffffffffffffffffffffff16141561593f576040517f08c379a0000000000000000000000000000000000000000000000000000000008152600401808060200182810382526023815260200180615ddc6023913960400191505060405180910390fd5b83600460008460046007811061595157fe5b6020020151815260200190815260200160002060008460056007811061597357fe5b6020020151815260200190815260200160002060010160006101000a81548173ffffffffffffffffffffffffffffffffffffffff021916908373ffffffffffffffffffffffffffffffffffffffff1602179055506040518060a00160405280600081526020016000815260200160008152602001600081526020016000815250600260008773ffffffffffffffffffffffffffffffffffffffff1673ffffffffffffffffffffffffffffffffffffffff168152602001908152602001600020600085815260200190815260200160002060008201518160000155602082015181600101556040820151816002015560608201518160030155608082015181600401559050506000600160008673ffffffffffffffffffffffffffffffffffffffff1673ffffffffffffffffffffffffffffffffffffffff16815260200190815260200160002054905060018060008773ffffffffffffffffffffffffffffffffffffffff1673ffffffffffffffffffffffffffffffffffffffff168152602001908152602001600020600082825401925050819055506040518060a0016040528084600260078110615b2157fe5b6020020151815260200184600360078110615b3857fe5b6020020151815260200183815260200184600460078110615b5557fe5b6020020151815260200184600560078110615b6c57fe5b6020020151815250600260008773ffffffffffffffffffffffffffffffffffffffff1673ffffffffffffffffffffffffffffffffffffffff16815260200190815260200160002060008381526020019081526020016000206000820151816000015560208201518160010155604082015181600201556060820151816003015560808201518160040155905050505050505050565b600073ffffffffffffffffffffffffffffffffffffffff168173ffffffffffffffffffffffffffffffffffffffff161415615c87576040517f08c379a0000000000000000000000000000000000000000000000000000000008152600401808060200182810382526026815260200180615dff6026913960400191505060405180910390fd5b8073ffffffffffffffffffffffffffffffffffffffff166000809054906101000a900473ffffffffffffffffffffffffffffffffffffffff1673ffffffffffffffffffffffffffffffffffffffff167f8be0079c531659141344cd1fd0a4f28419497f9722a3daafe3b4186f6b6457e060405160405180910390a3806000806101000a81548173ffffffffffffffffffffffffffffffffffffffff021916908373ffffffffffffffffffffffffffffffffffffffff16021790555050565b6040518060400160405280600290602082028038833980820191505090505090565b6040518060e00160405280600790602082028038833980820191505090505090565b6040518060600160405280600390602082028038833980820191505090505090565b604051806040016040528060008152602001600073ffffffffffffffffffffffffffffffffffffffff168152509056fe45524332303a207472616e7366657220746f20746865207a65726f20616464726573734f776e61626c653a206e6577206f776e657220697320746865207a65726f2061646472657373436f6c6c61746572616c3a203c2031313025207c206e6f7420656e6f75676820746f6b656e736e6f7420616e2061637469766520636f6c6c61746572616c20706f736974696f6e536166654d6174683a206d756c7469706c69636174696f6e206f766572666c6f7745524332303a207472616e736665722066726f6d20746865207a65726f2061646472657373436f6c6c61746572616c3a203e2031313025207c206e6f7420656e6f75676820746f6b656e73a265627a7a723158203ef5a325cea68840a7f272f1abfd2fa7f6221060275b6ac6e68f9be2b506aabe64736f6c634300050b0032",
  "source": "pragma solidity 0.5.11;\n\nimport \"@openzeppelin/contracts/math/SafeMath.sol\";\nimport \"@openzeppelin/contracts/ownership/Ownable.sol\";\nimport \"@openzeppelin/contracts/token/ERC20/IERC20.sol\";\n\nimport \"./IPROXY.sol\";\nimport \"./ICUS.sol\";\nimport \"./ITAX.sol\";\n\n/** \n *  Collateral contract for the linkedFC stablecoin.\n *  This contract enables opening a collateral position\n *  and minting tokens.\n * \n */\ncontract LinkedCOL is Ownable {\n    using SafeMath for uint256;\n    \n    struct UserCP {\n        uint256 amountETH;\n        uint256 amountToken;\n        uint256 liquidation;\n        uint256 liqrange;\n        uint256 liqid;\n    }\n    struct OverviewCP {\n        uint256 id;\n        address account;\n    }\n    struct TotalData {\n        uint256 _totalCPs;\n        uint256 _supplyCPETH;\n        uint256 _supplyCPToken;\n    }\n    \n    mapping (address => uint256) public index; \n    mapping (address => mapping (uint256 => UserCP)) public cPosition; \n    mapping (uint256 => uint256) public liqRange;\n    mapping (uint256 => mapping(uint256 => OverviewCP)) public liqInfo;\n\n    //Proxy address for system contracts\n    IPROX public proxy;\n    ITAX public tax;\n    bool public initialized;\n    //Collateral data\n    TotalData public tldata;\n    uint256 public minCol;\n    uint256 public liqPer;\n    uint256 public remFund;\n\n    event OpenCP(address account, uint256 id);\n    event CloseCP(address account, uint256 id);\n    event TransferCP(address sender, address receiver, uint256 id);\n\n    /**\n     * Set proxy address\n     */\n    function initialize(address proxyAddress) onlyOwner external returns (bool success) {\n            require (initialized == false);\n            require (proxyAddress != address(0));\n            initialized = true;\n            proxy = IPROX(proxyAddress);\n            address taxAddress = proxy.readAddress()[4];\n            tax = ITAX(taxAddress);\n            minCol = 150;\n            liqPer = 110;\n            return true;\n    }\n    \n    modifier whenNotPaused() {\n            require(!proxy.checkPause(), \"Pausable: paused\");\n            _;\n    }\n  \n    /**\n     * @dev Fallback function. Makes the contract payable.\n     */\n    function() external payable {}\n    \n    /**\n     *  @dev Check balace of individual CPs - used by tax contract\n     */\n    function individualCPdata(address account, uint256 id) external view returns (uint256[2] memory) {\n            uint256[2] memory _CPData;\n            uint256 normRateReward = tax.viewNormRateReward();\n            _CPData[0] = cPosition[account][id].amountETH;\n            _CPData[1] = cPosition[account][id].amountToken.mul(proxy.base()).div(normRateReward);\n            return _CPData;\n    }\n       \n    /**\n     *  @dev Check variables of total CPs\n     */\n    function dataTotalCP() external view returns (uint256[3] memory) {\n            uint256[3] memory _totalData;\n            uint256 normRateReward = tax.viewNormRateReward();\n            _totalData[0] = tldata._totalCPs;\n            _totalData[1] = tldata._supplyCPETH;\n            _totalData[2] = tldata._supplyCPToken.mul(proxy.base()).div(normRateReward);\n            return _totalData;\n    }\n    \n    /**\n     *  @dev Open collateral position and generate tokens\n     */\n    function openCP(uint amount) whenNotPaused payable external returns (bool success) {\n            uint256[7] memory info = _getCPdata(msg.sender, 0);\n            uint256 normAmount = amount.mul(info[1]).div(proxy.base());\n            uint256 liq = normAmount.div(msg.value).mul(minCol).div(100);\n            uint256 liqGroup = liq.div(1000);\n            _liqArrayAdd(liqGroup, info[0]);\n            _openCP(info[0], amount, normAmount, liq, liqGroup);\n            return true;\n    }\n    \n    /**\n     *  @dev Transfer collateral position to new user\n     */\n    function transfer(address recipient, uint256 id) whenNotPaused external returns (bool) {\n\t\t\t_transfer(msg.sender, recipient, id);\n\t\t\temit TransferCP(msg.sender, recipient, id);\n\t\t\treturn true;\n\t}\n\n    /**\n     *  @dev Deposit ETH in existing CP \n     */\n    function depositETHCP(uint id) whenNotPaused payable external returns (bool success) {\n            require(cPosition[msg.sender][id].amountETH > 0, \"not an active collateral position\");\n            uint256[7] memory info = _getCPdata(msg.sender, id);\n            address payable custodian = proxy.readAddress()[2];\n            uint256 newAmountETH = info[2].add(msg.value);\n            uint256 liq = info[3].div(newAmountETH).mul(minCol).div(100);\n            uint256 newliqGroup = liq.div(1000);\n            tldata._supplyCPETH = tldata._supplyCPETH.add(msg.value);\n            _liqArrayDelete(info[4], info[5], info[6]);\n            _liqArrayAdd(newliqGroup, id);\n            cPosition[msg.sender][id].liquidation = liq;\n            cPosition[msg.sender][id].amountETH = newAmountETH;\n            cPosition[msg.sender][id].liqrange = newliqGroup;\n            cPosition[msg.sender][id].liqid = liqRange[newliqGroup];\n            custodian.transfer(msg.value);\n            return true;\n    }\n    /**\n     *  @dev Witdraw ETH from existing CP || close CP when all of ETH is withdrawn\n     */\n    function withdrawETHCP(uint256 amount, uint id) whenNotPaused payable external returns (bool success) {\n            require(cPosition[msg.sender][id].amountETH.sub(amount) >= 0, \"not enough collateral\");\n            ICUS custodian = ICUS(proxy.readAddress()[2]);\n            uint256[7] memory info = _getCPdata(msg.sender, id);\n            uint256 newAmountETH = info[2].sub(amount);\n            uint256 amountTokens = info[3].mul(proxy.base()).div(info[1]); \n            _liqArrayDelete(info[4], info[5], info[6]);\n            if (newAmountETH == 0) {\n                _closeCP(id, amount, amountTokens, info[3]);\n            } else {\n                uint256 liq = info[3].div(newAmountETH).mul(minCol).div(100);\n                uint256 newliqGroup = liq.div(1000);\n                _liqArrayAdd(newliqGroup, id);\n                cPosition[msg.sender][id].liquidation = liq;\n                cPosition[msg.sender][id].liqrange = newliqGroup;\n                cPosition[msg.sender][id].liqid = liqRange[newliqGroup];\n                cPosition[msg.sender][id].amountETH = newAmountETH;\n                tldata._supplyCPETH = tldata._supplyCPETH.sub(amount);\n            }\n            assert(custodian.transfer(msg.sender, amount));\n            return true;\n    }\n    \n    /**\n     *  @dev Burn tokens from existing CP holder \n     */\n    function depositTokenCP(uint256 amount, uint id) whenNotPaused payable external returns (bool success) {\n            ICUS custodian = ICUS(proxy.readAddress()[2]);\n            IERC20 token = IERC20(proxy.readAddress()[0]);\n            uint256[7] memory info = _getCPdata(msg.sender, id);\n            uint256 normAmount = amount.mul(info[1]).div(proxy.base());\n            uint256 newAmountTokens = info[3].sub(normAmount);\n            uint256 liq = newAmountTokens.div(info[2]).mul(minCol).div(100);\n            uint256 newliqGroup = liq.div(1000);\n            require(token.balanceOf(msg.sender) >= amount);\n            require(proxy.rate() > liq.mul(proxy.base()).div(info[1]), \"not enough collateral\");\n            tldata._supplyCPToken = tldata._supplyCPToken.sub(amount);\n            _liqArrayDelete(info[4], info[5], info[6]);\n            _liqArrayAdd(newliqGroup, id);\n            cPosition[msg.sender][id].liquidation = liq;\n            cPosition[msg.sender][id].amountToken = newAmountTokens;\n            cPosition[msg.sender][id].liqrange = newliqGroup;\n            cPosition[msg.sender][id].liqid = liqRange[newliqGroup];\n            assert(custodian.burn(msg.sender, amount));\n            return true;\n    }\n    /**\n     *  @dev Mint new tokens from existing CP \n     */\n    function withdrawTokenCP(uint256 amount, uint id) whenNotPaused payable external returns (bool success) {\n            ICUS custodian = ICUS(proxy.readAddress()[2]);\n            uint256[7] memory info = _getCPdata(msg.sender, id);\n            uint256 normAmount = amount.mul(info[1]).div(proxy.base());\n            uint256 newAmountTokens = info[3].add(normAmount);\n            uint256 liq = newAmountTokens.div(info[2]).mul(minCol).div(100);\n            uint256 newliqGroup = liq.div(1000);\n            require(newAmountTokens > 0, \"not enough tokens\");\n            require(proxy.rate() > liq, \"not enough collateral\");\n            tldata._supplyCPToken = tldata._supplyCPToken.add(amount);\n            _liqArrayDelete(info[4], info[5], info[6]);\n            _liqArrayAdd(newliqGroup, id);\n            cPosition[msg.sender][id].liquidation = liq;\n            cPosition[msg.sender][id].amountToken = newAmountTokens;\n            cPosition[msg.sender][id].liqrange = newliqGroup;\n            cPosition[msg.sender][id].liqid = liqRange[newliqGroup];\n            assert(custodian.mint(msg.sender, amount));\n            return true;\n    }\n\n    /**\n     *  @dev Liquidate existing CP if rate < 150% - discount for liquidator rest to original holder.\n     *       If ETH is insufficient for the liquidation then the rest of the tokens will be reegistered \n     *       in the removal fund. For later removal - possible by ETH fee on token transfers.\n    */\n    function liquidateCP(address account, uint id) whenNotPaused payable external returns (bool success) {\n            ICUS custodian = ICUS(proxy.readAddress()[2]);\n            IERC20 token = IERC20(proxy.readAddress()[0]);\n            uint256[7] memory info = _getCPdata(msg.sender, id);\n            uint256 amountTokens = info[3].mul(proxy.base()).div(info[1]);\n            require(cPosition[account][id].liquidation.mul(proxy.base()).div(info[1]) >= proxy.rate(), \"above liquidation rate\");\n            if (info[2].mul(proxy.rate()) >= amountTokens.mul(liqPer).div(100)) {\n                uint256 amountLiquidator = amountTokens.div(proxy.rate()).mul(liqPer).div(100);\n                uint256 rest = info[2].sub(amountLiquidator);\n                require(token.balanceOf(msg.sender) >= amountTokens, \"Collateral: > 110% | not enough tokens\");\n                _liqArrayDelete(info[4], info[5], info[6]);\n\t\t        _closeCP(id, info[2], amountTokens, info[3]);\n                assert(custodian.transfer(msg.sender, amountLiquidator)); \n                assert(custodian.transfer(account, rest)); \n                return true;\n            } else {\n                uint256 availableToken = info[2].mul(proxy.rate()).mul(100).div(liqPer);\n                require(token.balanceOf(msg.sender) >= availableToken, \"Collateral: < 110% | not enough tokens\");\n                remFund = amountTokens.sub(availableToken);\n                _liqArrayDelete(info[4], info[5], info[6]);\n\t\t        _closeCP(id, info[2], amountTokens, info[3]);\n                assert(custodian.transfer(msg.sender, info[2])); \n                return false;\n            }\n    }\n    \n\n    /**\n     *  @dev Internal functions called by the above functions.\n     */\n    function _getCPdata(address ownerCP, uint256 id) internal view returns (uint256[7] memory){\n            uint256[7] memory _getCPData;\n            uint256 _index = index[ownerCP];\n            uint256 normRateReward = tax.viewNormRateReward();\n            uint256 amountETH = cPosition[ownerCP][id].amountETH;\n            uint256 amountTokens = cPosition[ownerCP][id].amountToken;\n            uint256 liqGroup = cPosition[ownerCP][id].liqrange;\n            uint256 liqId = cPosition[ownerCP][id].liqid;\n            uint256 lastLigId = liqRange[liqGroup];\n            _getCPData = [_index, \n                          normRateReward, \n                          amountETH, \n                          amountTokens,\n                          liqGroup,\n                          liqId,\n                          lastLigId];\n            return _getCPData;\n    }\n    \n    function _liqArrayAdd(uint256 newliqGroup, uint256 id) internal {\n            liqRange[newliqGroup] = liqRange[newliqGroup].add(1);\n            liqInfo[newliqGroup][liqRange[newliqGroup]].id = id;\n            liqInfo[newliqGroup][liqRange[newliqGroup]].account = msg.sender;\n    }\n    \n    function _liqArrayDelete(uint256 _group, uint256 _id, uint256 _lastId) internal {\n            OverviewCP memory lastLigInfo = liqInfo[_group][_lastId];\n            liqRange[_group] = liqRange[_group].sub(1);\n            liqInfo[_group][_id] = lastLigInfo;\n            delete liqInfo[_group][_lastId];\n            cPosition[lastLigInfo.account][lastLigInfo.id].liqid = _id;\n    }\n   \n    function _openCP(uint256 _index, uint256 amount, uint256 normAmount, uint256 liq, uint256 liqGroup) internal {\n            ICUS cust = ICUS(proxy.readAddress()[2]);\n            address payable custodian = proxy.readAddress()[2];\n            require(msg.value.mul(100) > amount.div(proxy.rate()).mul(minCol), \"not enough collateral\");\n            tldata = TotalData({\n                _totalCPs: tldata._totalCPs.add(1),\n                _supplyCPETH: tldata._supplyCPETH.add(msg.value),\n                _supplyCPToken: tldata._supplyCPToken.add(normAmount)\n                });\n            index[msg.sender] += 1;\n            cPosition[msg.sender][_index].amountETH = msg.value;\n            cPosition[msg.sender][_index].liquidation = liq;\n            cPosition[msg.sender][_index].amountToken = normAmount;\n            cPosition[msg.sender][_index].liqrange = liqGroup;\n            cPosition[msg.sender][_index].liqid = liqRange[liqGroup];\n            emit OpenCP(msg.sender, _index);\n\t        custodian.transfer(msg.value);\n            assert(cust.mint(msg.sender, amount));\n    }\n    \n    function _closeCP(uint256 id, uint256 amountETH, uint256 amountTokens, uint256 amountNormTokens) internal {\n            ICUS custodian = ICUS(proxy.readAddress()[2]);\n            IERC20 token = IERC20(proxy.readAddress()[0]);\n            require(token.balanceOf(msg.sender) >= amountTokens, \"not enough tokens\");\n            tldata = TotalData({\n                _totalCPs: tldata._totalCPs.sub(1),\n                _supplyCPETH: tldata._supplyCPETH.sub(amountETH),\n                _supplyCPToken: tldata._supplyCPToken.sub(amountNormTokens)\n                });\n            cPosition[msg.sender][id] = UserCP({\n                amountETH: 0,\n                amountToken: 0,\n                liquidation: 0,\n                liqrange: 0,\n                liqid: 0\n            });\n\t        emit CloseCP(msg.sender, id);\n            assert(custodian.burn(msg.sender, amountTokens));\n    }\n \n    function _transfer(address sender, address recipient, uint256 id) internal {\n            uint256[7] memory info = _getCPdata(msg.sender, id);\n            uint256 liq = cPosition[sender][id].liquidation;\n            require(sender != address(0), \"ERC20: transfer from the zero address\");\n\t\t\trequire(recipient != address(0), \"ERC20: transfer to the zero address\");\n            liqInfo[info[4]][info[5]].account = recipient;\n            cPosition[sender][id] = UserCP({\n                amountETH: 0,\n                amountToken: 0,\n                liquidation: 0,\n                liqrange: 0,\n                liqid: 0\n            });\n\t    uint256 tempindex = index[recipient];\n            index[recipient] += 1;\n            cPosition[recipient][tempindex] = UserCP({\n                amountETH: info[2],\n                amountToken: info[3],\n                liquidation: liq,\n                liqrange: info[4],\n                liqid: info[5]\n            });\n            \n    }\n}",
  "sourcePath": "/Users/kevinfoesenek/Desktop/Linked_FC/contracts/LinkedCOL.sol",
  "compiler": {
    "name": "solc",
    "version": "0.5.11+commit.c082d0b4.Emscripten.clang"
  },
  "schemaVersion": "3.0.21",
  "updatedAt": "2020-02-07T14:03:05.229Z",
  "networkType": "ethereum",
  "devdoc": {
    "methods": {
      "dataTotalCP()": {
        "details": "Check variables of total CPs"
      },
      "depositETHCP(uint256)": {
        "details": "Deposit ETH in existing CP "
      },
      "depositTokenCP(uint256,uint256)": {
        "details": "Burn tokens from existing CP holder "
      },
      "individualCPdata(address,uint256)": {
        "details": "Check balace of individual CPs - used by tax contract"
      },
      "isOwner()": {
        "details": "Returns true if the caller is the current owner."
      },
      "liquidateCP(address,uint256)": {
        "details": "Liquidate existing CP if rate < 150% - discount for liquidator rest to original holder.      If ETH is insufficient for the liquidation then the rest of the tokens will be reegistered       in the removal fund. For later removal - possible by ETH fee on token transfers."
      },
      "openCP(uint256)": {
        "details": "Open collateral position and generate tokens"
      },
      "owner()": {
        "details": "Returns the address of the current owner."
      },
      "renounceOwnership()": {
        "details": "Leaves the contract without owner. It will not be possible to call `onlyOwner` functions anymore. Can only be called by the current owner.     * > Note: Renouncing ownership will leave the contract without an owner, thereby removing any functionality that is only available to the owner."
      },
      "transfer(address,uint256)": {
        "details": "Transfer collateral position to new user"
      },
      "transferOwnership(address)": {
        "details": "Transfers ownership of the contract to a new account (`newOwner`). Can only be called by the current owner."
      },
      "withdrawETHCP(uint256,uint256)": {
        "details": "Witdraw ETH from existing CP || close CP when all of ETH is withdrawn"
      },
      "withdrawTokenCP(uint256,uint256)": {
        "details": "Mint new tokens from existing CP "
      }
    }
  },
  "userdoc": {
    "methods": {
      "initialize(address)": {
        "notice": "Set proxy address"
      }
    },
    "notice": "Collateral contract for the linkedFC stablecoin. This contract enables opening a collateral position and minting tokens.  "
  }
}