{
  "contractName": "LinkedEXC",
  "abi": [
    {
      "constant": true,
      "inputs": [],
      "name": "initialized",
      "outputs": [
        {
          "name": "",
          "type": "bool"
        }
      ],
      "payable": false,
      "stateMutability": "view",
      "type": "function"
    },
    {
      "constant": false,
      "inputs": [],
      "name": "renounceOwnership",
      "outputs": [],
      "payable": false,
      "stateMutability": "nonpayable",
      "type": "function"
    },
    {
      "constant": true,
      "inputs": [],
      "name": "owner",
      "outputs": [
        {
          "name": "",
          "type": "address"
        }
      ],
      "payable": false,
      "stateMutability": "view",
      "type": "function"
    },
    {
      "constant": true,
      "inputs": [],
      "name": "isOwner",
      "outputs": [
        {
          "name": "",
          "type": "bool"
        }
      ],
      "payable": false,
      "stateMutability": "view",
      "type": "function"
    },
    {
      "constant": true,
      "inputs": [],
      "name": "proxy",
      "outputs": [
        {
          "name": "",
          "type": "address"
        }
      ],
      "payable": false,
      "stateMutability": "view",
      "type": "function"
    },
    {
      "constant": false,
      "inputs": [
        {
          "name": "newOwner",
          "type": "address"
        }
      ],
      "name": "transferOwnership",
      "outputs": [],
      "payable": false,
      "stateMutability": "nonpayable",
      "type": "function"
    },
    {
      "payable": true,
      "stateMutability": "payable",
      "type": "fallback"
    },
    {
      "anonymous": false,
      "inputs": [
        {
          "indexed": true,
          "name": "previousOwner",
          "type": "address"
        },
        {
          "indexed": true,
          "name": "newOwner",
          "type": "address"
        }
      ],
      "name": "OwnershipTransferred",
      "type": "event"
    },
    {
      "constant": false,
      "inputs": [
        {
          "name": "_proxy",
          "type": "address"
        }
      ],
      "name": "initialize",
      "outputs": [
        {
          "name": "success",
          "type": "bool"
        }
      ],
      "payable": false,
      "stateMutability": "nonpayable",
      "type": "function"
    },
    {
      "constant": true,
      "inputs": [],
      "name": "totalReserve",
      "outputs": [
        {
          "name": "",
          "type": "uint256[2]"
        }
      ],
      "payable": false,
      "stateMutability": "view",
      "type": "function"
    },
    {
      "constant": true,
      "inputs": [
        {
          "name": "account",
          "type": "address"
        }
      ],
      "name": "claimOfTKN",
      "outputs": [
        {
          "name": "",
          "type": "uint256"
        }
      ],
      "payable": false,
      "stateMutability": "view",
      "type": "function"
    },
    {
      "constant": true,
      "inputs": [
        {
          "name": "account",
          "type": "address"
        }
      ],
      "name": "claimOfETH",
      "outputs": [
        {
          "name": "",
          "type": "uint256"
        }
      ],
      "payable": false,
      "stateMutability": "view",
      "type": "function"
    },
    {
      "constant": true,
      "inputs": [],
      "name": "rate",
      "outputs": [
        {
          "name": "",
          "type": "uint256"
        }
      ],
      "payable": false,
      "stateMutability": "view",
      "type": "function"
    },
    {
      "constant": false,
      "inputs": [
        {
          "name": "receiver",
          "type": "address"
        },
        {
          "name": "amount",
          "type": "uint256"
        }
      ],
      "name": "sellTKN",
      "outputs": [
        {
          "name": "",
          "type": "bool"
        }
      ],
      "payable": false,
      "stateMutability": "nonpayable",
      "type": "function"
    },
    {
      "constant": false,
      "inputs": [
        {
          "name": "amount",
          "type": "uint256"
        }
      ],
      "name": "buyTKN",
      "outputs": [
        {
          "name": "",
          "type": "bool"
        }
      ],
      "payable": true,
      "stateMutability": "payable",
      "type": "function"
    },
    {
      "constant": false,
      "inputs": [],
      "name": "sellETH",
      "outputs": [
        {
          "name": "",
          "type": "bool"
        }
      ],
      "payable": true,
      "stateMutability": "payable",
      "type": "function"
    },
    {
      "constant": false,
      "inputs": [
        {
          "name": "amount",
          "type": "uint256"
        }
      ],
      "name": "buyETH",
      "outputs": [
        {
          "name": "",
          "type": "bool"
        }
      ],
      "payable": false,
      "stateMutability": "nonpayable",
      "type": "function"
    },
    {
      "constant": false,
      "inputs": [
        {
          "name": "amount",
          "type": "uint256"
        }
      ],
      "name": "removeClaimTKN",
      "outputs": [
        {
          "name": "",
          "type": "bool"
        }
      ],
      "payable": false,
      "stateMutability": "nonpayable",
      "type": "function"
    },
    {
      "constant": false,
      "inputs": [
        {
          "name": "amount",
          "type": "uint256"
        }
      ],
      "name": "removeClaimETH",
      "outputs": [
        {
          "name": "",
          "type": "bool"
        }
      ],
      "payable": false,
      "stateMutability": "nonpayable",
      "type": "function"
    }
  ],
  "bytecode": "0x6080604052336000806101000a81548173ffffffffffffffffffffffffffffffffffffffff021916908373ffffffffffffffffffffffffffffffffffffffff1602179055506000809054906101000a900473ffffffffffffffffffffffffffffffffffffffff1673ffffffffffffffffffffffffffffffffffffffff16600073ffffffffffffffffffffffffffffffffffffffff167f8be0079c531659141344cd1fd0a4f28419497f9722a3daafe3b4186f6b6457e060405160405180910390a36121e0806100cf6000396000f3fe6080604052600436106100f1576000357c0100000000000000000000000000000000000000000000000000000000900463ffffffff168063158ef93e146100f35780632c4e722e14610122578063378032371461014d5780634c68df67146101a05780635942e2d6146101f3578063715018a6146102585780638da5cb5b1461026f5780638f32d59b146102c6578063ab74d2df146102f5578063adbe508214610348578063b488b156146103bb578063bbc24b17146103dd578063c4d66de814610423578063c55d0bf51461048c578063ec556889146104f1578063efbf818514610548578063f2fde38b1461059b575b005b3480156100ff57600080fd5b506101086105ec565b604051808215151515815260200191505060405180910390f35b34801561012e57600080fd5b506101376105ff565b6040518082815260200191505060405180910390f35b34801561015957600080fd5b506101866004803603602081101561017057600080fd5b8101908080359060200190929190505050610781565b604051808215151515815260200191505060405180910390f35b3480156101ac57600080fd5b506101b5610795565b6040518082600260200280838360005b838110156101e05780820151818401526020810190506101c5565b5050505090500191505060405180910390f35b3480156101ff57600080fd5b506102426004803603602081101561021657600080fd5b81019080803573ffffffffffffffffffffffffffffffffffffffff169060200190929190505050610998565b6040518082815260200191505060405180910390f35b34801561026457600080fd5b5061026d6109e1565b005b34801561027b57600080fd5b50610284610b1c565b604051808273ffffffffffffffffffffffffffffffffffffffff1673ffffffffffffffffffffffffffffffffffffffff16815260200191505060405180910390f35b3480156102d257600080fd5b506102db610b45565b604051808215151515815260200191505060405180910390f35b34801561030157600080fd5b5061032e6004803603602081101561031857600080fd5b8101908080359060200190929190505050610b9c565b604051808215151515815260200191505060405180910390f35b34801561035457600080fd5b506103a16004803603604081101561036b57600080fd5b81019080803573ffffffffffffffffffffffffffffffffffffffff16906020019092919080359060200190929190505050610bb0565b604051808215151515815260200191505060405180910390f35b6103c3610bc6565b604051808215151515815260200191505060405180910390f35b610409600480360360208110156103f357600080fd5b8101908080359060200190929190505050610bd7565b604051808215151515815260200191505060405180910390f35b34801561042f57600080fd5b506104726004803603602081101561044657600080fd5b81019080803573ffffffffffffffffffffffffffffffffffffffff169060200190929190505050610beb565b604051808215151515815260200191505060405180910390f35b34801561049857600080fd5b506104db600480360360208110156104af57600080fd5b81019080803573ffffffffffffffffffffffffffffffffffffffff169060200190929190505050610d3a565b6040518082815260200191505060405180910390f35b3480156104fd57600080fd5b50610506610d83565b604051808273ffffffffffffffffffffffffffffffffffffffff1673ffffffffffffffffffffffffffffffffffffffff16815260200191505060405180910390f35b34801561055457600080fd5b506105816004803603602081101561056b57600080fd5b8101908080359060200190929190505050610da9565b604051808215151515815260200191505060405180910390f35b3480156105a757600080fd5b506105ea600480360360208110156105be57600080fd5b81019080803573ffffffffffffffffffffffffffffffffffffffff169060200190929190505050610dbd565b005b600160149054906101000a900460ff1681565b600080600160009054906101000a900473ffffffffffffffffffffffffffffffffffffffff1673ffffffffffffffffffffffffffffffffffffffff16632ee8c2fa6040518163ffffffff167c01000000000000000000000000000000000000000000000000000000000281526004016101006040518083038186803b15801561068757600080fd5b505afa15801561069b573d6000803e3d6000fd5b505050506040513d601f19601f820116820180604052506101008110156106c157600080fd5b810190809190505060016008811015156106d757fe5b602002015190508073ffffffffffffffffffffffffffffffffffffffff16632c4e722e6040518163ffffffff167c010000000000000000000000000000000000000000000000000000000002815260040160206040518083038186803b15801561074057600080fd5b505afa158015610754573d6000803e3d6000fd5b505050506040513d602081101561076a57600080fd5b810190808051906020019092919050505091505090565b600061078c82610e45565b60019050919050565b61079d612192565b6000600160009054906101000a900473ffffffffffffffffffffffffffffffffffffffff1673ffffffffffffffffffffffffffffffffffffffff16632ee8c2fa6040518163ffffffff167c01000000000000000000000000000000000000000000000000000000000281526004016101006040518083038186803b15801561082457600080fd5b505afa158015610838573d6000803e3d6000fd5b505050506040513d601f19601f8201168201806040525061010081101561085e57600080fd5b8101908091905050600060088110151561087457fe5b6020020151905060003073ffffffffffffffffffffffffffffffffffffffff1631905060008273ffffffffffffffffffffffffffffffffffffffff166370a08231306040518263ffffffff167c0100000000000000000000000000000000000000000000000000000000028152600401808273ffffffffffffffffffffffffffffffffffffffff1673ffffffffffffffffffffffffffffffffffffffff16815260200191505060206040518083038186803b15801561093257600080fd5b505afa158015610946573d6000803e3d6000fd5b505050506040513d602081101561095c57600080fd5b81019080805190602001909291905050509050610977612192565b60408051908101604052808481526020018381525090508094505050505090565b6000600360008373ffffffffffffffffffffffffffffffffffffffff1673ffffffffffffffffffffffffffffffffffffffff168152602001908152602001600020549050919050565b6109e9610b45565b1515610a5d576040517f08c379a00000000000000000000000000000000000000000000000000000000081526004018080602001828103825260208152602001807f4f776e61626c653a2063616c6c6572206973206e6f7420746865206f776e657281525060200191505060405180910390fd5b600073ffffffffffffffffffffffffffffffffffffffff166000809054906101000a900473ffffffffffffffffffffffffffffffffffffffff1673ffffffffffffffffffffffffffffffffffffffff167f8be0079c531659141344cd1fd0a4f28419497f9722a3daafe3b4186f6b6457e060405160405180910390a360008060006101000a81548173ffffffffffffffffffffffffffffffffffffffff021916908373ffffffffffffffffffffffffffffffffffffffff160217905550565b60008060009054906101000a900473ffffffffffffffffffffffffffffffffffffffff16905090565b60008060009054906101000a900473ffffffffffffffffffffffffffffffffffffffff1673ffffffffffffffffffffffffffffffffffffffff163373ffffffffffffffffffffffffffffffffffffffff1614905090565b6000610ba78261116c565b60019050919050565b6000610bbc838361124b565b6001905092915050565b6000610bd0611530565b6001905090565b6000610be28261163f565b60019050919050565b6000610bf5610b45565b1515610c69576040517f08c379a00000000000000000000000000000000000000000000000000000000081526004018080602001828103825260208152602001807f4f776e61626c653a2063616c6c6572206973206e6f7420746865206f776e657281525060200191505060405180910390fd5b60001515600160149054906101000a900460ff161515141515610c8b57600080fd5b600073ffffffffffffffffffffffffffffffffffffffff168273ffffffffffffffffffffffffffffffffffffffff1614151515610cc757600080fd5b60018060146101000a81548160ff02191690831515021790555081600160006101000a81548173ffffffffffffffffffffffffffffffffffffffff021916908373ffffffffffffffffffffffffffffffffffffffff160217905550670de0b6b3a764000060028190555060019050919050565b6000600460008373ffffffffffffffffffffffffffffffffffffffff1673ffffffffffffffffffffffffffffffffffffffff168152602001908152602001600020549050919050565b600160009054906101000a900473ffffffffffffffffffffffffffffffffffffffff1681565b6000610db482611a32565b60019050919050565b610dc5610b45565b1515610e39576040517f08c379a00000000000000000000000000000000000000000000000000000000081526004018080602001828103825260208152602001807f4f776e61626c653a2063616c6c6572206973206e6f7420746865206f776e657281525060200191505060405180910390fd5b610e4281611d94565b50565b6000600160009054906101000a900473ffffffffffffffffffffffffffffffffffffffff1673ffffffffffffffffffffffffffffffffffffffff16632ee8c2fa6040518163ffffffff167c01000000000000000000000000000000000000000000000000000000000281526004016101006040518083038186803b158015610ecc57600080fd5b505afa158015610ee0573d6000803e3d6000fd5b505050506040513d601f19601f82011682018060405250610100811015610f0657600080fd5b81019080919050506000600881101515610f1c57fe5b6020020151905060008173ffffffffffffffffffffffffffffffffffffffff1663321594346040518163ffffffff167c0100000000000000000000000000000000000000000000000000000000028152600401602060405180830381600087803b158015610f8957600080fd5b505af1158015610f9d573d6000803e3d6000fd5b505050506040513d6020811015610fb357600080fd5b8101908080519060200190929190505050905061103e610ff0600254610fe28487611f1d90919063ffffffff16565b611fea90919063ffffffff16565b600360003373ffffffffffffffffffffffffffffffffffffffff1673ffffffffffffffffffffffffffffffffffffffff1681526020019081526020016000205461207d90919063ffffffff16565b600360003373ffffffffffffffffffffffffffffffffffffffff1673ffffffffffffffffffffffffffffffffffffffff168152602001908152602001600020819055508173ffffffffffffffffffffffffffffffffffffffff1663a9059cbb33856040518363ffffffff167c0100000000000000000000000000000000000000000000000000000000028152600401808373ffffffffffffffffffffffffffffffffffffffff1673ffffffffffffffffffffffffffffffffffffffff16815260200182815260200192505050602060405180830381600087803b15801561112457600080fd5b505af1158015611138573d6000803e3d6000fd5b505050506040513d602081101561114e57600080fd5b8101908080519060200190929190505050151561116757fe5b505050565b6111be81600460003373ffffffffffffffffffffffffffffffffffffffff1673ffffffffffffffffffffffffffffffffffffffff1681526020019081526020016000205461207d90919063ffffffff16565b600460003373ffffffffffffffffffffffffffffffffffffffff1673ffffffffffffffffffffffffffffffffffffffff168152602001908152602001600020819055503373ffffffffffffffffffffffffffffffffffffffff166108fc829081150290604051600060405180830381858888f19350505050158015611247573d6000803e3d6000fd5b5050565b6000600160009054906101000a900473ffffffffffffffffffffffffffffffffffffffff1673ffffffffffffffffffffffffffffffffffffffff16632ee8c2fa6040518163ffffffff167c01000000000000000000000000000000000000000000000000000000000281526004016101006040518083038186803b1580156112d257600080fd5b505afa1580156112e6573d6000803e3d6000fd5b505050506040513d601f19601f8201168201806040525061010081101561130c57600080fd5b8101908091905050600060088110151561132257fe5b602002015190508073ffffffffffffffffffffffffffffffffffffffff163373ffffffffffffffffffffffffffffffffffffffff161415156113cc576040517f08c379a00000000000000000000000000000000000000000000000000000000081526004018080602001828103825260208152602001807f45786368616e67653a206e6f742074686520746f6b656e20636f6e747261637481525060200191505060405180910390fd5b60008173ffffffffffffffffffffffffffffffffffffffff1663321594346040518163ffffffff167c0100000000000000000000000000000000000000000000000000000000028152600401602060405180830381600087803b15801561143257600080fd5b505af1158015611446573d6000803e3d6000fd5b505050506040513d602081101561145c57600080fd5b810190808051906020019092919050505090506114e761149960025461148b8487611f1d90919063ffffffff16565b611fea90919063ffffffff16565b600360008773ffffffffffffffffffffffffffffffffffffffff1673ffffffffffffffffffffffffffffffffffffffff1681526020019081526020016000205461210890919063ffffffff16565b600360008673ffffffffffffffffffffffffffffffffffffffff1673ffffffffffffffffffffffffffffffffffffffff1681526020019081526020016000208190555050505050565b6000341115156115a8576040517f08c379a00000000000000000000000000000000000000000000000000000000081526004018080602001828103825260178152602001807f45786368616e67653a206e6f2076616c75652073656e6400000000000000000081525060200191505060405180910390fd5b6115fa34600460003373ffffffffffffffffffffffffffffffffffffffff1673ffffffffffffffffffffffffffffffffffffffff1681526020019081526020016000205461210890919063ffffffff16565b600460003373ffffffffffffffffffffffffffffffffffffffff1673ffffffffffffffffffffffffffffffffffffffff16815260200190815260200160002081905550565b6000600160009054906101000a900473ffffffffffffffffffffffffffffffffffffffff1673ffffffffffffffffffffffffffffffffffffffff16632ee8c2fa6040518163ffffffff167c01000000000000000000000000000000000000000000000000000000000281526004016101006040518083038186803b1580156116c657600080fd5b505afa1580156116da573d6000803e3d6000fd5b505050506040513d601f19601f8201168201806040525061010081101561170057600080fd5b8101908091905050600060088110151561171657fe5b6020020151905060006117276105ff565b9050600061173e8285611fea90919063ffffffff16565b90508273ffffffffffffffffffffffffffffffffffffffff166370a08231306040518263ffffffff167c0100000000000000000000000000000000000000000000000000000000028152600401808273ffffffffffffffffffffffffffffffffffffffff1673ffffffffffffffffffffffffffffffffffffffff16815260200191505060206040518083038186803b1580156117d957600080fd5b505afa1580156117ed573d6000803e3d6000fd5b505050506040513d602081101561180357600080fd5b810190808051906020019092919050505084111515156118b1576040517f08c379a00000000000000000000000000000000000000000000000000000000081526004018080602001828103825260268152602001807f45786368616e67653a206e6f7420656e6f75676820746f6b656e7320696e207281526020017f657365727665000000000000000000000000000000000000000000000000000081525060400191505060405180910390fd5b61190381600460003373ffffffffffffffffffffffffffffffffffffffff1673ffffffffffffffffffffffffffffffffffffffff1681526020019081526020016000205461207d90919063ffffffff16565b600460003373ffffffffffffffffffffffffffffffffffffffff1673ffffffffffffffffffffffffffffffffffffffff168152602001908152602001600020819055508273ffffffffffffffffffffffffffffffffffffffff1663a9059cbb33866040518363ffffffff167c0100000000000000000000000000000000000000000000000000000000028152600401808373ffffffffffffffffffffffffffffffffffffffff1673ffffffffffffffffffffffffffffffffffffffff16815260200182815260200192505050602060405180830381600087803b1580156119e957600080fd5b505af11580156119fd573d6000803e3d6000fd5b505050506040513d6020811015611a1357600080fd5b81019080805190602001909291905050501515611a2c57fe5b50505050565b6000600160009054906101000a900473ffffffffffffffffffffffffffffffffffffffff1673ffffffffffffffffffffffffffffffffffffffff16632ee8c2fa6040518163ffffffff167c01000000000000000000000000000000000000000000000000000000000281526004016101006040518083038186803b158015611ab957600080fd5b505afa158015611acd573d6000803e3d6000fd5b505050506040513d601f19601f82011682018060405250610100811015611af357600080fd5b81019080919050506000600881101515611b0957fe5b6020020151905060008173ffffffffffffffffffffffffffffffffffffffff1663321594346040518163ffffffff167c0100000000000000000000000000000000000000000000000000000000028152600401602060405180830381600087803b158015611b7657600080fd5b505af1158015611b8a573d6000803e3d6000fd5b505050506040513d6020811015611ba057600080fd5b810190808051906020019092919050505090506000611bbd6105ff565b90506000611bd48286611f1d90919063ffffffff16565b90503073ffffffffffffffffffffffffffffffffffffffff16318511151515611c8b576040517f08c379a00000000000000000000000000000000000000000000000000000000081526004018080602001828103825260258152602001807f45786368616e67653a206e6f7420656e6f75676820657468657220696e20726581526020017f736572766500000000000000000000000000000000000000000000000000000081525060400191505060405180910390fd5b611d03611cb5600254611ca78685611f1d90919063ffffffff16565b611fea90919063ffffffff16565b600360003373ffffffffffffffffffffffffffffffffffffffff1673ffffffffffffffffffffffffffffffffffffffff1681526020019081526020016000205461207d90919063ffffffff16565b600360003373ffffffffffffffffffffffffffffffffffffffff1673ffffffffffffffffffffffffffffffffffffffff168152602001908152602001600020819055503373ffffffffffffffffffffffffffffffffffffffff166108fc869081150290604051600060405180830381858888f19350505050158015611d8c573d6000803e3d6000fd5b505050505050565b600073ffffffffffffffffffffffffffffffffffffffff168173ffffffffffffffffffffffffffffffffffffffff1614151515611e5f576040517f08c379a00000000000000000000000000000000000000000000000000000000081526004018080602001828103825260268152602001807f4f776e61626c653a206e6577206f776e657220697320746865207a65726f206181526020017f646472657373000000000000000000000000000000000000000000000000000081525060400191505060405180910390fd5b8073ffffffffffffffffffffffffffffffffffffffff166000809054906101000a900473ffffffffffffffffffffffffffffffffffffffff1673ffffffffffffffffffffffffffffffffffffffff167f8be0079c531659141344cd1fd0a4f28419497f9722a3daafe3b4186f6b6457e060405160405180910390a3806000806101000a81548173ffffffffffffffffffffffffffffffffffffffff021916908373ffffffffffffffffffffffffffffffffffffffff16021790555050565b600080831415611f305760009050611fe4565b60008284029050828482811515611f4357fe5b04141515611fdf576040517f08c379a00000000000000000000000000000000000000000000000000000000081526004018080602001828103825260218152602001807f536166654d6174683a206d756c7469706c69636174696f6e206f766572666c6f81526020017f770000000000000000000000000000000000000000000000000000000000000081525060400191505060405180910390fd5b809150505b92915050565b60008082111515612063576040517f08c379a000000000000000000000000000000000000000000000000000000000815260040180806020018281038252601a8152602001807f536166654d6174683a206469766973696f6e206279207a65726f00000000000081525060200191505060405180910390fd5b6000828481151561207057fe5b0490508091505092915050565b60008282111515156120f7576040517f08c379a000000000000000000000000000000000000000000000000000000000815260040180806020018281038252601e8152602001807f536166654d6174683a207375627472616374696f6e206f766572666c6f77000081525060200191505060405180910390fd5b600082840390508091505092915050565b6000808284019050838110151515612188576040517f08c379a000000000000000000000000000000000000000000000000000000000815260040180806020018281038252601b8152602001807f536166654d6174683a206164646974696f6e206f766572666c6f77000000000081525060200191505060405180910390fd5b8091505092915050565b604080519081016040528060029060208202803883398082019150509050509056fea165627a7a723058201e06dd920bac7ccd9e4ad03591cc1cb6063ee975b05fb74ee39c4da48afa704f0029",
  "source": "/** \n *  Exchange contract for the linked stablecoin.\n *\n *  The exchange takes the oracle price input for ETH in USD. Then fixes the price between the\n *  stablecoin and Ether on 1 stablecoin for 1 USD (in ETH).\n * \n**/\n\npragma solidity ^0.5.0;\n\nimport \"@openzeppelin/contracts/math/SafeMath.sol\";\nimport \"@openzeppelin/contracts/ownership/Ownable.sol\";\nimport \"@openzeppelin/contracts/token/ERC20/IERC20.sol\";\n\nimport \"./LinkedICOL.sol\";\nimport \"./LinkedIPROXY.sol\";\n\ncontract LinkedEXC is Ownable {\n    using SafeMath for uint256;\n \n    //Proxy address for system contracts\n    IPROX public proxy;\n    bool public initialized;\n    //Exchange variables\n    uint256 base;\n    mapping (address => uint256) private _claimsTKN;\n    mapping (address => uint256) private _claimsETH;\n\n    /**\n    * @dev Fallback function. Makes the contract payable.\n    */\n    function() external payable {}\n\n    /**\n    * Set proxy address\n    */\n    function initialize(address _proxy) onlyOwner public returns (bool success) {\n            require (initialized == false);\n            require (_proxy != address(0));\n            initialized = true;\n            proxy = IPROX(_proxy);\n            base = 10**18;\n            return true;\n    }\n    \n    function totalReserve() public view returns (uint256[2] memory) {\n\t        IERC20 token = IERC20(proxy.readAddress()[0]);\n\t        uint256 ethReserve = address(this).balance;\n\t        uint256 tokenReserve = token.balanceOf(address(this));\n\t        uint256[2] memory _totalReserve = [ethReserve, tokenReserve];\n\t        return _totalReserve;\n\t}\n    \n    function claimOfTKN(address account) public view returns (uint256) {\n\t\t    return _claimsTKN[account];\n\t}\n\tfunction claimOfETH(address account) public view returns (uint256) {\n\t\t    return _claimsETH[account];\n\t}\n\n    /**\n    * Read the current ETH price rate\n    */\n    function rate() public view returns (uint256) {\n            ICOL collateral = ICOL(proxy.readAddress()[1]);   \n            return collateral.rate();\n    }\n    \n    /**\n    * Deposit tokens (sell) and receive a claim for buying ETH  \n    */\n    function sellTKN(address receiver, uint256 amount) public returns (bool) {\n            _sellTKN(receiver, amount);\n            return true;\n    }\n    \n    /**\n    * Withraw tokens (buy)) with a claim after deposit of ETH\n    */\n    function buyTKN(uint256 amount) public payable returns (bool) {\n            _buyTKN(amount);\n            return true;\n    }\n    \n    /**\n    * Deposit ETH (sell) and receive a claim for buying tokens\n    */\n    function sellETH() public payable returns (bool) {\n            _sellETH();\n            return true;\n    }\n    \n    /**\n    * Withraw ETH (buy) with a claim after deposit of tokens\n    */\n    function buyETH(uint256 amount) public returns (bool) {\n            _buyETH(amount);\n            return true;\n    }\n    \n    /**\n    * Remove token claim to retreive tokens\n    */\n    function removeClaimTKN(uint256 amount) public returns (bool) {\n            _removeClaimTKN(amount);\n            return true;\n    }\n    \n    /**\n    * Remove ETH claim to retreive ETH\n    */\n    function removeClaimETH(uint256 amount) public returns (bool) {\n            _removeClaimETH(amount);\n            return true;\n    }\n    \n    /**\n    *  @dev Internal functions called by the above functions.\n    */\n    function _sellTKN(address receiver, uint256 amount) internal {\n            IERC20 token = IERC20(proxy.readAddress()[0]);\n            require(msg.sender == address(token), \"Exchange: not the token contract\");\n            uint256 normRate = token.updateNormRate();\n            //normalise amount in claim\n            _claimsTKN[receiver] = _claimsTKN[receiver].add(amount.mul(normRate).div(base));\n    }\n    \n    function _sellETH() internal {\n            require(msg.value > 0, \"Exchange: no value send\");\n            _claimsETH[msg.sender] = _claimsETH[msg.sender].add(msg.value);\n    }\n    \n    function _buyTKN(uint256 amount) internal {\n            IERC20 token = IERC20(proxy.readAddress()[0]);\n            uint256 rateUSD = rate();\n            uint256 _amountETH = amount.div(rateUSD);\n            require(amount <= token.balanceOf(address(this)), \"Exchange: not enough tokens in reserve\");\n            _claimsETH[msg.sender] = _claimsETH[msg.sender].sub(_amountETH);\n            assert(token.transfer(msg.sender, amount));\n    }\n\n    function _buyETH(uint256 amount) internal {\n            IERC20 token = IERC20(proxy.readAddress()[0]);\n            uint256 normRate = token.updateNormRate();\n            uint256 rateUSD = rate();\n            uint256 _amountTKN = amount.mul(rateUSD);\n            require(amount <= address(this).balance, \"Exchange: not enough ether in reserve\");\n            _claimsTKN[msg.sender] = _claimsTKN[msg.sender].sub(_amountTKN.mul(normRate).div(base));\n            msg.sender.transfer(amount);\n    }\n    \n    function _removeClaimTKN(uint256 amount) internal {\n            IERC20 token = IERC20(proxy.readAddress()[0]);\n            uint256 normRate = token.updateNormRate();\n            _claimsTKN[msg.sender] = _claimsTKN[msg.sender].sub(amount.mul(normRate).div(base));\n            assert(token.transfer(msg.sender, amount));\n    }\n    \n    function _removeClaimETH(uint256 amount) internal {\n            _claimsETH[msg.sender] = _claimsETH[msg.sender].sub(amount);\n            msg.sender.transfer(amount);\n    }\n}",
  "sourcePath": "/Users/kevinfoesenek/Desktop/Linked_multiORC_FC/contracts/LinkedEXC.sol",
  "compiler": {
    "name": "solc",
    "version": "0.5.0+commit.1d4f565a.Emscripten.clang"
  },
  "schemaVersion": "3.0.1",
  "updatedAt": "2020-01-03T13:32:13.986Z",
  "devdoc": {
    "methods": {
      "isOwner()": {
        "details": "Returns true if the caller is the current owner."
      },
      "owner()": {
        "details": "Returns the address of the current owner."
      },
      "renounceOwnership()": {
        "details": "Leaves the contract without owner. It will not be possible to call `onlyOwner` functions anymore. Can only be called by the current owner.     * > Note: Renouncing ownership will leave the contract without an owner, thereby removing any functionality that is only available to the owner."
      },
      "transferOwnership(address)": {
        "details": "Transfers ownership of the contract to a new account (`newOwner`). Can only be called by the current owner."
      }
    }
  },
  "userdoc": {
    "methods": {
      "buyETH(uint256)": {
        "notice": "Withraw ETH (buy) with a claim after deposit of tokens"
      },
      "buyTKN(uint256)": {
        "notice": "Withraw tokens (buy)) with a claim after deposit of ETH"
      },
      "initialize(address)": {
        "notice": "Set proxy address"
      },
      "rate()": {
        "notice": "Read the current ETH price rate"
      },
      "removeClaimETH(uint256)": {
        "notice": "Remove ETH claim to retreive ETH"
      },
      "removeClaimTKN(uint256)": {
        "notice": "Remove token claim to retreive tokens"
      },
      "sellETH()": {
        "notice": "Deposit ETH (sell) and receive a claim for buying tokens"
      },
      "sellTKN(address,uint256)": {
        "notice": "Deposit tokens (sell) and receive a claim for buying ETH  "
      }
    }
  }
}