{
  "contractName": "LinkedCOL",
  "abi": [
    {
      "constant": true,
      "inputs": [],
      "name": "initialized",
      "outputs": [
        {
          "name": "",
          "type": "bool"
        }
      ],
      "payable": false,
      "stateMutability": "view",
      "type": "function"
    },
    {
      "constant": true,
      "inputs": [
        {
          "name": "",
          "type": "address"
        }
      ],
      "name": "index",
      "outputs": [
        {
          "name": "",
          "type": "uint256"
        }
      ],
      "payable": false,
      "stateMutability": "view",
      "type": "function"
    },
    {
      "constant": true,
      "inputs": [],
      "name": "rate",
      "outputs": [
        {
          "name": "",
          "type": "uint256"
        }
      ],
      "payable": false,
      "stateMutability": "view",
      "type": "function"
    },
    {
      "constant": true,
      "inputs": [],
      "name": "tldata",
      "outputs": [
        {
          "name": "_totalCPs",
          "type": "uint256"
        },
        {
          "name": "_supplyCPETH",
          "type": "uint256"
        },
        {
          "name": "_supplyCPToken",
          "type": "uint256"
        }
      ],
      "payable": false,
      "stateMutability": "view",
      "type": "function"
    },
    {
      "constant": true,
      "inputs": [],
      "name": "base",
      "outputs": [
        {
          "name": "",
          "type": "uint256"
        }
      ],
      "payable": false,
      "stateMutability": "view",
      "type": "function"
    },
    {
      "constant": true,
      "inputs": [],
      "name": "remFund",
      "outputs": [
        {
          "name": "",
          "type": "uint256"
        }
      ],
      "payable": false,
      "stateMutability": "view",
      "type": "function"
    },
    {
      "constant": false,
      "inputs": [],
      "name": "renounceOwnership",
      "outputs": [],
      "payable": false,
      "stateMutability": "nonpayable",
      "type": "function"
    },
    {
      "constant": true,
      "inputs": [],
      "name": "liqPer",
      "outputs": [
        {
          "name": "",
          "type": "uint256"
        }
      ],
      "payable": false,
      "stateMutability": "view",
      "type": "function"
    },
    {
      "constant": true,
      "inputs": [
        {
          "name": "",
          "type": "uint256"
        },
        {
          "name": "",
          "type": "uint256"
        }
      ],
      "name": "_LiqInfo",
      "outputs": [
        {
          "name": "id",
          "type": "uint256"
        },
        {
          "name": "account",
          "type": "address"
        }
      ],
      "payable": false,
      "stateMutability": "view",
      "type": "function"
    },
    {
      "constant": true,
      "inputs": [],
      "name": "owner",
      "outputs": [
        {
          "name": "",
          "type": "address"
        }
      ],
      "payable": false,
      "stateMutability": "view",
      "type": "function"
    },
    {
      "constant": true,
      "inputs": [],
      "name": "isOwner",
      "outputs": [
        {
          "name": "",
          "type": "bool"
        }
      ],
      "payable": false,
      "stateMutability": "view",
      "type": "function"
    },
    {
      "constant": true,
      "inputs": [
        {
          "name": "",
          "type": "uint256"
        }
      ],
      "name": "_LiqRange",
      "outputs": [
        {
          "name": "",
          "type": "uint256"
        }
      ],
      "payable": false,
      "stateMutability": "view",
      "type": "function"
    },
    {
      "constant": true,
      "inputs": [],
      "name": "tax",
      "outputs": [
        {
          "name": "",
          "type": "address"
        }
      ],
      "payable": false,
      "stateMutability": "view",
      "type": "function"
    },
    {
      "constant": true,
      "inputs": [
        {
          "name": "",
          "type": "address"
        },
        {
          "name": "",
          "type": "uint256"
        }
      ],
      "name": "CP",
      "outputs": [
        {
          "name": "amountETH",
          "type": "uint256"
        },
        {
          "name": "amountToken",
          "type": "uint256"
        },
        {
          "name": "liquidation",
          "type": "uint256"
        },
        {
          "name": "liqrange",
          "type": "uint256"
        },
        {
          "name": "liqid",
          "type": "uint256"
        }
      ],
      "payable": false,
      "stateMutability": "view",
      "type": "function"
    },
    {
      "constant": true,
      "inputs": [],
      "name": "minCol",
      "outputs": [
        {
          "name": "",
          "type": "uint256"
        }
      ],
      "payable": false,
      "stateMutability": "view",
      "type": "function"
    },
    {
      "constant": true,
      "inputs": [],
      "name": "proxy",
      "outputs": [
        {
          "name": "",
          "type": "address"
        }
      ],
      "payable": false,
      "stateMutability": "view",
      "type": "function"
    },
    {
      "constant": false,
      "inputs": [
        {
          "name": "newOwner",
          "type": "address"
        }
      ],
      "name": "transferOwnership",
      "outputs": [],
      "payable": false,
      "stateMutability": "nonpayable",
      "type": "function"
    },
    {
      "payable": true,
      "stateMutability": "payable",
      "type": "fallback"
    },
    {
      "anonymous": false,
      "inputs": [
        {
          "indexed": false,
          "name": "Rate",
          "type": "uint256"
        }
      ],
      "name": "UpdateRate",
      "type": "event"
    },
    {
      "anonymous": false,
      "inputs": [
        {
          "indexed": false,
          "name": "account",
          "type": "address"
        },
        {
          "indexed": false,
          "name": "id",
          "type": "uint256"
        }
      ],
      "name": "OpenCP",
      "type": "event"
    },
    {
      "anonymous": false,
      "inputs": [
        {
          "indexed": false,
          "name": "account",
          "type": "address"
        },
        {
          "indexed": false,
          "name": "id",
          "type": "uint256"
        }
      ],
      "name": "CloseCP",
      "type": "event"
    },
    {
      "anonymous": false,
      "inputs": [
        {
          "indexed": false,
          "name": "sender",
          "type": "address"
        },
        {
          "indexed": false,
          "name": "receiver",
          "type": "address"
        },
        {
          "indexed": false,
          "name": "id",
          "type": "uint256"
        }
      ],
      "name": "TransferCP",
      "type": "event"
    },
    {
      "anonymous": false,
      "inputs": [
        {
          "indexed": true,
          "name": "previousOwner",
          "type": "address"
        },
        {
          "indexed": true,
          "name": "newOwner",
          "type": "address"
        }
      ],
      "name": "OwnershipTransferred",
      "type": "event"
    },
    {
      "constant": false,
      "inputs": [
        {
          "name": "_proxy",
          "type": "address"
        }
      ],
      "name": "initialize",
      "outputs": [
        {
          "name": "success",
          "type": "bool"
        }
      ],
      "payable": false,
      "stateMutability": "nonpayable",
      "type": "function"
    },
    {
      "constant": false,
      "inputs": [
        {
          "name": "newRate",
          "type": "uint256"
        }
      ],
      "name": "updateRate",
      "outputs": [
        {
          "name": "success",
          "type": "bool"
        }
      ],
      "payable": false,
      "stateMutability": "nonpayable",
      "type": "function"
    },
    {
      "constant": true,
      "inputs": [
        {
          "name": "account",
          "type": "address"
        },
        {
          "name": "id",
          "type": "uint256"
        }
      ],
      "name": "individualCPdata",
      "outputs": [
        {
          "name": "",
          "type": "uint256[2]"
        }
      ],
      "payable": false,
      "stateMutability": "view",
      "type": "function"
    },
    {
      "constant": true,
      "inputs": [],
      "name": "dataTotalCP",
      "outputs": [
        {
          "name": "",
          "type": "uint256[3]"
        }
      ],
      "payable": false,
      "stateMutability": "view",
      "type": "function"
    },
    {
      "constant": false,
      "inputs": [
        {
          "name": "amount",
          "type": "uint256"
        }
      ],
      "name": "openCP",
      "outputs": [
        {
          "name": "success",
          "type": "bool"
        }
      ],
      "payable": true,
      "stateMutability": "payable",
      "type": "function"
    },
    {
      "constant": false,
      "inputs": [
        {
          "name": "recipient",
          "type": "address"
        },
        {
          "name": "id",
          "type": "uint256"
        }
      ],
      "name": "transfer",
      "outputs": [
        {
          "name": "",
          "type": "bool"
        }
      ],
      "payable": false,
      "stateMutability": "nonpayable",
      "type": "function"
    },
    {
      "constant": false,
      "inputs": [
        {
          "name": "id",
          "type": "uint256"
        }
      ],
      "name": "depositETHCP",
      "outputs": [
        {
          "name": "success",
          "type": "bool"
        }
      ],
      "payable": true,
      "stateMutability": "payable",
      "type": "function"
    },
    {
      "constant": false,
      "inputs": [
        {
          "name": "amount",
          "type": "uint256"
        },
        {
          "name": "id",
          "type": "uint256"
        }
      ],
      "name": "withdrawETHCP",
      "outputs": [
        {
          "name": "success",
          "type": "bool"
        }
      ],
      "payable": true,
      "stateMutability": "payable",
      "type": "function"
    },
    {
      "constant": false,
      "inputs": [
        {
          "name": "amount",
          "type": "uint256"
        },
        {
          "name": "id",
          "type": "uint256"
        }
      ],
      "name": "depositTokenCP",
      "outputs": [
        {
          "name": "success",
          "type": "bool"
        }
      ],
      "payable": true,
      "stateMutability": "payable",
      "type": "function"
    },
    {
      "constant": false,
      "inputs": [
        {
          "name": "amount",
          "type": "uint256"
        },
        {
          "name": "id",
          "type": "uint256"
        }
      ],
      "name": "withdrawTokenCP",
      "outputs": [
        {
          "name": "success",
          "type": "bool"
        }
      ],
      "payable": true,
      "stateMutability": "payable",
      "type": "function"
    },
    {
      "constant": false,
      "inputs": [
        {
          "name": "account",
          "type": "address"
        },
        {
          "name": "id",
          "type": "uint256"
        }
      ],
      "name": "liquidateCP",
      "outputs": [
        {
          "name": "success",
          "type": "bool"
        }
      ],
      "payable": true,
      "stateMutability": "payable",
      "type": "function"
    }
  ],
  "bytecode": "0x6080604052336000806101000a81548173ffffffffffffffffffffffffffffffffffffffff021916908373ffffffffffffffffffffffffffffffffffffffff1602179055506000809054906101000a900473ffffffffffffffffffffffffffffffffffffffff1673ffffffffffffffffffffffffffffffffffffffff16600073ffffffffffffffffffffffffffffffffffffffff167f8be0079c531659141344cd1fd0a4f28419497f9722a3daafe3b4186f6b6457e060405160405180910390a3615e1c806100cf6000396000f3fe60806040526004361061016a576000357c0100000000000000000000000000000000000000000000000000000000900463ffffffff16806303d025661461016c5780631100049214610203578063158ef93e1461024957806318def8ef146102785780632c4e722e146102dd57806347178907146103085780635001f3b514610341578063568fc3141461036c57806364babf3e146103975780636503cf0d146103ea57806369ea17711461043a578063715018a61461048d57806374534f59146104a45780637a338cb7146104cf5780637b7cea9c1461051f5780638da5cb5b146105ab5780638f32d59b1461060257806393983eec1461063157806395921b481461067757806399c8d556146106c6578063a9059cbb1461071d578063b371b40914610790578063c4d66de81461081b578063ca6c868f14610884578063e42e7c9b146108af578063ec556889146108ff578063f2fde38b14610956578063f6ad4e9c146109a7575b005b34801561017857600080fd5b506101c56004803603604081101561018f57600080fd5b81019080803573ffffffffffffffffffffffffffffffffffffffff16906020019092919080359060200190929190505050610a0d565b6040518082600260200280838360005b838110156101f05780820151818401526020810190506101d5565b5050505090500191505060405180910390f35b61022f6004803603602081101561021957600080fd5b8101908080359060200190929190505050610be9565b604051808215151515815260200191505060405180910390f35b34801561025557600080fd5b5061025e610e91565b604051808215151515815260200191505060405180910390f35b34801561028457600080fd5b506102c76004803603602081101561029b57600080fd5b81019080803573ffffffffffffffffffffffffffffffffffffffff169060200190929190505050610ea4565b6040518082815260200191505060405180910390f35b3480156102e957600080fd5b506102f2610ebc565b6040518082815260200191505060405180910390f35b34801561031457600080fd5b5061031d610ec2565b60405180848152602001838152602001828152602001935050505060405180910390f35b34801561034d57600080fd5b50610356610eda565b6040518082815260200191505060405180910390f35b34801561037857600080fd5b50610381610ee0565b6040518082815260200191505060405180910390f35b3480156103a357600080fd5b506103ac610ee6565b6040518082600360200280838360005b838110156103d75780820151818401526020810190506103bc565b5050505090500191505060405180910390f35b6104206004803603604081101561040057600080fd5b810190808035906020019092919080359060200190929190505050611041565b604051808215151515815260200191505060405180910390f35b34801561044657600080fd5b506104736004803603602081101561045d57600080fd5b810190808035906020019092919050505061179d565b604051808215151515815260200191505060405180910390f35b34801561049957600080fd5b506104a2611a96565b005b3480156104b057600080fd5b506104b9611bd1565b6040518082815260200191505060405180910390f35b610505600480360360408110156104e557600080fd5b810190808035906020019092919080359060200190929190505050611bd7565b604051808215151515815260200191505060405180910390f35b34801561052b57600080fd5b506105626004803603604081101561054257600080fd5b81019080803590602001909291908035906020019092919050505061229a565b604051808381526020018273ffffffffffffffffffffffffffffffffffffffff1673ffffffffffffffffffffffffffffffffffffffff1681526020019250505060405180910390f35b3480156105b757600080fd5b506105c06122eb565b604051808273ffffffffffffffffffffffffffffffffffffffff1673ffffffffffffffffffffffffffffffffffffffff16815260200191505060405180910390f35b34801561060e57600080fd5b50610617612314565b604051808215151515815260200191505060405180910390f35b61065d6004803603602081101561064757600080fd5b810190808035906020019092919050505061236b565b604051808215151515815260200191505060405180910390f35b34801561068357600080fd5b506106b06004803603602081101561069a57600080fd5b810190808035906020019092919050505061294f565b6040518082815260200191505060405180910390f35b3480156106d257600080fd5b506106db612967565b604051808273ffffffffffffffffffffffffffffffffffffffff1673ffffffffffffffffffffffffffffffffffffffff16815260200191505060405180910390f35b34801561072957600080fd5b506107766004803603604081101561074057600080fd5b81019080803573ffffffffffffffffffffffffffffffffffffffff1690602001909291908035906020019092919050505061298d565b604051808215151515815260200191505060405180910390f35b34801561079c57600080fd5b506107e9600480360360408110156107b357600080fd5b81019080803573ffffffffffffffffffffffffffffffffffffffff16906020019092919080359060200190929190505050612b77565b604051808681526020018581526020018481526020018381526020018281526020019550505050505060405180910390f35b34801561082757600080fd5b5061086a6004803603602081101561083e57600080fd5b81019080803573ffffffffffffffffffffffffffffffffffffffff169060200190929190505050612bba565b604051808215151515815260200191505060405180910390f35b34801561089057600080fd5b50610899612e3a565b6040518082815260200191505060405180910390f35b6108e5600480360360408110156108c557600080fd5b810190808035906020019092919080359060200190929190505050612e40565b604051808215151515815260200191505060405180910390f35b34801561090b57600080fd5b50610914613685565b604051808273ffffffffffffffffffffffffffffffffffffffff1673ffffffffffffffffffffffffffffffffffffffff16815260200191505060405180910390f35b34801561096257600080fd5b506109a56004803603602081101561097957600080fd5b81019080803573ffffffffffffffffffffffffffffffffffffffff1690602001909291905050506136ab565b005b6109f3600480360360408110156109bd57600080fd5b81019080803573ffffffffffffffffffffffffffffffffffffffff16906020019092919080359060200190929190505050613733565b604051808215151515815260200191505060405180910390f35b610a15615d58565b610a1d615d58565b6000600660009054906101000a900473ffffffffffffffffffffffffffffffffffffffff1673ffffffffffffffffffffffffffffffffffffffff1663af3b4df86040518163ffffffff167c010000000000000000000000000000000000000000000000000000000002815260040160206040518083038186803b158015610aa357600080fd5b505afa158015610ab7573d6000803e3d6000fd5b505050506040513d6020811015610acd57600080fd5b81019080805190602001909291905050509050600260008673ffffffffffffffffffffffffffffffffffffffff1673ffffffffffffffffffffffffffffffffffffffff168152602001908152602001600020600085815260200190815260200160002060000154826000600281101515610b4357fe5b602002018181525050610bc681610bb8600e54600260008a73ffffffffffffffffffffffffffffffffffffffff1673ffffffffffffffffffffffffffffffffffffffff16815260200190815260200160002060008981526020019081526020016000206001015461436f90919063ffffffff16565b61443c90919063ffffffff16565b826001600281101515610bd557fe5b602002018181525050819250505092915050565b6000600560009054906101000a900473ffffffffffffffffffffffffffffffffffffffff1673ffffffffffffffffffffffffffffffffffffffff1663a0b9f0e16040518163ffffffff167c010000000000000000000000000000000000000000000000000000000002815260040160206040518083038186803b158015610c6f57600080fd5b505afa158015610c83573d6000803e3d6000fd5b505050506040513d6020811015610c9957600080fd5b8101908080519060200190929190505050151515610d1f576040517f08c379a00000000000000000000000000000000000000000000000000000000081526004018080602001828103825260108152602001807f5061757361626c653a207061757365640000000000000000000000000000000081525060200191505060405180910390fd5b610d27615d7a565b610d323360006144cf565b90506000610d70600e54610d62846001600781101515610d4e57fe5b60200201518761436f90919063ffffffff16565b61443c90919063ffffffff16565b90506000610dae6064610da0600b54610d92348761443c90919063ffffffff16565b61436f90919063ffffffff16565b61443c90919063ffffffff16565b90506000610dc76103e88361443c90919063ffffffff16565b9050610de681856000600781101515610ddc57fe5b60200201516147a7565b610e06846000600781101515610df857fe5b6020020151878585856148a1565b7fc2bde2869d34f0d99f3f33fcdb12ab7030894b9d89b00e07d779c852ba12abb233856000600781101515610e3757fe5b6020020151604051808373ffffffffffffffffffffffffffffffffffffffff1673ffffffffffffffffffffffffffffffffffffffff1681526020018281526020019250505060405180910390a16001945050505050919050565b600660149054906101000a900460ff1681565b60016020528060005260406000206000915090505481565b600a5481565b60078060000154908060010154908060020154905083565b600e5481565b600d5481565b610eee615d9d565b610ef6615d9d565b6000600660009054906101000a900473ffffffffffffffffffffffffffffffffffffffff1673ffffffffffffffffffffffffffffffffffffffff1663af3b4df86040518163ffffffff167c010000000000000000000000000000000000000000000000000000000002815260040160206040518083038186803b158015610f7c57600080fd5b505afa158015610f90573d6000803e3d6000fd5b505050506040513d6020811015610fa657600080fd5b81019080805190602001909291905050509050600760000154826000600381101515610fce57fe5b602002018181525050600760010154826001600381101515610fec57fe5b60200201818152505061102181611013600e5460076002015461436f90919063ffffffff16565b61443c90919063ffffffff16565b82600260038110151561103057fe5b602002018181525050819250505090565b6000600560009054906101000a900473ffffffffffffffffffffffffffffffffffffffff1673ffffffffffffffffffffffffffffffffffffffff1663a0b9f0e16040518163ffffffff167c010000000000000000000000000000000000000000000000000000000002815260040160206040518083038186803b1580156110c757600080fd5b505afa1580156110db573d6000803e3d6000fd5b505050506040513d60208110156110f157600080fd5b8101908080519060200190929190505050151515611177576040517f08c379a00000000000000000000000000000000000000000000000000000000081526004018080602001828103825260108152602001807f5061757361626c653a207061757365640000000000000000000000000000000081525060200191505060405180910390fd5b60006111df84600260003373ffffffffffffffffffffffffffffffffffffffff1673ffffffffffffffffffffffffffffffffffffffff168152602001908152602001600020600086815260200190815260200160002060000154614ee290919063ffffffff16565b10151515611255576040517f08c379a00000000000000000000000000000000000000000000000000000000081526004018080602001828103825260158152602001807f6e6f7420656e6f75676820636f6c6c61746572616c000000000000000000000081525060200191505060405180910390fd5b6000600560009054906101000a900473ffffffffffffffffffffffffffffffffffffffff1673ffffffffffffffffffffffffffffffffffffffff16632ee8c2fa6040518163ffffffff167c01000000000000000000000000000000000000000000000000000000000281526004016101006040518083038186803b1580156112dc57600080fd5b505afa1580156112f0573d6000803e3d6000fd5b505050506040513d601f19601f8201168201806040525061010081101561131657600080fd5b8101908091905050600260088110151561132c57fe5b6020020151905061133b615d7a565b61134533856144cf565b9050600061136f8683600260078110151561135c57fe5b6020020151614ee290919063ffffffff16565b905060006113c083600160078110151561138557fe5b60200201516113b2600e5486600360078110151561139f57fe5b602002015161436f90919063ffffffff16565b61443c90919063ffffffff16565b90506114068360046007811015156113d457fe5b60200201518460056007811015156113e857fe5b60200201518560066007811015156113fc57fe5b6020020151614f6d565b600082141561149e5761142e86888386600360078110151561142457fe5b6020020151615179565b7fc4e1df4952dc60d5bb87ac41461f223bc08e05506be88ef67a63471f4518e8a13387604051808373ffffffffffffffffffffffffffffffffffffffff1673ffffffffffffffffffffffffffffffffffffffff1681526020018281526020019250505060405180910390a16116a9565b60006114ed60646114df600b546114d1878960036007811015156114be57fe5b602002015161443c90919063ffffffff16565b61436f90919063ffffffff16565b61443c90919063ffffffff16565b905060006115066103e88361443c90919063ffffffff16565b905061151281896147a7565b81600260003373ffffffffffffffffffffffffffffffffffffffff1673ffffffffffffffffffffffffffffffffffffffff16815260200190815260200160002060008a81526020019081526020016000206002018190555080600260003373ffffffffffffffffffffffffffffffffffffffff1673ffffffffffffffffffffffffffffffffffffffff16815260200190815260200160002060008a8152602001908152602001600020600301819055506003600082815260200190815260200160002054600260003373ffffffffffffffffffffffffffffffffffffffff1673ffffffffffffffffffffffffffffffffffffffff16815260200190815260200160002060008a81526020019081526020016000206004018190555083600260003373ffffffffffffffffffffffffffffffffffffffff1673ffffffffffffffffffffffffffffffffffffffff16815260200190815260200160002060008a81526020019081526020016000206000018190555061169d89600760010154614ee290919063ffffffff16565b60076001018190555050505b8373ffffffffffffffffffffffffffffffffffffffff1663a9059cbb33896040518363ffffffff167c0100000000000000000000000000000000000000000000000000000000028152600401808373ffffffffffffffffffffffffffffffffffffffff1673ffffffffffffffffffffffffffffffffffffffff16815260200182815260200192505050602060405180830381600087803b15801561174c57600080fd5b505af1158015611760573d6000803e3d6000fd5b505050506040513d602081101561177657600080fd5b8101908080519060200190929190505050151561178f57fe5b600194505050505092915050565b6000600560009054906101000a900473ffffffffffffffffffffffffffffffffffffffff1673ffffffffffffffffffffffffffffffffffffffff1663a0b9f0e16040518163ffffffff167c010000000000000000000000000000000000000000000000000000000002815260040160206040518083038186803b15801561182357600080fd5b505afa158015611837573d6000803e3d6000fd5b505050506040513d602081101561184d57600080fd5b81019080805190602001909291905050501515156118d3576040517f08c379a00000000000000000000000000000000000000000000000000000000081526004018080602001828103825260108152602001807f5061757361626c653a207061757365640000000000000000000000000000000081525060200191505060405180910390fd5b600560009054906101000a900473ffffffffffffffffffffffffffffffffffffffff1673ffffffffffffffffffffffffffffffffffffffff16632ee8c2fa6040518163ffffffff167c01000000000000000000000000000000000000000000000000000000000281526004016101006040518083038186803b15801561195857600080fd5b505afa15801561196c573d6000803e3d6000fd5b505050506040513d601f19601f8201168201806040525061010081101561199257600080fd5b810190809190505060036008811015156119a857fe5b602002015173ffffffffffffffffffffffffffffffffffffffff163373ffffffffffffffffffffffffffffffffffffffff16141515611a4f576040517f08c379a000000000000000000000000000000000000000000000000000000000815260040180806020018281038252601c8152602001807f436f6c6c3a206e6f7420746865206f7261636c6520616464726573730000000081525060200191505060405180910390fd5b81600a819055507fc04ab144c3f6fd32b71825eb92c20af3c8b2f2b6680dfaf3645b527f098c245b826040518082815260200191505060405180910390a160019050919050565b611a9e612314565b1515611b12576040517f08c379a00000000000000000000000000000000000000000000000000000000081526004018080602001828103825260208152602001807f4f776e61626c653a2063616c6c6572206973206e6f7420746865206f776e657281525060200191505060405180910390fd5b600073ffffffffffffffffffffffffffffffffffffffff166000809054906101000a900473ffffffffffffffffffffffffffffffffffffffff1673ffffffffffffffffffffffffffffffffffffffff167f8be0079c531659141344cd1fd0a4f28419497f9722a3daafe3b4186f6b6457e060405160405180910390a360008060006101000a81548173ffffffffffffffffffffffffffffffffffffffff021916908373ffffffffffffffffffffffffffffffffffffffff160217905550565b600c5481565b6000600560009054906101000a900473ffffffffffffffffffffffffffffffffffffffff1673ffffffffffffffffffffffffffffffffffffffff1663a0b9f0e16040518163ffffffff167c010000000000000000000000000000000000000000000000000000000002815260040160206040518083038186803b158015611c5d57600080fd5b505afa158015611c71573d6000803e3d6000fd5b505050506040513d6020811015611c8757600080fd5b8101908080519060200190929190505050151515611d0d576040517f08c379a00000000000000000000000000000000000000000000000000000000081526004018080602001828103825260108152602001807f5061757361626c653a207061757365640000000000000000000000000000000081525060200191505060405180910390fd5b6000600560009054906101000a900473ffffffffffffffffffffffffffffffffffffffff1673ffffffffffffffffffffffffffffffffffffffff16632ee8c2fa6040518163ffffffff167c01000000000000000000000000000000000000000000000000000000000281526004016101006040518083038186803b158015611d9457600080fd5b505afa158015611da8573d6000803e3d6000fd5b505050506040513d601f19601f82011682018060405250610100811015611dce57600080fd5b81019080919050506002600881101515611de457fe5b60200201519050611df3615d7a565b611dfd33856144cf565b90506000611e3b600e54611e2d846001600781101515611e1957fe5b60200201518961436f90919063ffffffff16565b61443c90919063ffffffff16565b90506000611e6582846003600781101515611e5257fe5b60200201516156a590919063ffffffff16565b90506000611eb66064611ea8600b54611e9a886002600781101515611e8657fe5b60200201518761443c90919063ffffffff16565b61436f90919063ffffffff16565b61443c90919063ffffffff16565b90506000611ecf6103e88361443c90919063ffffffff16565b9050600083111515611f49576040517f08c379a00000000000000000000000000000000000000000000000000000000081526004018080602001828103825260118152602001807f6e6f7420656e6f75676820746f6b656e7300000000000000000000000000000081525060200191505060405180910390fd5b81600a54111515611fc2576040517f08c379a00000000000000000000000000000000000000000000000000000000081526004018080602001828103825260158152602001807f6e6f7420656e6f75676820636f6c6c61746572616c000000000000000000000081525060200191505060405180910390fd5b611fda896007600201546156a590919063ffffffff16565b600760020181905550612027856004600781101515611ff557fe5b602002015186600560078110151561200957fe5b602002015187600660078110151561201d57fe5b6020020151614f6d565b61203181896147a7565b81600260003373ffffffffffffffffffffffffffffffffffffffff1673ffffffffffffffffffffffffffffffffffffffff16815260200190815260200160002060008a81526020019081526020016000206002018190555082600260003373ffffffffffffffffffffffffffffffffffffffff1673ffffffffffffffffffffffffffffffffffffffff16815260200190815260200160002060008a81526020019081526020016000206001018190555080600260003373ffffffffffffffffffffffffffffffffffffffff1673ffffffffffffffffffffffffffffffffffffffff16815260200190815260200160002060008a8152602001908152602001600020600301819055506003600082815260200190815260200160002054600260003373ffffffffffffffffffffffffffffffffffffffff1673ffffffffffffffffffffffffffffffffffffffff16815260200190815260200160002060008a8152602001908152602001600020600401819055508573ffffffffffffffffffffffffffffffffffffffff166340c10f19338b6040518363ffffffff167c0100000000000000000000000000000000000000000000000000000000028152600401808373ffffffffffffffffffffffffffffffffffffffff1673ffffffffffffffffffffffffffffffffffffffff16815260200182815260200192505050602060405180830381600087803b15801561224757600080fd5b505af115801561225b573d6000803e3d6000fd5b505050506040513d602081101561227157600080fd5b8101908080519060200190929190505050151561228a57fe5b6001965050505050505092915050565b6004602052816000526040600020602052806000526040600020600091509150508060000154908060010160009054906101000a900473ffffffffffffffffffffffffffffffffffffffff16905082565b60008060009054906101000a900473ffffffffffffffffffffffffffffffffffffffff16905090565b60008060009054906101000a900473ffffffffffffffffffffffffffffffffffffffff1673ffffffffffffffffffffffffffffffffffffffff163373ffffffffffffffffffffffffffffffffffffffff1614905090565b6000600560009054906101000a900473ffffffffffffffffffffffffffffffffffffffff1673ffffffffffffffffffffffffffffffffffffffff1663a0b9f0e16040518163ffffffff167c010000000000000000000000000000000000000000000000000000000002815260040160206040518083038186803b1580156123f157600080fd5b505afa158015612405573d6000803e3d6000fd5b505050506040513d602081101561241b57600080fd5b81019080805190602001909291905050501515156124a1576040517f08c379a00000000000000000000000000000000000000000000000000000000081526004018080602001828103825260108152602001807f5061757361626c653a207061757365640000000000000000000000000000000081525060200191505060405180910390fd5b6000600260003373ffffffffffffffffffffffffffffffffffffffff1673ffffffffffffffffffffffffffffffffffffffff168152602001908152602001600020600084815260200190815260200160002060000154111515612592576040517f08c379a00000000000000000000000000000000000000000000000000000000081526004018080602001828103825260218152602001807f6e6f7420616e2061637469766520636f6c6c61746572616c20706f736974696f81526020017f6e0000000000000000000000000000000000000000000000000000000000000081525060400191505060405180910390fd5b61259a615d7a565b6125a433846144cf565b90506000600560009054906101000a900473ffffffffffffffffffffffffffffffffffffffff1673ffffffffffffffffffffffffffffffffffffffff16632ee8c2fa6040518163ffffffff167c01000000000000000000000000000000000000000000000000000000000281526004016101006040518083038186803b15801561262d57600080fd5b505afa158015612641573d6000803e3d6000fd5b505050506040513d601f19601f8201168201806040525061010081101561266757600080fd5b8101908091905050600260088110151561267d57fe5b6020020151905060006126ac3484600260078110151561269957fe5b60200201516156a590919063ffffffff16565b905060006126fd60646126ef600b546126e1868960036007811015156126ce57fe5b602002015161443c90919063ffffffff16565b61436f90919063ffffffff16565b61443c90919063ffffffff16565b905060006127166103e88361443c90919063ffffffff16565b9050612730346007600101546156a590919063ffffffff16565b60076001018190555061277d85600460078110151561274b57fe5b602002015186600560078110151561275f57fe5b602002015187600660078110151561277357fe5b6020020151614f6d565b61278781886147a7565b81600260003373ffffffffffffffffffffffffffffffffffffffff1673ffffffffffffffffffffffffffffffffffffffff16815260200190815260200160002060008981526020019081526020016000206002018190555082600260003373ffffffffffffffffffffffffffffffffffffffff1673ffffffffffffffffffffffffffffffffffffffff16815260200190815260200160002060008981526020019081526020016000206000018190555080600260003373ffffffffffffffffffffffffffffffffffffffff1673ffffffffffffffffffffffffffffffffffffffff1681526020019081526020016000206000898152602001908152602001600020600301819055506003600082815260200190815260200160002054600260003373ffffffffffffffffffffffffffffffffffffffff1673ffffffffffffffffffffffffffffffffffffffff1681526020019081526020016000206000898152602001908152602001600020600401819055508373ffffffffffffffffffffffffffffffffffffffff166108fc349081150290604051600060405180830381858888f19350505050158015612940573d6000803e3d6000fd5b50600195505050505050919050565b60036020528060005260406000206000915090505481565b600660009054906101000a900473ffffffffffffffffffffffffffffffffffffffff1681565b6000600560009054906101000a900473ffffffffffffffffffffffffffffffffffffffff1673ffffffffffffffffffffffffffffffffffffffff1663a0b9f0e16040518163ffffffff167c010000000000000000000000000000000000000000000000000000000002815260040160206040518083038186803b158015612a1357600080fd5b505afa158015612a27573d6000803e3d6000fd5b505050506040513d6020811015612a3d57600080fd5b8101908080519060200190929190505050151515612ac3576040517f08c379a00000000000000000000000000000000000000000000000000000000081526004018080602001828103825260108152602001807f5061757361626c653a207061757365640000000000000000000000000000000081525060200191505060405180910390fd5b612ace33848461572f565b7f204f9e99011ae31c4c782355672297ed6532e9ca30f9c825943e82a205dd15e4338484604051808473ffffffffffffffffffffffffffffffffffffffff1673ffffffffffffffffffffffffffffffffffffffff1681526020018373ffffffffffffffffffffffffffffffffffffffff1673ffffffffffffffffffffffffffffffffffffffff168152602001828152602001935050505060405180910390a16001905092915050565b6002602052816000526040600020602052806000526040600020600091509150508060000154908060010154908060020154908060030154908060040154905085565b6000612bc4612314565b1515612c38576040517f08c379a00000000000000000000000000000000000000000000000000000000081526004018080602001828103825260208152602001807f4f776e61626c653a2063616c6c6572206973206e6f7420746865206f776e657281525060200191505060405180910390fd5b60001515600660149054906101000a900460ff161515141515612c5a57600080fd5b600073ffffffffffffffffffffffffffffffffffffffff168273ffffffffffffffffffffffffffffffffffffffff1614151515612c9657600080fd5b6001600660146101000a81548160ff02191690831515021790555081600560006101000a81548173ffffffffffffffffffffffffffffffffffffffff021916908373ffffffffffffffffffffffffffffffffffffffff1602179055506000600560009054906101000a900473ffffffffffffffffffffffffffffffffffffffff1673ffffffffffffffffffffffffffffffffffffffff16632ee8c2fa6040518163ffffffff167c01000000000000000000000000000000000000000000000000000000000281526004016101006040518083038186803b158015612d7957600080fd5b505afa158015612d8d573d6000803e3d6000fd5b505050506040513d601f19601f82011682018060405250610100811015612db357600080fd5b81019080919050506004600881101515612dc957fe5b6020020151905080600660006101000a81548173ffffffffffffffffffffffffffffffffffffffff021916908373ffffffffffffffffffffffffffffffffffffffff1602179055506096600b81905550606e600c81905550670de0b6b3a7640000600e819055506001915050919050565b600b5481565b6000600560009054906101000a900473ffffffffffffffffffffffffffffffffffffffff1673ffffffffffffffffffffffffffffffffffffffff1663a0b9f0e16040518163ffffffff167c010000000000000000000000000000000000000000000000000000000002815260040160206040518083038186803b158015612ec657600080fd5b505afa158015612eda573d6000803e3d6000fd5b505050506040513d6020811015612ef057600080fd5b8101908080519060200190929190505050151515612f76576040517f08c379a00000000000000000000000000000000000000000000000000000000081526004018080602001828103825260108152602001807f5061757361626c653a207061757365640000000000000000000000000000000081525060200191505060405180910390fd5b6000600560009054906101000a900473ffffffffffffffffffffffffffffffffffffffff1673ffffffffffffffffffffffffffffffffffffffff16632ee8c2fa6040518163ffffffff167c01000000000000000000000000000000000000000000000000000000000281526004016101006040518083038186803b158015612ffd57600080fd5b505afa158015613011573d6000803e3d6000fd5b505050506040513d601f19601f8201168201806040525061010081101561303757600080fd5b8101908091905050600260088110151561304d57fe5b602002015190506000600560009054906101000a900473ffffffffffffffffffffffffffffffffffffffff1673ffffffffffffffffffffffffffffffffffffffff16632ee8c2fa6040518163ffffffff167c01000000000000000000000000000000000000000000000000000000000281526004016101006040518083038186803b1580156130db57600080fd5b505afa1580156130ef573d6000803e3d6000fd5b505050506040513d601f19601f8201168201806040525061010081101561311557600080fd5b8101908091905050600060088110151561312b57fe5b6020020151905061313a615d7a565b61314433866144cf565b90506000613182600e5461317484600160078110151561316057fe5b60200201518a61436f90919063ffffffff16565b61443c90919063ffffffff16565b905060006131ac8284600360078110151561319957fe5b6020020151614ee290919063ffffffff16565b905060006131fd60646131ef600b546131e18860026007811015156131cd57fe5b60200201518761443c90919063ffffffff16565b61436f90919063ffffffff16565b61443c90919063ffffffff16565b905060006132166103e88361443c90919063ffffffff16565b9050898673ffffffffffffffffffffffffffffffffffffffff166370a08231336040518263ffffffff167c0100000000000000000000000000000000000000000000000000000000028152600401808273ffffffffffffffffffffffffffffffffffffffff1673ffffffffffffffffffffffffffffffffffffffff16815260200191505060206040518083038186803b1580156132b257600080fd5b505afa1580156132c6573d6000803e3d6000fd5b505050506040513d60208110156132dc57600080fd5b8101908080519060200190929190505050101515156132fa57600080fd5b61333485600160078110151561330c57fe5b6020020151613326600e548561436f90919063ffffffff16565b61443c90919063ffffffff16565b600a541115156133ac576040517f08c379a00000000000000000000000000000000000000000000000000000000081526004018080602001828103825260158152602001807f6e6f7420656e6f75676820636f6c6c61746572616c000000000000000000000081525060200191505060405180910390fd5b6133c48a600760020154614ee290919063ffffffff16565b6007600201819055506134118560046007811015156133df57fe5b60200201518660056007811015156133f357fe5b602002015187600660078110151561340757fe5b6020020151614f6d565b61341b818a6147a7565b81600260003373ffffffffffffffffffffffffffffffffffffffff1673ffffffffffffffffffffffffffffffffffffffff16815260200190815260200160002060008b81526020019081526020016000206002018190555082600260003373ffffffffffffffffffffffffffffffffffffffff1673ffffffffffffffffffffffffffffffffffffffff16815260200190815260200160002060008b81526020019081526020016000206001018190555080600260003373ffffffffffffffffffffffffffffffffffffffff1673ffffffffffffffffffffffffffffffffffffffff16815260200190815260200160002060008b8152602001908152602001600020600301819055506003600082815260200190815260200160002054600260003373ffffffffffffffffffffffffffffffffffffffff1673ffffffffffffffffffffffffffffffffffffffff16815260200190815260200160002060008b8152602001908152602001600020600401819055508673ffffffffffffffffffffffffffffffffffffffff16639dc29fac338c6040518363ffffffff167c0100000000000000000000000000000000000000000000000000000000028152600401808373ffffffffffffffffffffffffffffffffffffffff1673ffffffffffffffffffffffffffffffffffffffff16815260200182815260200192505050602060405180830381600087803b15801561363157600080fd5b505af1158015613645573d6000803e3d6000fd5b505050506040513d602081101561365b57600080fd5b8101908080519060200190929190505050151561367457fe5b600197505050505050505092915050565b600560009054906101000a900473ffffffffffffffffffffffffffffffffffffffff1681565b6136b3612314565b1515613727576040517f08c379a00000000000000000000000000000000000000000000000000000000081526004018080602001828103825260208152602001807f4f776e61626c653a2063616c6c6572206973206e6f7420746865206f776e657281525060200191505060405180910390fd5b61373081615bcf565b50565b6000600560009054906101000a900473ffffffffffffffffffffffffffffffffffffffff1673ffffffffffffffffffffffffffffffffffffffff1663a0b9f0e16040518163ffffffff167c010000000000000000000000000000000000000000000000000000000002815260040160206040518083038186803b1580156137b957600080fd5b505afa1580156137cd573d6000803e3d6000fd5b505050506040513d60208110156137e357600080fd5b8101908080519060200190929190505050151515613869576040517f08c379a00000000000000000000000000000000000000000000000000000000081526004018080602001828103825260108152602001807f5061757361626c653a207061757365640000000000000000000000000000000081525060200191505060405180910390fd5b6000600560009054906101000a900473ffffffffffffffffffffffffffffffffffffffff1673ffffffffffffffffffffffffffffffffffffffff16632ee8c2fa6040518163ffffffff167c01000000000000000000000000000000000000000000000000000000000281526004016101006040518083038186803b1580156138f057600080fd5b505afa158015613904573d6000803e3d6000fd5b505050506040513d601f19601f8201168201806040525061010081101561392a57600080fd5b8101908091905050600260088110151561394057fe5b602002015190506000600560009054906101000a900473ffffffffffffffffffffffffffffffffffffffff1673ffffffffffffffffffffffffffffffffffffffff16632ee8c2fa6040518163ffffffff167c01000000000000000000000000000000000000000000000000000000000281526004016101006040518083038186803b1580156139ce57600080fd5b505afa1580156139e2573d6000803e3d6000fd5b505050506040513d601f19601f82011682018060405250610100811015613a0857600080fd5b81019080919050506000600881101515613a1e57fe5b60200201519050613a2d615d7a565b613a3733866144cf565b90506000613a88826001600781101515613a4d57fe5b6020020151613a7a600e54856003600781101515613a6757fe5b602002015161436f90919063ffffffff16565b61443c90919063ffffffff16565b9050600a54613b1a836001600781101515613a9f57fe5b6020020151613b0c600e54600260008d73ffffffffffffffffffffffffffffffffffffffff1673ffffffffffffffffffffffffffffffffffffffff16815260200190815260200160002060008c81526020019081526020016000206002015461436f90919063ffffffff16565b61443c90919063ffffffff16565b10151515613b90576040517f08c379a00000000000000000000000000000000000000000000000000000000081526004018080602001828103825260168152602001807f61626f7665206c69717569646174696f6e20726174650000000000000000000081525060200191505060405180910390fd5b613bb86064613baa600c548461436f90919063ffffffff16565b61443c90919063ffffffff16565b613be0600a54846002600781101515613bcd57fe5b602002015161436f90919063ffffffff16565b101515614013576000613c256064613c17600c54613c09600a548761443c90919063ffffffff16565b61436f90919063ffffffff16565b61443c90919063ffffffff16565b90506000613c4f82856002600781101515613c3c57fe5b6020020151614ee290919063ffffffff16565b9050828573ffffffffffffffffffffffffffffffffffffffff166370a08231336040518263ffffffff167c0100000000000000000000000000000000000000000000000000000000028152600401808273ffffffffffffffffffffffffffffffffffffffff1673ffffffffffffffffffffffffffffffffffffffff16815260200191505060206040518083038186803b158015613ceb57600080fd5b505afa158015613cff573d6000803e3d6000fd5b505050506040513d6020811015613d1557600080fd5b810190808051906020019092919050505010151515613dc2576040517f08c379a00000000000000000000000000000000000000000000000000000000081526004018080602001828103825260268152602001807f436f6c6c61746572616c3a203e2031313025207c206e6f7420656e6f7567682081526020017f746f6b656e73000000000000000000000000000000000000000000000000000081525060400191505060405180910390fd5b613df488856002600781101515613dd557fe5b602002015185876003600781101515613dea57fe5b6020020151615179565b613e38846004600781101515613e0657fe5b6020020151856005600781101515613e1a57fe5b6020020151866006600781101515613e2e57fe5b6020020151614f6d565b8573ffffffffffffffffffffffffffffffffffffffff1663a9059cbb33846040518363ffffffff167c0100000000000000000000000000000000000000000000000000000000028152600401808373ffffffffffffffffffffffffffffffffffffffff1673ffffffffffffffffffffffffffffffffffffffff16815260200182815260200192505050602060405180830381600087803b158015613edb57600080fd5b505af1158015613eef573d6000803e3d6000fd5b505050506040513d6020811015613f0557600080fd5b81019080805190602001909291905050501515613f1e57fe5b8573ffffffffffffffffffffffffffffffffffffffff1663a9059cbb8a836040518363ffffffff167c0100000000000000000000000000000000000000000000000000000000028152600401808373ffffffffffffffffffffffffffffffffffffffff1673ffffffffffffffffffffffffffffffffffffffff16815260200182815260200192505050602060405180830381600087803b158015613fc157600080fd5b505af1158015613fd5573d6000803e3d6000fd5b505050506040513d6020811015613feb57600080fd5b8101908080519060200190929190505050151561400457fe5b60019650505050505050614369565b6000614064600c546140566064614048600a5488600260078110151561403557fe5b602002015161436f90919063ffffffff16565b61436f90919063ffffffff16565b61443c90919063ffffffff16565b9050808473ffffffffffffffffffffffffffffffffffffffff166370a08231336040518263ffffffff167c0100000000000000000000000000000000000000000000000000000000028152600401808273ffffffffffffffffffffffffffffffffffffffff1673ffffffffffffffffffffffffffffffffffffffff16815260200191505060206040518083038186803b15801561410057600080fd5b505afa158015614114573d6000803e3d6000fd5b505050506040513d602081101561412a57600080fd5b8101908080519060200190929190505050101515156141d7576040517f08c379a00000000000000000000000000000000000000000000000000000000081526004018080602001828103825260268152602001807f436f6c6c61746572616c3a203c2031313025207c206e6f7420656e6f7567682081526020017f746f6b656e73000000000000000000000000000000000000000000000000000081525060400191505060405180910390fd5b6141ea8183614ee290919063ffffffff16565b600d819055506142228784600260078110151561420357fe5b60200201518486600360078110151561421857fe5b6020020151615179565b61426683600460078110151561423457fe5b602002015184600560078110151561424857fe5b602002015185600660078110151561425c57fe5b6020020151614f6d565b8473ffffffffffffffffffffffffffffffffffffffff1663a9059cbb3385600260078110151561429257fe5b60200201516040518363ffffffff167c0100000000000000000000000000000000000000000000000000000000028152600401808373ffffffffffffffffffffffffffffffffffffffff1673ffffffffffffffffffffffffffffffffffffffff16815260200182815260200192505050602060405180830381600087803b15801561431c57600080fd5b505af1158015614330573d6000803e3d6000fd5b505050506040513d602081101561434657600080fd5b8101908080519060200190929190505050151561435f57fe5b6000955050505050505b92915050565b6000808314156143825760009050614436565b6000828402905082848281151561439557fe5b04141515614431576040517f08c379a00000000000000000000000000000000000000000000000000000000081526004018080602001828103825260218152602001807f536166654d6174683a206d756c7469706c69636174696f6e206f766572666c6f81526020017f770000000000000000000000000000000000000000000000000000000000000081525060400191505060405180910390fd5b809150505b92915050565b600080821115156144b5576040517f08c379a000000000000000000000000000000000000000000000000000000000815260040180806020018281038252601a8152602001807f536166654d6174683a206469766973696f6e206279207a65726f00000000000081525060200191505060405180910390fd5b600082848115156144c257fe5b0490508091505092915050565b6144d7615d7a565b6144df615d7a565b6000600160008673ffffffffffffffffffffffffffffffffffffffff1673ffffffffffffffffffffffffffffffffffffffff1681526020019081526020016000205490506000600660009054906101000a900473ffffffffffffffffffffffffffffffffffffffff1673ffffffffffffffffffffffffffffffffffffffff1663321594346040518163ffffffff167c0100000000000000000000000000000000000000000000000000000000028152600401602060405180830381600087803b1580156145ab57600080fd5b505af11580156145bf573d6000803e3d6000fd5b505050506040513d60208110156145d557600080fd5b810190808051906020019092919050505090506000600260008873ffffffffffffffffffffffffffffffffffffffff1673ffffffffffffffffffffffffffffffffffffffff16815260200190815260200160002060008781526020019081526020016000206000015490506000600260008973ffffffffffffffffffffffffffffffffffffffff1673ffffffffffffffffffffffffffffffffffffffff16815260200190815260200160002060008881526020019081526020016000206001015490506000600260008a73ffffffffffffffffffffffffffffffffffffffff1673ffffffffffffffffffffffffffffffffffffffff16815260200190815260200160002060008981526020019081526020016000206003015490506000600260008b73ffffffffffffffffffffffffffffffffffffffff1673ffffffffffffffffffffffffffffffffffffffff16815260200190815260200160002060008a815260200190815260200160002060040154905060006003600084815260200190815260200160002054905060e060405190810160405280888152602001878152602001868152602001858152602001848152602001838152602001828152509750879850505050505050505092915050565b6147ce600160036000858152602001908152602001600020546156a590919063ffffffff16565b6003600084815260200190815260200160002081905550806004600084815260200190815260200160002060006003600086815260200190815260200160002054815260200190815260200160002060000181905550336004600084815260200190815260200160002060006003600086815260200190815260200160002054815260200190815260200160002060010160006101000a81548173ffffffffffffffffffffffffffffffffffffffff021916908373ffffffffffffffffffffffffffffffffffffffff1602179055505050565b6000600560009054906101000a900473ffffffffffffffffffffffffffffffffffffffff1673ffffffffffffffffffffffffffffffffffffffff16632ee8c2fa6040518163ffffffff167c01000000000000000000000000000000000000000000000000000000000281526004016101006040518083038186803b15801561492857600080fd5b505afa15801561493c573d6000803e3d6000fd5b505050506040513d601f19601f8201168201806040525061010081101561496257600080fd5b8101908091905050600260088110151561497857fe5b602002015190506000600560009054906101000a900473ffffffffffffffffffffffffffffffffffffffff1673ffffffffffffffffffffffffffffffffffffffff16632ee8c2fa6040518163ffffffff167c01000000000000000000000000000000000000000000000000000000000281526004016101006040518083038186803b158015614a0657600080fd5b505afa158015614a1a573d6000803e3d6000fd5b505050506040513d601f19601f82011682018060405250610100811015614a4057600080fd5b81019080919050506002600881101515614a5657fe5b60200201519050614a86600b54614a78600a548961443c90919063ffffffff16565b61436f90919063ffffffff16565b614a9a60643461436f90919063ffffffff16565b111515614b0f576040517f08c379a00000000000000000000000000000000000000000000000000000000081526004018080602001828103825260158152602001807f6e6f7420656e6f75676820636f6c6c61746572616c000000000000000000000081525060200191505060405180910390fd5b606060405190810160405280614b3460016007600001546156a590919063ffffffff16565b8152602001614b51346007600101546156a590919063ffffffff16565b8152602001614b6e876007600201546156a590919063ffffffff16565b815250600760008201518160000155602082015181600101556040820151816002015590505060018060003373ffffffffffffffffffffffffffffffffffffffff1673ffffffffffffffffffffffffffffffffffffffff1681526020019081526020016000206000828254019250508190555034600260003373ffffffffffffffffffffffffffffffffffffffff1673ffffffffffffffffffffffffffffffffffffffff16815260200190815260200160002060008981526020019081526020016000206000018190555083600260003373ffffffffffffffffffffffffffffffffffffffff1673ffffffffffffffffffffffffffffffffffffffff16815260200190815260200160002060008981526020019081526020016000206002018190555084600260003373ffffffffffffffffffffffffffffffffffffffff1673ffffffffffffffffffffffffffffffffffffffff16815260200190815260200160002060008981526020019081526020016000206001018190555082600260003373ffffffffffffffffffffffffffffffffffffffff1673ffffffffffffffffffffffffffffffffffffffff1681526020019081526020016000206000898152602001908152602001600020600301819055506003600084815260200190815260200160002054600260003373ffffffffffffffffffffffffffffffffffffffff1673ffffffffffffffffffffffffffffffffffffffff1681526020019081526020016000206000898152602001908152602001600020600401819055508073ffffffffffffffffffffffffffffffffffffffff166108fc349081150290604051600060405180830381858888f19350505050158015614df2573d6000803e3d6000fd5b508173ffffffffffffffffffffffffffffffffffffffff166340c10f1933886040518363ffffffff167c0100000000000000000000000000000000000000000000000000000000028152600401808373ffffffffffffffffffffffffffffffffffffffff1673ffffffffffffffffffffffffffffffffffffffff16815260200182815260200192505050602060405180830381600087803b158015614e9657600080fd5b505af1158015614eaa573d6000803e3d6000fd5b505050506040513d6020811015614ec057600080fd5b81019080805190602001909291905050501515614ed957fe5b50505050505050565b6000828211151515614f5c576040517f08c379a000000000000000000000000000000000000000000000000000000000815260040180806020018281038252601e8152602001807f536166654d6174683a207375627472616374696f6e206f766572666c6f77000081525060200191505060405180910390fd5b600082840390508091505092915050565b614f75615dc0565b600460008581526020019081526020016000206000838152602001908152602001600020604080519081016040529081600082015481526020016001820160009054906101000a900473ffffffffffffffffffffffffffffffffffffffff1673ffffffffffffffffffffffffffffffffffffffff1673ffffffffffffffffffffffffffffffffffffffff1681525050905061502d60016003600087815260200190815260200160002054614ee290919063ffffffff16565b6003600086815260200190815260200160002081905550806004600086815260200190815260200160002060008581526020019081526020016000206000820151816000015560208201518160010160006101000a81548173ffffffffffffffffffffffffffffffffffffffff021916908373ffffffffffffffffffffffffffffffffffffffff1602179055509050506004600085815260200190815260200160002060008381526020019081526020016000206000808201600090556001820160006101000a81549073ffffffffffffffffffffffffffffffffffffffff021916905550508260026000836020015173ffffffffffffffffffffffffffffffffffffffff1673ffffffffffffffffffffffffffffffffffffffff1681526020019081526020016000206000836000015181526020019081526020016000206004018190555050505050565b6000600560009054906101000a900473ffffffffffffffffffffffffffffffffffffffff1673ffffffffffffffffffffffffffffffffffffffff16632ee8c2fa6040518163ffffffff167c01000000000000000000000000000000000000000000000000000000000281526004016101006040518083038186803b15801561520057600080fd5b505afa158015615214573d6000803e3d6000fd5b505050506040513d601f19601f8201168201806040525061010081101561523a57600080fd5b8101908091905050600260088110151561525057fe5b602002015190506000600560009054906101000a900473ffffffffffffffffffffffffffffffffffffffff1673ffffffffffffffffffffffffffffffffffffffff16632ee8c2fa6040518163ffffffff167c01000000000000000000000000000000000000000000000000000000000281526004016101006040518083038186803b1580156152de57600080fd5b505afa1580156152f2573d6000803e3d6000fd5b505050506040513d601f19601f8201168201806040525061010081101561531857600080fd5b8101908091905050600060088110151561532e57fe5b60200201519050838173ffffffffffffffffffffffffffffffffffffffff166370a08231336040518263ffffffff167c0100000000000000000000000000000000000000000000000000000000028152600401808273ffffffffffffffffffffffffffffffffffffffff1673ffffffffffffffffffffffffffffffffffffffff16815260200191505060206040518083038186803b1580156153cf57600080fd5b505afa1580156153e3573d6000803e3d6000fd5b505050506040513d60208110156153f957600080fd5b810190808051906020019092919050505010151515615480576040517f08c379a00000000000000000000000000000000000000000000000000000000081526004018080602001828103825260118152602001807f6e6f7420656e6f75676820746f6b656e7300000000000000000000000000000081525060200191505060405180910390fd5b6060604051908101604052806154a56001600760000154614ee290919063ffffffff16565b81526020016154c287600760010154614ee290919063ffffffff16565b81526020016154df85600760020154614ee290919063ffffffff16565b815250600760008201518160000155602082015181600101556040820151816002015590505060a060405190810160405280600081526020016000815260200160008152602001600081526020016000815250600260003373ffffffffffffffffffffffffffffffffffffffff1673ffffffffffffffffffffffffffffffffffffffff168152602001908152602001600020600088815260200190815260200160002060008201518160000155602082015181600101556040820151816002015560608201518160030155608082015181600401559050508173ffffffffffffffffffffffffffffffffffffffff16639dc29fac33866040518363ffffffff167c0100000000000000000000000000000000000000000000000000000000028152600401808373ffffffffffffffffffffffffffffffffffffffff1673ffffffffffffffffffffffffffffffffffffffff16815260200182815260200192505050602060405180830381600087803b15801561565a57600080fd5b505af115801561566e573d6000803e3d6000fd5b505050506040513d602081101561568457600080fd5b8101908080519060200190929190505050151561569d57fe5b505050505050565b6000808284019050838110151515615725576040517f08c379a000000000000000000000000000000000000000000000000000000000815260040180806020018281038252601b8152602001807f536166654d6174683a206164646974696f6e206f766572666c6f77000000000081525060200191505060405180910390fd5b8091505092915050565b615737615d7a565b61574133836144cf565b90506000600260008673ffffffffffffffffffffffffffffffffffffffff1673ffffffffffffffffffffffffffffffffffffffff1681526020019081526020016000206000848152602001908152602001600020600201549050600073ffffffffffffffffffffffffffffffffffffffff168573ffffffffffffffffffffffffffffffffffffffff1614151515615866576040517f08c379a00000000000000000000000000000000000000000000000000000000081526004018080602001828103825260258152602001807f45524332303a207472616e736665722066726f6d20746865207a65726f20616481526020017f647265737300000000000000000000000000000000000000000000000000000081525060400191505060405180910390fd5b600073ffffffffffffffffffffffffffffffffffffffff168473ffffffffffffffffffffffffffffffffffffffff1614151515615931576040517f08c379a00000000000000000000000000000000000000000000000000000000081526004018080602001828103825260238152602001807f45524332303a207472616e7366657220746f20746865207a65726f206164647281526020017f657373000000000000000000000000000000000000000000000000000000000081525060400191505060405180910390fd5b836004600084600460078110151561594557fe5b60200201518152602001908152602001600020600084600560078110151561596957fe5b6020020151815260200190815260200160002060010160006101000a81548173ffffffffffffffffffffffffffffffffffffffff021916908373ffffffffffffffffffffffffffffffffffffffff16021790555060a060405190810160405280600081526020016000815260200160008152602001600081526020016000815250600260008773ffffffffffffffffffffffffffffffffffffffff1673ffffffffffffffffffffffffffffffffffffffff1681526020019081526020016000206000858152602001908152602001600020600082015181600001556020820151816001015560408201518160020155606082015181600301556080820151816004015590505060018060008673ffffffffffffffffffffffffffffffffffffffff1673ffffffffffffffffffffffffffffffffffffffff1681526020019081526020016000206000828254019250508190555060a060405190810160405280836002600781101515615ad757fe5b60200201518152602001836003600781101515615af057fe5b60200201518152602001828152602001836004600781101515615b0f57fe5b60200201518152602001836005600781101515615b2857fe5b6020020151815250600260008673ffffffffffffffffffffffffffffffffffffffff1673ffffffffffffffffffffffffffffffffffffffff1681526020019081526020016000206000846000600781101515615b8057fe5b6020020151815260200190815260200160002060008201518160000155602082015181600101556040820151816002015560608201518160030155608082015181600401559050505050505050565b600073ffffffffffffffffffffffffffffffffffffffff168173ffffffffffffffffffffffffffffffffffffffff1614151515615c9a576040517f08c379a00000000000000000000000000000000000000000000000000000000081526004018080602001828103825260268152602001807f4f776e61626c653a206e6577206f776e657220697320746865207a65726f206181526020017f646472657373000000000000000000000000000000000000000000000000000081525060400191505060405180910390fd5b8073ffffffffffffffffffffffffffffffffffffffff166000809054906101000a900473ffffffffffffffffffffffffffffffffffffffff1673ffffffffffffffffffffffffffffffffffffffff167f8be0079c531659141344cd1fd0a4f28419497f9722a3daafe3b4186f6b6457e060405160405180910390a3806000806101000a81548173ffffffffffffffffffffffffffffffffffffffff021916908373ffffffffffffffffffffffffffffffffffffffff16021790555050565b6040805190810160405280600290602082028038833980820191505090505090565b60e060405190810160405280600790602082028038833980820191505090505090565b606060405190810160405280600390602082028038833980820191505090505090565b604080519081016040528060008152602001600073ffffffffffffffffffffffffffffffffffffffff168152509056fea165627a7a723058209771e3c4fc8361e97d5110e1808647a4b6cdcc505506a609d54d9bf4e89fd7d10029",
  "source": "/** \n *  Collateral contract for the linkedFC stablecoin.\n *  This contract enables opening a collateral position\n *  and minting tokens.\n * \n */\n\npragma solidity ^0.5.0;\n \nimport \"@openzeppelin/contracts/math/SafeMath.sol\";\nimport \"@openzeppelin/contracts/ownership/Ownable.sol\";\nimport \"@openzeppelin/contracts/token/ERC20/IERC20.sol\";\n\nimport \"./LinkedIPROXY.sol\";\nimport \"./LinkedICUST.sol\";\nimport \"./LinkedITAX.sol\";\n\npragma solidity ^0.5.0;\n\ncontract LinkedCOL is Ownable {\n    using SafeMath for uint256;\n    \n    struct userCP {\n        uint256 amountETH;\n        uint256 amountToken;\n        uint256 liquidation;\n        uint256 liqrange;\n        uint256 liqid;\n    }\n    struct overviewCP {\n        uint256 id;\n        address account;\n    }\n    struct totalData {\n        uint256 _totalCPs;\n        uint256 _supplyCPETH;\n        uint256 _supplyCPToken;\n    }\n    \n    mapping (address => uint256) public index; \n    mapping (address => mapping (uint256 => userCP)) public CP; \n    mapping (uint256 => uint256) public _LiqRange;\n    mapping (uint256 => mapping(uint256 => overviewCP)) public _LiqInfo;\n\n    //Proxy address for system contracts\n    IPROX public proxy;\n    ITAX public tax;\n    bool public initialized;\n    //Collateral data\n    totalData public tldata;\n    uint256 public rate; \n    uint256 public minCol;\n    uint256 public liqPer;\n    uint256 public remFund;\n    uint256 public base;\n\n    event UpdateRate(uint256 Rate);\n    event OpenCP(address account, uint256 id);\n    event CloseCP(address account, uint256 id);\n    event TransferCP(address sender, address receiver, uint256 id);\n\n    /**\n    * Set proxy address\n    */\n    function initialize(address _proxy) onlyOwner public returns (bool success) {\n            require (initialized == false);\n            require (_proxy != address(0));\n            initialized = true;\n            proxy = IPROX(_proxy);\n            address _tax = proxy.readAddress()[4];\n            tax = ITAX(_tax);\n            minCol = 150;\n            liqPer = 110;\n            base = 10**18;\n            return true;\n    }\n    \n    modifier whenNotPaused() {\n            require(!proxy.checkPause(), \"Pausable: paused\");\n            _;\n    }\n  \n    /**\n    * @dev Fallback function. Makes the contract payable.\n    */\n    function() external payable {}\n  \n    /**\n    *  @dev Updates the rate for a peg to 1 USD based on the oracle contract.\n    */\n    function updateRate(uint256 newRate) whenNotPaused public returns (bool success) {\n            require(msg.sender == proxy.readAddress()[3], \"Coll: not the oracle address\");\n            rate = newRate;\n            emit UpdateRate(newRate);\n            return true;\n    }\n    \n    /**\n    *  @dev Check balace of individual CPs - used by tax contract\n    */\n    function individualCPdata(address account, uint256 id) public view returns (uint256[2] memory) {\n            uint256[2] memory _CPData;\n            uint256 normRate = tax.viewNormRate();\n            _CPData[0] = CP[account][id].amountETH;\n            _CPData[1] = CP[account][id].amountToken.mul(base).div(normRate);\n            return _CPData;\n    }\n       \n    /**\n    *  @dev Check variables of total CPs\n    **/\n    function dataTotalCP() public view returns (uint256[3] memory) {\n            uint256[3] memory _totalData;\n            uint256 normRate = tax.viewNormRate();\n            _totalData[0] = tldata._totalCPs;\n            _totalData[1] = tldata._supplyCPETH;\n            _totalData[2] = tldata._supplyCPToken.mul(base).div(normRate);\n            return _totalData;\n    }\n    \n    /**\n    *  @dev Open collateral position and generate tokens\n    */\n    function openCP(uint amount) whenNotPaused payable public returns (bool success) {\n            uint256[7] memory info = _getCPdata(msg.sender, 0);\n            uint256 normAmount = amount.mul(info[1]).div(base);\n            uint256 liq = normAmount.div(msg.value).mul(minCol).div(100);\n            uint256 liqGroup = liq.div(1000);\n            _liqArrayAdd(liqGroup, info[0]);\n            _openCP(info[0], amount, normAmount, liq, liqGroup);\n            emit OpenCP(msg.sender, info[0]);\n            return true;\n    }\n    \n    /**\n    *  @dev Transfer collateral position to new user\n    */\n    function transfer(address recipient, uint256 id) whenNotPaused public returns (bool) {\n\t\t\t_transfer(msg.sender, recipient, id);\n\t\t\temit TransferCP(msg.sender, recipient, id);\n\t\t\treturn true;\n\t}\n\n    /**\n    *  @dev Deposit ETH in existing CP \n    */\n    function depositETHCP(uint id) whenNotPaused payable public returns (bool success) {\n            require(CP[msg.sender][id].amountETH > 0, \"not an active collateral position\");\n            uint256[7] memory info = _getCPdata(msg.sender, id);\n            address payable custodian = proxy.readAddress()[2];\n            uint256 newAmountETH = info[2].add(msg.value);\n            uint256 liq = info[3].div(newAmountETH).mul(minCol).div(100);\n            uint256 newliqGroup = liq.div(1000);\n            tldata._supplyCPETH = tldata._supplyCPETH.add(msg.value);\n            _liqArrayDelete(info[4], info[5], info[6]);\n            _liqArrayAdd(newliqGroup, id);\n            CP[msg.sender][id].liquidation = liq;\n            CP[msg.sender][id].amountETH = newAmountETH;\n            CP[msg.sender][id].liqrange = newliqGroup;\n            CP[msg.sender][id].liqid = _LiqRange[newliqGroup];\n            custodian.transfer(msg.value);\n            return true;\n    }\n    /**\n    *  @dev Witdraw ETH from existing CP || close CP when all of ETH is withdrawn\n    */\n    function withdrawETHCP(uint256 amount, uint id) whenNotPaused payable public returns (bool success) {\n            require(CP[msg.sender][id].amountETH.sub(amount) >= 0, \"not enough collateral\");\n            ICUST custodian = ICUST(proxy.readAddress()[2]);\n            uint256[7] memory info = _getCPdata(msg.sender, id);\n            uint256 newAmountETH = info[2].sub(amount);\n            uint256 amountTokens = info[3].mul(base).div(info[1]); \n            _liqArrayDelete(info[4], info[5], info[6]);\n            if (newAmountETH == 0) {\n                _closeCP(id, amount, amountTokens, info[3]);\n                emit CloseCP(msg.sender, id);\n            } else {\n                uint256 liq = info[3].div(newAmountETH).mul(minCol).div(100);\n                uint256 newliqGroup = liq.div(1000);\n                _liqArrayAdd(newliqGroup, id);\n                CP[msg.sender][id].liquidation = liq;\n                CP[msg.sender][id].liqrange = newliqGroup;\n                CP[msg.sender][id].liqid = _LiqRange[newliqGroup];\n                CP[msg.sender][id].amountETH = newAmountETH;\n                tldata._supplyCPETH = tldata._supplyCPETH.sub(amount);\n            }\n            assert(custodian.transfer(msg.sender, amount));\n            return true;\n    }\n    \n    /**\n    *  @dev Burn tokens from existing CP holder \n    */\n    function depositTokenCP(uint256 amount, uint id) whenNotPaused payable public returns (bool success) {\n            ICUST custodian = ICUST(proxy.readAddress()[2]);\n            IERC20 token = IERC20(proxy.readAddress()[0]);\n            uint256[7] memory info = _getCPdata(msg.sender, id);\n            uint256 normAmount = amount.mul(info[1]).div(base);\n            uint256 newAmountTokens = info[3].sub(normAmount);\n            uint256 liq = newAmountTokens.div(info[2]).mul(minCol).div(100);\n            uint256 newliqGroup = liq.div(1000);\n            require(token.balanceOf(msg.sender) >= amount);\n            require(rate > liq.mul(base).div(info[1]), \"not enough collateral\");\n            tldata._supplyCPToken = tldata._supplyCPToken.sub(amount);\n            _liqArrayDelete(info[4], info[5], info[6]);\n            _liqArrayAdd(newliqGroup, id);\n            CP[msg.sender][id].liquidation = liq;\n            CP[msg.sender][id].amountToken = newAmountTokens;\n            CP[msg.sender][id].liqrange = newliqGroup;\n            CP[msg.sender][id].liqid = _LiqRange[newliqGroup];\n            assert(custodian.burn(msg.sender, amount));\n            return true;\n    }\n    /**\n    *  @dev Mint new tokens from existing CP \n    */\n    function withdrawTokenCP(uint256 amount, uint id) whenNotPaused payable public returns (bool success) {\n            ICUST custodian = ICUST(proxy.readAddress()[2]);\n            uint256[7] memory info = _getCPdata(msg.sender, id);\n            uint256 normAmount = amount.mul(info[1]).div(base);\n            uint256 newAmountTokens = info[3].add(normAmount);\n            uint256 liq = newAmountTokens.div(info[2]).mul(minCol).div(100);\n            uint256 newliqGroup = liq.div(1000);\n            require(newAmountTokens > 0, \"not enough tokens\");\n            require(rate > liq, \"not enough collateral\");\n            tldata._supplyCPToken = tldata._supplyCPToken.add(amount);\n            _liqArrayDelete(info[4], info[5], info[6]);\n            _liqArrayAdd(newliqGroup, id);\n            CP[msg.sender][id].liquidation = liq;\n            CP[msg.sender][id].amountToken = newAmountTokens;\n            CP[msg.sender][id].liqrange = newliqGroup;\n            CP[msg.sender][id].liqid = _LiqRange[newliqGroup];\n            assert(custodian.mint(msg.sender, amount));\n            return true;\n    }\n\n    /**\n    *  @dev Liquidate existing CP if rate < 150% - discount for liquidator rest to original holder.\n    *       If ETH is insufficient for the liquidation then the rest of the tokens will be reegistered \n    *       in the removal fund. For later removal - possible by ETH fee on token transfers.\n    */\n    function liquidateCP(address account, uint id) whenNotPaused payable public returns (bool success) {\n            ICUST custodian = ICUST(proxy.readAddress()[2]);\n            IERC20 token = IERC20(proxy.readAddress()[0]);\n            uint256[7] memory info = _getCPdata(msg.sender, id);\n            uint256 amountTokens = info[3].mul(base).div(info[1]);\n            require(CP[account][id].liquidation.mul(base).div(info[1]) >= rate, \"above liquidation rate\");\n            if (info[2].mul(rate) >= amountTokens.mul(liqPer).div(100)) {\n                uint256 amountLiquidator = amountTokens.div(rate).mul(liqPer).div(100);\n                uint256 rest = info[2].sub(amountLiquidator);\n                require(token.balanceOf(msg.sender) >= amountTokens, \"Collateral: > 110% | not enough tokens\");\n                _closeCP(id, info[2], amountTokens, info[3]);\n                _liqArrayDelete(info[4], info[5], info[6]);\n                assert(custodian.transfer(msg.sender, amountLiquidator)); \n                assert(custodian.transfer(account, rest)); \n                return true;\n            } else {\n                uint256 availableToken = info[2].mul(rate).mul(100).div(liqPer);\n                require(token.balanceOf(msg.sender) >= availableToken, \"Collateral: < 110% | not enough tokens\");\n                remFund =  amountTokens.sub(availableToken);\n                _closeCP(id, info[2], amountTokens, info[3]);\n                _liqArrayDelete(info[4], info[5], info[6]);\n                assert(custodian.transfer(msg.sender, info[2])); \n                return false;\n            }\n    }\n\n    /**\n    *  @dev Internal functions called by the above functions.\n    */\n    function _getCPdata(address owner, uint256 id) internal returns (uint256[7] memory){\n            uint256[7] memory _getCPData;\n            uint256 _index = index[owner];\n            uint256 normRate = tax.updateNormRate();\n            uint256 amountETH = CP[owner][id].amountETH;\n            uint256 amountTokens = CP[owner][id].amountToken;\n            uint256 liqGroup = CP[owner][id].liqrange;\n            uint256 liqId = CP[owner][id].liqid;\n            uint256 lastLigId = _LiqRange[liqGroup];\n            _getCPData = [_index, \n                          normRate, \n                          amountETH, \n                          amountTokens,\n                          liqGroup,\n                          liqId,\n                          lastLigId];\n            return _getCPData;\n    }\n    \n    function _liqArrayAdd(uint256 newliqGroup, uint256 id) internal {\n            _LiqRange[newliqGroup] = _LiqRange[newliqGroup].add(1);\n            _LiqInfo[newliqGroup][_LiqRange[newliqGroup]].id = id;\n            _LiqInfo[newliqGroup][_LiqRange[newliqGroup]].account = msg.sender;\n    }\n    \n    function _liqArrayDelete(uint256 _group, uint256 _id, uint256 _lastId) internal {\n            overviewCP memory lastLigInfo = _LiqInfo[_group][_lastId];\n            _LiqRange[_group] = _LiqRange[_group].sub(1);\n            _LiqInfo[_group][_id] = lastLigInfo;\n            delete _LiqInfo[_group][_lastId];\n            CP[lastLigInfo.account][lastLigInfo.id].liqid = _id;\n    }\n   \n    function _openCP(uint256 _index, uint256 amount, uint256 normAmount, uint256 liq, uint256 liqGroup) internal {\n            ICUST cust = ICUST(proxy.readAddress()[2]);\n            address payable custodian = proxy.readAddress()[2];\n            require(msg.value.mul(100) > amount.div(rate).mul(minCol), \"not enough collateral\");\n            tldata = totalData({\n                _totalCPs: tldata._totalCPs.add(1),\n                _supplyCPETH: tldata._supplyCPETH.add(msg.value),\n                _supplyCPToken: tldata._supplyCPToken.add(normAmount)\n                });\n            index[msg.sender] += 1;\n            CP[msg.sender][_index].amountETH = msg.value;\n            CP[msg.sender][_index].liquidation = liq;\n            CP[msg.sender][_index].amountToken = normAmount;\n            CP[msg.sender][_index].liqrange = liqGroup;\n            CP[msg.sender][_index].liqid = _LiqRange[liqGroup];\n            custodian.transfer(msg.value);\n            assert(cust.mint(msg.sender, amount));\n    }\n    \n    function _closeCP(uint256 id, uint256 amountETH, uint256 amountTokens, uint256 amountNormTokens) internal {\n            ICUST custodian = ICUST(proxy.readAddress()[2]);\n            IERC20 token = IERC20(proxy.readAddress()[0]);\n            require(token.balanceOf(msg.sender) >= amountTokens, \"not enough tokens\");\n            tldata = totalData({\n                _totalCPs: tldata._totalCPs.sub(1),\n                _supplyCPETH: tldata._supplyCPETH.sub(amountETH),\n                _supplyCPToken: tldata._supplyCPToken.sub(amountNormTokens)\n                });\n            CP[msg.sender][id] = userCP({\n                amountETH: 0,\n                amountToken: 0,\n                liquidation: 0,\n                liqrange: 0,\n                liqid: 0\n            });\n            assert(custodian.burn(msg.sender, amountTokens));\n    }\n \n    function _transfer(address sender, address recipient, uint256 id) internal {\n            uint256[7] memory info = _getCPdata(msg.sender, id);\n            uint256 liq = CP[sender][id].liquidation;\n            require(sender != address(0), \"ERC20: transfer from the zero address\");\n\t\t\trequire(recipient != address(0), \"ERC20: transfer to the zero address\");\n            _LiqInfo[info[4]][info[5]].account = recipient;\n            CP[sender][id] = userCP({\n                amountETH: 0,\n                amountToken: 0,\n                liquidation: 0,\n                liqrange: 0,\n                liqid: 0\n            });\n            index[recipient] += 1;\n            CP[recipient][info[0]] = userCP({\n                amountETH: info[2],\n                amountToken: info[3],\n                liquidation: liq,\n                liqrange: info[4],\n                liqid: info[5]\n            });\n    }\n}",
  "sourcePath": "/Users/kevinfoesenek/Desktop/Linked_multiORC_FC/contracts/LinkedCP.sol",
  "compiler": {
    "name": "solc",
    "version": "0.5.0+commit.1d4f565a.Emscripten.clang"
  },
  "schemaVersion": "3.0.1",
  "updatedAt": "2019-12-23T13:25:11.485Z",
  "devdoc": {
    "methods": {
      "dataTotalCP()": {
        "details": "Check variables of total CPs*"
      },
      "depositETHCP(uint256)": {
        "details": "Deposit ETH in existing CP "
      },
      "depositTokenCP(uint256,uint256)": {
        "details": "Burn tokens from existing CP holder "
      },
      "individualCPdata(address,uint256)": {
        "details": "Check balace of individual CPs - used by tax contract"
      },
      "isOwner()": {
        "details": "Returns true if the caller is the current owner."
      },
      "liquidateCP(address,uint256)": {
        "details": "Liquidate existing CP if rate < 150% - discount for liquidator rest to original holder.      If ETH is insufficient for the liquidation then the rest of the tokens will be reegistered       in the removal fund. For later removal - possible by ETH fee on token transfers."
      },
      "openCP(uint256)": {
        "details": "Open collateral position and generate tokens"
      },
      "owner()": {
        "details": "Returns the address of the current owner."
      },
      "renounceOwnership()": {
        "details": "Leaves the contract without owner. It will not be possible to call `onlyOwner` functions anymore. Can only be called by the current owner.     * > Note: Renouncing ownership will leave the contract without an owner, thereby removing any functionality that is only available to the owner."
      },
      "transfer(address,uint256)": {
        "details": "Transfer collateral position to new user"
      },
      "transferOwnership(address)": {
        "details": "Transfers ownership of the contract to a new account (`newOwner`). Can only be called by the current owner."
      },
      "updateRate(uint256)": {
        "details": "Updates the rate for a peg to 1 USD based on the oracle contract."
      },
      "withdrawETHCP(uint256,uint256)": {
        "details": "Witdraw ETH from existing CP || close CP when all of ETH is withdrawn"
      },
      "withdrawTokenCP(uint256,uint256)": {
        "details": "Mint new tokens from existing CP "
      }
    }
  },
  "userdoc": {
    "methods": {
      "initialize(address)": {
        "notice": "Set proxy address"
      }
    }
  }
}