{
  "contractName": "LinkedTAX",
  "abi": [
    {
      "constant": true,
      "inputs": [],
      "name": "initialized",
      "outputs": [
        {
          "name": "",
          "type": "bool"
        }
      ],
      "payable": false,
      "stateMutability": "view",
      "type": "function"
    },
    {
      "constant": true,
      "inputs": [],
      "name": "baseRate",
      "outputs": [
        {
          "name": "",
          "type": "uint256"
        }
      ],
      "payable": false,
      "stateMutability": "view",
      "type": "function"
    },
    {
      "constant": false,
      "inputs": [],
      "name": "renounceOwnership",
      "outputs": [],
      "payable": false,
      "stateMutability": "nonpayable",
      "type": "function"
    },
    {
      "constant": true,
      "inputs": [],
      "name": "normRate",
      "outputs": [
        {
          "name": "",
          "type": "uint256"
        }
      ],
      "payable": false,
      "stateMutability": "view",
      "type": "function"
    },
    {
      "constant": true,
      "inputs": [],
      "name": "owner",
      "outputs": [
        {
          "name": "",
          "type": "address"
        }
      ],
      "payable": false,
      "stateMutability": "view",
      "type": "function"
    },
    {
      "constant": true,
      "inputs": [],
      "name": "isOwner",
      "outputs": [
        {
          "name": "",
          "type": "bool"
        }
      ],
      "payable": false,
      "stateMutability": "view",
      "type": "function"
    },
    {
      "constant": true,
      "inputs": [],
      "name": "proxy",
      "outputs": [
        {
          "name": "",
          "type": "address"
        }
      ],
      "payable": false,
      "stateMutability": "view",
      "type": "function"
    },
    {
      "constant": false,
      "inputs": [
        {
          "name": "newOwner",
          "type": "address"
        }
      ],
      "name": "transferOwnership",
      "outputs": [],
      "payable": false,
      "stateMutability": "nonpayable",
      "type": "function"
    },
    {
      "anonymous": false,
      "inputs": [
        {
          "indexed": true,
          "name": "previousOwner",
          "type": "address"
        },
        {
          "indexed": true,
          "name": "newOwner",
          "type": "address"
        }
      ],
      "name": "OwnershipTransferred",
      "type": "event"
    },
    {
      "constant": false,
      "inputs": [
        {
          "name": "_proxy",
          "type": "address"
        }
      ],
      "name": "initialize",
      "outputs": [
        {
          "name": "success",
          "type": "bool"
        }
      ],
      "payable": false,
      "stateMutability": "nonpayable",
      "type": "function"
    },
    {
      "constant": true,
      "inputs": [],
      "name": "viewNormRate",
      "outputs": [
        {
          "name": "",
          "type": "uint256"
        }
      ],
      "payable": false,
      "stateMutability": "view",
      "type": "function"
    },
    {
      "constant": false,
      "inputs": [],
      "name": "updateNormRate",
      "outputs": [
        {
          "name": "",
          "type": "uint256"
        }
      ],
      "payable": false,
      "stateMutability": "nonpayable",
      "type": "function"
    }
  ],
  "bytecode": "0x6080604052336000806101000a81548173ffffffffffffffffffffffffffffffffffffffff021916908373ffffffffffffffffffffffffffffffffffffffff1602179055506000809054906101000a900473ffffffffffffffffffffffffffffffffffffffff1673ffffffffffffffffffffffffffffffffffffffff16600073ffffffffffffffffffffffffffffffffffffffff167f8be0079c531659141344cd1fd0a4f28419497f9722a3daafe3b4186f6b6457e060405160405180910390a3610c44806100cf6000396000f3fe6080604052600436106100af576000357c0100000000000000000000000000000000000000000000000000000000900463ffffffff168063158ef93e146100b45780631f68f20a146100e3578063321594341461010e578063715018a6146101395780637b3d561a146101505780638da5cb5b1461017b5780638f32d59b146101d2578063af3b4df814610201578063c4d66de81461022c578063ec55688914610295578063f2fde38b146102ec575b600080fd5b3480156100c057600080fd5b506100c961033d565b604051808215151515815260200191505060405180910390f35b3480156100ef57600080fd5b506100f8610350565b6040518082815260200191505060405180910390f35b34801561011a57600080fd5b50610123610356565b6040518082815260200191505060405180910390f35b34801561014557600080fd5b5061014e610368565b005b34801561015c57600080fd5b506101656104a3565b6040518082815260200191505060405180910390f35b34801561018757600080fd5b506101906104a9565b604051808273ffffffffffffffffffffffffffffffffffffffff1673ffffffffffffffffffffffffffffffffffffffff16815260200191505060405180910390f35b3480156101de57600080fd5b506101e76104d2565b604051808215151515815260200191505060405180910390f35b34801561020d57600080fd5b50610216610529565b6040518082815260200191505060405180910390f35b34801561023857600080fd5b5061027b6004803603602081101561024f57600080fd5b81019080803573ffffffffffffffffffffffffffffffffffffffff169060200190929190505050610636565b604051808215151515815260200191505060405180910390f35b3480156102a157600080fd5b506102aa610785565b604051808273ffffffffffffffffffffffffffffffffffffffff1673ffffffffffffffffffffffffffffffffffffffff16815260200191505060405180910390f35b3480156102f857600080fd5b5061033b6004803603602081101561030f57600080fd5b81019080803573ffffffffffffffffffffffffffffffffffffffff1690602001909291905050506107ab565b005b600160149054906101000a900460ff1681565b60035481565b6000610360610833565b600254905090565b6103706104d2565b15156103e4576040517f08c379a00000000000000000000000000000000000000000000000000000000081526004018080602001828103825260208152602001807f4f776e61626c653a2063616c6c6572206973206e6f7420746865206f776e657281525060200191505060405180910390fd5b600073ffffffffffffffffffffffffffffffffffffffff166000809054906101000a900473ffffffffffffffffffffffffffffffffffffffff1673ffffffffffffffffffffffffffffffffffffffff167f8be0079c531659141344cd1fd0a4f28419497f9722a3daafe3b4186f6b6457e060405160405180910390a360008060006101000a81548173ffffffffffffffffffffffffffffffffffffffff021916908373ffffffffffffffffffffffffffffffffffffffff160217905550565b60025481565b60008060009054906101000a900473ffffffffffffffffffffffffffffffffffffffff16905090565b60008060009054906101000a900473ffffffffffffffffffffffffffffffffffffffff1673ffffffffffffffffffffffffffffffffffffffff163373ffffffffffffffffffffffffffffffffffffffff1614905090565b600080600160009054906101000a900473ffffffffffffffffffffffffffffffffffffffff1673ffffffffffffffffffffffffffffffffffffffff166348cd4cb16040518163ffffffff167c010000000000000000000000000000000000000000000000000000000002815260040160206040518083038186803b1580156105b057600080fd5b505afa1580156105c4573d6000803e3d6000fd5b505050506040513d60208110156105da57600080fd5b8101908080519060200190929190505050905060004390506000610607838361093c90919063ffffffff16565b9050600061062a82670de0b6b3a76400006003546109c79092919063ffffffff16565b90508094505050505090565b60006106406104d2565b15156106b4576040517f08c379a00000000000000000000000000000000000000000000000000000000081526004018080602001828103825260208152602001807f4f776e61626c653a2063616c6c6572206973206e6f7420746865206f776e657281525060200191505060405180910390fd5b60001515600160149054906101000a900460ff1615151415156106d657600080fd5b600073ffffffffffffffffffffffffffffffffffffffff168273ffffffffffffffffffffffffffffffffffffffff161415151561071257600080fd5b60018060146101000a81548160ff02191690831515021790555081600160006101000a81548173ffffffffffffffffffffffffffffffffffffffff021916908373ffffffffffffffffffffffffffffffffffffffff160217905550670de0b6b5315aa51060038190555060019050919050565b600160009054906101000a900473ffffffffffffffffffffffffffffffffffffffff1681565b6107b36104d2565b1515610827576040517f08c379a00000000000000000000000000000000000000000000000000000000081526004018080602001828103825260208152602001807f4f776e61626c653a2063616c6c6572206973206e6f7420746865206f776e657281525060200191505060405180910390fd5b61083081610a8f565b50565b6000600160009054906101000a900473ffffffffffffffffffffffffffffffffffffffff1673ffffffffffffffffffffffffffffffffffffffff166348cd4cb16040518163ffffffff167c010000000000000000000000000000000000000000000000000000000002815260040160206040518083038186803b1580156108b957600080fd5b505afa1580156108cd573d6000803e3d6000fd5b505050506040513d60208110156108e357600080fd5b8101908080519060200190929190505050905060004390506000610910838361093c90919063ffffffff16565b905061093181670de0b6b3a76400006003546109c79092919063ffffffff16565b600281905550505050565b60008282111515156109b6576040517f08c379a000000000000000000000000000000000000000000000000000000000815260040180806020018281038252601e8152602001807f536166654d6174683a207375627472616374696f6e206f766572666c6f77000081525060200191505060405180910390fd5b600082840390508091505092915050565b60008360008114610a6f5760028406600081146109e6578592506109ea565b8392505b50600283046002850494505b8415610a695785860286878204141515610a0f57600080fd5b81810181811015610a1f57600080fd5b85810497506002870615610a5c578785028589820414158915151615610a4457600080fd5b83810181811015610a5457600080fd5b878104965050505b50506002850494506109f6565b50610a87565b8360008114610a815760009250610a85565b8392505b505b509392505050565b600073ffffffffffffffffffffffffffffffffffffffff168173ffffffffffffffffffffffffffffffffffffffff1614151515610b5a576040517f08c379a00000000000000000000000000000000000000000000000000000000081526004018080602001828103825260268152602001807f4f776e61626c653a206e6577206f776e657220697320746865207a65726f206181526020017f646472657373000000000000000000000000000000000000000000000000000081525060400191505060405180910390fd5b8073ffffffffffffffffffffffffffffffffffffffff166000809054906101000a900473ffffffffffffffffffffffffffffffffffffffff1673ffffffffffffffffffffffffffffffffffffffff167f8be0079c531659141344cd1fd0a4f28419497f9722a3daafe3b4186f6b6457e060405160405180910390a3806000806101000a81548173ffffffffffffffffffffffffffffffffffffffff021916908373ffffffffffffffffffffffffffffffffffffffff1602179055505056fea165627a7a72305820eb569548da613d1049b0c1fff31fc309f866cdf7627059712f061e726bdfd6340029",
  "source": "/**\n*   Oracle contract for the linked stablecoin.\n*   The contract uses the decentralized oracle chainlink\n**/\n\npragma solidity ^0.5.0;\n\nimport \"@openzeppelin/contracts/ownership/Ownable.sol\";\nimport \"@openzeppelin/contracts/math/SafeMath.sol\";\nimport \"@openzeppelin/contracts/token/ERC20/IERC20.sol\";\n\nimport \"./LinkedICOL.sol\";\nimport \"./LinkedIPROXY.sol\";\n\n/** \n*\n*   Stable coin Linked - stability tax distribution contract.\n*   \n**/\n\ncontract LinkedTAX is Ownable {\n    using SafeMath for uint256;\n    \n    //Proxy address for system contracts\n    IPROX public proxy;\n    bool public initialized;\n    //Variables for the normalisation calculation\n    uint256 public normRate;\n\tuint256 public baseRate;\n\t\n    /**\n    * @dev Set proxy address\n    */\n    function initialize(address _proxy) onlyOwner public returns (bool success) {\n            require (initialized == false);\n            require (_proxy != address(0));\n            initialized = true;\n            proxy = IPROX(_proxy);\n            baseRate = 1000000006609610000;             // 1.00000000660961 * 10^18 ~= 1.5% per year \n            return true;\n    }\n    \n    /**\n\t* @dev Update the normalisation rate for the stability fee decuction.\n    **/\n    function viewNormRate() public view returns (uint256) {\n            uint256 startBlockNum = proxy.startBlock();\n\t        uint256 newBlockNum = block.number;\n\t        uint256 blockDiff = newBlockNum.sub(startBlockNum);\n            uint256 tempnormRate = baseRate.rpow(blockDiff, 10**18);            \n            return tempnormRate;\n    }\n    \n    /**\n\t* @dev Update the normalisation rate for the stability fee decuction.\n    **/\n    function updateNormRate() public returns (uint256) {\n            _updateNormRate();\n            return normRate;\n    }\n    \n    /**\n\t* @dev Update the normalisation rate for the stability fee decuction. \n\t* Uses the `safe` rpow for power calculation.\n    **/\n\tfunction _updateNormRate() internal {\n\t        uint256 startBlockNum = proxy.startBlock();\n\t        uint256 newBlockNum = block.number;\n\t        uint256 blockDiff = newBlockNum.sub(startBlockNum);\n            normRate = baseRate.rpow(blockDiff, 10**18); // 10^18 because baserate is in 10^18 representation \n\t}\n}",
  "sourcePath": "/Users/kevinfoesenek/Desktop/Linked_multiORC_FC/contracts/LinkedTAX.sol",
  "compiler": {
    "name": "solc",
    "version": "0.5.0+commit.1d4f565a.Emscripten.clang"
  },
  "schemaVersion": "3.0.1",
  "updatedAt": "2019-12-20T12:45:07.891Z",
  "devdoc": {
    "methods": {
      "initialize(address)": {
        "details": "Set proxy address"
      },
      "isOwner()": {
        "details": "Returns true if the caller is the current owner."
      },
      "owner()": {
        "details": "Returns the address of the current owner."
      },
      "renounceOwnership()": {
        "details": "Leaves the contract without owner. It will not be possible to call `onlyOwner` functions anymore. Can only be called by the current owner.     * > Note: Renouncing ownership will leave the contract without an owner, thereby removing any functionality that is only available to the owner."
      },
      "transferOwnership(address)": {
        "details": "Transfers ownership of the contract to a new account (`newOwner`). Can only be called by the current owner."
      },
      "updateNormRate()": {
        "details": "Update the normalisation rate for the stability fee decuction.*"
      },
      "viewNormRate()": {
        "details": "Update the normalisation rate for the stability fee decuction.*"
      }
    }
  },
  "userdoc": {
    "methods": {},
    "notice": "*   Stable coin Linked - stability tax distribution contract.  *"
  }
}