{
  "contractName": "LinkedTKN",
  "abi": [
    {
      "constant": true,
      "inputs": [],
      "name": "name",
      "outputs": [
        {
          "internalType": "string",
          "name": "",
          "type": "string"
        }
      ],
      "payable": false,
      "stateMutability": "view",
      "type": "function"
    },
    {
      "constant": true,
      "inputs": [],
      "name": "initialized",
      "outputs": [
        {
          "internalType": "bool",
          "name": "",
          "type": "bool"
        }
      ],
      "payable": false,
      "stateMutability": "view",
      "type": "function"
    },
    {
      "constant": true,
      "inputs": [],
      "name": "totalSupply",
      "outputs": [
        {
          "internalType": "uint256",
          "name": "",
          "type": "uint256"
        }
      ],
      "payable": false,
      "stateMutability": "view",
      "type": "function"
    },
    {
      "constant": true,
      "inputs": [],
      "name": "decimals",
      "outputs": [
        {
          "internalType": "uint8",
          "name": "",
          "type": "uint8"
        }
      ],
      "payable": false,
      "stateMutability": "view",
      "type": "function"
    },
    {
      "constant": true,
      "inputs": [],
      "name": "FEE_ETH",
      "outputs": [
        {
          "internalType": "uint256",
          "name": "",
          "type": "uint256"
        }
      ],
      "payable": false,
      "stateMutability": "view",
      "type": "function"
    },
    {
      "constant": false,
      "inputs": [],
      "name": "renounceOwnership",
      "outputs": [],
      "payable": false,
      "stateMutability": "nonpayable",
      "type": "function"
    },
    {
      "constant": true,
      "inputs": [],
      "name": "owner",
      "outputs": [
        {
          "internalType": "address",
          "name": "",
          "type": "address"
        }
      ],
      "payable": false,
      "stateMutability": "view",
      "type": "function"
    },
    {
      "constant": true,
      "inputs": [],
      "name": "isOwner",
      "outputs": [
        {
          "internalType": "bool",
          "name": "",
          "type": "bool"
        }
      ],
      "payable": false,
      "stateMutability": "view",
      "type": "function"
    },
    {
      "constant": true,
      "inputs": [],
      "name": "symbol",
      "outputs": [
        {
          "internalType": "string",
          "name": "",
          "type": "string"
        }
      ],
      "payable": false,
      "stateMutability": "view",
      "type": "function"
    },
    {
      "constant": false,
      "inputs": [
        {
          "internalType": "address",
          "name": "account",
          "type": "address"
        }
      ],
      "name": "addMinter",
      "outputs": [],
      "payable": false,
      "stateMutability": "nonpayable",
      "type": "function"
    },
    {
      "constant": false,
      "inputs": [],
      "name": "renounceMinter",
      "outputs": [],
      "payable": false,
      "stateMutability": "nonpayable",
      "type": "function"
    },
    {
      "constant": true,
      "inputs": [],
      "name": "tax",
      "outputs": [
        {
          "internalType": "contract ITAX",
          "name": "",
          "type": "address"
        }
      ],
      "payable": false,
      "stateMutability": "view",
      "type": "function"
    },
    {
      "constant": true,
      "inputs": [
        {
          "internalType": "address",
          "name": "account",
          "type": "address"
        }
      ],
      "name": "isMinter",
      "outputs": [
        {
          "internalType": "bool",
          "name": "",
          "type": "bool"
        }
      ],
      "payable": false,
      "stateMutability": "view",
      "type": "function"
    },
    {
      "constant": true,
      "inputs": [],
      "name": "proxy",
      "outputs": [
        {
          "internalType": "contract IPROX",
          "name": "",
          "type": "address"
        }
      ],
      "payable": false,
      "stateMutability": "view",
      "type": "function"
    },
    {
      "constant": false,
      "inputs": [
        {
          "internalType": "address",
          "name": "newOwner",
          "type": "address"
        }
      ],
      "name": "transferOwnership",
      "outputs": [],
      "payable": false,
      "stateMutability": "nonpayable",
      "type": "function"
    },
    {
      "payable": true,
      "stateMutability": "payable",
      "type": "fallback"
    },
    {
      "anonymous": false,
      "inputs": [
        {
          "indexed": true,
          "internalType": "address",
          "name": "account",
          "type": "address"
        }
      ],
      "name": "MinterAdded",
      "type": "event"
    },
    {
      "anonymous": false,
      "inputs": [
        {
          "indexed": true,
          "internalType": "address",
          "name": "account",
          "type": "address"
        }
      ],
      "name": "MinterRemoved",
      "type": "event"
    },
    {
      "anonymous": false,
      "inputs": [
        {
          "indexed": true,
          "internalType": "address",
          "name": "previousOwner",
          "type": "address"
        },
        {
          "indexed": true,
          "internalType": "address",
          "name": "newOwner",
          "type": "address"
        }
      ],
      "name": "OwnershipTransferred",
      "type": "event"
    },
    {
      "anonymous": false,
      "inputs": [
        {
          "indexed": true,
          "internalType": "address",
          "name": "from",
          "type": "address"
        },
        {
          "indexed": true,
          "internalType": "address",
          "name": "to",
          "type": "address"
        },
        {
          "indexed": false,
          "internalType": "uint256",
          "name": "value",
          "type": "uint256"
        },
        {
          "indexed": false,
          "internalType": "uint256",
          "name": "_feeETH",
          "type": "uint256"
        }
      ],
      "name": "Transfer",
      "type": "event"
    },
    {
      "anonymous": false,
      "inputs": [
        {
          "indexed": true,
          "internalType": "address",
          "name": "owner",
          "type": "address"
        },
        {
          "indexed": true,
          "internalType": "address",
          "name": "spender",
          "type": "address"
        },
        {
          "indexed": false,
          "internalType": "uint256",
          "name": "value",
          "type": "uint256"
        }
      ],
      "name": "Approval",
      "type": "event"
    },
    {
      "constant": false,
      "inputs": [
        {
          "internalType": "address",
          "name": "proxyAddress",
          "type": "address"
        }
      ],
      "name": "initialize",
      "outputs": [
        {
          "internalType": "bool",
          "name": "success",
          "type": "bool"
        }
      ],
      "payable": false,
      "stateMutability": "nonpayable",
      "type": "function"
    },
    {
      "constant": true,
      "inputs": [],
      "name": "gettotalSupply",
      "outputs": [
        {
          "internalType": "uint256",
          "name": "",
          "type": "uint256"
        }
      ],
      "payable": false,
      "stateMutability": "view",
      "type": "function"
    },
    {
      "constant": true,
      "inputs": [
        {
          "internalType": "address",
          "name": "account",
          "type": "address"
        }
      ],
      "name": "balanceOf",
      "outputs": [
        {
          "internalType": "uint256",
          "name": "",
          "type": "uint256"
        }
      ],
      "payable": false,
      "stateMutability": "view",
      "type": "function"
    },
    {
      "constant": true,
      "inputs": [],
      "name": "balanceOfDev",
      "outputs": [
        {
          "internalType": "uint256",
          "name": "",
          "type": "uint256"
        }
      ],
      "payable": false,
      "stateMutability": "view",
      "type": "function"
    },
    {
      "constant": false,
      "inputs": [
        {
          "internalType": "address",
          "name": "recipient",
          "type": "address"
        },
        {
          "internalType": "uint256",
          "name": "amount",
          "type": "uint256"
        }
      ],
      "name": "transfer",
      "outputs": [
        {
          "internalType": "bool",
          "name": "",
          "type": "bool"
        }
      ],
      "payable": true,
      "stateMutability": "payable",
      "type": "function"
    },
    {
      "constant": true,
      "inputs": [
        {
          "internalType": "address",
          "name": "ownerAddress",
          "type": "address"
        },
        {
          "internalType": "address",
          "name": "spender",
          "type": "address"
        }
      ],
      "name": "allowance",
      "outputs": [
        {
          "internalType": "uint256",
          "name": "",
          "type": "uint256"
        }
      ],
      "payable": false,
      "stateMutability": "view",
      "type": "function"
    },
    {
      "constant": false,
      "inputs": [
        {
          "internalType": "address",
          "name": "spender",
          "type": "address"
        },
        {
          "internalType": "uint256",
          "name": "value",
          "type": "uint256"
        }
      ],
      "name": "approve",
      "outputs": [
        {
          "internalType": "bool",
          "name": "",
          "type": "bool"
        }
      ],
      "payable": false,
      "stateMutability": "nonpayable",
      "type": "function"
    },
    {
      "constant": false,
      "inputs": [
        {
          "internalType": "address payable",
          "name": "sender",
          "type": "address"
        },
        {
          "internalType": "address",
          "name": "recipient",
          "type": "address"
        },
        {
          "internalType": "uint256",
          "name": "amount",
          "type": "uint256"
        }
      ],
      "name": "transferFrom",
      "outputs": [
        {
          "internalType": "bool",
          "name": "",
          "type": "bool"
        }
      ],
      "payable": true,
      "stateMutability": "payable",
      "type": "function"
    },
    {
      "constant": false,
      "inputs": [
        {
          "internalType": "address",
          "name": "spender",
          "type": "address"
        },
        {
          "internalType": "uint256",
          "name": "addedValue",
          "type": "uint256"
        }
      ],
      "name": "increaseAllowance",
      "outputs": [
        {
          "internalType": "bool",
          "name": "",
          "type": "bool"
        }
      ],
      "payable": false,
      "stateMutability": "nonpayable",
      "type": "function"
    },
    {
      "constant": false,
      "inputs": [
        {
          "internalType": "address",
          "name": "spender",
          "type": "address"
        },
        {
          "internalType": "uint256",
          "name": "subtractedValue",
          "type": "uint256"
        }
      ],
      "name": "decreaseAllowance",
      "outputs": [
        {
          "internalType": "bool",
          "name": "",
          "type": "bool"
        }
      ],
      "payable": false,
      "stateMutability": "nonpayable",
      "type": "function"
    },
    {
      "constant": false,
      "inputs": [
        {
          "internalType": "address",
          "name": "account",
          "type": "address"
        },
        {
          "internalType": "uint256",
          "name": "amount",
          "type": "uint256"
        }
      ],
      "name": "mint",
      "outputs": [
        {
          "internalType": "bool",
          "name": "",
          "type": "bool"
        }
      ],
      "payable": false,
      "stateMutability": "nonpayable",
      "type": "function"
    },
    {
      "constant": false,
      "inputs": [
        {
          "internalType": "address",
          "name": "account",
          "type": "address"
        },
        {
          "internalType": "uint256",
          "name": "amount",
          "type": "uint256"
        }
      ],
      "name": "burn",
      "outputs": [
        {
          "internalType": "bool",
          "name": "",
          "type": "bool"
        }
      ],
      "payable": false,
      "stateMutability": "nonpayable",
      "type": "function"
    },
    {
      "constant": false,
      "inputs": [
        {
          "internalType": "uint256",
          "name": "value",
          "type": "uint256"
        }
      ],
      "name": "depositExchange",
      "outputs": [
        {
          "internalType": "bool",
          "name": "",
          "type": "bool"
        }
      ],
      "payable": false,
      "stateMutability": "nonpayable",
      "type": "function"
    },
    {
      "constant": false,
      "inputs": [],
      "name": "devClaim",
      "outputs": [
        {
          "internalType": "bool",
          "name": "success",
          "type": "bool"
        }
      ],
      "payable": false,
      "stateMutability": "nonpayable",
      "type": "function"
    }
  ],
  "bytecode": "0x60806040526040518060400160405280600681526020017f4c696e6b656400000000000000000000000000000000000000000000000000008152506000908051906020019062000051929190620003b6565b506040518060400160405280600381526020017f4c4b440000000000000000000000000000000000000000000000000000000000815250600190805190602001906200009f929190620003b6565b506014600260006101000a81548160ff021916908360ff16021790555033600260016101000a81548173ffffffffffffffffffffffffffffffffffffffff021916908373ffffffffffffffffffffffffffffffffffffffff160217905550600260019054906101000a900473ffffffffffffffffffffffffffffffffffffffff1673ffffffffffffffffffffffffffffffffffffffff16600073ffffffffffffffffffffffffffffffffffffffff167f8be0079c531659141344cd1fd0a4f28419497f9722a3daafe3b4186f6b6457e060405160405180910390a36200018b336200019160201b60201c565b62000465565b620001ac816003620001f260201b62003b991790919060201c565b8073ffffffffffffffffffffffffffffffffffffffff167f6ae172837ea30b801fbfcdd4108aa1d5bf8ff775444fd70256b44e6bf3dfc3f660405160405180910390a250565b620002048282620002d660201b60201c565b1562000278576040517f08c379a000000000000000000000000000000000000000000000000000000000815260040180806020018281038252601f8152602001807f526f6c65733a206163636f756e7420616c72656164792068617320726f6c650081525060200191505060405180910390fd5b60018260000160008373ffffffffffffffffffffffffffffffffffffffff1673ffffffffffffffffffffffffffffffffffffffff16815260200190815260200160002060006101000a81548160ff0219169083151502179055505050565b60008073ffffffffffffffffffffffffffffffffffffffff168273ffffffffffffffffffffffffffffffffffffffff1614156200035f576040517f08c379a0000000000000000000000000000000000000000000000000000000008152600401808060200182810382526022815260200180620043666022913960400191505060405180910390fd5b8260000160008373ffffffffffffffffffffffffffffffffffffffff1673ffffffffffffffffffffffffffffffffffffffff16815260200190815260200160002060009054906101000a900460ff16905092915050565b828054600181600116156101000203166002900490600052602060002090601f016020900481019282601f10620003f957805160ff19168380011785556200042a565b828001600101855582156200042a579182015b82811115620004295782518255916020019190600101906200040c565b5b5090506200043991906200043d565b5090565b6200046291905b808211156200045e57600081600090555060010162000444565b5090565b90565b613ef180620004756000396000f3fe6080604052600436106101c25760003560e01c80638f32d59b116100f7578063a9059cbb11610095578063c94bff9211610064578063c94bff92146109dd578063dd62ed3e14610a30578063ec55688914610ab5578063f2fde38b14610b0c576101c2565b8063a9059cbb14610876578063aa271e1a146108dc578063ae979ae614610945578063c4d66de814610974576101c2565b806398650275116100d1578063986502751461072257806399c8d556146107395780639dc29fac14610790578063a457c2d714610803576101c2565b80638f32d59b1461061257806395d89b4114610641578063983b2d56146106d1576101c2565b806339509351116101645780635cfdd4f51161013e5780635cfdd4f51461051457806370a082311461053f578063715018a6146105a45780638da5cb5b146105bb576101c2565b8063395093511461040357806340c10f19146104765780634ae12318146104e9576101c2565b8063158ef93e116101a0578063158ef93e146102f257806318160ddd1461032157806323b872dd1461034c578063313ce567146103d2576101c2565b806305df571f146101c457806306fdde03146101ef578063095ea7b31461027f575b005b3480156101d057600080fd5b506101d9610b5d565b6040518082815260200191505060405180910390f35b3480156101fb57600080fd5b50610204610cda565b6040518080602001828103825283818151815260200191508051906020019080838360005b83811015610244578082015181840152602081019050610229565b50505050905090810190601f1680156102715780820380516001836020036101000a031916815260200191505b509250505060405180910390f35b34801561028b57600080fd5b506102d8600480360360408110156102a257600080fd5b81019080803573ffffffffffffffffffffffffffffffffffffffff16906020019092919080359060200190929190505050610d7c565b604051808215151515815260200191505060405180910390f35b3480156102fe57600080fd5b50610307610ea9565b604051808215151515815260200191505060405180910390f35b34801561032d57600080fd5b50610336610ebc565b6040518082815260200191505060405180910390f35b6103b86004803603606081101561036257600080fd5b81019080803573ffffffffffffffffffffffffffffffffffffffff169060200190929190803573ffffffffffffffffffffffffffffffffffffffff16906020019092919080359060200190929190505050610ec2565b604051808215151515815260200191505060405180910390f35b3480156103de57600080fd5b506103e7611089565b604051808260ff1660ff16815260200191505060405180910390f35b34801561040f57600080fd5b5061045c6004803603604081101561042657600080fd5b81019080803573ffffffffffffffffffffffffffffffffffffffff169060200190929190803590602001909291905050506110a0565b604051808215151515815260200191505060405180910390f35b34801561048257600080fd5b506104cf6004803603604081101561049957600080fd5b81019080803573ffffffffffffffffffffffffffffffffffffffff1690602001909291908035906020019092919050505061125b565b604051808215151515815260200191505060405180910390f35b3480156104f557600080fd5b506104fe6113e5565b6040518082815260200191505060405180910390f35b34801561052057600080fd5b506105296113ea565b6040518082815260200191505060405180910390f35b34801561054b57600080fd5b5061058e6004803603602081101561056257600080fd5b81019080803573ffffffffffffffffffffffffffffffffffffffff169060200190929190505050611580565b6040518082815260200191505060405180910390f35b3480156105b057600080fd5b506105b961173c565b005b3480156105c757600080fd5b506105d0611877565b604051808273ffffffffffffffffffffffffffffffffffffffff1673ffffffffffffffffffffffffffffffffffffffff16815260200191505060405180910390f35b34801561061e57600080fd5b506106276118a1565b604051808215151515815260200191505060405180910390f35b34801561064d57600080fd5b506106566118f9565b6040518080602001828103825283818151815260200191508051906020019080838360005b8381101561069657808201518184015260208101905061067b565b50505050905090810190601f1680156106c35780820380516001836020036101000a031916815260200191505b509250505060405180910390f35b3480156106dd57600080fd5b50610720600480360360208110156106f457600080fd5b81019080803573ffffffffffffffffffffffffffffffffffffffff16906020019092919050505061199b565b005b34801561072e57600080fd5b50610737611a05565b005b34801561074557600080fd5b5061074e611a10565b604051808273ffffffffffffffffffffffffffffffffffffffff1673ffffffffffffffffffffffffffffffffffffffff16815260200191505060405180910390f35b34801561079c57600080fd5b506107e9600480360360408110156107b357600080fd5b81019080803573ffffffffffffffffffffffffffffffffffffffff16906020019092919080359060200190929190505050611a36565b604051808215151515815260200191505060405180910390f35b34801561080f57600080fd5b5061085c6004803603604081101561082657600080fd5b81019080803573ffffffffffffffffffffffffffffffffffffffff16906020019092919080359060200190929190505050611bc0565b604051808215151515815260200191505060405180910390f35b6108c26004803603604081101561088c57600080fd5b81019080803573ffffffffffffffffffffffffffffffffffffffff16906020019092919080359060200190929190505050611d7b565b604051808215151515815260200191505060405180910390f35b3480156108e857600080fd5b5061092b600480360360208110156108ff57600080fd5b81019080803573ffffffffffffffffffffffffffffffffffffffff169060200190929190505050611ea8565b604051808215151515815260200191505060405180910390f35b34801561095157600080fd5b5061095a611ec5565b604051808215151515815260200191505060405180910390f35b34801561098057600080fd5b506109c36004803603602081101561099757600080fd5b81019080803573ffffffffffffffffffffffffffffffffffffffff169060200190929190505050611ed6565b604051808215151515815260200191505060405180910390f35b3480156109e957600080fd5b50610a1660048036036020811015610a0057600080fd5b81019080803590602001909291905050506121dd565b604051808215151515815260200191505060405180910390f35b348015610a3c57600080fd5b50610a9f60048036036040811015610a5357600080fd5b81019080803573ffffffffffffffffffffffffffffffffffffffff169060200190929190803573ffffffffffffffffffffffffffffffffffffffff169060200190929190505050612492565b6040518082815260200191505060405180910390f35b348015610ac157600080fd5b50610aca612519565b604051808273ffffffffffffffffffffffffffffffffffffffff1673ffffffffffffffffffffffffffffffffffffffff16815260200191505060405180910390f35b348015610b1857600080fd5b50610b5b60048036036020811015610b2f57600080fd5b81019080803573ffffffffffffffffffffffffffffffffffffffff16906020019092919050505061253f565b005b600080600560009054906101000a900473ffffffffffffffffffffffffffffffffffffffff1673ffffffffffffffffffffffffffffffffffffffff16634357e7386040518163ffffffff1660e01b815260040160206040518083038186803b158015610bc857600080fd5b505afa158015610bdc573d6000803e3d6000fd5b505050506040513d6020811015610bf257600080fd5b810190808051906020019092919050505090506000610cd082610cc2600460009054906101000a900473ffffffffffffffffffffffffffffffffffffffff1673ffffffffffffffffffffffffffffffffffffffff16635001f3b56040518163ffffffff1660e01b815260040160206040518083038186803b158015610c7657600080fd5b505afa158015610c8a573d6000803e3d6000fd5b505050506040513d6020811015610ca057600080fd5b81019080805190602001909291905050506008546125c590919063ffffffff16565b61264b90919063ffffffff16565b9050809250505090565b606060008054600181600116156101000203166002900480601f016020809104026020016040519081016040528092919081815260200182805460018160011615610100020316600290048015610d725780601f10610d4757610100808354040283529160200191610d72565b820191906000526020600020905b815481529060010190602001808311610d5557829003601f168201915b5050505050905090565b6000600460009054906101000a900473ffffffffffffffffffffffffffffffffffffffff1673ffffffffffffffffffffffffffffffffffffffff1663a0b9f0e16040518163ffffffff1660e01b815260040160206040518083038186803b158015610de657600080fd5b505afa158015610dfa573d6000803e3d6000fd5b505050506040513d6020811015610e1057600080fd5b810190808051906020019092919050505015610e94576040517f08c379a00000000000000000000000000000000000000000000000000000000081526004018080602001828103825260108152602001807f5061757361626c653a207061757365640000000000000000000000000000000081525060200191505060405180910390fd5b610e9f3384846126da565b6001905092915050565b600560149054906101000a900460ff1681565b60085481565b6000600460009054906101000a900473ffffffffffffffffffffffffffffffffffffffff1673ffffffffffffffffffffffffffffffffffffffff1663a0b9f0e16040518163ffffffff1660e01b815260040160206040518083038186803b158015610f2c57600080fd5b505afa158015610f40573d6000803e3d6000fd5b505050506040513d6020811015610f5657600080fd5b810190808051906020019092919050505015610fda576040517f08c379a00000000000000000000000000000000000000000000000000000000081526004018080602001828103825260108152602001807f5061757361626c653a207061757365640000000000000000000000000000000081525060200191505060405180910390fd5b611073843361106e85600760008a73ffffffffffffffffffffffffffffffffffffffff1673ffffffffffffffffffffffffffffffffffffffff16815260200190815260200160002060003373ffffffffffffffffffffffffffffffffffffffff1673ffffffffffffffffffffffffffffffffffffffff168152602001908152602001600020546128d190919063ffffffff16565b6126da565b61107e84848461295a565b600190509392505050565b6000600260009054906101000a900460ff16905090565b6000600460009054906101000a900473ffffffffffffffffffffffffffffffffffffffff1673ffffffffffffffffffffffffffffffffffffffff1663a0b9f0e16040518163ffffffff1660e01b815260040160206040518083038186803b15801561110a57600080fd5b505afa15801561111e573d6000803e3d6000fd5b505050506040513d602081101561113457600080fd5b8101908080519060200190929190505050156111b8576040517f08c379a00000000000000000000000000000000000000000000000000000000081526004018080602001828103825260108152602001807f5061757361626c653a207061757365640000000000000000000000000000000081525060200191505060405180910390fd5b611251338461124c85600760003373ffffffffffffffffffffffffffffffffffffffff1673ffffffffffffffffffffffffffffffffffffffff16815260200190815260200160002060008973ffffffffffffffffffffffffffffffffffffffff1673ffffffffffffffffffffffffffffffffffffffff16815260200190815260200160002054612eee90919063ffffffff16565b6126da565b6001905092915050565b6000600460009054906101000a900473ffffffffffffffffffffffffffffffffffffffff1673ffffffffffffffffffffffffffffffffffffffff1663a0b9f0e16040518163ffffffff1660e01b815260040160206040518083038186803b1580156112c557600080fd5b505afa1580156112d9573d6000803e3d6000fd5b505050506040513d60208110156112ef57600080fd5b810190808051906020019092919050505015611373576040517f08c379a00000000000000000000000000000000000000000000000000000000081526004018080602001828103825260108152602001807f5061757361626c653a207061757365640000000000000000000000000000000081525060200191505060405180910390fd5b61137c33611ea8565b6113d1576040517f08c379a0000000000000000000000000000000000000000000000000000000008152600401808060200182810382526030815260200180613dbf6030913960400191505060405180910390fd5b6113db8383612f76565b6001905092915050565b600081565b600080600460009054906101000a900473ffffffffffffffffffffffffffffffffffffffff1673ffffffffffffffffffffffffffffffffffffffff16632ee8c2fa6040518163ffffffff1660e01b81526004016101006040518083038186803b15801561145657600080fd5b505afa15801561146a573d6000803e3d6000fd5b505050506040513d601f19601f8201168201806040525061010081101561149057600080fd5b81019080919050506001600881106114a457fe5b602002015190506114b3613d31565b8173ffffffffffffffffffffffffffffffffffffffff166364babf3e6040518163ffffffff1660e01b815260040160606040518083038186803b1580156114f957600080fd5b505afa15801561150d573d6000803e3d6000fd5b505050506040513d601f19601f82011682018060405250606081101561153257600080fd5b8101908091905050905060008160026003811061154b57fe5b60200201519050600061155c610b5d565b9050600061157382846128d190919063ffffffff16565b9050809550505050505090565b600080600560009054906101000a900473ffffffffffffffffffffffffffffffffffffffff1673ffffffffffffffffffffffffffffffffffffffff16634357e7386040518163ffffffff1660e01b815260040160206040518083038186803b1580156115eb57600080fd5b505afa1580156115ff573d6000803e3d6000fd5b505050506040513d602081101561161557600080fd5b81019080805190602001909291905050509050600061173082611722600460009054906101000a900473ffffffffffffffffffffffffffffffffffffffff1673ffffffffffffffffffffffffffffffffffffffff16635001f3b56040518163ffffffff1660e01b815260040160206040518083038186803b15801561169957600080fd5b505afa1580156116ad573d6000803e3d6000fd5b505050506040513d60208110156116c357600080fd5b8101908080519060200190929190505050600660008973ffffffffffffffffffffffffffffffffffffffff1673ffffffffffffffffffffffffffffffffffffffff168152602001908152602001600020546125c590919063ffffffff16565b61264b90919063ffffffff16565b90508092505050919050565b6117446118a1565b6117b6576040517f08c379a00000000000000000000000000000000000000000000000000000000081526004018080602001828103825260208152602001807f4f776e61626c653a2063616c6c6572206973206e6f7420746865206f776e657281525060200191505060405180910390fd5b600073ffffffffffffffffffffffffffffffffffffffff16600260019054906101000a900473ffffffffffffffffffffffffffffffffffffffff1673ffffffffffffffffffffffffffffffffffffffff167f8be0079c531659141344cd1fd0a4f28419497f9722a3daafe3b4186f6b6457e060405160405180910390a36000600260016101000a81548173ffffffffffffffffffffffffffffffffffffffff021916908373ffffffffffffffffffffffffffffffffffffffff160217905550565b6000600260019054906101000a900473ffffffffffffffffffffffffffffffffffffffff16905090565b6000600260019054906101000a900473ffffffffffffffffffffffffffffffffffffffff1673ffffffffffffffffffffffffffffffffffffffff163373ffffffffffffffffffffffffffffffffffffffff1614905090565b606060018054600181600116156101000203166002900480601f0160208091040260200160405190810160405280929190818152602001828054600181600116156101000203166002900480156119915780601f1061196657610100808354040283529160200191611991565b820191906000526020600020905b81548152906001019060200180831161197457829003601f168201915b5050505050905090565b6119a433611ea8565b6119f9576040517f08c379a0000000000000000000000000000000000000000000000000000000008152600401808060200182810382526030815260200180613dbf6030913960400191505060405180910390fd5b611a02816132b0565b50565b611a0e3361330a565b565b600560009054906101000a900473ffffffffffffffffffffffffffffffffffffffff1681565b6000600460009054906101000a900473ffffffffffffffffffffffffffffffffffffffff1673ffffffffffffffffffffffffffffffffffffffff1663a0b9f0e16040518163ffffffff1660e01b815260040160206040518083038186803b158015611aa057600080fd5b505afa158015611ab4573d6000803e3d6000fd5b505050506040513d6020811015611aca57600080fd5b810190808051906020019092919050505015611b4e576040517f08c379a00000000000000000000000000000000000000000000000000000000081526004018080602001828103825260108152602001807f5061757361626c653a207061757365640000000000000000000000000000000081525060200191505060405180910390fd5b611b5733611ea8565b611bac576040517f08c379a0000000000000000000000000000000000000000000000000000000008152600401808060200182810382526030815260200180613dbf6030913960400191505060405180910390fd5b611bb68383613364565b6001905092915050565b6000600460009054906101000a900473ffffffffffffffffffffffffffffffffffffffff1673ffffffffffffffffffffffffffffffffffffffff1663a0b9f0e16040518163ffffffff1660e01b815260040160206040518083038186803b158015611c2a57600080fd5b505afa158015611c3e573d6000803e3d6000fd5b505050506040513d6020811015611c5457600080fd5b810190808051906020019092919050505015611cd8576040517f08c379a00000000000000000000000000000000000000000000000000000000081526004018080602001828103825260108152602001807f5061757361626c653a207061757365640000000000000000000000000000000081525060200191505060405180910390fd5b611d713384611d6c85600760003373ffffffffffffffffffffffffffffffffffffffff1673ffffffffffffffffffffffffffffffffffffffff16815260200190815260200160002060008973ffffffffffffffffffffffffffffffffffffffff1673ffffffffffffffffffffffffffffffffffffffff168152602001908152602001600020546128d190919063ffffffff16565b6126da565b6001905092915050565b6000600460009054906101000a900473ffffffffffffffffffffffffffffffffffffffff1673ffffffffffffffffffffffffffffffffffffffff1663a0b9f0e16040518163ffffffff1660e01b815260040160206040518083038186803b158015611de557600080fd5b505afa158015611df9573d6000803e3d6000fd5b505050506040513d6020811015611e0f57600080fd5b810190808051906020019092919050505015611e93576040517f08c379a00000000000000000000000000000000000000000000000000000000081526004018080602001828103825260108152602001807f5061757361626c653a207061757365640000000000000000000000000000000081525060200191505060405180910390fd5b611e9e33848461295a565b6001905092915050565b6000611ebe82600361368190919063ffffffff16565b9050919050565b6000611ecf61375f565b6001905090565b6000611ee06118a1565b611f52576040517f08c379a00000000000000000000000000000000000000000000000000000000081526004018080602001828103825260208152602001807f4f776e61626c653a2063616c6c6572206973206e6f7420746865206f776e657281525060200191505060405180910390fd5b60001515600560149054906101000a900460ff16151514611f7257600080fd5b600073ffffffffffffffffffffffffffffffffffffffff168273ffffffffffffffffffffffffffffffffffffffff161415611fac57600080fd5b6001600560146101000a81548160ff02191690831515021790555081600460006101000a81548173ffffffffffffffffffffffffffffffffffffffff021916908373ffffffffffffffffffffffffffffffffffffffff1602179055506000600460009054906101000a900473ffffffffffffffffffffffffffffffffffffffff1673ffffffffffffffffffffffffffffffffffffffff16632ee8c2fa6040518163ffffffff1660e01b81526004016101006040518083038186803b15801561207357600080fd5b505afa158015612087573d6000803e3d6000fd5b505050506040513d601f19601f820116820180604052506101008110156120ad57600080fd5b81019080919050506002600881106120c157fe5b602002015190506120d18161199b565b6000600460009054906101000a900473ffffffffffffffffffffffffffffffffffffffff1673ffffffffffffffffffffffffffffffffffffffff16632ee8c2fa6040518163ffffffff1660e01b81526004016101006040518083038186803b15801561213c57600080fd5b505afa158015612150573d6000803e3d6000fd5b505050506040513d601f19601f8201168201806040525061010081101561217657600080fd5b810190809190505060046008811061218a57fe5b6020020151905080600560006101000a81548173ffffffffffffffffffffffffffffffffffffffff021916908373ffffffffffffffffffffffffffffffffffffffff160217905550600192505050919050565b6000600460009054906101000a900473ffffffffffffffffffffffffffffffffffffffff1673ffffffffffffffffffffffffffffffffffffffff1663a0b9f0e16040518163ffffffff1660e01b815260040160206040518083038186803b15801561224757600080fd5b505afa15801561225b573d6000803e3d6000fd5b505050506040513d602081101561227157600080fd5b8101908080519060200190929190505050156122f5576040517f08c379a00000000000000000000000000000000000000000000000000000000081526004018080602001828103825260108152602001807f5061757361626c653a207061757365640000000000000000000000000000000081525060200191505060405180910390fd5b6000600460009054906101000a900473ffffffffffffffffffffffffffffffffffffffff1673ffffffffffffffffffffffffffffffffffffffff16632ee8c2fa6040518163ffffffff1660e01b81526004016101006040518083038186803b15801561236057600080fd5b505afa158015612374573d6000803e3d6000fd5b505050506040513d601f19601f8201168201806040525061010081101561239a57600080fd5b81019080919050506006600881106123ae57fe5b602002015190506123c033828561295a565b8073ffffffffffffffffffffffffffffffffffffffff1663d736e4e233856040518363ffffffff1660e01b8152600401808373ffffffffffffffffffffffffffffffffffffffff1673ffffffffffffffffffffffffffffffffffffffff16815260200182815260200192505050602060405180830381600087803b15801561244757600080fd5b505af115801561245b573d6000803e3d6000fd5b505050506040513d602081101561247157600080fd5b810190808051906020019092919050505061248857fe5b6001915050919050565b6000600760008473ffffffffffffffffffffffffffffffffffffffff1673ffffffffffffffffffffffffffffffffffffffff16815260200190815260200160002060008373ffffffffffffffffffffffffffffffffffffffff1673ffffffffffffffffffffffffffffffffffffffff16815260200190815260200160002054905092915050565b600460009054906101000a900473ffffffffffffffffffffffffffffffffffffffff1681565b6125476118a1565b6125b9576040517f08c379a00000000000000000000000000000000000000000000000000000000081526004018080602001828103825260208152602001807f4f776e61626c653a2063616c6c6572206973206e6f7420746865206f776e657281525060200191505060405180910390fd5b6125c281613a53565b50565b6000808314156125d85760009050612645565b60008284029050828482816125e957fe5b0414612640576040517f08c379a0000000000000000000000000000000000000000000000000000000008152600401808060200182810382526021815260200180613e106021913960400191505060405180910390fd5b809150505b92915050565b60008082116126c2576040517f08c379a000000000000000000000000000000000000000000000000000000000815260040180806020018281038252601a8152602001807f536166654d6174683a206469766973696f6e206279207a65726f00000000000081525060200191505060405180910390fd5b60008284816126cd57fe5b0490508091505092915050565b600073ffffffffffffffffffffffffffffffffffffffff168373ffffffffffffffffffffffffffffffffffffffff161415612760576040517f08c379a0000000000000000000000000000000000000000000000000000000008152600401808060200182810382526024815260200180613e996024913960400191505060405180910390fd5b600073ffffffffffffffffffffffffffffffffffffffff168273ffffffffffffffffffffffffffffffffffffffff1614156127e6576040517f08c379a0000000000000000000000000000000000000000000000000000000008152600401808060200182810382526022815260200180613d9d6022913960400191505060405180910390fd5b80600760008573ffffffffffffffffffffffffffffffffffffffff1673ffffffffffffffffffffffffffffffffffffffff16815260200190815260200160002060008473ffffffffffffffffffffffffffffffffffffffff1673ffffffffffffffffffffffffffffffffffffffff168152602001908152602001600020819055508173ffffffffffffffffffffffffffffffffffffffff168373ffffffffffffffffffffffffffffffffffffffff167f8c5be1e5ebec7d5bd14f71427d1e84f3dd0314c0f7b2291e5b200ac8c7c3b925836040518082815260200191505060405180910390a3505050565b600082821115612949576040517f08c379a000000000000000000000000000000000000000000000000000000000815260040180806020018281038252601e8152602001807f536166654d6174683a207375627472616374696f6e206f766572666c6f77000081525060200191505060405180910390fd5b600082840390508091505092915050565b600073ffffffffffffffffffffffffffffffffffffffff168373ffffffffffffffffffffffffffffffffffffffff1614156129e0576040517f08c379a0000000000000000000000000000000000000000000000000000000008152600401808060200182810382526025815260200180613e746025913960400191505060405180910390fd5b600073ffffffffffffffffffffffffffffffffffffffff168273ffffffffffffffffffffffffffffffffffffffff161415612a66576040517f08c379a0000000000000000000000000000000000000000000000000000000008152600401808060200182810382526023815260200180613d546023913960400191505060405180910390fd5b6000341015612a7457600080fd5b6000600460009054906101000a900473ffffffffffffffffffffffffffffffffffffffff1673ffffffffffffffffffffffffffffffffffffffff16632ee8c2fa6040518163ffffffff1660e01b81526004016101006040518083038186803b158015612adf57600080fd5b505afa158015612af3573d6000803e3d6000fd5b505050506040513d601f19601f82011682018060405250610100811015612b1957600080fd5b8101908091905050600260088110612b2d57fe5b602002015190506000612b4a6000346128d190919063ffffffff16565b90506000600560009054906101000a900473ffffffffffffffffffffffffffffffffffffffff1673ffffffffffffffffffffffffffffffffffffffff16634357e7386040518163ffffffff1660e01b815260040160206040518083038186803b158015612bb657600080fd5b505afa158015612bca573d6000803e3d6000fd5b505050506040513d6020811015612be057600080fd5b810190808051906020019092919050505090506000612cbc600460009054906101000a900473ffffffffffffffffffffffffffffffffffffffff1673ffffffffffffffffffffffffffffffffffffffff16635001f3b56040518163ffffffff1660e01b815260040160206040518083038186803b158015612c6057600080fd5b505afa158015612c74573d6000803e3d6000fd5b505050506040513d6020811015612c8a57600080fd5b8101908080519060200190929190505050612cae84886125c590919063ffffffff16565b61264b90919063ffffffff16565b9050612d1081600660008a73ffffffffffffffffffffffffffffffffffffffff1673ffffffffffffffffffffffffffffffffffffffff168152602001908152602001600020546128d190919063ffffffff16565b600660008973ffffffffffffffffffffffffffffffffffffffff1673ffffffffffffffffffffffffffffffffffffffff16815260200190815260200160002081905550612da581600660008973ffffffffffffffffffffffffffffffffffffffff1673ffffffffffffffffffffffffffffffffffffffff16815260200190815260200160002054612eee90919063ffffffff16565b600660008873ffffffffffffffffffffffffffffffffffffffff1673ffffffffffffffffffffffffffffffffffffffff168152602001908152602001600020819055508573ffffffffffffffffffffffffffffffffffffffff168773ffffffffffffffffffffffffffffffffffffffff167f9ed053bb818ff08b8353cd46f78db1f0799f31c9e4458fdb425c10eccd2efc44876000604051808381526020018281526020019250505060405180910390a38373ffffffffffffffffffffffffffffffffffffffff166108fc60009081150290604051600060405180830381858888f19350505050158015612e9d573d6000803e3d6000fd5b508673ffffffffffffffffffffffffffffffffffffffff166108fc849081150290604051600060405180830381858888f19350505050158015612ee4573d6000803e3d6000fd5b5050505050505050565b600080828401905083811015612f6c576040517f08c379a000000000000000000000000000000000000000000000000000000000815260040180806020018281038252601b8152602001807f536166654d6174683a206164646974696f6e206f766572666c6f77000000000081525060200191505060405180910390fd5b8091505092915050565b600073ffffffffffffffffffffffffffffffffffffffff168273ffffffffffffffffffffffffffffffffffffffff161415613019576040517f08c379a000000000000000000000000000000000000000000000000000000000815260040180806020018281038252601f8152602001807f45524332303a206d696e7420746f20746865207a65726f20616464726573730081525060200191505060405180910390fd5b6000600560009054906101000a900473ffffffffffffffffffffffffffffffffffffffff1673ffffffffffffffffffffffffffffffffffffffff16634357e7386040518163ffffffff1660e01b815260040160206040518083038186803b15801561308357600080fd5b505afa158015613097573d6000803e3d6000fd5b505050506040513d60208110156130ad57600080fd5b810190808051906020019092919050505090506000613189600460009054906101000a900473ffffffffffffffffffffffffffffffffffffffff1673ffffffffffffffffffffffffffffffffffffffff16635001f3b56040518163ffffffff1660e01b815260040160206040518083038186803b15801561312d57600080fd5b505afa158015613141573d6000803e3d6000fd5b505050506040513d602081101561315757600080fd5b810190808051906020019092919050505061317b84866125c590919063ffffffff16565b61264b90919063ffffffff16565b90506131a081600854612eee90919063ffffffff16565b6008819055506131f881600660008773ffffffffffffffffffffffffffffffffffffffff1673ffffffffffffffffffffffffffffffffffffffff16815260200190815260200160002054612eee90919063ffffffff16565b600660008673ffffffffffffffffffffffffffffffffffffffff1673ffffffffffffffffffffffffffffffffffffffff168152602001908152602001600020819055508373ffffffffffffffffffffffffffffffffffffffff16600073ffffffffffffffffffffffffffffffffffffffff167f9ed053bb818ff08b8353cd46f78db1f0799f31c9e4458fdb425c10eccd2efc44856000604051808381526020018281526020019250505060405180910390a350505050565b6132c4816003613b9990919063ffffffff16565b8073ffffffffffffffffffffffffffffffffffffffff167f6ae172837ea30b801fbfcdd4108aa1d5bf8ff775444fd70256b44e6bf3dfc3f660405160405180910390a250565b61331e816003613c7490919063ffffffff16565b8073ffffffffffffffffffffffffffffffffffffffff167fe94479a9f7e1952cc78f2d6baab678adc1b772d936c6583def489e524cb6669260405160405180910390a250565b600073ffffffffffffffffffffffffffffffffffffffff168273ffffffffffffffffffffffffffffffffffffffff1614156133ea576040517f08c379a0000000000000000000000000000000000000000000000000000000008152600401808060200182810382526021815260200180613e536021913960400191505060405180910390fd5b6000600560009054906101000a900473ffffffffffffffffffffffffffffffffffffffff1673ffffffffffffffffffffffffffffffffffffffff16634357e7386040518163ffffffff1660e01b815260040160206040518083038186803b15801561345457600080fd5b505afa158015613468573d6000803e3d6000fd5b505050506040513d602081101561347e57600080fd5b81019080805190602001909291905050509050600061355a600460009054906101000a900473ffffffffffffffffffffffffffffffffffffffff1673ffffffffffffffffffffffffffffffffffffffff16635001f3b56040518163ffffffff1660e01b815260040160206040518083038186803b1580156134fe57600080fd5b505afa158015613512573d6000803e3d6000fd5b505050506040513d602081101561352857600080fd5b810190808051906020019092919050505061354c84866125c590919063ffffffff16565b61264b90919063ffffffff16565b9050613571816008546128d190919063ffffffff16565b6008819055506135c981600660008773ffffffffffffffffffffffffffffffffffffffff1673ffffffffffffffffffffffffffffffffffffffff168152602001908152602001600020546128d190919063ffffffff16565b600660008673ffffffffffffffffffffffffffffffffffffffff1673ffffffffffffffffffffffffffffffffffffffff16815260200190815260200160002081905550600073ffffffffffffffffffffffffffffffffffffffff168473ffffffffffffffffffffffffffffffffffffffff167f9ed053bb818ff08b8353cd46f78db1f0799f31c9e4458fdb425c10eccd2efc44856000604051808381526020018281526020019250505060405180910390a350505050565b60008073ffffffffffffffffffffffffffffffffffffffff168273ffffffffffffffffffffffffffffffffffffffff161415613708576040517f08c379a0000000000000000000000000000000000000000000000000000000008152600401808060200182810382526022815260200180613e316022913960400191505060405180910390fd5b8260000160008373ffffffffffffffffffffffffffffffffffffffff1673ffffffffffffffffffffffffffffffffffffffff16815260200190815260200160002060009054906101000a900460ff16905092915050565b6000600560009054906101000a900473ffffffffffffffffffffffffffffffffffffffff1673ffffffffffffffffffffffffffffffffffffffff16634357e7386040518163ffffffff1660e01b815260040160206040518083038186803b1580156137c957600080fd5b505afa1580156137dd573d6000803e3d6000fd5b505050506040513d60208110156137f357600080fd5b8101908080519060200190929190505050905060006138106113ea565b90506000600460009054906101000a900473ffffffffffffffffffffffffffffffffffffffff1673ffffffffffffffffffffffffffffffffffffffff16632ee8c2fa6040518163ffffffff1660e01b81526004016101006040518083038186803b15801561387d57600080fd5b505afa158015613891573d6000803e3d6000fd5b505050506040513d601f19601f820116820180604052506101008110156138b757600080fd5b81019080919050506007600881106138cb57fe5b60200201519050600061399b600460009054906101000a900473ffffffffffffffffffffffffffffffffffffffff1673ffffffffffffffffffffffffffffffffffffffff16635001f3b56040518163ffffffff1660e01b815260040160206040518083038186803b15801561393f57600080fd5b505afa158015613953573d6000803e3d6000fd5b505050506040513d602081101561396957600080fd5b810190808051906020019092919050505061398d86866125c590919063ffffffff16565b61264b90919063ffffffff16565b90506139b281600854612eee90919063ffffffff16565b600881905550613a0a81600660008573ffffffffffffffffffffffffffffffffffffffff1673ffffffffffffffffffffffffffffffffffffffff16815260200190815260200160002054612eee90919063ffffffff16565b600660008473ffffffffffffffffffffffffffffffffffffffff1673ffffffffffffffffffffffffffffffffffffffff1681526020019081526020016000208190555050505050565b600073ffffffffffffffffffffffffffffffffffffffff168173ffffffffffffffffffffffffffffffffffffffff161415613ad9576040517f08c379a0000000000000000000000000000000000000000000000000000000008152600401808060200182810382526026815260200180613d776026913960400191505060405180910390fd5b8073ffffffffffffffffffffffffffffffffffffffff16600260019054906101000a900473ffffffffffffffffffffffffffffffffffffffff1673ffffffffffffffffffffffffffffffffffffffff167f8be0079c531659141344cd1fd0a4f28419497f9722a3daafe3b4186f6b6457e060405160405180910390a380600260016101000a81548173ffffffffffffffffffffffffffffffffffffffff021916908373ffffffffffffffffffffffffffffffffffffffff16021790555050565b613ba38282613681565b15613c16576040517f08c379a000000000000000000000000000000000000000000000000000000000815260040180806020018281038252601f8152602001807f526f6c65733a206163636f756e7420616c72656164792068617320726f6c650081525060200191505060405180910390fd5b60018260000160008373ffffffffffffffffffffffffffffffffffffffff1673ffffffffffffffffffffffffffffffffffffffff16815260200190815260200160002060006101000a81548160ff0219169083151502179055505050565b613c7e8282613681565b613cd3576040517f08c379a0000000000000000000000000000000000000000000000000000000008152600401808060200182810382526021815260200180613def6021913960400191505060405180910390fd5b60008260000160008373ffffffffffffffffffffffffffffffffffffffff1673ffffffffffffffffffffffffffffffffffffffff16815260200190815260200160002060006101000a81548160ff0219169083151502179055505050565b604051806060016040528060039060208202803883398082019150509050509056fe45524332303a207472616e7366657220746f20746865207a65726f20616464726573734f776e61626c653a206e6577206f776e657220697320746865207a65726f206164647265737345524332303a20617070726f766520746f20746865207a65726f20616464726573734d696e746572526f6c653a2063616c6c657220646f6573206e6f74206861766520746865204d696e74657220726f6c65526f6c65733a206163636f756e7420646f6573206e6f74206861766520726f6c65536166654d6174683a206d756c7469706c69636174696f6e206f766572666c6f77526f6c65733a206163636f756e7420697320746865207a65726f206164647265737345524332303a206275726e2066726f6d20746865207a65726f206164647265737345524332303a207472616e736665722066726f6d20746865207a65726f206164647265737345524332303a20617070726f76652066726f6d20746865207a65726f2061646472657373a265627a7a723158200c09ea6179fae80c2e96769493269525bf4e9a7ff78e1ec6e8bd7cfcccebf72f64736f6c634300050b0032526f6c65733a206163636f756e7420697320746865207a65726f2061646472657373",
  "source": "pragma solidity 0.5.11;\n\nimport \"@openzeppelin/contracts/ownership/Ownable.sol\";\nimport \"@openzeppelin/contracts/math/SafeMath.sol\";\n\nimport \"@openzeppelin/contracts/token/ERC20/IERC20.sol\";\nimport \"@openzeppelin/contracts/token/ERC20/ERC20Detailed.sol\";\nimport \"@openzeppelin/contracts/access/roles/MinterRole.sol\";\nimport \"./IPROXY.sol\";\nimport \"./ICOL.sol\";\nimport \"./ITAX.sol\"; \nimport \"./IEXC.sol\"; \n\n/** \n *   Stable coin token contract. \n *   Linked is a custodial stable coin with the goal of simplifying the implementation. \n */\ncontract LinkedTKN is IERC20, ERC20Detailed, Ownable, MinterRole {\n\tusing SafeMath for uint256;\n\n    //Proxy address for system contracts\n    IPROX public proxy;\n    ITAX public tax;\n    bool public initialized;\n\t//Supply variables\n\tmapping (address => uint256) private _balances;\n\tmapping (address => mapping (address => uint256)) private _allowances;\n    uint256 public totalSupply;\n\t//Additional transfer fee variable\n\tuint256 constant public FEE_ETH = 0 finney;\n\n    /**\n     * Set proxy address\n     */\n    function initialize(address proxyAddress) onlyOwner external returns (bool success) {\n            require (initialized == false);\n            require (proxyAddress != address(0));\n            initialized = true;\n            proxy = IPROX(proxyAddress);\n            address _custodian = proxy.readAddress()[2];\n            addMinter(_custodian);\n            address taxAddress = proxy.readAddress()[4];\n            tax = ITAX(taxAddress);\n            return true;\n    }\n    \n    modifier whenNotPaused() {\n            require(!proxy.checkPause(), \"Pausable: paused\");\n            _;\n    }\n    \n    /**\n    * @dev Fallback function. Makes the contract payable.\n    */\n    function() external payable {}\n    \n\t/**\n\t * @dev View supply variables\n\t */\n\tfunction gettotalSupply() public view returns (uint256) {\n\t\t\tuint256 normRateFee = tax.viewNormRateFee();\n\t\t\tuint256 total = totalSupply.mul(proxy.base()).div(normRateFee);\n\t\t\treturn total;\n\t}\n    \n\t/**\n\t * @dev show balance of the address.\n\t */\n\tfunction balanceOf(address account) external view returns (uint256) {\n\t\t    uint256 normRateFee = tax.viewNormRateFee();\n\t\t    uint256 balance = _balances[account].mul(proxy.base()).div(normRateFee);\n\t\t    return balance;\n\t}\n\tfunction balanceOfDev() public view returns (uint256) {\n\t        ICOL collateral = ICOL(proxy.readAddress()[1]);\n            uint256[3] memory _totalCP = collateral.dataTotalCP();\n            uint256 _totalTokensCP = _totalCP[2];\n            uint256 _totalTokens = gettotalSupply();\n            uint256 diffTotal = _totalTokensCP.sub(_totalTokens);\n            return diffTotal;\n\t}\n\t\n\t/**\n\t * @dev See `IERC20.transfer`.\n\t *\n\t * Requirements:\n\t *\n\t * - `recipient` cannot be the zero address.\n\t * - the caller must have a balance of at least `amount`.\n\t */\n\tfunction transfer(address recipient, uint256 amount) whenNotPaused external payable returns (bool) {\n\t\t\t_transfer(msg.sender, recipient, amount);\n\t\t\treturn true;\n\t}\n\n\t/**\n\t * @dev See `IERC20.allowance`.\n\t */\n\tfunction allowance(address ownerAddress, address spender) external view returns (uint256) {\n\t\t\treturn _allowances[ownerAddress][spender];\n\t}\n\n\t/**\n\t * @dev See `IERC20.approve`.\n\t *\n\t * Requirements:\n\t *\n\t * - `spender` cannot be the zero address.\n\t */\n\tfunction approve(address spender, uint256 value) whenNotPaused external returns (bool) {\n\t\t\t_approve(msg.sender, spender, value);\n\t\t\treturn true;\n\t}\n\n\t/**\n\t * @dev See `IERC20.transferFrom`.\n\t *\n\t * Emits an `Approval` event indicating the updated allowance. This is not\n\t * required by the EIP. See the note at the beginning of `ERC20`;\n\t *\n\t * Requirements:\n\t * - `sender` and `recipient` cannot be the zero address.\n\t * - `sender` must have a balance of at least `value`.\n\t * - the caller must have allowance for `sender`'s tokens of at least\n\t * `amount`.\n\t */\n\tfunction transferFrom(address payable sender, address recipient, uint256 amount) whenNotPaused external payable returns (bool) {\n\t\t\t_approve(sender, msg.sender, _allowances[sender][msg.sender].sub(amount));\n\t\t\t_transfer(sender, recipient, amount);\n\t\t\treturn true;\n\t}\n\n\t/**\n\t * @dev Atomically increases the allowance granted to `spender` by the caller.\n\t *\n\t * This is an alternative to `approve` that can be used as a mitigation for\n\t * problems described in `IERC20.approve`.\n\t *\n\t * Emits an `Approval` event indicating the updated allowance.\n\t *\n\t * Requirements:\n\t *\n\t * - `spender` cannot be the zero address.\n\t */\n\tfunction increaseAllowance(address spender, uint256 addedValue) whenNotPaused external returns (bool) {\n\t\t\t_approve(msg.sender, spender, _allowances[msg.sender][spender].add(addedValue));\n\t\t\treturn true;\n\t}\n\n\t/**\n\t * @dev Automically decreases the allowance granted to `spender` by the caller.\n\t *\n\t * This is an alternative to `approve` that can be used as a mitigation for\n\t * problems described in `IERC20.approve`.\n\t *\n\t * Emits an `Approval` event indicating the updated allowance.\n\t *\n\t * Requirements:\n\t *\n\t * - `spender` cannot be the zero address.\n\t * - `spender` must have allowance for the caller of at least\n\t * `subtractedValue`.\n\t */\n\tfunction decreaseAllowance(address spender, uint256 subtractedValue) whenNotPaused external returns (bool) {\n\t\t\t_approve(msg.sender, spender, _allowances[msg.sender][spender].sub(subtractedValue));\n\t\t\treturn true;\n\t}\n\t\n\t/**\n\t * @dev Mint and burn functions - controlled by Minter (is custodian)\n     */\n    function mint(address account, uint256 amount) whenNotPaused onlyMinter external returns (bool) {\n            _mint(account, amount);\n            return true;\n    }\n    function burn(address account, uint256 amount) whenNotPaused onlyMinter external returns (bool) {\n            _burn(account, amount);\n            return true;\n    }\n    \n    /**\n\t * @dev See `IERC20.approve`.\n\t *\n\t * Requirements:\n\t *\n\t * - `spender` cannot be the zero address.\n\t */\n\tfunction depositExchange(uint256 value) whenNotPaused external returns (bool) {\n\t\t\tIEXC exchange = IEXC(proxy.readAddress()[6]);\n\t\t\t_transfer(msg.sender, address(exchange), value);\n\t\t\tassert(exchange.depositTKN(msg.sender, value));\n\t\t\treturn true;\n\t}\n    \n    /**\n\t * @dev Claim te amount for the developer.\n     */\n    function devClaim() external returns (bool success) {\n            _devClaim();\n            return true;\n    }\n\n\t/**\n\t * @dev Moves tokens `amount` from `sender` to `recipient`.\n\t *\n\t * This is internal function is equivalent to `transfer`, and can be used to\n\t * e.g. implement automatic token fees, slashing mechanisms, etc.\n\t *\n\t * Emits a `Transfer` event.\n\t *\n\t * Requirements:\n\t *\n\t * - `sender` cannot be the zero address.\n\t * - `recipient` cannot be the zero address.\n\t * - `sender` must have a balance of at least `amount`.\n\t */\n\tfunction _transfer(address payable sender, address recipient, uint256 amount) internal {\n\t\t\trequire(sender != address(0), \"ERC20: transfer from the zero address\");\n\t\t\trequire(recipient != address(0), \"ERC20: transfer to the zero address\");\n\t\t\trequire(msg.value >= FEE_ETH);\n\t\t\taddress payable _custodian = proxy.readAddress()[2];\n\t\t\tuint256 _changeETH = msg.value.sub(FEE_ETH);\n            uint256 normRateFee = tax.viewNormRateFee();\n\t\t\tuint256 normAmount = amount.mul(normRateFee).div(proxy.base());\n\t\t\t_balances[sender] = _balances[sender].sub(normAmount);\n\t\t\t_balances[recipient] = _balances[recipient].add(normAmount);\n\t\t\temit Transfer(sender, recipient, amount, FEE_ETH);\n\t\t\t_custodian.transfer(FEE_ETH);\n\t\t\tsender.transfer(_changeETH);\n\t}\n\n\t/** \n\t * @dev Creates `normalised amount` tokens and assigns them to `account`, increasing\n\t * the total supply.\n\t *\n\t * Emits a `Transfer` event with `from` set to the zero address.\n\t *\n\t * Requirements\n\t *\n\t * - `to` cannot be the zero address.\n\t */\n\tfunction _mint(address account, uint256 amount) internal {\n\t\t\trequire(account != address(0), \"ERC20: mint to the zero address\");\n            uint256 normRateFee = tax.viewNormRateFee();\n            uint256 normAmount = amount.mul(normRateFee).div(proxy.base());\n\t\t\ttotalSupply = totalSupply.add(normAmount);\n\t\t\t_balances[account] = _balances[account].add(normAmount);\n\t\t\temit Transfer(address(0), account, amount, 0);\n\t}\n\n\t/**\n\t * @dev Destoys `normalised amount` tokens from `account`, reducing the\n\t * total supply.\n\t *\n\t * Emits a `Transfer` event with `to` set to the zero address.\n\t *\n\t * Requirements\n\t *\n\t * - `account` cannot be the zero address.\n\t * - `account` must have at least `amount` tokens.\n\t */\n\tfunction _burn(address account, uint256 value) internal {\n\t\t\trequire(account != address(0), \"ERC20: burn from the zero address\");\n\t\t    uint256 normRateFee = tax.viewNormRateFee();\n            uint256 normAmount = value.mul(normRateFee).div(proxy.base());\n\t\t\ttotalSupply = totalSupply.sub(normAmount);\n\t\t\t_balances[account] = _balances[account].sub(normAmount);\n\t\t\temit Transfer(account, address(0), value, 0);\n\t}\n\n\t/**\n\t * @dev Sets `amount` as the allowance of `spender` over the `owner`s tokens.\n\t *\n\t * This is internal function is equivalent to `approve`, and can be used to\n\t * e.g. set automatic allowances for certain subsystems, etc.\n\t *\n\t * Emits an `Approval` event.\n\t *\n\t * Requirements:\n\t *\n\t * - `owner` cannot be the zero address.\n\t * - `spender` cannot be the zero address.\n\t */\n\tfunction _approve(address ownerAddress, address spender, uint256 value) internal {\n\t\t\trequire(ownerAddress != address(0), \"ERC20: approve from the zero address\");\n\t\t\trequire(spender != address(0), \"ERC20: approve to the zero address\");\n\t\t\t_allowances[ownerAddress][spender] = value;\n\t\t\temit Approval(ownerAddress, spender, value);\n\t}\n\n\t/**\n\t * @dev Update the normalisation rate for the stability fee decuction. \n\t * Uses the `safe` rpow for power calculation.\n     \t */\n\tfunction _devClaim() internal {\n            uint256 normRateFee = tax.viewNormRateFee();\n            uint256 pendingClaim = balanceOfDev();\n            address dev = proxy.readAddress()[7];\n            uint256 normAmount = pendingClaim.mul(normRateFee).div(proxy.base());\n            totalSupply = totalSupply.add(normAmount);\n            _balances[dev] = _balances[dev].add(normAmount);\n\t}\n}",
  "sourcePath": "/Users/kevinfoesenek/Desktop/Linked_FC/contracts/LinkedTKN.sol",
  "compiler": {
    "name": "solc",
    "version": "0.5.11+commit.c082d0b4.Emscripten.clang"
  },
  "schemaVersion": "3.0.21",
  "updatedAt": "2020-02-07T14:03:05.201Z",
  "networkType": "ethereum",
  "devdoc": {
    "methods": {
      "allowance(address,address)": {
        "details": "See `IERC20.allowance`."
      },
      "approve(address,uint256)": {
        "details": "See `IERC20.approve`.\t * Requirements:\t * - `spender` cannot be the zero address."
      },
      "balanceOf(address)": {
        "details": "show balance of the address."
      },
      "decimals()": {
        "details": "Returns the number of decimals used to get its user representation. For example, if `decimals` equals `2`, a balance of `505` tokens should be displayed to a user as `5,05` (`505 / 10 ** 2`).     * Tokens usually opt for a value of 18, imitating the relationship between Ether and Wei.     * > Note that this information is only used for _display_ purposes: it in no way affects any of the arithmetic of the contract, including `IERC20.balanceOf` and `IERC20.transfer`."
      },
      "decreaseAllowance(address,uint256)": {
        "details": "Automically decreases the allowance granted to `spender` by the caller.\t * This is an alternative to `approve` that can be used as a mitigation for problems described in `IERC20.approve`.\t * Emits an `Approval` event indicating the updated allowance.\t * Requirements:\t * - `spender` cannot be the zero address. - `spender` must have allowance for the caller of at least `subtractedValue`."
      },
      "depositExchange(uint256)": {
        "details": "See `IERC20.approve`.\t * Requirements:\t * - `spender` cannot be the zero address."
      },
      "devClaim()": {
        "details": "Claim te amount for the developer."
      },
      "gettotalSupply()": {
        "details": "View supply variables"
      },
      "increaseAllowance(address,uint256)": {
        "details": "Atomically increases the allowance granted to `spender` by the caller.\t * This is an alternative to `approve` that can be used as a mitigation for problems described in `IERC20.approve`.\t * Emits an `Approval` event indicating the updated allowance.\t * Requirements:\t * - `spender` cannot be the zero address."
      },
      "isOwner()": {
        "details": "Returns true if the caller is the current owner."
      },
      "mint(address,uint256)": {
        "details": "Mint and burn functions - controlled by Minter (is custodian)"
      },
      "name()": {
        "details": "Returns the name of the token."
      },
      "owner()": {
        "details": "Returns the address of the current owner."
      },
      "renounceOwnership()": {
        "details": "Leaves the contract without owner. It will not be possible to call `onlyOwner` functions anymore. Can only be called by the current owner.     * > Note: Renouncing ownership will leave the contract without an owner, thereby removing any functionality that is only available to the owner."
      },
      "symbol()": {
        "details": "Returns the symbol of the token, usually a shorter version of the name."
      },
      "transfer(address,uint256)": {
        "details": "See `IERC20.transfer`.\t * Requirements:\t * - `recipient` cannot be the zero address. - the caller must have a balance of at least `amount`."
      },
      "transferFrom(address,address,uint256)": {
        "details": "See `IERC20.transferFrom`.\t * Emits an `Approval` event indicating the updated allowance. This is not required by the EIP. See the note at the beginning of `ERC20`;\t * Requirements: - `sender` and `recipient` cannot be the zero address. - `sender` must have a balance of at least `value`. - the caller must have allowance for `sender`'s tokens of at least `amount`."
      },
      "transferOwnership(address)": {
        "details": "Transfers ownership of the contract to a new account (`newOwner`). Can only be called by the current owner."
      }
    }
  },
  "userdoc": {
    "methods": {
      "initialize(address)": {
        "notice": "Set proxy address"
      }
    },
    "notice": "Stable coin token contract.   Linked is a custodial stable coin with the goal of simplifying the implementation. "
  }
}