{
  "contractName": "LinkedEXC",
  "abi": [
    {
      "constant": true,
      "inputs": [],
      "name": "initialized",
      "outputs": [
        {
          "internalType": "bool",
          "name": "",
          "type": "bool"
        }
      ],
      "payable": false,
      "stateMutability": "view",
      "type": "function"
    },
    {
      "constant": false,
      "inputs": [],
      "name": "renounceOwnership",
      "outputs": [],
      "payable": false,
      "stateMutability": "nonpayable",
      "type": "function"
    },
    {
      "constant": true,
      "inputs": [],
      "name": "owner",
      "outputs": [
        {
          "internalType": "address",
          "name": "",
          "type": "address"
        }
      ],
      "payable": false,
      "stateMutability": "view",
      "type": "function"
    },
    {
      "constant": true,
      "inputs": [],
      "name": "isOwner",
      "outputs": [
        {
          "internalType": "bool",
          "name": "",
          "type": "bool"
        }
      ],
      "payable": false,
      "stateMutability": "view",
      "type": "function"
    },
    {
      "constant": true,
      "inputs": [],
      "name": "proxy",
      "outputs": [
        {
          "internalType": "contract IPROX",
          "name": "",
          "type": "address"
        }
      ],
      "payable": false,
      "stateMutability": "view",
      "type": "function"
    },
    {
      "constant": false,
      "inputs": [
        {
          "internalType": "address",
          "name": "newOwner",
          "type": "address"
        }
      ],
      "name": "transferOwnership",
      "outputs": [],
      "payable": false,
      "stateMutability": "nonpayable",
      "type": "function"
    },
    {
      "payable": true,
      "stateMutability": "payable",
      "type": "fallback"
    },
    {
      "anonymous": false,
      "inputs": [
        {
          "indexed": true,
          "internalType": "address",
          "name": "previousOwner",
          "type": "address"
        },
        {
          "indexed": true,
          "internalType": "address",
          "name": "newOwner",
          "type": "address"
        }
      ],
      "name": "OwnershipTransferred",
      "type": "event"
    },
    {
      "constant": false,
      "inputs": [
        {
          "internalType": "address",
          "name": "proxyAddress",
          "type": "address"
        }
      ],
      "name": "initialize",
      "outputs": [
        {
          "internalType": "bool",
          "name": "success",
          "type": "bool"
        }
      ],
      "payable": false,
      "stateMutability": "nonpayable",
      "type": "function"
    },
    {
      "constant": true,
      "inputs": [],
      "name": "totalReserve",
      "outputs": [
        {
          "internalType": "uint256[2]",
          "name": "",
          "type": "uint256[2]"
        }
      ],
      "payable": false,
      "stateMutability": "view",
      "type": "function"
    },
    {
      "constant": true,
      "inputs": [
        {
          "internalType": "address",
          "name": "account",
          "type": "address"
        }
      ],
      "name": "claimOfTKN",
      "outputs": [
        {
          "internalType": "uint256",
          "name": "",
          "type": "uint256"
        }
      ],
      "payable": false,
      "stateMutability": "view",
      "type": "function"
    },
    {
      "constant": true,
      "inputs": [
        {
          "internalType": "address",
          "name": "account",
          "type": "address"
        }
      ],
      "name": "claimOfETH",
      "outputs": [
        {
          "internalType": "uint256",
          "name": "",
          "type": "uint256"
        }
      ],
      "payable": false,
      "stateMutability": "view",
      "type": "function"
    },
    {
      "constant": false,
      "inputs": [
        {
          "internalType": "address",
          "name": "receiver",
          "type": "address"
        },
        {
          "internalType": "uint256",
          "name": "amount",
          "type": "uint256"
        }
      ],
      "name": "depositTKN",
      "outputs": [
        {
          "internalType": "bool",
          "name": "",
          "type": "bool"
        }
      ],
      "payable": false,
      "stateMutability": "nonpayable",
      "type": "function"
    },
    {
      "constant": false,
      "inputs": [],
      "name": "depositETH",
      "outputs": [
        {
          "internalType": "bool",
          "name": "",
          "type": "bool"
        }
      ],
      "payable": true,
      "stateMutability": "payable",
      "type": "function"
    },
    {
      "constant": false,
      "inputs": [
        {
          "internalType": "uint256",
          "name": "amount",
          "type": "uint256"
        }
      ],
      "name": "withdrawTKN",
      "outputs": [
        {
          "internalType": "bool",
          "name": "",
          "type": "bool"
        }
      ],
      "payable": true,
      "stateMutability": "payable",
      "type": "function"
    },
    {
      "constant": false,
      "inputs": [
        {
          "internalType": "uint256",
          "name": "amount",
          "type": "uint256"
        }
      ],
      "name": "withdrawETH",
      "outputs": [
        {
          "internalType": "bool",
          "name": "",
          "type": "bool"
        }
      ],
      "payable": false,
      "stateMutability": "nonpayable",
      "type": "function"
    }
  ],
  "bytecode": "0x6080604052336000806101000a81548173ffffffffffffffffffffffffffffffffffffffff021916908373ffffffffffffffffffffffffffffffffffffffff1602179055506000809054906101000a900473ffffffffffffffffffffffffffffffffffffffff1673ffffffffffffffffffffffffffffffffffffffff16600073ffffffffffffffffffffffffffffffffffffffff167f8be0079c531659141344cd1fd0a4f28419497f9722a3daafe3b4186f6b6457e060405160405180910390a36128d3806100cf6000396000f3fe6080604052600436106100dd5760003560e01c8063c4d66de81161007f578063ec55688911610059578063ec556889146103ea578063f14210a614610441578063f2fde38b14610494578063f6326fb3146104e5576100dd565b8063c4d66de8146102a9578063c55d0bf514610312578063d736e4e214610377576100dd565b80635942e2d6116100bb5780635942e2d6146101a7578063715018a61461020c5780638da5cb5b146102235780638f32d59b1461027a576100dd565b8063158ef93e146100df578063277c4aab1461010e5780634c68df6714610154575b005b3480156100eb57600080fd5b506100f4610507565b604051808215151515815260200191505060405180910390f35b61013a6004803603602081101561012457600080fd5b810190808035906020019092919050505061051a565b604051808215151515815260200191505060405180910390f35b34801561016057600080fd5b5061016961052e565b6040518082600260200280838360005b83811015610194578082015181840152602081019050610179565b5050505090500191505060405180910390f35b3480156101b357600080fd5b506101f6600480360360208110156101ca57600080fd5b81019080803573ffffffffffffffffffffffffffffffffffffffff1690602001909291905050506106f7565b6040518082815260200191505060405180910390f35b34801561021857600080fd5b50610221610952565b005b34801561022f57600080fd5b50610238610a8b565b604051808273ffffffffffffffffffffffffffffffffffffffff1673ffffffffffffffffffffffffffffffffffffffff16815260200191505060405180910390f35b34801561028657600080fd5b5061028f610ab4565b604051808215151515815260200191505060405180910390f35b3480156102b557600080fd5b506102f8600480360360208110156102cc57600080fd5b81019080803573ffffffffffffffffffffffffffffffffffffffff169060200190929190505050610b0b565b604051808215151515815260200191505060405180910390f35b34801561031e57600080fd5b506103616004803603602081101561033557600080fd5b81019080803573ffffffffffffffffffffffffffffffffffffffff169060200190929190505050610c45565b6040518082815260200191505060405180910390f35b34801561038357600080fd5b506103d06004803603604081101561039a57600080fd5b81019080803573ffffffffffffffffffffffffffffffffffffffff16906020019092919080359060200190929190505050610c8e565b604051808215151515815260200191505060405180910390f35b3480156103f657600080fd5b506103ff610ca4565b604051808273ffffffffffffffffffffffffffffffffffffffff1673ffffffffffffffffffffffffffffffffffffffff16815260200191505060405180910390f35b34801561044d57600080fd5b5061047a6004803603602081101561046457600080fd5b8101908080359060200190929190505050610cca565b604051808215151515815260200191505060405180910390f35b3480156104a057600080fd5b506104e3600480360360208110156104b757600080fd5b81019080803573ffffffffffffffffffffffffffffffffffffffff169060200190929190505050610cde565b005b6104ed610d64565b604051808215151515815260200191505060405180910390f35b600160149054906101000a900460ff1681565b600061052582610d75565b60019050919050565b6105366127ea565b6000600160009054906101000a900473ffffffffffffffffffffffffffffffffffffffff1673ffffffffffffffffffffffffffffffffffffffff16632ee8c2fa6040518163ffffffff1660e01b81526004016101006040518083038186803b1580156105a157600080fd5b505afa1580156105b5573d6000803e3d6000fd5b505050506040513d601f19601f820116820180604052506101008110156105db57600080fd5b81019080919050506000600881106105ef57fe5b6020020151905060003073ffffffffffffffffffffffffffffffffffffffff1631905060008273ffffffffffffffffffffffffffffffffffffffff166370a08231306040518263ffffffff1660e01b8152600401808273ffffffffffffffffffffffffffffffffffffffff1673ffffffffffffffffffffffffffffffffffffffff16815260200191505060206040518083038186803b15801561069157600080fd5b505afa1580156106a5573d6000803e3d6000fd5b505050506040513d60208110156106bb57600080fd5b810190808051906020019092919050505090506106d66127ea565b60405180604001604052808481526020018381525090508094505050505090565b600080600160009054906101000a900473ffffffffffffffffffffffffffffffffffffffff1673ffffffffffffffffffffffffffffffffffffffff16632ee8c2fa6040518163ffffffff1660e01b81526004016101006040518083038186803b15801561076357600080fd5b505afa158015610777573d6000803e3d6000fd5b505050506040513d601f19601f8201168201806040525061010081101561079d57600080fd5b81019080919050506004600881106107b157fe5b6020020151905060008173ffffffffffffffffffffffffffffffffffffffff16634357e7386040518163ffffffff1660e01b815260040160206040518083038186803b15801561080057600080fd5b505afa158015610814573d6000803e3d6000fd5b505050506040513d602081101561082a57600080fd5b81019080805190602001909291905050509050600061094582610937600160009054906101000a900473ffffffffffffffffffffffffffffffffffffffff1673ffffffffffffffffffffffffffffffffffffffff16635001f3b56040518163ffffffff1660e01b815260040160206040518083038186803b1580156108ae57600080fd5b505afa1580156108c2573d6000803e3d6000fd5b505050506040513d60208110156108d857600080fd5b8101908080519060200190929190505050600260008a73ffffffffffffffffffffffffffffffffffffffff1673ffffffffffffffffffffffffffffffffffffffff168152602001908152602001600020546117e290919063ffffffff16565b61186890919063ffffffff16565b9050809350505050919050565b61095a610ab4565b6109cc576040517f08c379a00000000000000000000000000000000000000000000000000000000081526004018080602001828103825260208152602001807f4f776e61626c653a2063616c6c6572206973206e6f7420746865206f776e657281525060200191505060405180910390fd5b600073ffffffffffffffffffffffffffffffffffffffff166000809054906101000a900473ffffffffffffffffffffffffffffffffffffffff1673ffffffffffffffffffffffffffffffffffffffff167f8be0079c531659141344cd1fd0a4f28419497f9722a3daafe3b4186f6b6457e060405160405180910390a360008060006101000a81548173ffffffffffffffffffffffffffffffffffffffff021916908373ffffffffffffffffffffffffffffffffffffffff160217905550565b60008060009054906101000a900473ffffffffffffffffffffffffffffffffffffffff16905090565b60008060009054906101000a900473ffffffffffffffffffffffffffffffffffffffff1673ffffffffffffffffffffffffffffffffffffffff163373ffffffffffffffffffffffffffffffffffffffff1614905090565b6000610b15610ab4565b610b87576040517f08c379a00000000000000000000000000000000000000000000000000000000081526004018080602001828103825260208152602001807f4f776e61626c653a2063616c6c6572206973206e6f7420746865206f776e657281525060200191505060405180910390fd5b60001515600160149054906101000a900460ff16151514610ba757600080fd5b600073ffffffffffffffffffffffffffffffffffffffff168273ffffffffffffffffffffffffffffffffffffffff161415610be157600080fd5b60018060146101000a81548160ff02191690831515021790555081600160006101000a81548173ffffffffffffffffffffffffffffffffffffffff021916908373ffffffffffffffffffffffffffffffffffffffff16021790555060019050919050565b6000600360008373ffffffffffffffffffffffffffffffffffffffff1673ffffffffffffffffffffffffffffffffffffffff168152602001908152602001600020549050919050565b6000610c9a83836118f7565b6001905092915050565b600160009054906101000a900473ffffffffffffffffffffffffffffffffffffffff1681565b6000610cd582611cff565b60019050919050565b610ce6610ab4565b610d58576040517f08c379a00000000000000000000000000000000000000000000000000000000081526004018080602001828103825260208152602001807f4f776e61626c653a2063616c6c6572206973206e6f7420746865206f776e657281525060200191505060405180910390fd5b610d6181612488565b50565b6000610d6e6125cc565b6001905090565b6000600160009054906101000a900473ffffffffffffffffffffffffffffffffffffffff1673ffffffffffffffffffffffffffffffffffffffff16632ee8c2fa6040518163ffffffff1660e01b81526004016101006040518083038186803b158015610de057600080fd5b505afa158015610df4573d6000803e3d6000fd5b505050506040513d601f19601f82011682018060405250610100811015610e1a57600080fd5b8101908091905050600060088110610e2e57fe5b602002015190506000600160009054906101000a900473ffffffffffffffffffffffffffffffffffffffff1673ffffffffffffffffffffffffffffffffffffffff16632ee8c2fa6040518163ffffffff1660e01b81526004016101006040518083038186803b158015610ea057600080fd5b505afa158015610eb4573d6000803e3d6000fd5b505050506040513d601f19601f82011682018060405250610100811015610eda57600080fd5b8101908091905050600460088110610eee57fe5b602002015190508173ffffffffffffffffffffffffffffffffffffffff166370a08231306040518263ffffffff1660e01b8152600401808273ffffffffffffffffffffffffffffffffffffffff1673ffffffffffffffffffffffffffffffffffffffff16815260200191505060206040518083038186803b158015610f7257600080fd5b505afa158015610f86573d6000803e3d6000fd5b505050506040513d6020811015610f9c57600080fd5b8101908080519060200190929190505050831115611005576040517f08c379a00000000000000000000000000000000000000000000000000000000081526004018080602001828103825260268152602001806128336026913960400191505060405180910390fd5b6000600160009054906101000a900473ffffffffffffffffffffffffffffffffffffffff1673ffffffffffffffffffffffffffffffffffffffff16632c4e722e6040518163ffffffff1660e01b815260040160206040518083038186803b15801561106f57600080fd5b505afa158015611083573d6000803e3d6000fd5b505050506040513d602081101561109957600080fd5b8101908080519060200190929190505050905060006110b7336106f7565b905060008373ffffffffffffffffffffffffffffffffffffffff16634357e7386040518163ffffffff1660e01b815260040160206040518083038186803b15801561110157600080fd5b505afa158015611115573d6000803e3d6000fd5b505050506040513d602081101561112b57600080fd5b8101908080519060200190929190505050905060008211156116645781861061143b57600061116383886126d990919063ffffffff16565b9050600061117a858361186890919063ffffffff16565b9050611294611246600160009054906101000a900473ffffffffffffffffffffffffffffffffffffffff1673ffffffffffffffffffffffffffffffffffffffff16635001f3b56040518163ffffffff1660e01b815260040160206040518083038186803b1580156111ea57600080fd5b505afa1580156111fe573d6000803e3d6000fd5b505050506040513d602081101561121457600080fd5b810190808051906020019092919050505061123886886117e290919063ffffffff16565b61186890919063ffffffff16565b600260003373ffffffffffffffffffffffffffffffffffffffff1673ffffffffffffffffffffffffffffffffffffffff168152602001908152602001600020546126d990919063ffffffff16565b600260003373ffffffffffffffffffffffffffffffffffffffff1673ffffffffffffffffffffffffffffffffffffffff1681526020019081526020016000208190555061132981600360003373ffffffffffffffffffffffffffffffffffffffff1673ffffffffffffffffffffffffffffffffffffffff168152602001908152602001600020546126d990919063ffffffff16565b600360003373ffffffffffffffffffffffffffffffffffffffff1673ffffffffffffffffffffffffffffffffffffffff168152602001908152602001600020819055508673ffffffffffffffffffffffffffffffffffffffff1663a9059cbb338a6040518363ffffffff1660e01b8152600401808373ffffffffffffffffffffffffffffffffffffffff1673ffffffffffffffffffffffffffffffffffffffff16815260200182815260200192505050602060405180830381600087803b1580156113f357600080fd5b505af1158015611407573d6000803e3d6000fd5b505050506040513d602081101561141d57600080fd5b810190808051906020019092919050505061143457fe5b505061165f565b611553611505600160009054906101000a900473ffffffffffffffffffffffffffffffffffffffff1673ffffffffffffffffffffffffffffffffffffffff16635001f3b56040518163ffffffff1660e01b815260040160206040518083038186803b1580156114a957600080fd5b505afa1580156114bd573d6000803e3d6000fd5b505050506040513d60208110156114d357600080fd5b81019080805190602001909291905050506114f7848a6117e290919063ffffffff16565b61186890919063ffffffff16565b600260003373ffffffffffffffffffffffffffffffffffffffff1673ffffffffffffffffffffffffffffffffffffffff168152602001908152602001600020546126d990919063ffffffff16565b600260003373ffffffffffffffffffffffffffffffffffffffff1673ffffffffffffffffffffffffffffffffffffffff168152602001908152602001600020819055508473ffffffffffffffffffffffffffffffffffffffff1663a9059cbb33886040518363ffffffff1660e01b8152600401808373ffffffffffffffffffffffffffffffffffffffff1673ffffffffffffffffffffffffffffffffffffffff16815260200182815260200192505050602060405180830381600087803b15801561161d57600080fd5b505af1158015611631573d6000803e3d6000fd5b505050506040513d602081101561164757600080fd5b810190808051906020019092919050505061165e57fe5b5b6117da565b6000611679848861186890919063ffffffff16565b90506116cd81600360003373ffffffffffffffffffffffffffffffffffffffff1673ffffffffffffffffffffffffffffffffffffffff168152602001908152602001600020546126d990919063ffffffff16565b600360003373ffffffffffffffffffffffffffffffffffffffff1673ffffffffffffffffffffffffffffffffffffffff168152602001908152602001600020819055508573ffffffffffffffffffffffffffffffffffffffff1663a9059cbb33896040518363ffffffff1660e01b8152600401808373ffffffffffffffffffffffffffffffffffffffff1673ffffffffffffffffffffffffffffffffffffffff16815260200182815260200192505050602060405180830381600087803b15801561179757600080fd5b505af11580156117ab573d6000803e3d6000fd5b505050506040513d60208110156117c157600080fd5b81019080805190602001909291905050506117d857fe5b505b505050505050565b6000808314156117f55760009050611862565b600082840290508284828161180657fe5b041461185d576040517f08c379a000000000000000000000000000000000000000000000000000000000815260040180806020018281038252602181526020018061287e6021913960400191505060405180910390fd5b809150505b92915050565b60008082116118df576040517f08c379a000000000000000000000000000000000000000000000000000000000815260040180806020018281038252601a8152602001807f536166654d6174683a206469766973696f6e206279207a65726f00000000000081525060200191505060405180910390fd5b60008284816118ea57fe5b0490508091505092915050565b6000600160009054906101000a900473ffffffffffffffffffffffffffffffffffffffff1673ffffffffffffffffffffffffffffffffffffffff16632ee8c2fa6040518163ffffffff1660e01b81526004016101006040518083038186803b15801561196257600080fd5b505afa158015611976573d6000803e3d6000fd5b505050506040513d601f19601f8201168201806040525061010081101561199c57600080fd5b81019080919050506000600881106119b057fe5b602002015190506000600160009054906101000a900473ffffffffffffffffffffffffffffffffffffffff1673ffffffffffffffffffffffffffffffffffffffff16632ee8c2fa6040518163ffffffff1660e01b81526004016101006040518083038186803b158015611a2257600080fd5b505afa158015611a36573d6000803e3d6000fd5b505050506040513d601f19601f82011682018060405250610100811015611a5c57600080fd5b8101908091905050600460088110611a7057fe5b602002015190508173ffffffffffffffffffffffffffffffffffffffff163373ffffffffffffffffffffffffffffffffffffffff1614611b18576040517f08c379a00000000000000000000000000000000000000000000000000000000081526004018080602001828103825260208152602001807f45786368616e67653a206e6f742074686520746f6b656e20636f6e747261637481525060200191505060405180910390fd5b60008173ffffffffffffffffffffffffffffffffffffffff16634357e7386040518163ffffffff1660e01b815260040160206040518083038186803b158015611b6057600080fd5b505afa158015611b74573d6000803e3d6000fd5b505050506040513d6020811015611b8a57600080fd5b81019080805190602001909291905050509050611cb5611c67600160009054906101000a900473ffffffffffffffffffffffffffffffffffffffff1673ffffffffffffffffffffffffffffffffffffffff16635001f3b56040518163ffffffff1660e01b815260040160206040518083038186803b158015611c0b57600080fd5b505afa158015611c1f573d6000803e3d6000fd5b505050506040513d6020811015611c3557600080fd5b8101908080519060200190929190505050611c5984886117e290919063ffffffff16565b61186890919063ffffffff16565b600260008873ffffffffffffffffffffffffffffffffffffffff1673ffffffffffffffffffffffffffffffffffffffff1681526020019081526020016000205461276290919063ffffffff16565b600260008773ffffffffffffffffffffffffffffffffffffffff1673ffffffffffffffffffffffffffffffffffffffff168152602001908152602001600020819055505050505050565b6000600160009054906101000a900473ffffffffffffffffffffffffffffffffffffffff1673ffffffffffffffffffffffffffffffffffffffff16632ee8c2fa6040518163ffffffff1660e01b81526004016101006040518083038186803b158015611d6a57600080fd5b505afa158015611d7e573d6000803e3d6000fd5b505050506040513d601f19601f82011682018060405250610100811015611da457600080fd5b8101908091905050600460088110611db857fe5b602002015190503073ffffffffffffffffffffffffffffffffffffffff1631821115611e2f576040517f08c379a00000000000000000000000000000000000000000000000000000000081526004018080602001828103825260258152602001806128596025913960400191505060405180910390fd5b60008173ffffffffffffffffffffffffffffffffffffffff16634357e7386040518163ffffffff1660e01b815260040160206040518083038186803b158015611e7757600080fd5b505afa158015611e8b573d6000803e3d6000fd5b505050506040513d6020811015611ea157600080fd5b810190808051906020019092919050505090506000600160009054906101000a900473ffffffffffffffffffffffffffffffffffffffff1673ffffffffffffffffffffffffffffffffffffffff16632c4e722e6040518163ffffffff1660e01b815260040160206040518083038186803b158015611f1e57600080fd5b505afa158015611f32573d6000803e3d6000fd5b505050506040513d6020811015611f4857600080fd5b810190808051906020019092919050505090506000611f6633610c45565b905060008111156122c6578085106121e4576000611f8d82876126d990919063ffffffff16565b90506000611fa484836117e290919063ffffffff16565b90506120be612070600160009054906101000a900473ffffffffffffffffffffffffffffffffffffffff1673ffffffffffffffffffffffffffffffffffffffff16635001f3b56040518163ffffffff1660e01b815260040160206040518083038186803b15801561201457600080fd5b505afa158015612028573d6000803e3d6000fd5b505050506040513d602081101561203e57600080fd5b810190808051906020019092919050505061206288856117e290919063ffffffff16565b61186890919063ffffffff16565b600260003373ffffffffffffffffffffffffffffffffffffffff1673ffffffffffffffffffffffffffffffffffffffff168152602001908152602001600020546126d990919063ffffffff16565b600260003373ffffffffffffffffffffffffffffffffffffffff1673ffffffffffffffffffffffffffffffffffffffff1681526020019081526020016000208190555061215383600360003373ffffffffffffffffffffffffffffffffffffffff1673ffffffffffffffffffffffffffffffffffffffff168152602001908152602001600020546126d990919063ffffffff16565b600360003373ffffffffffffffffffffffffffffffffffffffff1673ffffffffffffffffffffffffffffffffffffffff168152602001908152602001600020819055503373ffffffffffffffffffffffffffffffffffffffff166108fc889081150290604051600060405180830381858888f193505050501580156121dc573d6000803e3d6000fd5b5050506122c1565b61223685600360003373ffffffffffffffffffffffffffffffffffffffff1673ffffffffffffffffffffffffffffffffffffffff168152602001908152602001600020546126d990919063ffffffff16565b600360003373ffffffffffffffffffffffffffffffffffffffff1673ffffffffffffffffffffffffffffffffffffffff168152602001908152602001600020819055503373ffffffffffffffffffffffffffffffffffffffff166108fc869081150290604051600060405180830381858888f193505050501580156122bf573d6000803e3d6000fd5b505b612481565b60006122db83876117e290919063ffffffff16565b90506123f56123a7600160009054906101000a900473ffffffffffffffffffffffffffffffffffffffff1673ffffffffffffffffffffffffffffffffffffffff16635001f3b56040518163ffffffff1660e01b815260040160206040518083038186803b15801561234b57600080fd5b505afa15801561235f573d6000803e3d6000fd5b505050506040513d602081101561237557600080fd5b810190808051906020019092919050505061239987856117e290919063ffffffff16565b61186890919063ffffffff16565b600260003373ffffffffffffffffffffffffffffffffffffffff1673ffffffffffffffffffffffffffffffffffffffff168152602001908152602001600020546126d990919063ffffffff16565b600260003373ffffffffffffffffffffffffffffffffffffffff1673ffffffffffffffffffffffffffffffffffffffff168152602001908152602001600020819055503373ffffffffffffffffffffffffffffffffffffffff166108fc879081150290604051600060405180830381858888f1935050505015801561247e573d6000803e3d6000fd5b50505b5050505050565b600073ffffffffffffffffffffffffffffffffffffffff168173ffffffffffffffffffffffffffffffffffffffff16141561250e576040517f08c379a000000000000000000000000000000000000000000000000000000000815260040180806020018281038252602681526020018061280d6026913960400191505060405180910390fd5b8073ffffffffffffffffffffffffffffffffffffffff166000809054906101000a900473ffffffffffffffffffffffffffffffffffffffff1673ffffffffffffffffffffffffffffffffffffffff167f8be0079c531659141344cd1fd0a4f28419497f9722a3daafe3b4186f6b6457e060405160405180910390a3806000806101000a81548173ffffffffffffffffffffffffffffffffffffffff021916908373ffffffffffffffffffffffffffffffffffffffff16021790555050565b60003411612642576040517f08c379a00000000000000000000000000000000000000000000000000000000081526004018080602001828103825260178152602001807f45786368616e67653a206e6f2076616c75652073656e6400000000000000000081525060200191505060405180910390fd5b61269434600360003373ffffffffffffffffffffffffffffffffffffffff1673ffffffffffffffffffffffffffffffffffffffff1681526020019081526020016000205461276290919063ffffffff16565b600360003373ffffffffffffffffffffffffffffffffffffffff1673ffffffffffffffffffffffffffffffffffffffff16815260200190815260200160002081905550565b600082821115612751576040517f08c379a000000000000000000000000000000000000000000000000000000000815260040180806020018281038252601e8152602001807f536166654d6174683a207375627472616374696f6e206f766572666c6f77000081525060200191505060405180910390fd5b600082840390508091505092915050565b6000808284019050838110156127e0576040517f08c379a000000000000000000000000000000000000000000000000000000000815260040180806020018281038252601b8152602001807f536166654d6174683a206164646974696f6e206f766572666c6f77000000000081525060200191505060405180910390fd5b8091505092915050565b604051806040016040528060029060208202803883398082019150509050509056fe4f776e61626c653a206e6577206f776e657220697320746865207a65726f206164647265737345786368616e67653a206e6f7420656e6f75676820746f6b656e7320696e207265736572766545786368616e67653a206e6f7420656e6f75676820657468657220696e2072657365727665536166654d6174683a206d756c7469706c69636174696f6e206f766572666c6f77a265627a7a723158202e74781c88ba1c7c219cd1dac9aedac31c22e5b89edd3bb30171589b83857ff864736f6c634300050b0032",
  "source": "pragma solidity 0.5.11;\n\nimport \"@openzeppelin/contracts/math/SafeMath.sol\";\nimport \"@openzeppelin/contracts/ownership/Ownable.sol\";\nimport \"@openzeppelin/contracts/token/ERC20/IERC20.sol\";\n\nimport \"./IPROXY.sol\";\nimport \"./ICOL.sol\"; \nimport \"./ITAX.sol\";\n\n/** \n *  Exchange contract for the linked stablecoin.\n *\n *  The exchange takes the oracle price input for ETH in USD. Then fixes the price between the\n *  stablecoin and Ether on 1 stablecoin for 1 USD (in ETH).\n * \n */\ncontract LinkedEXC is Ownable {\n    using SafeMath for uint256;\n \n    //Proxy address for system contracts\n    IPROX public proxy;\n    bool public initialized;\n    //Exchange variables\n    mapping (address => uint256) private _claimsTKN;\n    mapping (address => uint256) private _claimsETH;\n\n    /**\n     * @dev Fallback function. Makes the contract payable.\n     */\n    function() external payable {}\n\n    /**\n     * Set proxy address\n     */\n    function initialize(address proxyAddress) onlyOwner external returns (bool success) {\n            require (initialized == false);\n            require (proxyAddress != address(0));\n            initialized = true;\n            proxy = IPROX(proxyAddress);\n            return true;\n    }\n    \n    function totalReserve() external view returns (uint256[2] memory) {\n\t        IERC20 token = IERC20(proxy.readAddress()[0]);\n\t        uint256 ethReserve = address(this).balance;\n\t        uint256 tokenReserve = token.balanceOf(address(this));\n\t        uint256[2] memory _totalReserve = [ethReserve, tokenReserve];\n\t        return _totalReserve;\n\t}\n    \n    function claimOfTKN(address account) public view returns (uint256) {\n\t\t    ITAX tax = ITAX(proxy.readAddress()[4]);\n        \tuint256 normRateFee = tax.viewNormRateFee();\n        \tuint256 tempClaim = _claimsTKN[account].mul(proxy.base()).div(normRateFee);\n\t\t    return tempClaim;\n\t}\n\n    function claimOfETH(address account) public view returns (uint256) {\n\t\treturn _claimsETH[account];\n\t}\n\n    /**\n     * Deposit tokens (sell) and receive a claim for buying ETH  \n     */\n    function depositTKN(address receiver, uint256 amount) external returns (bool) {\n            _depositTKN(receiver, amount);\n            return true;\n    }\n    \n    /**\n     * Deposit ETH (sell) and receive a claim for buying tokens\n     */\n    function depositETH() external payable returns (bool) {\n            _depositETH();\n            return true;\n    }\n    \n    /**\n     * Withraw tokens (buy)) with a claim after deposit of ETH\n     */\n    function withdrawTKN(uint256 amount) external payable returns (bool) {\n            _withdrawTKN(amount);\n            return true;\n    }\n    \n    /**\n     * Withraw ETH (buy) with a claim after deposit of tokens\n     */\n    function withdrawETH(uint256 amount) external returns (bool) {\n            _withdrawETH(amount);\n            return true;\n    }\n    \n    /**\n     *  @dev Internal functions called by the above functions.\n     */\n    function _depositTKN(address receiver, uint256 amount) internal {\n            IERC20 token = IERC20(proxy.readAddress()[0]);\n            ITAX tax = ITAX(proxy.readAddress()[4]);\n            require(msg.sender == address(token), \"Exchange: not the token contract\");\n            uint256 normRateFee = tax.viewNormRateFee();\n            //normalise amount in claim\n            _claimsTKN[receiver] = _claimsTKN[receiver].add(amount.mul(normRateFee).div(proxy.base()));\n    }\n    \n    function _depositETH() internal {\n            require(msg.value > 0, \"Exchange: no value send\");\n            _claimsETH[msg.sender] = _claimsETH[msg.sender].add(msg.value);\n    }\n    \n    function _withdrawTKN(uint256 amount) internal {\n            IERC20 token = IERC20(proxy.readAddress()[0]);\n            ITAX tax = ITAX(proxy.readAddress()[4]);\n            require(amount <= token.balanceOf(address(this)), \"Exchange: not enough tokens in reserve\");\n            uint256 rateUSD = proxy.rate();\n            uint256 tokensExc = claimOfTKN(msg.sender);\n            uint256 normRateFee = tax.viewNormRateFee();\n            if (tokensExc > 0) {\n                if (amount >= tokensExc) {\n                    uint256 rest = amount.sub(tokensExc);\n                    uint256 _amountETH = rest.div(rateUSD);\n                    _claimsTKN[msg.sender] = _claimsTKN[msg.sender].sub(tokensExc.mul(normRateFee).div(proxy.base()));\n                    _claimsETH[msg.sender] = _claimsETH[msg.sender].sub(_amountETH);\n                    assert(token.transfer(msg.sender, amount)); \n                } else {\n                    _claimsTKN[msg.sender] = _claimsTKN[msg.sender].sub(amount.mul(normRateFee).div(proxy.base()));\n                    assert(token.transfer(msg.sender, amount)); \n                }\n            } else {\n                uint256 _amountETH = amount.div(rateUSD);\n                _claimsETH[msg.sender] = _claimsETH[msg.sender].sub(_amountETH);\n                assert(token.transfer(msg.sender, amount)); \n            }\n    }\n    \n    function _withdrawETH(uint256 amount) internal {\n            ITAX tax = ITAX(proxy.readAddress()[4]);\n            require(amount <= address(this).balance, \"Exchange: not enough ether in reserve\");\n            uint256 normRateFee = tax.viewNormRateFee();\n            uint256 rateUSD = proxy.rate();\n            uint256 ethExc = claimOfETH(msg.sender);\n            if (ethExc > 0) {\n                if (amount >= ethExc) {\n                    uint256 rest = amount.sub(ethExc);\n                    uint256 _amountTKN = rest.mul(rateUSD);\n                    _claimsTKN[msg.sender] = _claimsTKN[msg.sender].sub(_amountTKN.mul(normRateFee).div(proxy.base()));\n                    _claimsETH[msg.sender] = _claimsETH[msg.sender].sub(ethExc);\n                    msg.sender.transfer(amount);\n                } else {\n                    _claimsETH[msg.sender] = _claimsETH[msg.sender].sub(amount);\n                    msg.sender.transfer(amount);\n                }\n                \n            } else {\n                uint256 _amountTKN = amount.mul(rateUSD);\n                _claimsTKN[msg.sender] = _claimsTKN[msg.sender].sub(_amountTKN.mul(normRateFee).div(proxy.base()));\n                msg.sender.transfer(amount);\n            }\n    }\n}",
  "sourcePath": "/Users/kevinfoesenek/Desktop/Linked_FC/contracts/LinkedEXC.sol",
  "compiler": {
    "name": "solc",
    "version": "0.5.11+commit.c082d0b4.Emscripten.clang"
  },
  "schemaVersion": "3.0.21",
  "updatedAt": "2020-02-07T14:03:05.263Z",
  "networkType": "ethereum",
  "devdoc": {
    "methods": {
      "isOwner()": {
        "details": "Returns true if the caller is the current owner."
      },
      "owner()": {
        "details": "Returns the address of the current owner."
      },
      "renounceOwnership()": {
        "details": "Leaves the contract without owner. It will not be possible to call `onlyOwner` functions anymore. Can only be called by the current owner.     * > Note: Renouncing ownership will leave the contract without an owner, thereby removing any functionality that is only available to the owner."
      },
      "transferOwnership(address)": {
        "details": "Transfers ownership of the contract to a new account (`newOwner`). Can only be called by the current owner."
      }
    }
  },
  "userdoc": {
    "methods": {
      "depositETH()": {
        "notice": "Deposit ETH (sell) and receive a claim for buying tokens"
      },
      "depositTKN(address,uint256)": {
        "notice": "Deposit tokens (sell) and receive a claim for buying ETH  "
      },
      "initialize(address)": {
        "notice": "Set proxy address"
      },
      "withdrawETH(uint256)": {
        "notice": "Withraw ETH (buy) with a claim after deposit of tokens"
      },
      "withdrawTKN(uint256)": {
        "notice": "Withraw tokens (buy)) with a claim after deposit of ETH"
      }
    },
    "notice": "Exchange contract for the linked stablecoin. *  The exchange takes the oracle price input for ETH in USD. Then fixes the price between the stablecoin and Ether on 1 stablecoin for 1 USD (in ETH).  "
  }
}