{
  "contractName": "LinkedTKN",
  "abi": [
    {
      "anonymous": false,
      "inputs": [
        {
          "indexed": true,
          "internalType": "address",
          "name": "owner",
          "type": "address"
        },
        {
          "indexed": true,
          "internalType": "address",
          "name": "spender",
          "type": "address"
        },
        {
          "indexed": false,
          "internalType": "uint256",
          "name": "value",
          "type": "uint256"
        }
      ],
      "name": "Approval",
      "type": "event",
      "signature": "0x8c5be1e5ebec7d5bd14f71427d1e84f3dd0314c0f7b2291e5b200ac8c7c3b925"
    },
    {
      "anonymous": false,
      "inputs": [
        {
          "indexed": true,
          "internalType": "address",
          "name": "account",
          "type": "address"
        }
      ],
      "name": "MinterAdded",
      "type": "event",
      "signature": "0x6ae172837ea30b801fbfcdd4108aa1d5bf8ff775444fd70256b44e6bf3dfc3f6"
    },
    {
      "anonymous": false,
      "inputs": [
        {
          "indexed": true,
          "internalType": "address",
          "name": "account",
          "type": "address"
        }
      ],
      "name": "MinterRemoved",
      "type": "event",
      "signature": "0xe94479a9f7e1952cc78f2d6baab678adc1b772d936c6583def489e524cb66692"
    },
    {
      "anonymous": false,
      "inputs": [
        {
          "indexed": true,
          "internalType": "address",
          "name": "previousOwner",
          "type": "address"
        },
        {
          "indexed": true,
          "internalType": "address",
          "name": "newOwner",
          "type": "address"
        }
      ],
      "name": "OwnershipTransferred",
      "type": "event",
      "signature": "0x8be0079c531659141344cd1fd0a4f28419497f9722a3daafe3b4186f6b6457e0"
    },
    {
      "anonymous": false,
      "inputs": [
        {
          "indexed": true,
          "internalType": "address",
          "name": "from",
          "type": "address"
        },
        {
          "indexed": true,
          "internalType": "address",
          "name": "to",
          "type": "address"
        },
        {
          "indexed": false,
          "internalType": "uint256",
          "name": "value",
          "type": "uint256"
        },
        {
          "indexed": false,
          "internalType": "uint256",
          "name": "_feeETH",
          "type": "uint256"
        }
      ],
      "name": "Transfer",
      "type": "event",
      "signature": "0x9ed053bb818ff08b8353cd46f78db1f0799f31c9e4458fdb425c10eccd2efc44"
    },
    {
      "payable": true,
      "stateMutability": "payable",
      "type": "fallback"
    },
    {
      "constant": true,
      "inputs": [],
      "name": "_blockTax",
      "outputs": [
        {
          "internalType": "uint256",
          "name": "",
          "type": "uint256"
        }
      ],
      "payable": false,
      "stateMutability": "view",
      "type": "function",
      "signature": "0x32fcceea"
    },
    {
      "constant": true,
      "inputs": [],
      "name": "_blockYear",
      "outputs": [
        {
          "internalType": "uint256",
          "name": "",
          "type": "uint256"
        }
      ],
      "payable": false,
      "stateMutability": "view",
      "type": "function",
      "signature": "0x5830715d"
    },
    {
      "constant": true,
      "inputs": [],
      "name": "_devTax",
      "outputs": [
        {
          "internalType": "uint256",
          "name": "",
          "type": "uint256"
        }
      ],
      "payable": false,
      "stateMutability": "view",
      "type": "function",
      "signature": "0xb35513f7"
    },
    {
      "constant": true,
      "inputs": [],
      "name": "_feeETH",
      "outputs": [
        {
          "internalType": "uint256",
          "name": "",
          "type": "uint256"
        }
      ],
      "payable": false,
      "stateMutability": "view",
      "type": "function",
      "signature": "0xea70fdc6"
    },
    {
      "constant": false,
      "inputs": [
        {
          "internalType": "address",
          "name": "account",
          "type": "address"
        }
      ],
      "name": "addMinter",
      "outputs": [],
      "payable": false,
      "stateMutability": "nonpayable",
      "type": "function",
      "signature": "0x983b2d56"
    },
    {
      "constant": true,
      "inputs": [],
      "name": "decimals",
      "outputs": [
        {
          "internalType": "uint8",
          "name": "",
          "type": "uint8"
        }
      ],
      "payable": false,
      "stateMutability": "view",
      "type": "function",
      "signature": "0x313ce567"
    },
    {
      "constant": true,
      "inputs": [],
      "name": "initialized",
      "outputs": [
        {
          "internalType": "bool",
          "name": "",
          "type": "bool"
        }
      ],
      "payable": false,
      "stateMutability": "view",
      "type": "function",
      "signature": "0x158ef93e"
    },
    {
      "constant": true,
      "inputs": [
        {
          "internalType": "address",
          "name": "account",
          "type": "address"
        }
      ],
      "name": "isMinter",
      "outputs": [
        {
          "internalType": "bool",
          "name": "",
          "type": "bool"
        }
      ],
      "payable": false,
      "stateMutability": "view",
      "type": "function",
      "signature": "0xaa271e1a"
    },
    {
      "constant": true,
      "inputs": [],
      "name": "isOwner",
      "outputs": [
        {
          "internalType": "bool",
          "name": "",
          "type": "bool"
        }
      ],
      "payable": false,
      "stateMutability": "view",
      "type": "function",
      "signature": "0x8f32d59b"
    },
    {
      "constant": true,
      "inputs": [],
      "name": "name",
      "outputs": [
        {
          "internalType": "string",
          "name": "",
          "type": "string"
        }
      ],
      "payable": false,
      "stateMutability": "view",
      "type": "function",
      "signature": "0x06fdde03"
    },
    {
      "constant": true,
      "inputs": [],
      "name": "owner",
      "outputs": [
        {
          "internalType": "address",
          "name": "",
          "type": "address"
        }
      ],
      "payable": false,
      "stateMutability": "view",
      "type": "function",
      "signature": "0x8da5cb5b"
    },
    {
      "constant": true,
      "inputs": [],
      "name": "proxy",
      "outputs": [
        {
          "internalType": "contract IPROX",
          "name": "",
          "type": "address"
        }
      ],
      "payable": false,
      "stateMutability": "view",
      "type": "function",
      "signature": "0xec556889"
    },
    {
      "constant": false,
      "inputs": [],
      "name": "renounceMinter",
      "outputs": [],
      "payable": false,
      "stateMutability": "nonpayable",
      "type": "function",
      "signature": "0x98650275"
    },
    {
      "constant": false,
      "inputs": [],
      "name": "renounceOwnership",
      "outputs": [],
      "payable": false,
      "stateMutability": "nonpayable",
      "type": "function",
      "signature": "0x715018a6"
    },
    {
      "constant": true,
      "inputs": [],
      "name": "symbol",
      "outputs": [
        {
          "internalType": "string",
          "name": "",
          "type": "string"
        }
      ],
      "payable": false,
      "stateMutability": "view",
      "type": "function",
      "signature": "0x95d89b41"
    },
    {
      "constant": false,
      "inputs": [
        {
          "internalType": "address",
          "name": "newOwner",
          "type": "address"
        }
      ],
      "name": "transferOwnership",
      "outputs": [],
      "payable": false,
      "stateMutability": "nonpayable",
      "type": "function",
      "signature": "0xf2fde38b"
    },
    {
      "constant": false,
      "inputs": [
        {
          "internalType": "address",
          "name": "_proxy",
          "type": "address"
        }
      ],
      "name": "initialize",
      "outputs": [
        {
          "internalType": "bool",
          "name": "success",
          "type": "bool"
        }
      ],
      "payable": false,
      "stateMutability": "nonpayable",
      "type": "function",
      "signature": "0xc4d66de8"
    },
    {
      "constant": true,
      "inputs": [],
      "name": "totalSupply",
      "outputs": [
        {
          "internalType": "uint256",
          "name": "",
          "type": "uint256"
        }
      ],
      "payable": false,
      "stateMutability": "view",
      "type": "function",
      "signature": "0x18160ddd"
    },
    {
      "constant": true,
      "inputs": [
        {
          "internalType": "address",
          "name": "account",
          "type": "address"
        }
      ],
      "name": "balanceOf",
      "outputs": [
        {
          "internalType": "uint256",
          "name": "",
          "type": "uint256"
        }
      ],
      "payable": false,
      "stateMutability": "view",
      "type": "function",
      "signature": "0x70a08231"
    },
    {
      "constant": true,
      "inputs": [],
      "name": "taxReserve",
      "outputs": [
        {
          "internalType": "uint256",
          "name": "",
          "type": "uint256"
        }
      ],
      "payable": false,
      "stateMutability": "view",
      "type": "function",
      "signature": "0x98c46d22"
    },
    {
      "constant": true,
      "inputs": [],
      "name": "devReserve",
      "outputs": [
        {
          "internalType": "uint256",
          "name": "",
          "type": "uint256"
        }
      ],
      "payable": false,
      "stateMutability": "view",
      "type": "function",
      "signature": "0xfcd2a427"
    },
    {
      "constant": false,
      "inputs": [
        {
          "internalType": "address",
          "name": "recipient",
          "type": "address"
        },
        {
          "internalType": "uint256",
          "name": "amount",
          "type": "uint256"
        }
      ],
      "name": "transfer",
      "outputs": [
        {
          "internalType": "bool",
          "name": "",
          "type": "bool"
        }
      ],
      "payable": true,
      "stateMutability": "payable",
      "type": "function",
      "signature": "0xa9059cbb"
    },
    {
      "constant": true,
      "inputs": [
        {
          "internalType": "address",
          "name": "owner",
          "type": "address"
        },
        {
          "internalType": "address",
          "name": "spender",
          "type": "address"
        }
      ],
      "name": "allowance",
      "outputs": [
        {
          "internalType": "uint256",
          "name": "",
          "type": "uint256"
        }
      ],
      "payable": false,
      "stateMutability": "view",
      "type": "function",
      "signature": "0xdd62ed3e"
    },
    {
      "constant": false,
      "inputs": [
        {
          "internalType": "address",
          "name": "spender",
          "type": "address"
        },
        {
          "internalType": "uint256",
          "name": "value",
          "type": "uint256"
        }
      ],
      "name": "approve",
      "outputs": [
        {
          "internalType": "bool",
          "name": "",
          "type": "bool"
        }
      ],
      "payable": false,
      "stateMutability": "nonpayable",
      "type": "function",
      "signature": "0x095ea7b3"
    },
    {
      "constant": false,
      "inputs": [
        {
          "internalType": "address",
          "name": "sender",
          "type": "address"
        },
        {
          "internalType": "address",
          "name": "recipient",
          "type": "address"
        },
        {
          "internalType": "uint256",
          "name": "amount",
          "type": "uint256"
        }
      ],
      "name": "transferFrom",
      "outputs": [
        {
          "internalType": "bool",
          "name": "",
          "type": "bool"
        }
      ],
      "payable": true,
      "stateMutability": "payable",
      "type": "function",
      "signature": "0x23b872dd"
    },
    {
      "constant": false,
      "inputs": [
        {
          "internalType": "address",
          "name": "spender",
          "type": "address"
        },
        {
          "internalType": "uint256",
          "name": "addedValue",
          "type": "uint256"
        }
      ],
      "name": "increaseAllowance",
      "outputs": [
        {
          "internalType": "bool",
          "name": "",
          "type": "bool"
        }
      ],
      "payable": false,
      "stateMutability": "nonpayable",
      "type": "function",
      "signature": "0x39509351"
    },
    {
      "constant": false,
      "inputs": [
        {
          "internalType": "address",
          "name": "spender",
          "type": "address"
        },
        {
          "internalType": "uint256",
          "name": "subtractedValue",
          "type": "uint256"
        }
      ],
      "name": "decreaseAllowance",
      "outputs": [
        {
          "internalType": "bool",
          "name": "",
          "type": "bool"
        }
      ],
      "payable": false,
      "stateMutability": "nonpayable",
      "type": "function",
      "signature": "0xa457c2d7"
    },
    {
      "constant": false,
      "inputs": [
        {
          "internalType": "address",
          "name": "account",
          "type": "address"
        },
        {
          "internalType": "uint256",
          "name": "amount",
          "type": "uint256"
        }
      ],
      "name": "mint",
      "outputs": [
        {
          "internalType": "bool",
          "name": "",
          "type": "bool"
        }
      ],
      "payable": false,
      "stateMutability": "nonpayable",
      "type": "function",
      "signature": "0x40c10f19"
    },
    {
      "constant": false,
      "inputs": [
        {
          "internalType": "address",
          "name": "account",
          "type": "address"
        },
        {
          "internalType": "uint256",
          "name": "amount",
          "type": "uint256"
        }
      ],
      "name": "burn",
      "outputs": [
        {
          "internalType": "bool",
          "name": "",
          "type": "bool"
        }
      ],
      "payable": false,
      "stateMutability": "nonpayable",
      "type": "function",
      "signature": "0x9dc29fac"
    },
    {
      "constant": false,
      "inputs": [
        {
          "internalType": "address",
          "name": "receiver",
          "type": "address"
        },
        {
          "internalType": "uint256",
          "name": "amount",
          "type": "uint256"
        }
      ],
      "name": "taxClaim",
      "outputs": [
        {
          "internalType": "bool",
          "name": "",
          "type": "bool"
        }
      ],
      "payable": false,
      "stateMutability": "nonpayable",
      "type": "function",
      "signature": "0xeea733b3"
    },
    {
      "constant": false,
      "inputs": [],
      "name": "devClaim",
      "outputs": [
        {
          "internalType": "bool",
          "name": "",
          "type": "bool"
        }
      ],
      "payable": false,
      "stateMutability": "nonpayable",
      "type": "function",
      "signature": "0xae979ae6"
    }
  ],
  "bytecode": "0x60806040526000600b556003600c556001600d55621e8480600e556040518060400160405280600681526020017f4c696e6b656400000000000000000000000000000000000000000000000000008152506000908051906020019062000067929190620003e7565b506040518060400160405280600381526020017f4c4b43000000000000000000000000000000000000000000000000000000000081525060019080519060200190620000b5929190620003e7565b506012600260006101000a81548160ff021916908360ff16021790555033600260016101000a81548173ffffffffffffffffffffffffffffffffffffffff021916908373ffffffffffffffffffffffffffffffffffffffff160217905550600260019054906101000a900473ffffffffffffffffffffffffffffffffffffffff1673ffffffffffffffffffffffffffffffffffffffff16600073ffffffffffffffffffffffffffffffffffffffff167f8be0079c531659141344cd1fd0a4f28419497f9722a3daafe3b4186f6b6457e060405160405180910390a3620001aa33620001b0640100000000026401000000009004565b62000496565b620001d48160036200021a640100000000026200388a179091906401000000009004565b8073ffffffffffffffffffffffffffffffffffffffff167f6ae172837ea30b801fbfcdd4108aa1d5bf8ff775444fd70256b44e6bf3dfc3f660405160405180910390a250565b62000235828262000307640100000000026401000000009004565b15620002a9576040517f08c379a000000000000000000000000000000000000000000000000000000000815260040180806020018281038252601f8152602001807f526f6c65733a206163636f756e7420616c72656164792068617320726f6c650081525060200191505060405180910390fd5b60018260000160008373ffffffffffffffffffffffffffffffffffffffff1673ffffffffffffffffffffffffffffffffffffffff16815260200190815260200160002060006101000a81548160ff0219169083151502179055505050565b60008073ffffffffffffffffffffffffffffffffffffffff168273ffffffffffffffffffffffffffffffffffffffff16141562000390576040517f08c379a0000000000000000000000000000000000000000000000000000000008152600401808060200182810382526022815260200180620040666022913960400191505060405180910390fd5b8260000160008373ffffffffffffffffffffffffffffffffffffffff1673ffffffffffffffffffffffffffffffffffffffff16815260200190815260200160002060009054906101000a900460ff16905092915050565b828054600181600116156101000203166002900490600052602060002090601f016020900481019282601f106200042a57805160ff19168380011785556200045b565b828001600101855582156200045b579182015b828111156200045a5782518255916020019190600101906200043d565b5b5090506200046a91906200046e565b5090565b6200049391905b808211156200048f57600081600090555060010162000475565b5090565b90565b613bc080620004a66000396000f3fe6080604052600436106101f5576000357c010000000000000000000000000000000000000000000000000000000090048063983b2d561161011f578063b35513f7116100b2578063ec55688911610081578063ec55688914610a94578063eea733b314610aeb578063f2fde38b14610b5e578063fcd2a42714610baf576101f5565b8063b35513f714610950578063c4d66de81461097b578063dd62ed3e146109e4578063ea70fdc614610a69576101f5565b8063a457c2d7116100ee578063a457c2d7146107df578063a9059cbb14610852578063aa271e1a146108b8578063ae979ae614610921576101f5565b8063983b2d56146106d9578063986502751461072a57806398c46d22146107415780639dc29fac1461076c576101f5565b80633950935111610197578063715018a611610166578063715018a6146105ac5780638da5cb5b146105c35780638f32d59b1461061a57806395d89b4114610649576101f5565b8063395093511461043657806340c10f19146104a95780635830715d1461051c57806370a0823114610547576101f5565b806318160ddd116101d357806318160ddd1461032957806323b872dd14610354578063313ce567146103da57806332fcceea1461040b576101f5565b806306fdde03146101f7578063095ea7b314610287578063158ef93e146102fa575b005b34801561020357600080fd5b5061020c610bda565b6040518080602001828103825283818151815260200191508051906020019080838360005b8381101561024c578082015181840152602081019050610231565b50505050905090810190601f1680156102795780820380516001836020036101000a031916815260200191505b509250505060405180910390f35b34801561029357600080fd5b506102e0600480360360408110156102aa57600080fd5b81019080803573ffffffffffffffffffffffffffffffffffffffff16906020019092919080359060200190929190505050610c7c565b604051808215151515815260200191505060405180910390f35b34801561030657600080fd5b5061030f610dc5565b604051808215151515815260200191505060405180910390f35b34801561033557600080fd5b5061033e610dd8565b6040518082815260200191505060405180910390f35b6103c06004803603606081101561036a57600080fd5b81019080803573ffffffffffffffffffffffffffffffffffffffff169060200190929190803573ffffffffffffffffffffffffffffffffffffffff16906020019092919080359060200190929190505050610de2565b604051808215151515815260200191505060405180910390f35b3480156103e657600080fd5b506103ef610fc5565b604051808260ff1660ff16815260200191505060405180910390f35b34801561041757600080fd5b50610420610fdc565b6040518082815260200191505060405180910390f35b34801561044257600080fd5b5061048f6004803603604081101561045957600080fd5b81019080803573ffffffffffffffffffffffffffffffffffffffff16906020019092919080359060200190929190505050610fe2565b604051808215151515815260200191505060405180910390f35b3480156104b557600080fd5b50610502600480360360408110156104cc57600080fd5b81019080803573ffffffffffffffffffffffffffffffffffffffff169060200190929190803590602001909291905050506111b9565b604051808215151515815260200191505060405180910390f35b34801561052857600080fd5b5061053161135f565b6040518082815260200191505060405180910390f35b34801561055357600080fd5b506105966004803603602081101561056a57600080fd5b81019080803573ffffffffffffffffffffffffffffffffffffffff169060200190929190505050611365565b6040518082815260200191505060405180910390f35b3480156105b857600080fd5b506105c16114c3565b005b3480156105cf57600080fd5b506105d86115fe565b604051808273ffffffffffffffffffffffffffffffffffffffff1673ffffffffffffffffffffffffffffffffffffffff16815260200191505060405180910390f35b34801561062657600080fd5b5061062f611628565b604051808215151515815260200191505060405180910390f35b34801561065557600080fd5b5061065e611680565b6040518080602001828103825283818151815260200191508051906020019080838360005b8381101561069e578082015181840152602081019050610683565b50505050905090810190601f1680156106cb5780820380516001836020036101000a031916815260200191505b509250505060405180910390f35b3480156106e557600080fd5b50610728600480360360208110156106fc57600080fd5b81019080803573ffffffffffffffffffffffffffffffffffffffff169060200190929190505050611722565b005b34801561073657600080fd5b5061073f61178c565b005b34801561074d57600080fd5b50610756611797565b6040518082815260200191505060405180910390f35b34801561077857600080fd5b506107c56004803603604081101561078f57600080fd5b81019080803573ffffffffffffffffffffffffffffffffffffffff1690602001909291908035906020019092919050505061184d565b604051808215151515815260200191505060405180910390f35b3480156107eb57600080fd5b506108386004803603604081101561080257600080fd5b81019080803573ffffffffffffffffffffffffffffffffffffffff169060200190929190803590602001909291905050506119f3565b604051808215151515815260200191505060405180910390f35b61089e6004803603604081101561086857600080fd5b81019080803573ffffffffffffffffffffffffffffffffffffffff16906020019092919080359060200190929190505050611bca565b604051808215151515815260200191505060405180910390f35b3480156108c457600080fd5b50610907600480360360208110156108db57600080fd5b81019080803573ffffffffffffffffffffffffffffffffffffffff169060200190929190505050611d13565b604051808215151515815260200191505060405180910390f35b34801561092d57600080fd5b50610936611d30565b604051808215151515815260200191505060405180910390f35b34801561095c57600080fd5b50610965611d41565b6040518082815260200191505060405180910390f35b34801561098757600080fd5b506109ca6004803603602081101561099e57600080fd5b81019080803573ffffffffffffffffffffffffffffffffffffffff169060200190929190505050611d47565b604051808215151515815260200191505060405180910390f35b3480156109f057600080fd5b50610a5360048036036040811015610a0757600080fd5b81019080803573ffffffffffffffffffffffffffffffffffffffff169060200190929190803573ffffffffffffffffffffffffffffffffffffffff169060200190929190505050611f66565b6040518082815260200191505060405180910390f35b348015610a7557600080fd5b50610a7e61211f565b6040518082815260200191505060405180910390f35b348015610aa057600080fd5b50610aa9612125565b604051808273ffffffffffffffffffffffffffffffffffffffff1673ffffffffffffffffffffffffffffffffffffffff16815260200191505060405180910390f35b348015610af757600080fd5b50610b4460048036036040811015610b0e57600080fd5b81019080803573ffffffffffffffffffffffffffffffffffffffff1690602001909291908035906020019092919050505061214b565b604051808215151515815260200191505060405180910390f35b348015610b6a57600080fd5b50610bad60048036036020811015610b8157600080fd5b81019080803573ffffffffffffffffffffffffffffffffffffffff169060200190929190505050612161565b005b348015610bbb57600080fd5b50610bc46121e7565b6040518082815260200191505060405180910390f35b606060008054600181600116156101000203166002900480601f016020809104026020016040519081016040528092919081815260200182805460018160011615610100020316600290048015610c725780601f10610c4757610100808354040283529160200191610c72565b820191906000526020600020905b815481529060010190602001808311610c5557829003601f168201915b5050505050905090565b6000600460009054906101000a900473ffffffffffffffffffffffffffffffffffffffff1673ffffffffffffffffffffffffffffffffffffffff1663a0b9f0e16040518163ffffffff167c010000000000000000000000000000000000000000000000000000000002815260040160206040518083038186803b158015610d0257600080fd5b505afa158015610d16573d6000803e3d6000fd5b505050506040513d6020811015610d2c57600080fd5b810190808051906020019092919050505015610db0576040517f08c379a00000000000000000000000000000000000000000000000000000000081526004018080602001828103825260108152602001807f5061757361626c653a207061757365640000000000000000000000000000000081525060200191505060405180910390fd5b610dbb338484612289565b6001905092915050565b600460149054906101000a900460ff1681565b6000600754905090565b6000600460009054906101000a900473ffffffffffffffffffffffffffffffffffffffff1673ffffffffffffffffffffffffffffffffffffffff1663a0b9f0e16040518163ffffffff167c010000000000000000000000000000000000000000000000000000000002815260040160206040518083038186803b158015610e6857600080fd5b505afa158015610e7c573d6000803e3d6000fd5b505050506040513d6020811015610e9257600080fd5b810190808051906020019092919050505015610f16576040517f08c379a00000000000000000000000000000000000000000000000000000000081526004018080602001828103825260108152602001807f5061757361626c653a207061757365640000000000000000000000000000000081525060200191505060405180910390fd5b610f21848484612480565b610fba8433610fb585600660008a73ffffffffffffffffffffffffffffffffffffffff1673ffffffffffffffffffffffffffffffffffffffff16815260200190815260200160002060003373ffffffffffffffffffffffffffffffffffffffff1673ffffffffffffffffffffffffffffffffffffffff168152602001908152602001600020546129a790919063ffffffff16565b612289565b600190509392505050565b6000600260009054906101000a900460ff16905090565b600c5481565b6000600460009054906101000a900473ffffffffffffffffffffffffffffffffffffffff1673ffffffffffffffffffffffffffffffffffffffff1663a0b9f0e16040518163ffffffff167c010000000000000000000000000000000000000000000000000000000002815260040160206040518083038186803b15801561106857600080fd5b505afa15801561107c573d6000803e3d6000fd5b505050506040513d602081101561109257600080fd5b810190808051906020019092919050505015611116576040517f08c379a00000000000000000000000000000000000000000000000000000000081526004018080602001828103825260108152602001807f5061757361626c653a207061757365640000000000000000000000000000000081525060200191505060405180910390fd5b6111af33846111aa85600660003373ffffffffffffffffffffffffffffffffffffffff1673ffffffffffffffffffffffffffffffffffffffff16815260200190815260200160002060008973ffffffffffffffffffffffffffffffffffffffff1673ffffffffffffffffffffffffffffffffffffffff16815260200190815260200160002054612a3090919063ffffffff16565b612289565b6001905092915050565b6000600460009054906101000a900473ffffffffffffffffffffffffffffffffffffffff1673ffffffffffffffffffffffffffffffffffffffff1663a0b9f0e16040518163ffffffff167c010000000000000000000000000000000000000000000000000000000002815260040160206040518083038186803b15801561123f57600080fd5b505afa158015611253573d6000803e3d6000fd5b505050506040513d602081101561126957600080fd5b8101908080519060200190929190505050156112ed576040517f08c379a00000000000000000000000000000000000000000000000000000000081526004018080602001828103825260108152602001807f5061757361626c653a207061757365640000000000000000000000000000000081525060200191505060405180910390fd5b6112f633611d13565b61134b576040517f08c379a0000000000000000000000000000000000000000000000000000000008152600401808060200182810382526030815260200180613a8e6030913960400191505060405180910390fd5b6113558383612ab8565b6001905092915050565b600e5481565b6000806113bd600560008573ffffffffffffffffffffffffffffffffffffffff1673ffffffffffffffffffffffffffffffffffffffff16815260200190815260200160002060010154436129a790919063ffffffff16565b9050600061142b600c5461141d6064600560008973ffffffffffffffffffffffffffffffffffffffff1673ffffffffffffffffffffffffffffffffffffffff16815260200190815260200160002060000154612d4690919063ffffffff16565b612dd590919063ffffffff16565b90506000611444600e5483612d4690919063ffffffff16565b9050600061145b8285612dd590919063ffffffff16565b905060006114b482600560008a73ffffffffffffffffffffffffffffffffffffffff1673ffffffffffffffffffffffffffffffffffffffff168152602001908152602001600020600001546129a790919063ffffffff16565b90508095505050505050919050565b6114cb611628565b61153d576040517f08c379a00000000000000000000000000000000000000000000000000000000081526004018080602001828103825260208152602001807f4f776e61626c653a2063616c6c6572206973206e6f7420746865206f776e657281525060200191505060405180910390fd5b600073ffffffffffffffffffffffffffffffffffffffff16600260019054906101000a900473ffffffffffffffffffffffffffffffffffffffff1673ffffffffffffffffffffffffffffffffffffffff167f8be0079c531659141344cd1fd0a4f28419497f9722a3daafe3b4186f6b6457e060405160405180910390a36000600260016101000a81548173ffffffffffffffffffffffffffffffffffffffff021916908373ffffffffffffffffffffffffffffffffffffffff160217905550565b6000600260019054906101000a900473ffffffffffffffffffffffffffffffffffffffff16905090565b6000600260019054906101000a900473ffffffffffffffffffffffffffffffffffffffff1673ffffffffffffffffffffffffffffffffffffffff163373ffffffffffffffffffffffffffffffffffffffff1614905090565b606060018054600181600116156101000203166002900480601f0160208091040260200160405190810160405280929190818152602001828054600181600116156101000203166002900480156117185780601f106116ed57610100808354040283529160200191611718565b820191906000526020600020905b8154815290600101906020018083116116fb57829003601f168201915b5050505050905090565b61172b33611d13565b611780576040517f08c379a0000000000000000000000000000000000000000000000000000000008152600401808060200182810382526030815260200180613a8e6030913960400191505060405180910390fd5b61178981612e5b565b50565b61179533612eb5565b565b6000806117b2600860020154436129a790919063ffffffff16565b905060006117f46117d0600d54600c546129a790919063ffffffff16565b6117e66064600754612d4690919063ffffffff16565b612dd590919063ffffffff16565b9050600061180d600e5483612d4690919063ffffffff16565b905060006118248285612dd590919063ffffffff16565b9050600061184082600860000154612a3090919063ffffffff16565b9050809550505050505090565b6000600460009054906101000a900473ffffffffffffffffffffffffffffffffffffffff1673ffffffffffffffffffffffffffffffffffffffff1663a0b9f0e16040518163ffffffff167c010000000000000000000000000000000000000000000000000000000002815260040160206040518083038186803b1580156118d357600080fd5b505afa1580156118e7573d6000803e3d6000fd5b505050506040513d60208110156118fd57600080fd5b810190808051906020019092919050505015611981576040517f08c379a00000000000000000000000000000000000000000000000000000000081526004018080602001828103825260108152602001807f5061757361626c653a207061757365640000000000000000000000000000000081525060200191505060405180910390fd5b61198a33611d13565b6119df576040517f08c379a0000000000000000000000000000000000000000000000000000000008152600401808060200182810382526030815260200180613a8e6030913960400191505060405180910390fd5b6119e98383612f0f565b6001905092915050565b6000600460009054906101000a900473ffffffffffffffffffffffffffffffffffffffff1673ffffffffffffffffffffffffffffffffffffffff1663a0b9f0e16040518163ffffffff167c010000000000000000000000000000000000000000000000000000000002815260040160206040518083038186803b158015611a7957600080fd5b505afa158015611a8d573d6000803e3d6000fd5b505050506040513d6020811015611aa357600080fd5b810190808051906020019092919050505015611b27576040517f08c379a00000000000000000000000000000000000000000000000000000000081526004018080602001828103825260108152602001807f5061757361626c653a207061757365640000000000000000000000000000000081525060200191505060405180910390fd5b611bc03384611bbb85600660003373ffffffffffffffffffffffffffffffffffffffff1673ffffffffffffffffffffffffffffffffffffffff16815260200190815260200160002060008973ffffffffffffffffffffffffffffffffffffffff1673ffffffffffffffffffffffffffffffffffffffff168152602001908152602001600020546129a790919063ffffffff16565b612289565b6001905092915050565b6000600460009054906101000a900473ffffffffffffffffffffffffffffffffffffffff1673ffffffffffffffffffffffffffffffffffffffff1663a0b9f0e16040518163ffffffff167c010000000000000000000000000000000000000000000000000000000002815260040160206040518083038186803b158015611c5057600080fd5b505afa158015611c64573d6000803e3d6000fd5b505050506040513d6020811015611c7a57600080fd5b810190808051906020019092919050505015611cfe576040517f08c379a00000000000000000000000000000000000000000000000000000000081526004018080602001828103825260108152602001807f5061757361626c653a207061757365640000000000000000000000000000000081525060200191505060405180910390fd5b611d09338484612480565b6001905092915050565b6000611d2982600361318090919063ffffffff16565b9050919050565b6000611d3a61325e565b6001905090565b600d5481565b6000611d51611628565b611dc3576040517f08c379a00000000000000000000000000000000000000000000000000000000081526004018080602001828103825260208152602001807f4f776e61626c653a2063616c6c6572206973206e6f7420746865206f776e657281525060200191505060405180910390fd5b60001515600460149054906101000a900460ff16151514611de357600080fd5b600073ffffffffffffffffffffffffffffffffffffffff168273ffffffffffffffffffffffffffffffffffffffff161415611e1d57600080fd5b81600460006101000a81548173ffffffffffffffffffffffffffffffffffffffff021916908373ffffffffffffffffffffffffffffffffffffffff1602179055506000600460009054906101000a900473ffffffffffffffffffffffffffffffffffffffff1673ffffffffffffffffffffffffffffffffffffffff16632ee8c2fa6040518163ffffffff167c010000000000000000000000000000000000000000000000000000000002815260040160e06040518083038186803b158015611ee457600080fd5b505afa158015611ef8573d6000803e3d6000fd5b505050506040513d601f19601f8201168201806040525060e0811015611f1d57600080fd5b8101908091905050600260078110611f3157fe5b60200201519050611f4181611722565b6001600460146101000a81548160ff0219169083151502179055506001915050919050565b6000600460009054906101000a900473ffffffffffffffffffffffffffffffffffffffff1673ffffffffffffffffffffffffffffffffffffffff1663a0b9f0e16040518163ffffffff167c010000000000000000000000000000000000000000000000000000000002815260040160206040518083038186803b158015611fec57600080fd5b505afa158015612000573d6000803e3d6000fd5b505050506040513d602081101561201657600080fd5b81019080805190602001909291905050501561209a576040517f08c379a00000000000000000000000000000000000000000000000000000000081526004018080602001828103825260108152602001807f5061757361626c653a207061757365640000000000000000000000000000000081525060200191505060405180910390fd5b600660008473ffffffffffffffffffffffffffffffffffffffff1673ffffffffffffffffffffffffffffffffffffffff16815260200190815260200160002060008373ffffffffffffffffffffffffffffffffffffffff1673ffffffffffffffffffffffffffffffffffffffff16815260200190815260200160002054905092915050565b600b5481565b600460009054906101000a900473ffffffffffffffffffffffffffffffffffffffff1681565b600061215783836134dc565b6001905092915050565b612169611628565b6121db576040517f08c379a00000000000000000000000000000000000000000000000000000000081526004018080602001828103825260208152602001807f4f776e61626c653a2063616c6c6572206973206e6f7420746865206f776e657281525060200191505060405180910390fd5b6121e481613744565b50565b600080612202600860020154436129a790919063ffffffff16565b90506000612230600d546122226064600754612d4690919063ffffffff16565b612dd590919063ffffffff16565b90506000612249600e5483612d4690919063ffffffff16565b905060006122608285612dd590919063ffffffff16565b9050600061227c82600860010154612a3090919063ffffffff16565b9050809550505050505090565b600073ffffffffffffffffffffffffffffffffffffffff168373ffffffffffffffffffffffffffffffffffffffff16141561230f576040517f08c379a0000000000000000000000000000000000000000000000000000000008152600401808060200182810382526024815260200180613b686024913960400191505060405180910390fd5b600073ffffffffffffffffffffffffffffffffffffffff168273ffffffffffffffffffffffffffffffffffffffff161415612395576040517f08c379a0000000000000000000000000000000000000000000000000000000008152600401808060200182810382526022815260200180613a6c6022913960400191505060405180910390fd5b80600660008573ffffffffffffffffffffffffffffffffffffffff1673ffffffffffffffffffffffffffffffffffffffff16815260200190815260200160002060008473ffffffffffffffffffffffffffffffffffffffff1673ffffffffffffffffffffffffffffffffffffffff168152602001908152602001600020819055508173ffffffffffffffffffffffffffffffffffffffff168373ffffffffffffffffffffffffffffffffffffffff167f8c5be1e5ebec7d5bd14f71427d1e84f3dd0314c0f7b2291e5b200ac8c7c3b925836040518082815260200191505060405180910390a3505050565b600073ffffffffffffffffffffffffffffffffffffffff168373ffffffffffffffffffffffffffffffffffffffff161415612506576040517f08c379a0000000000000000000000000000000000000000000000000000000008152600401808060200182810382526025815260200180613b436025913960400191505060405180910390fd5b600073ffffffffffffffffffffffffffffffffffffffff168273ffffffffffffffffffffffffffffffffffffffff16141561258c576040517f08c379a0000000000000000000000000000000000000000000000000000000008152600401808060200182810382526023815260200180613a236023913960400191505060405180910390fd5b600b5434101561259b57600080fd5b6000600460009054906101000a900473ffffffffffffffffffffffffffffffffffffffff1673ffffffffffffffffffffffffffffffffffffffff16632ee8c2fa6040518163ffffffff167c010000000000000000000000000000000000000000000000000000000002815260040160e06040518083038186803b15801561262157600080fd5b505afa158015612635573d6000803e3d6000fd5b505050506040513d601f19601f8201168201806040525060e081101561265a57600080fd5b810190809190505060026007811061266e57fe5b60200201519050600061268c600b54346129a790919063ffffffff16565b90508173ffffffffffffffffffffffffffffffffffffffff166108fc600b549081150290604051600060405180830381858888f193505050501580156126d6573d6000803e3d6000fd5b506126e085611365565b600560008773ffffffffffffffffffffffffffffffffffffffff1673ffffffffffffffffffffffffffffffffffffffff1681526020019081526020016000206000018190555043600560008773ffffffffffffffffffffffffffffffffffffffff1673ffffffffffffffffffffffffffffffffffffffff1681526020019081526020016000206001018190555043600560008673ffffffffffffffffffffffffffffffffffffffff1673ffffffffffffffffffffffffffffffffffffffff1681526020019081526020016000206001018190555061280983600560008873ffffffffffffffffffffffffffffffffffffffff1673ffffffffffffffffffffffffffffffffffffffff168152602001908152602001600020600001546129a790919063ffffffff16565b600560008773ffffffffffffffffffffffffffffffffffffffff1673ffffffffffffffffffffffffffffffffffffffff168152602001908152602001600020600001819055506128a483600560008773ffffffffffffffffffffffffffffffffffffffff1673ffffffffffffffffffffffffffffffffffffffff16815260200190815260200160002060000154612a3090919063ffffffff16565b600560008673ffffffffffffffffffffffffffffffffffffffff1673ffffffffffffffffffffffffffffffffffffffff168152602001908152602001600020600001819055503373ffffffffffffffffffffffffffffffffffffffff166108fc829081150290604051600060405180830381858888f19350505050158015612930573d6000803e3d6000fd5b508373ffffffffffffffffffffffffffffffffffffffff168573ffffffffffffffffffffffffffffffffffffffff167f9ed053bb818ff08b8353cd46f78db1f0799f31c9e4458fdb425c10eccd2efc4485600b54604051808381526020018281526020019250505060405180910390a35050505050565b600082821115612a1f576040517f08c379a000000000000000000000000000000000000000000000000000000000815260040180806020018281038252601e8152602001807f536166654d6174683a207375627472616374696f6e206f766572666c6f77000081525060200191505060405180910390fd5b600082840390508091505092915050565b600080828401905083811015612aae576040517f08c379a000000000000000000000000000000000000000000000000000000000815260040180806020018281038252601b8152602001807f536166654d6174683a206164646974696f6e206f766572666c6f77000000000081525060200191505060405180910390fd5b8091505092915050565b600073ffffffffffffffffffffffffffffffffffffffff168273ffffffffffffffffffffffffffffffffffffffff161415612b5b576040517f08c379a000000000000000000000000000000000000000000000000000000000815260040180806020018281038252601f8152602001807f45524332303a206d696e7420746f20746865207a65726f20616464726573730081525060200191505060405180910390fd5b612b6482611365565b600560008473ffffffffffffffffffffffffffffffffffffffff1673ffffffffffffffffffffffffffffffffffffffff1681526020019081526020016000206000018190555043600560008473ffffffffffffffffffffffffffffffffffffffff1673ffffffffffffffffffffffffffffffffffffffff16815260200190815260200160002060010181905550612bf9611797565b600860000181905550612c0a6121e7565b60086001018190555043600860020181905550612c3281600754612a3090919063ffffffff16565b600781905550612c8d81600560008573ffffffffffffffffffffffffffffffffffffffff1673ffffffffffffffffffffffffffffffffffffffff16815260200190815260200160002060000154612a3090919063ffffffff16565b600560008473ffffffffffffffffffffffffffffffffffffffff1673ffffffffffffffffffffffffffffffffffffffff168152602001908152602001600020600001819055508173ffffffffffffffffffffffffffffffffffffffff16600073ffffffffffffffffffffffffffffffffffffffff167f9ed053bb818ff08b8353cd46f78db1f0799f31c9e4458fdb425c10eccd2efc44836000604051808381526020018281526020019250505060405180910390a35050565b6000808211612dbd576040517f08c379a000000000000000000000000000000000000000000000000000000000815260040180806020018281038252601a8152602001807f536166654d6174683a206469766973696f6e206279207a65726f00000000000081525060200191505060405180910390fd5b6000828481612dc857fe5b0490508091505092915050565b600080831415612de85760009050612e55565b6000828402905082848281612df957fe5b0414612e50576040517f08c379a0000000000000000000000000000000000000000000000000000000008152600401808060200182810382526021815260200180613adf6021913960400191505060405180910390fd5b809150505b92915050565b612e6f81600361388a90919063ffffffff16565b8073ffffffffffffffffffffffffffffffffffffffff167f6ae172837ea30b801fbfcdd4108aa1d5bf8ff775444fd70256b44e6bf3dfc3f660405160405180910390a250565b612ec981600361396590919063ffffffff16565b8073ffffffffffffffffffffffffffffffffffffffff167fe94479a9f7e1952cc78f2d6baab678adc1b772d936c6583def489e524cb6669260405160405180910390a250565b600073ffffffffffffffffffffffffffffffffffffffff168273ffffffffffffffffffffffffffffffffffffffff161415612f95576040517f08c379a0000000000000000000000000000000000000000000000000000000008152600401808060200182810382526021815260200180613b226021913960400191505060405180910390fd5b612f9e82611365565b600560008473ffffffffffffffffffffffffffffffffffffffff1673ffffffffffffffffffffffffffffffffffffffff1681526020019081526020016000206000018190555043600560008473ffffffffffffffffffffffffffffffffffffffff1673ffffffffffffffffffffffffffffffffffffffff16815260200190815260200160002060010181905550613033611797565b6008600001819055506130446121e7565b6008600101819055504360086002018190555061306c816007546129a790919063ffffffff16565b6007819055506130c781600560008573ffffffffffffffffffffffffffffffffffffffff1673ffffffffffffffffffffffffffffffffffffffff168152602001908152602001600020600001546129a790919063ffffffff16565b600560008473ffffffffffffffffffffffffffffffffffffffff1673ffffffffffffffffffffffffffffffffffffffff16815260200190815260200160002060000181905550600073ffffffffffffffffffffffffffffffffffffffff168273ffffffffffffffffffffffffffffffffffffffff167f9ed053bb818ff08b8353cd46f78db1f0799f31c9e4458fdb425c10eccd2efc44836000604051808381526020018281526020019250505060405180910390a35050565b60008073ffffffffffffffffffffffffffffffffffffffff168273ffffffffffffffffffffffffffffffffffffffff161415613207576040517f08c379a0000000000000000000000000000000000000000000000000000000008152600401808060200182810382526022815260200180613b006022913960400191505060405180910390fd5b8260000160008373ffffffffffffffffffffffffffffffffffffffff1673ffffffffffffffffffffffffffffffffffffffff16815260200190815260200160002060009054906101000a900460ff16905092915050565b6000600460009054906101000a900473ffffffffffffffffffffffffffffffffffffffff1673ffffffffffffffffffffffffffffffffffffffff16632ee8c2fa6040518163ffffffff167c010000000000000000000000000000000000000000000000000000000002815260040160e06040518083038186803b1580156132e457600080fd5b505afa1580156132f8573d6000803e3d6000fd5b505050506040513d601f19601f8201168201806040525060e081101561331d57600080fd5b810190809190505060066007811061333157fe5b602002015190506000600860010154905060006008600101819055508173ffffffffffffffffffffffffffffffffffffffff163373ffffffffffffffffffffffffffffffffffffffff16146133ee576040517f08c379a00000000000000000000000000000000000000000000000000000000081526004018080602001828103825260188152602001807f546f6b656e3a206e6f742074686520646576656c6f706572000000000000000081525060200191505060405180910390fd5b6133f782611365565b600560008473ffffffffffffffffffffffffffffffffffffffff1673ffffffffffffffffffffffffffffffffffffffff1681526020019081526020016000206000018190555061349281600560008573ffffffffffffffffffffffffffffffffffffffff1673ffffffffffffffffffffffffffffffffffffffff16815260200190815260200160002060000154612a3090919063ffffffff16565b600560008473ffffffffffffffffffffffffffffffffffffffff1673ffffffffffffffffffffffffffffffffffffffff168152602001908152602001600020600001819055505050565b6000600460009054906101000a900473ffffffffffffffffffffffffffffffffffffffff1673ffffffffffffffffffffffffffffffffffffffff16632ee8c2fa6040518163ffffffff167c010000000000000000000000000000000000000000000000000000000002815260040160e06040518083038186803b15801561356257600080fd5b505afa158015613576573d6000803e3d6000fd5b505050506040513d601f19601f8201168201806040525060e081101561359b57600080fd5b81019080919050506004600781106135af57fe5b602002015190508073ffffffffffffffffffffffffffffffffffffffff163373ffffffffffffffffffffffffffffffffffffffff1614613657576040517f08c379a000000000000000000000000000000000000000000000000000000000815260040180806020018281038252601b8152602001807f546f6b656e3a206e6f74207468652074617820636f6e7472616374000000000081525060200191505060405180910390fd5b61365f611797565b6008600001819055506136706121e7565b6008600101819055504360086002018190555061369b826008600001546129a790919063ffffffff16565b6008600001819055506136f982600560008673ffffffffffffffffffffffffffffffffffffffff1673ffffffffffffffffffffffffffffffffffffffff16815260200190815260200160002060000154612a3090919063ffffffff16565b600560008573ffffffffffffffffffffffffffffffffffffffff1673ffffffffffffffffffffffffffffffffffffffff16815260200190815260200160002060000181905550505050565b600073ffffffffffffffffffffffffffffffffffffffff168173ffffffffffffffffffffffffffffffffffffffff1614156137ca576040517f08c379a0000000000000000000000000000000000000000000000000000000008152600401808060200182810382526026815260200180613a466026913960400191505060405180910390fd5b8073ffffffffffffffffffffffffffffffffffffffff16600260019054906101000a900473ffffffffffffffffffffffffffffffffffffffff1673ffffffffffffffffffffffffffffffffffffffff167f8be0079c531659141344cd1fd0a4f28419497f9722a3daafe3b4186f6b6457e060405160405180910390a380600260016101000a81548173ffffffffffffffffffffffffffffffffffffffff021916908373ffffffffffffffffffffffffffffffffffffffff16021790555050565b6138948282613180565b15613907576040517f08c379a000000000000000000000000000000000000000000000000000000000815260040180806020018281038252601f8152602001807f526f6c65733a206163636f756e7420616c72656164792068617320726f6c650081525060200191505060405180910390fd5b60018260000160008373ffffffffffffffffffffffffffffffffffffffff1673ffffffffffffffffffffffffffffffffffffffff16815260200190815260200160002060006101000a81548160ff0219169083151502179055505050565b61396f8282613180565b6139c4576040517f08c379a0000000000000000000000000000000000000000000000000000000008152600401808060200182810382526021815260200180613abe6021913960400191505060405180910390fd5b60008260000160008373ffffffffffffffffffffffffffffffffffffffff1673ffffffffffffffffffffffffffffffffffffffff16815260200190815260200160002060006101000a81548160ff021916908315150217905550505056fe45524332303a207472616e7366657220746f20746865207a65726f20616464726573734f776e61626c653a206e6577206f776e657220697320746865207a65726f206164647265737345524332303a20617070726f766520746f20746865207a65726f20616464726573734d696e746572526f6c653a2063616c6c657220646f6573206e6f74206861766520746865204d696e74657220726f6c65526f6c65733a206163636f756e7420646f6573206e6f74206861766520726f6c65536166654d6174683a206d756c7469706c69636174696f6e206f766572666c6f77526f6c65733a206163636f756e7420697320746865207a65726f206164647265737345524332303a206275726e2066726f6d20746865207a65726f206164647265737345524332303a207472616e736665722066726f6d20746865207a65726f206164647265737345524332303a20617070726f76652066726f6d20746865207a65726f2061646472657373a265627a7a72315820c00d1903226375432f169921fa9eba3b083611ae0d8a854c262e5a94e0d0c2a964736f6c634300050d0032526f6c65733a206163636f756e7420697320746865207a65726f2061646472657373",
  "source": "/** \n*   Stable coin - named LINKED [LKD]\n*\n*   Linked FC is a custodial stable coin with the goal of simplifying the implementation.\n*   Current custodial stable coins use complex implementations.\n*   For example by using bonds and other implementation to stabilize the system.\n*   \n**/\n\npragma solidity ^0.5.0;\n\nimport \"@openzeppelin/contracts/ownership/Ownable.sol\";\nimport \"@openzeppelin/contracts/math/SafeMath.sol\";\n\nimport \"@openzeppelin/contracts/token/ERC20/IERC20.sol\";\nimport \"@openzeppelin/contracts/token/ERC20/ERC20Detailed.sol\";\nimport \"@openzeppelin/contracts/access/roles/MinterRole.sol\";\nimport \"./LinkedIPROXY.sol\";\n\ncontract LinkedTKN is IERC20, ERC20Detailed, Ownable, MinterRole {\n\tusing SafeMath for uint256;\n\n    struct Balance { \n        uint256 amount;\n        uint256 taxBlock;\n    }\n    struct Tax {\n        uint256 amountTax;\n        uint256 amountDev;\n        uint256 taxBlock;\n    }\n\n    //Proxy address for system contracts\n    IPROX public proxy;\n    bool public initialized;\n\t//Supply variables\n\tmapping (address => Balance) private _balances;\n\tmapping (address => mapping (address => uint256)) private _allowances;\n    uint256 private _totalSupply;\n\t//Stability tax variables\n\tTax private _tax;\n\tuint256 public _feeETH = 0 finney; \n    uint256 public _blockTax = 3; // 3% per year\n    uint256 public _devTax = 1; //1% per year (of the 3% total)\n    uint256 public _blockYear = 2000000; // ~2 million blocks per year\n\n    /**\n    * Set proxy address\n    */\n    function initialize(address _proxy) onlyOwner public returns (bool success) {\n            require (initialized == false);\n            require (_proxy != address(0));\n            proxy = IPROX(_proxy);\n            address _custodian = proxy.readAddress()[2];\n            addMinter(_custodian);\n            initialized = true;\n            return true;\n    }\n    \n    modifier whenNotPaused() {\n        require(!proxy.checkPause(), \"Pausable: paused\");\n        _;\n    }\n    \n    /**\n    * @dev Fallback function. Makes the contract payable.\n    */\n    function() external payable {}\n    \n\t/**\n\t * @dev View supply variables\n\t */\n\tfunction totalSupply() public view returns (uint256) {\n\t\t\treturn _totalSupply;\n\t}\n    \n\t/**\n\t * @dev show balance of the address.\n\t */\n\tfunction balanceOf(address account) public view returns (uint256) {\n\t\tuint256 blockDelta = block.number.sub(_balances[account].taxBlock);\n\t\tuint256 yearAmount = _balances[account].amount.div(100).mul(_blockTax);\n\t\tuint256 blockAmount = yearAmount.div(_blockYear);\n\t\tuint256 tax = blockDelta.mul(blockAmount);\n\t\tuint256 balance = _balances[account].amount.sub(tax);\n\t\treturn balance;\n\t}\n\t\n\tfunction taxReserve() public view returns (uint256) {\n\t\tuint256 blockDelta = block.number.sub(_tax.taxBlock);\n\t\tuint256 yearAmount = _totalSupply.div(100).mul(_blockTax.sub(_devTax));\n\t\tuint256 blockAmount = yearAmount.div(_blockYear);\n\t\tuint256 tax = blockDelta.mul(blockAmount);\n\t\tuint256 balance = _tax.amountTax.add(tax);\n\t\treturn balance;\n\t}\n\t\n\tfunction devReserve() public view returns (uint256) {\n\t\tuint256 blockDelta = block.number.sub(_tax.taxBlock);\n\t\tuint256 yearAmount = _totalSupply.div(100).mul(_devTax);\n\t\tuint256 blockAmount = yearAmount.div(_blockYear);\n\t\tuint256 dev = blockDelta.mul(blockAmount);\n\t\tuint256 balance = _tax.amountDev.add(dev);\n\t\treturn balance;\n\t}\n\t\n\t/**\n\t * @dev See `IERC20.transfer`.\n\t *\n\t * Requirements:\n\t *\n\t * - `recipient` cannot be the zero address.\n\t * - the caller must have a balance of at least `amount`.\n\t */\n\tfunction transfer(address recipient, uint256 amount) whenNotPaused public payable returns (bool) {\n\t\t\t_transfer(msg.sender, recipient, amount);\n\t\t\treturn true;\n\t}\n\n\t/**\n\t * @dev See `IERC20.allowance`.\n\t */\n\tfunction allowance(address owner, address spender) whenNotPaused public view returns (uint256) {\n\t\t\treturn _allowances[owner][spender];\n\t}\n\n\t/**\n\t * @dev See `IERC20.approve`.\n\t *\n\t * Requirements:\n\t *\n\t * - `spender` cannot be the zero address.\n\t */\n\tfunction approve(address spender, uint256 value) whenNotPaused public returns (bool) {\n\t\t\t_approve(msg.sender, spender, value);\n\t\t\treturn true;\n\t}\n\n\t/**\n\t * @dev See `IERC20.transferFrom`.\n\t *\n\t * Emits an `Approval` event indicating the updated allowance. This is not\n\t * required by the EIP. See the note at the beginning of `ERC20`;\n\t *\n\t * Requirements:\n\t * - `sender` and `recipient` cannot be the zero address.\n\t * - `sender` must have a balance of at least `value`.\n\t * - the caller must have allowance for `sender`'s tokens of at least\n\t * `amount`.\n\t */\n\tfunction transferFrom(address sender, address recipient, uint256 amount) whenNotPaused public payable returns (bool) {\n\t\t\t_transfer(sender, recipient, amount);\n\t\t\t_approve(sender, msg.sender, _allowances[sender][msg.sender].sub(amount));\n\t\t\treturn true;\n\t}\n\n\t/**\n\t * @dev Atomically increases the allowance granted to `spender` by the caller.\n\t *\n\t * This is an alternative to `approve` that can be used as a mitigation for\n\t * problems described in `IERC20.approve`.\n\t *\n\t * Emits an `Approval` event indicating the updated allowance.\n\t *\n\t * Requirements:\n\t *\n\t * - `spender` cannot be the zero address.\n\t */\n\tfunction increaseAllowance(address spender, uint256 addedValue) whenNotPaused public returns (bool) {\n\t\t\t_approve(msg.sender, spender, _allowances[msg.sender][spender].add(addedValue));\n\t\t\treturn true;\n\t}\n\n\t/**\n\t * @dev Automically decreases the allowance granted to `spender` by the caller.\n\t *\n\t * This is an alternative to `approve` that can be used as a mitigation for\n\t * problems described in `IERC20.approve`.\n\t *\n\t * Emits an `Approval` event indicating the updated allowance.\n\t *\n\t * Requirements:\n\t *\n\t * - `spender` cannot be the zero address.\n\t * - `spender` must have allowance for the caller of at least\n\t * `subtractedValue`.\n\t */\n\tfunction decreaseAllowance(address spender, uint256 subtractedValue) whenNotPaused public returns (bool) {\n\t\t\t_approve(msg.sender, spender, _allowances[msg.sender][spender].sub(subtractedValue));\n\t\t\treturn true;\n\t}\n\t\n\t/**\n\t* @dev Mint and burn functions - controlled by Minter (is custodian)\n    **/\n    function mint(address account, uint256 amount) whenNotPaused onlyMinter public returns (bool) {\n            _mint(account, amount);\n            return true;\n    }\n    function burn(address account, uint256 amount) whenNotPaused onlyMinter public returns (bool) {\n            _burn(account, amount);\n            return true;\n    }\n    function taxClaim(address receiver, uint256 amount) public returns (bool) {\n            _taxClaim(receiver, amount);\n            return true;\n    }\n    function devClaim() public returns (bool) {\n            _devClaim();\n            return true;\n    }\n\n\t/**\n\t * @dev Moves tokens `amount` from `sender` to `recipient`.\n\t *\n\t * This is internal function is equivalent to `transfer`, and can be used to\n\t * e.g. implement automatic token fees, slashing mechanisms, etc.\n\t *\n\t * Emits a `Transfer` event.\n\t *\n\t * Requirements:\n\t *\n\t * - `sender` cannot be the zero address.\n\t * - `recipient` cannot be the zero address.\n\t * - `sender` must have a balance of at least `amount`.\n\t */\n\tfunction _transfer(address sender, address recipient, uint256 amount) internal {\n\t\t\trequire(sender != address(0), \"ERC20: transfer from the zero address\");\n\t\t\trequire(recipient != address(0), \"ERC20: transfer to the zero address\");\n\t\t\trequire(msg.value >= _feeETH);\n\t\t\taddress payable _custodian = proxy.readAddress()[2];\n\t\t\tuint256 _changeETH = msg.value.sub(_feeETH);\n\t\t\t//Send stability fee to custodian\n\t\t\t_custodian.transfer(_feeETH);\n\t\t\t//Set amount to balance minus tax\n\t\t\t_balances[sender].amount = balanceOf(sender);\n\t\t\t_balances[sender].taxBlock = block.number;\n\t\t\t_balances[recipient].taxBlock = block.number;\n\t\t\t//Send transaction\n\t\t\t_balances[sender].amount = _balances[sender].amount.sub(amount);\n\t\t\t_balances[recipient].amount = _balances[recipient].amount.add(amount);\n\t\t\t//Return ETH fee change\n\t\t\tmsg.sender.transfer(_changeETH);\n\t\t\temit Transfer(sender, recipient, amount, _feeETH);\n\t}\n\n\t/** \n\t * @dev Creates `amount` tokens and assigns them to `account`, increasing\n\t * the total supply.\n\t *\n\t * Emits a `Transfer` event with `from` set to the zero address.\n\t *\n\t * Requirements\n\t *\n\t * - `to` cannot be the zero address.\n\t */\n\tfunction _mint(address account, uint256 amount) internal {\n\t\t\trequire(account != address(0), \"ERC20: mint to the zero address\");\n\t\t\t//Set amount to balance minus tax\n\t\t\t_balances[account].amount = balanceOf(account);\n\t\t\t_balances[account].taxBlock = block.number;\n\t\t\t_tax.amountTax = taxReserve();\n\t\t\t_tax.amountDev = devReserve();\n\t\t\t_tax.taxBlock = block.number;\n\t\t\t//Add minted amount\n\t\t\t_totalSupply = _totalSupply.add(amount);\n\t\t\t_balances[account].amount = _balances[account].amount.add(amount);\n\t\t\temit Transfer(address(0), account, amount, 0);\n\t}\n\n\t /**\n\t * @dev Destoys `amount` tokens from `account`, reducing the\n\t * total supply.\n\t *\n\t * Emits a `Transfer` event with `to` set to the zero address.\n\t *\n\t * Requirements\n\t *\n\t * - `account` cannot be the zero address.\n\t * - `account` must have at least `amount` tokens.\n\t */\n\tfunction _burn(address account, uint256 value) internal {\n\t\t\trequire(account != address(0), \"ERC20: burn from the zero address\");\n\t\t\t//Set amount to balance minus tax\n\t\t\t_balances[account].amount = balanceOf(account);\n\t\t\t_balances[account].taxBlock = block.number;\n\t\t\t_tax.amountTax = taxReserve();\n\t\t\t_tax.amountDev = devReserve();\n\t\t\t_tax.taxBlock = block.number;\n\t\t\t//Remove burned amount\n\t\t\t_totalSupply = _totalSupply.sub(value);\n\t\t\t_balances[account].amount = _balances[account].amount.sub(value);\n\t\t\temit Transfer(account, address(0), value, 0);\n\t}\n\n\t/**\n\t * @dev Sets `amount` as the allowance of `spender` over the `owner`s tokens.\n\t *\n\t * This is internal function is equivalent to `approve`, and can be used to\n\t * e.g. set automatic allowances for certain subsystems, etc.\n\t *\n\t * Emits an `Approval` event.\n\t *\n\t * Requirements:\n\t *\n\t * - `owner` cannot be the zero address.\n\t * - `spender` cannot be the zero address.\n\t */\n\tfunction _approve(address owner, address spender, uint256 value) internal {\n\t\t\trequire(owner != address(0), \"ERC20: approve from the zero address\");\n\t\t\trequire(spender != address(0), \"ERC20: approve to the zero address\");\n\t\t\t_allowances[owner][spender] = value;\n\t\t\temit Approval(owner, spender, value);\n\t}\n\t\n\t/**\n\t * @dev claim the tax reserve\n\t */\n\tfunction _taxClaim(address receiver, uint256 value) internal {\n\t\t\taddress payable tax = proxy.readAddress()[4];\n\t\t\trequire(msg.sender == tax, \"Token: not the tax contract\");\n\t\t\t_tax.amountTax = taxReserve();\n\t\t\t_tax.amountDev = devReserve();\n\t\t\t_tax.taxBlock = block.number;\n\t\t\t_tax.amountTax = _tax.amountTax.sub(value);\n\t\t\t_balances[receiver].amount = _balances[receiver].amount.add(value);\n\t}\n\t\n\t/**\n\t * @dev claim the dev reserve\n\t */\n\tfunction _devClaim() internal {\n\t        address payable dev = proxy.readAddress()[6];\n\t        uint256 value = _tax.amountDev;\n\t        _tax.amountDev = 0;\n\t        require(msg.sender == dev, \"Token: not the developer\");\n\t        _balances[dev].amount = balanceOf(dev);\n\t        _balances[dev].amount = _balances[dev].amount.add(value);\n\t}\n}  \n",
  "sourcePath": "/Users/kevinfoesenek/Desktop/Linked_multiORC_FC/contracts/LinkedTKNFC.sol",
  "compiler": {
    "name": "solc",
    "version": "0.5.13+commit.5b0b510c.Emscripten.clang"
  },
  "schemaVersion": "3.0.1",
  "updatedAt": "2019-12-12T09:35:26.235Z",
  "devdoc": {
    "methods": {
      "allowance(address,address)": {
        "details": "See `IERC20.allowance`."
      },
      "approve(address,uint256)": {
        "details": "See `IERC20.approve`.\t * Requirements:\t * - `spender` cannot be the zero address."
      },
      "balanceOf(address)": {
        "details": "show balance of the address."
      },
      "decimals()": {
        "details": "Returns the number of decimals used to get its user representation. For example, if `decimals` equals `2`, a balance of `505` tokens should be displayed to a user as `5,05` (`505 / 10 ** 2`).     * Tokens usually opt for a value of 18, imitating the relationship between Ether and Wei.     * > Note that this information is only used for _display_ purposes: it in no way affects any of the arithmetic of the contract, including `IERC20.balanceOf` and `IERC20.transfer`."
      },
      "decreaseAllowance(address,uint256)": {
        "details": "Automically decreases the allowance granted to `spender` by the caller.\t * This is an alternative to `approve` that can be used as a mitigation for problems described in `IERC20.approve`.\t * Emits an `Approval` event indicating the updated allowance.\t * Requirements:\t * - `spender` cannot be the zero address. - `spender` must have allowance for the caller of at least `subtractedValue`."
      },
      "increaseAllowance(address,uint256)": {
        "details": "Atomically increases the allowance granted to `spender` by the caller.\t * This is an alternative to `approve` that can be used as a mitigation for problems described in `IERC20.approve`.\t * Emits an `Approval` event indicating the updated allowance.\t * Requirements:\t * - `spender` cannot be the zero address."
      },
      "isOwner()": {
        "details": "Returns true if the caller is the current owner."
      },
      "mint(address,uint256)": {
        "details": "Mint and burn functions - controlled by Minter (is custodian)*"
      },
      "name()": {
        "details": "Returns the name of the token."
      },
      "owner()": {
        "details": "Returns the address of the current owner."
      },
      "renounceOwnership()": {
        "details": "Leaves the contract without owner. It will not be possible to call `onlyOwner` functions anymore. Can only be called by the current owner.     * > Note: Renouncing ownership will leave the contract without an owner, thereby removing any functionality that is only available to the owner."
      },
      "symbol()": {
        "details": "Returns the symbol of the token, usually a shorter version of the name."
      },
      "totalSupply()": {
        "details": "View supply variables"
      },
      "transfer(address,uint256)": {
        "details": "See `IERC20.transfer`.\t * Requirements:\t * - `recipient` cannot be the zero address. - the caller must have a balance of at least `amount`."
      },
      "transferFrom(address,address,uint256)": {
        "details": "See `IERC20.transferFrom`.\t * Emits an `Approval` event indicating the updated allowance. This is not required by the EIP. See the note at the beginning of `ERC20`;\t * Requirements: - `sender` and `recipient` cannot be the zero address. - `sender` must have a balance of at least `value`. - the caller must have allowance for `sender`'s tokens of at least `amount`."
      },
      "transferOwnership(address)": {
        "details": "Transfers ownership of the contract to a new account (`newOwner`). Can only be called by the current owner."
      }
    }
  },
  "userdoc": {
    "methods": {
      "initialize(address)": {
        "notice": "Set proxy address"
      }
    }
  }
}