{
  "contractName": "LinkedTKN",
  "abi": [
    {
      "constant": true,
      "inputs": [],
      "name": "name",
      "outputs": [
        {
          "name": "",
          "type": "string"
        }
      ],
      "payable": false,
      "stateMutability": "view",
      "type": "function"
    },
    {
      "constant": true,
      "inputs": [],
      "name": "initialized",
      "outputs": [
        {
          "name": "",
          "type": "bool"
        }
      ],
      "payable": false,
      "stateMutability": "view",
      "type": "function"
    },
    {
      "constant": true,
      "inputs": [],
      "name": "baseRate",
      "outputs": [
        {
          "name": "",
          "type": "uint256"
        }
      ],
      "payable": false,
      "stateMutability": "view",
      "type": "function"
    },
    {
      "constant": true,
      "inputs": [],
      "name": "decimals",
      "outputs": [
        {
          "name": "",
          "type": "uint8"
        }
      ],
      "payable": false,
      "stateMutability": "view",
      "type": "function"
    },
    {
      "constant": true,
      "inputs": [],
      "name": "_totalSupply",
      "outputs": [
        {
          "name": "",
          "type": "uint256"
        }
      ],
      "payable": false,
      "stateMutability": "view",
      "type": "function"
    },
    {
      "constant": true,
      "inputs": [],
      "name": "base",
      "outputs": [
        {
          "name": "",
          "type": "uint256"
        }
      ],
      "payable": false,
      "stateMutability": "view",
      "type": "function"
    },
    {
      "constant": false,
      "inputs": [],
      "name": "renounceOwnership",
      "outputs": [],
      "payable": false,
      "stateMutability": "nonpayable",
      "type": "function"
    },
    {
      "constant": true,
      "inputs": [],
      "name": "normRate",
      "outputs": [
        {
          "name": "",
          "type": "uint256"
        }
      ],
      "payable": false,
      "stateMutability": "view",
      "type": "function"
    },
    {
      "constant": true,
      "inputs": [],
      "name": "owner",
      "outputs": [
        {
          "name": "",
          "type": "address"
        }
      ],
      "payable": false,
      "stateMutability": "view",
      "type": "function"
    },
    {
      "constant": true,
      "inputs": [],
      "name": "isOwner",
      "outputs": [
        {
          "name": "",
          "type": "bool"
        }
      ],
      "payable": false,
      "stateMutability": "view",
      "type": "function"
    },
    {
      "constant": true,
      "inputs": [],
      "name": "symbol",
      "outputs": [
        {
          "name": "",
          "type": "string"
        }
      ],
      "payable": false,
      "stateMutability": "view",
      "type": "function"
    },
    {
      "constant": false,
      "inputs": [
        {
          "name": "account",
          "type": "address"
        }
      ],
      "name": "addMinter",
      "outputs": [],
      "payable": false,
      "stateMutability": "nonpayable",
      "type": "function"
    },
    {
      "constant": false,
      "inputs": [],
      "name": "renounceMinter",
      "outputs": [],
      "payable": false,
      "stateMutability": "nonpayable",
      "type": "function"
    },
    {
      "constant": true,
      "inputs": [
        {
          "name": "account",
          "type": "address"
        }
      ],
      "name": "isMinter",
      "outputs": [
        {
          "name": "",
          "type": "bool"
        }
      ],
      "payable": false,
      "stateMutability": "view",
      "type": "function"
    },
    {
      "constant": true,
      "inputs": [],
      "name": "_feeETH",
      "outputs": [
        {
          "name": "",
          "type": "uint256"
        }
      ],
      "payable": false,
      "stateMutability": "view",
      "type": "function"
    },
    {
      "constant": true,
      "inputs": [],
      "name": "proxy",
      "outputs": [
        {
          "name": "",
          "type": "address"
        }
      ],
      "payable": false,
      "stateMutability": "view",
      "type": "function"
    },
    {
      "constant": false,
      "inputs": [
        {
          "name": "newOwner",
          "type": "address"
        }
      ],
      "name": "transferOwnership",
      "outputs": [],
      "payable": false,
      "stateMutability": "nonpayable",
      "type": "function"
    },
    {
      "payable": true,
      "stateMutability": "payable",
      "type": "fallback"
    },
    {
      "anonymous": false,
      "inputs": [
        {
          "indexed": true,
          "name": "account",
          "type": "address"
        }
      ],
      "name": "MinterAdded",
      "type": "event"
    },
    {
      "anonymous": false,
      "inputs": [
        {
          "indexed": true,
          "name": "account",
          "type": "address"
        }
      ],
      "name": "MinterRemoved",
      "type": "event"
    },
    {
      "anonymous": false,
      "inputs": [
        {
          "indexed": true,
          "name": "previousOwner",
          "type": "address"
        },
        {
          "indexed": true,
          "name": "newOwner",
          "type": "address"
        }
      ],
      "name": "OwnershipTransferred",
      "type": "event"
    },
    {
      "anonymous": false,
      "inputs": [
        {
          "indexed": true,
          "name": "from",
          "type": "address"
        },
        {
          "indexed": true,
          "name": "to",
          "type": "address"
        },
        {
          "indexed": false,
          "name": "value",
          "type": "uint256"
        },
        {
          "indexed": false,
          "name": "_feeETH",
          "type": "uint256"
        }
      ],
      "name": "Transfer",
      "type": "event"
    },
    {
      "anonymous": false,
      "inputs": [
        {
          "indexed": true,
          "name": "owner",
          "type": "address"
        },
        {
          "indexed": true,
          "name": "spender",
          "type": "address"
        },
        {
          "indexed": false,
          "name": "value",
          "type": "uint256"
        }
      ],
      "name": "Approval",
      "type": "event"
    },
    {
      "constant": false,
      "inputs": [
        {
          "name": "_proxy",
          "type": "address"
        }
      ],
      "name": "initialize",
      "outputs": [
        {
          "name": "success",
          "type": "bool"
        }
      ],
      "payable": false,
      "stateMutability": "nonpayable",
      "type": "function"
    },
    {
      "constant": true,
      "inputs": [],
      "name": "totalSupply",
      "outputs": [
        {
          "name": "",
          "type": "uint256"
        }
      ],
      "payable": false,
      "stateMutability": "view",
      "type": "function"
    },
    {
      "constant": true,
      "inputs": [
        {
          "name": "account",
          "type": "address"
        }
      ],
      "name": "balanceOf",
      "outputs": [
        {
          "name": "",
          "type": "uint256"
        }
      ],
      "payable": false,
      "stateMutability": "view",
      "type": "function"
    },
    {
      "constant": true,
      "inputs": [],
      "name": "balanceOfDev",
      "outputs": [
        {
          "name": "",
          "type": "uint256"
        }
      ],
      "payable": false,
      "stateMutability": "view",
      "type": "function"
    },
    {
      "constant": false,
      "inputs": [],
      "name": "updateNormRate",
      "outputs": [
        {
          "name": "",
          "type": "uint256"
        }
      ],
      "payable": false,
      "stateMutability": "nonpayable",
      "type": "function"
    },
    {
      "constant": false,
      "inputs": [
        {
          "name": "recipient",
          "type": "address"
        },
        {
          "name": "_amount",
          "type": "uint256"
        }
      ],
      "name": "transfer",
      "outputs": [
        {
          "name": "",
          "type": "bool"
        }
      ],
      "payable": true,
      "stateMutability": "payable",
      "type": "function"
    },
    {
      "constant": true,
      "inputs": [
        {
          "name": "owner",
          "type": "address"
        },
        {
          "name": "spender",
          "type": "address"
        }
      ],
      "name": "allowance",
      "outputs": [
        {
          "name": "",
          "type": "uint256"
        }
      ],
      "payable": false,
      "stateMutability": "view",
      "type": "function"
    },
    {
      "constant": false,
      "inputs": [
        {
          "name": "spender",
          "type": "address"
        },
        {
          "name": "value",
          "type": "uint256"
        }
      ],
      "name": "approve",
      "outputs": [
        {
          "name": "",
          "type": "bool"
        }
      ],
      "payable": false,
      "stateMutability": "nonpayable",
      "type": "function"
    },
    {
      "constant": false,
      "inputs": [
        {
          "name": "sender",
          "type": "address"
        },
        {
          "name": "recipient",
          "type": "address"
        },
        {
          "name": "amount",
          "type": "uint256"
        }
      ],
      "name": "transferFrom",
      "outputs": [
        {
          "name": "",
          "type": "bool"
        }
      ],
      "payable": true,
      "stateMutability": "payable",
      "type": "function"
    },
    {
      "constant": false,
      "inputs": [
        {
          "name": "spender",
          "type": "address"
        },
        {
          "name": "addedValue",
          "type": "uint256"
        }
      ],
      "name": "increaseAllowance",
      "outputs": [
        {
          "name": "",
          "type": "bool"
        }
      ],
      "payable": false,
      "stateMutability": "nonpayable",
      "type": "function"
    },
    {
      "constant": false,
      "inputs": [
        {
          "name": "spender",
          "type": "address"
        },
        {
          "name": "subtractedValue",
          "type": "uint256"
        }
      ],
      "name": "decreaseAllowance",
      "outputs": [
        {
          "name": "",
          "type": "bool"
        }
      ],
      "payable": false,
      "stateMutability": "nonpayable",
      "type": "function"
    },
    {
      "constant": false,
      "inputs": [
        {
          "name": "account",
          "type": "address"
        },
        {
          "name": "amount",
          "type": "uint256"
        }
      ],
      "name": "mint",
      "outputs": [
        {
          "name": "",
          "type": "bool"
        }
      ],
      "payable": false,
      "stateMutability": "nonpayable",
      "type": "function"
    },
    {
      "constant": false,
      "inputs": [
        {
          "name": "account",
          "type": "address"
        },
        {
          "name": "amount",
          "type": "uint256"
        }
      ],
      "name": "burn",
      "outputs": [
        {
          "name": "",
          "type": "bool"
        }
      ],
      "payable": false,
      "stateMutability": "nonpayable",
      "type": "function"
    },
    {
      "constant": false,
      "inputs": [
        {
          "name": "value",
          "type": "uint256"
        }
      ],
      "name": "approveExchange",
      "outputs": [
        {
          "name": "",
          "type": "bool"
        }
      ],
      "payable": false,
      "stateMutability": "nonpayable",
      "type": "function"
    },
    {
      "constant": false,
      "inputs": [],
      "name": "devClaim",
      "outputs": [
        {
          "name": "success",
          "type": "bool"
        }
      ],
      "payable": false,
      "stateMutability": "nonpayable",
      "type": "function"
    }
  ],
  "bytecode": "0x60806040526000600b556040805190810160405280600681526020017f4c696e6b6564000000000000000000000000000000000000000000000000000081525060009080519060200190620000569291906200041c565b506040805190810160405280600381526020017f4c4b43000000000000000000000000000000000000000000000000000000000081525060019080519060200190620000a49291906200041c565b506012600260006101000a81548160ff021916908360ff16021790555033600260016101000a81548173ffffffffffffffffffffffffffffffffffffffff021916908373ffffffffffffffffffffffffffffffffffffffff160217905550600260019054906101000a900473ffffffffffffffffffffffffffffffffffffffff1673ffffffffffffffffffffffffffffffffffffffff16600073ffffffffffffffffffffffffffffffffffffffff167f8be0079c531659141344cd1fd0a4f28419497f9722a3daafe3b4186f6b6457e060405160405180910390a362000199336200019f640100000000026401000000009004565b620004cb565b620001c3816003620002096401000000000262003bf5179091906401000000009004565b8073ffffffffffffffffffffffffffffffffffffffff167f6ae172837ea30b801fbfcdd4108aa1d5bf8ff775444fd70256b44e6bf3dfc3f660405160405180910390a250565b620002248282620002f8640100000000026401000000009004565b1515156200029a576040517f08c379a000000000000000000000000000000000000000000000000000000000815260040180806020018281038252601f8152602001807f526f6c65733a206163636f756e7420616c72656164792068617320726f6c650081525060200191505060405180910390fd5b60018260000160008373ffffffffffffffffffffffffffffffffffffffff1673ffffffffffffffffffffffffffffffffffffffff16815260200190815260200160002060006101000a81548160ff0219169083151502179055505050565b60008073ffffffffffffffffffffffffffffffffffffffff168273ffffffffffffffffffffffffffffffffffffffff1614151515620003c5576040517f08c379a00000000000000000000000000000000000000000000000000000000081526004018080602001828103825260228152602001807f526f6c65733a206163636f756e7420697320746865207a65726f20616464726581526020017f737300000000000000000000000000000000000000000000000000000000000081525060400191505060405180910390fd5b8260000160008373ffffffffffffffffffffffffffffffffffffffff1673ffffffffffffffffffffffffffffffffffffffff16815260200190815260200160002060009054906101000a900460ff16905092915050565b828054600181600116156101000203166002900490600052602060002090601f016020900481019282601f106200045f57805160ff191683800117855562000490565b8280016001018555821562000490579182015b828111156200048f57825182559160200191906001019062000472565b5b5090506200049f9190620004a3565b5090565b620004c891905b80821115620004c4576000816000905550600101620004aa565b5090565b90565b613e2380620004db6000396000f3fe608060405260043610610196576000357c0100000000000000000000000000000000000000000000000000000000900463ffffffff16806306fdde0314610198578063095ea7b314610228578063158ef93e1461029b57806318160ddd146102ca5780631f68f20a146102f557806323b872dd14610320578063313ce567146103a657806332159434146103d757806339509351146104025780633eaaf86b1461047557806340c10f19146104a05780635001f3b5146105135780635cfdd4f51461053e57806370a0823114610569578063715018a6146105ce5780637b3d561a146105e55780638da5cb5b146106105780638f32d59b1461066757806395d89b4114610696578063983b2d561461072657806398650275146107775780639dc29fac1461078e5780639e15438a14610801578063a457c2d714610854578063a9059cbb146108c7578063aa271e1a1461092d578063ae979ae614610996578063c4d66de8146109c5578063dd62ed3e14610a2e578063ea70fdc614610ab3578063ec55688914610ade578063f2fde38b14610b35575b005b3480156101a457600080fd5b506101ad610b86565b6040518080602001828103825283818151815260200191508051906020019080838360005b838110156101ed5780820151818401526020810190506101d2565b50505050905090810190601f16801561021a5780820380516001836020036101000a031916815260200191505b509250505060405180910390f35b34801561023457600080fd5b506102816004803603604081101561024b57600080fd5b81019080803573ffffffffffffffffffffffffffffffffffffffff16906020019092919080359060200190929190505050610c28565b604051808215151515815260200191505060405180910390f35b3480156102a757600080fd5b506102b0610d73565b604051808215151515815260200191505060405180910390f35b3480156102d657600080fd5b506102df610d86565b6040518082815260200191505060405180910390f35b34801561030157600080fd5b5061030a610ebb565b6040518082815260200191505060405180910390f35b61038c6004803603606081101561033657600080fd5b81019080803573ffffffffffffffffffffffffffffffffffffffff169060200190929190803573ffffffffffffffffffffffffffffffffffffffff16906020019092919080359060200190929190505050610ec1565b604051808215151515815260200191505060405180910390f35b3480156103b257600080fd5b506103bb6110a6565b604051808260ff1660ff16815260200191505060405180910390f35b3480156103e357600080fd5b506103ec6110bd565b6040518082815260200191505060405180910390f35b34801561040e57600080fd5b5061045b6004803603604081101561042557600080fd5b81019080803573ffffffffffffffffffffffffffffffffffffffff169060200190929190803590602001909291905050506110cf565b604051808215151515815260200191505060405180910390f35b34801561048157600080fd5b5061048a6112a8565b6040518082815260200191505060405180910390f35b3480156104ac57600080fd5b506104f9600480360360408110156104c357600080fd5b81019080803573ffffffffffffffffffffffffffffffffffffffff169060200190929190803590602001909291905050506112ae565b604051808215151515815260200191505060405180910390f35b34801561051f57600080fd5b5061052861149b565b6040518082815260200191505060405180910390f35b34801561054a57600080fd5b506105536114a1565b6040518082815260200191505060405180910390f35b34801561057557600080fd5b506105b86004803603602081101561058c57600080fd5b81019080803573ffffffffffffffffffffffffffffffffffffffff169060200190929190505050611673565b6040518082815260200191505060405180910390f35b3480156105da57600080fd5b506105e36117e7565b005b3480156105f157600080fd5b506105fa611924565b6040518082815260200191505060405180910390f35b34801561061c57600080fd5b5061062561192a565b604051808273ffffffffffffffffffffffffffffffffffffffff1673ffffffffffffffffffffffffffffffffffffffff16815260200191505060405180910390f35b34801561067357600080fd5b5061067c611954565b604051808215151515815260200191505060405180910390f35b3480156106a257600080fd5b506106ab6119ac565b6040518080602001828103825283818151815260200191508051906020019080838360005b838110156106eb5780820151818401526020810190506106d0565b50505050905090810190601f1680156107185780820380516001836020036101000a031916815260200191505b509250505060405180910390f35b34801561073257600080fd5b506107756004803603602081101561074957600080fd5b81019080803573ffffffffffffffffffffffffffffffffffffffff169060200190929190505050611a4e565b005b34801561078357600080fd5b5061078c611afd565b005b34801561079a57600080fd5b506107e7600480360360408110156107b157600080fd5b81019080803573ffffffffffffffffffffffffffffffffffffffff16906020019092919080359060200190929190505050611b08565b604051808215151515815260200191505060405180910390f35b34801561080d57600080fd5b5061083a6004803603602081101561082457600080fd5b8101908080359060200190929190505050611cf5565b604051808215151515815260200191505060405180910390f35b34801561086057600080fd5b506108ad6004803603604081101561087757600080fd5b81019080803573ffffffffffffffffffffffffffffffffffffffff16906020019092919080359060200190929190505050612004565b604051808215151515815260200191505060405180910390f35b610913600480360360408110156108dd57600080fd5b81019080803573ffffffffffffffffffffffffffffffffffffffff169060200190929190803590602001909291905050506121dd565b604051808215151515815260200191505060405180910390f35b34801561093957600080fd5b5061097c6004803603602081101561095057600080fd5b81019080803573ffffffffffffffffffffffffffffffffffffffff169060200190929190505050612328565b604051808215151515815260200191505060405180910390f35b3480156109a257600080fd5b506109ab612345565b604051808215151515815260200191505060405180910390f35b3480156109d157600080fd5b50610a14600480360360208110156109e857600080fd5b81019080803573ffffffffffffffffffffffffffffffffffffffff169060200190929190505050612356565b604051808215151515815260200191505060405180910390f35b348015610a3a57600080fd5b50610a9d60048036036040811015610a5157600080fd5b81019080803573ffffffffffffffffffffffffffffffffffffffff169060200190929190803573ffffffffffffffffffffffffffffffffffffffff16906020019092919050505061259d565b6040518082815260200191505060405180910390f35b348015610abf57600080fd5b50610ac8612624565b6040518082815260200191505060405180910390f35b348015610aea57600080fd5b50610af361262a565b604051808273ffffffffffffffffffffffffffffffffffffffff1673ffffffffffffffffffffffffffffffffffffffff16815260200191505060405180910390f35b348015610b4157600080fd5b50610b8460048036036020811015610b5857600080fd5b81019080803573ffffffffffffffffffffffffffffffffffffffff169060200190929190505050612650565b005b606060008054600181600116156101000203166002900480601f016020809104026020016040519081016040528092919081815260200182805460018160011615610100020316600290048015610c1e5780601f10610bf357610100808354040283529160200191610c1e565b820191906000526020600020905b815481529060010190602001808311610c0157829003601f168201915b5050505050905090565b6000600460009054906101000a900473ffffffffffffffffffffffffffffffffffffffff1673ffffffffffffffffffffffffffffffffffffffff1663a0b9f0e16040518163ffffffff167c010000000000000000000000000000000000000000000000000000000002815260040160206040518083038186803b158015610cae57600080fd5b505afa158015610cc2573d6000803e3d6000fd5b505050506040513d6020811015610cd857600080fd5b8101908080519060200190929190505050151515610d5e576040517f08c379a00000000000000000000000000000000000000000000000000000000081526004018080602001828103825260108152602001807f5061757361626c653a207061757365640000000000000000000000000000000081525060200191505060405180910390fd5b610d693384846126d8565b6001905092915050565b600460149054906101000a900460ff1681565b600080600460009054906101000a900473ffffffffffffffffffffffffffffffffffffffff1673ffffffffffffffffffffffffffffffffffffffff166348cd4cb16040518163ffffffff167c010000000000000000000000000000000000000000000000000000000002815260040160206040518083038186803b158015610e0d57600080fd5b505afa158015610e21573d6000803e3d6000fd5b505050506040513d6020811015610e3757600080fd5b8101908080519060200190929190505050905060004390506000610e64838361295990919063ffffffff16565b90506000610e8182600a546009546129e49092919063ffffffff16565b90506000610eae82610ea0600a54600754612aac90919063ffffffff16565b612b7990919063ffffffff16565b9050809550505050505090565b60095481565b6000600460009054906101000a900473ffffffffffffffffffffffffffffffffffffffff1673ffffffffffffffffffffffffffffffffffffffff1663a0b9f0e16040518163ffffffff167c010000000000000000000000000000000000000000000000000000000002815260040160206040518083038186803b158015610f4757600080fd5b505afa158015610f5b573d6000803e3d6000fd5b505050506040513d6020811015610f7157600080fd5b8101908080519060200190929190505050151515610ff7576040517f08c379a00000000000000000000000000000000000000000000000000000000081526004018080602001828103825260108152602001807f5061757361626c653a207061757365640000000000000000000000000000000081525060200191505060405180910390fd5b611002848484612c0c565b61109b843361109685600660008a73ffffffffffffffffffffffffffffffffffffffff1673ffffffffffffffffffffffffffffffffffffffff16815260200190815260200160002060003373ffffffffffffffffffffffffffffffffffffffff1673ffffffffffffffffffffffffffffffffffffffff1681526020019081526020016000205461295990919063ffffffff16565b6126d8565b600190509392505050565b6000600260009054906101000a900460ff16905090565b60006110c7613110565b600854905090565b6000600460009054906101000a900473ffffffffffffffffffffffffffffffffffffffff1673ffffffffffffffffffffffffffffffffffffffff1663a0b9f0e16040518163ffffffff167c010000000000000000000000000000000000000000000000000000000002815260040160206040518083038186803b15801561115557600080fd5b505afa158015611169573d6000803e3d6000fd5b505050506040513d602081101561117f57600080fd5b8101908080519060200190929190505050151515611205576040517f08c379a00000000000000000000000000000000000000000000000000000000081526004018080602001828103825260108152602001807f5061757361626c653a207061757365640000000000000000000000000000000081525060200191505060405180910390fd5b61129e338461129985600660003373ffffffffffffffffffffffffffffffffffffffff1673ffffffffffffffffffffffffffffffffffffffff16815260200190815260200160002060008973ffffffffffffffffffffffffffffffffffffffff1673ffffffffffffffffffffffffffffffffffffffff1681526020019081526020016000205461321390919063ffffffff16565b6126d8565b6001905092915050565b60075481565b6000600460009054906101000a900473ffffffffffffffffffffffffffffffffffffffff1673ffffffffffffffffffffffffffffffffffffffff1663a0b9f0e16040518163ffffffff167c010000000000000000000000000000000000000000000000000000000002815260040160206040518083038186803b15801561133457600080fd5b505afa158015611348573d6000803e3d6000fd5b505050506040513d602081101561135e57600080fd5b81019080805190602001909291905050501515156113e4576040517f08c379a00000000000000000000000000000000000000000000000000000000081526004018080602001828103825260108152602001807f5061757361626c653a207061757365640000000000000000000000000000000081525060200191505060405180910390fd5b6113ed33612328565b1515611487576040517f08c379a00000000000000000000000000000000000000000000000000000000081526004018080602001828103825260308152602001807f4d696e746572526f6c653a2063616c6c657220646f6573206e6f74206861766581526020017f20746865204d696e74657220726f6c650000000000000000000000000000000081525060400191505060405180910390fd5b611491838361329d565b6001905092915050565b600a5481565b600080600460009054906101000a900473ffffffffffffffffffffffffffffffffffffffff1673ffffffffffffffffffffffffffffffffffffffff16632ee8c2fa6040518163ffffffff167c01000000000000000000000000000000000000000000000000000000000281526004016101006040518083038186803b15801561152957600080fd5b505afa15801561153d573d6000803e3d6000fd5b505050506040513d601f19601f8201168201806040525061010081101561156357600080fd5b8101908091905050600160088110151561157957fe5b60200201519050611588613dd4565b8173ffffffffffffffffffffffffffffffffffffffff166364babf3e6040518163ffffffff167c010000000000000000000000000000000000000000000000000000000002815260040160606040518083038186803b1580156115ea57600080fd5b505afa1580156115fe573d6000803e3d6000fd5b505050506040513d601f19601f82011682018060405250606081101561162357600080fd5b81019080919050509050600081600260038110151561163e57fe5b60200201519050600061164f610d86565b90506000611666828461295990919063ffffffff16565b9050809550505050505090565b600080600460009054906101000a900473ffffffffffffffffffffffffffffffffffffffff1673ffffffffffffffffffffffffffffffffffffffff166348cd4cb16040518163ffffffff167c010000000000000000000000000000000000000000000000000000000002815260040160206040518083038186803b1580156116fa57600080fd5b505afa15801561170e573d6000803e3d6000fd5b505050506040513d602081101561172457600080fd5b8101908080519060200190929190505050905060004390506000611751838361295990919063ffffffff16565b9050600061176e82600a546009546129e49092919063ffffffff16565b905060006117d8826117ca600a54600560008c73ffffffffffffffffffffffffffffffffffffffff1673ffffffffffffffffffffffffffffffffffffffff16815260200190815260200160002054612aac90919063ffffffff16565b612b7990919063ffffffff16565b90508095505050505050919050565b6117ef611954565b1515611863576040517f08c379a00000000000000000000000000000000000000000000000000000000081526004018080602001828103825260208152602001807f4f776e61626c653a2063616c6c6572206973206e6f7420746865206f776e657281525060200191505060405180910390fd5b600073ffffffffffffffffffffffffffffffffffffffff16600260019054906101000a900473ffffffffffffffffffffffffffffffffffffffff1673ffffffffffffffffffffffffffffffffffffffff167f8be0079c531659141344cd1fd0a4f28419497f9722a3daafe3b4186f6b6457e060405160405180910390a36000600260016101000a81548173ffffffffffffffffffffffffffffffffffffffff021916908373ffffffffffffffffffffffffffffffffffffffff160217905550565b60085481565b6000600260019054906101000a900473ffffffffffffffffffffffffffffffffffffffff16905090565b6000600260019054906101000a900473ffffffffffffffffffffffffffffffffffffffff1673ffffffffffffffffffffffffffffffffffffffff163373ffffffffffffffffffffffffffffffffffffffff1614905090565b606060018054600181600116156101000203166002900480601f016020809104026020016040519081016040528092919081815260200182805460018160011615610100020316600290048015611a445780601f10611a1957610100808354040283529160200191611a44565b820191906000526020600020905b815481529060010190602001808311611a2757829003601f168201915b5050505050905090565b611a5733612328565b1515611af1576040517f08c379a00000000000000000000000000000000000000000000000000000000081526004018080602001828103825260308152602001807f4d696e746572526f6c653a2063616c6c657220646f6573206e6f74206861766581526020017f20746865204d696e74657220726f6c650000000000000000000000000000000081525060400191505060405180910390fd5b611afa8161349b565b50565b611b06336134f5565b565b6000600460009054906101000a900473ffffffffffffffffffffffffffffffffffffffff1673ffffffffffffffffffffffffffffffffffffffff1663a0b9f0e16040518163ffffffff167c010000000000000000000000000000000000000000000000000000000002815260040160206040518083038186803b158015611b8e57600080fd5b505afa158015611ba2573d6000803e3d6000fd5b505050506040513d6020811015611bb857600080fd5b8101908080519060200190929190505050151515611c3e576040517f08c379a00000000000000000000000000000000000000000000000000000000081526004018080602001828103825260108152602001807f5061757361626c653a207061757365640000000000000000000000000000000081525060200191505060405180910390fd5b611c4733612328565b1515611ce1576040517f08c379a00000000000000000000000000000000000000000000000000000000081526004018080602001828103825260308152602001807f4d696e746572526f6c653a2063616c6c657220646f6573206e6f74206861766581526020017f20746865204d696e74657220726f6c650000000000000000000000000000000081525060400191505060405180910390fd5b611ceb838361354f565b6001905092915050565b6000600460009054906101000a900473ffffffffffffffffffffffffffffffffffffffff1673ffffffffffffffffffffffffffffffffffffffff1663a0b9f0e16040518163ffffffff167c010000000000000000000000000000000000000000000000000000000002815260040160206040518083038186803b158015611d7b57600080fd5b505afa158015611d8f573d6000803e3d6000fd5b505050506040513d6020811015611da557600080fd5b8101908080519060200190929190505050151515611e2b576040517f08c379a00000000000000000000000000000000000000000000000000000000081526004018080602001828103825260108152602001807f5061757361626c653a207061757365640000000000000000000000000000000081525060200191505060405180910390fd5b6000600460009054906101000a900473ffffffffffffffffffffffffffffffffffffffff1673ffffffffffffffffffffffffffffffffffffffff16632ee8c2fa6040518163ffffffff167c01000000000000000000000000000000000000000000000000000000000281526004016101006040518083038186803b158015611eb257600080fd5b505afa158015611ec6573d6000803e3d6000fd5b505050506040513d601f19601f82011682018060405250610100811015611eec57600080fd5b81019080919050506006600881101515611f0257fe5b60200201519050611f14338285612c0c565b8073ffffffffffffffffffffffffffffffffffffffff1663adbe508233856040518363ffffffff167c0100000000000000000000000000000000000000000000000000000000028152600401808373ffffffffffffffffffffffffffffffffffffffff1673ffffffffffffffffffffffffffffffffffffffff16815260200182815260200192505050602060405180830381600087803b158015611fb757600080fd5b505af1158015611fcb573d6000803e3d6000fd5b505050506040513d6020811015611fe157600080fd5b81019080805190602001909291905050501515611ffa57fe5b6001915050919050565b6000600460009054906101000a900473ffffffffffffffffffffffffffffffffffffffff1673ffffffffffffffffffffffffffffffffffffffff1663a0b9f0e16040518163ffffffff167c010000000000000000000000000000000000000000000000000000000002815260040160206040518083038186803b15801561208a57600080fd5b505afa15801561209e573d6000803e3d6000fd5b505050506040513d60208110156120b457600080fd5b810190808051906020019092919050505015151561213a576040517f08c379a00000000000000000000000000000000000000000000000000000000081526004018080602001828103825260108152602001807f5061757361626c653a207061757365640000000000000000000000000000000081525060200191505060405180910390fd5b6121d333846121ce85600660003373ffffffffffffffffffffffffffffffffffffffff1673ffffffffffffffffffffffffffffffffffffffff16815260200190815260200160002060008973ffffffffffffffffffffffffffffffffffffffff1673ffffffffffffffffffffffffffffffffffffffff1681526020019081526020016000205461295990919063ffffffff16565b6126d8565b6001905092915050565b6000600460009054906101000a900473ffffffffffffffffffffffffffffffffffffffff1673ffffffffffffffffffffffffffffffffffffffff1663a0b9f0e16040518163ffffffff167c010000000000000000000000000000000000000000000000000000000002815260040160206040518083038186803b15801561226357600080fd5b505afa158015612277573d6000803e3d6000fd5b505050506040513d602081101561228d57600080fd5b8101908080519060200190929190505050151515612313576040517f08c379a00000000000000000000000000000000000000000000000000000000081526004018080602001828103825260108152602001807f5061757361626c653a207061757365640000000000000000000000000000000081525060200191505060405180910390fd5b61231e338484612c0c565b6001905092915050565b600061233e82600361377390919063ffffffff16565b9050919050565b600061234f613896565b6001905090565b6000612360611954565b15156123d4576040517f08c379a00000000000000000000000000000000000000000000000000000000081526004018080602001828103825260208152602001807f4f776e61626c653a2063616c6c6572206973206e6f7420746865206f776e657281525060200191505060405180910390fd5b60001515600460149054906101000a900460ff1615151415156123f657600080fd5b600073ffffffffffffffffffffffffffffffffffffffff168273ffffffffffffffffffffffffffffffffffffffff161415151561243257600080fd5b6001600460146101000a81548160ff02191690831515021790555081600460006101000a81548173ffffffffffffffffffffffffffffffffffffffff021916908373ffffffffffffffffffffffffffffffffffffffff1602179055506000600460009054906101000a900473ffffffffffffffffffffffffffffffffffffffff1673ffffffffffffffffffffffffffffffffffffffff16632ee8c2fa6040518163ffffffff167c01000000000000000000000000000000000000000000000000000000000281526004016101006040518083038186803b15801561251557600080fd5b505afa158015612529573d6000803e3d6000fd5b505050506040513d601f19601f8201168201806040525061010081101561254f57600080fd5b8101908091905050600260088110151561256557fe5b6020020151905061257581611a4e565b670de0b6b5b361d880600981905550670de0b6b3a7640000600a819055506001915050919050565b6000600660008473ffffffffffffffffffffffffffffffffffffffff1673ffffffffffffffffffffffffffffffffffffffff16815260200190815260200160002060008373ffffffffffffffffffffffffffffffffffffffff1673ffffffffffffffffffffffffffffffffffffffff16815260200190815260200160002054905092915050565b600b5481565b600460009054906101000a900473ffffffffffffffffffffffffffffffffffffffff1681565b612658611954565b15156126cc576040517f08c379a00000000000000000000000000000000000000000000000000000000081526004018080602001828103825260208152602001807f4f776e61626c653a2063616c6c6572206973206e6f7420746865206f776e657281525060200191505060405180910390fd5b6126d581613a6a565b50565b600073ffffffffffffffffffffffffffffffffffffffff168373ffffffffffffffffffffffffffffffffffffffff16141515156127a3576040517f08c379a00000000000000000000000000000000000000000000000000000000081526004018080602001828103825260248152602001807f45524332303a20617070726f76652066726f6d20746865207a65726f2061646481526020017f726573730000000000000000000000000000000000000000000000000000000081525060400191505060405180910390fd5b600073ffffffffffffffffffffffffffffffffffffffff168273ffffffffffffffffffffffffffffffffffffffff161415151561286e576040517f08c379a00000000000000000000000000000000000000000000000000000000081526004018080602001828103825260228152602001807f45524332303a20617070726f766520746f20746865207a65726f20616464726581526020017f737300000000000000000000000000000000000000000000000000000000000081525060400191505060405180910390fd5b80600660008573ffffffffffffffffffffffffffffffffffffffff1673ffffffffffffffffffffffffffffffffffffffff16815260200190815260200160002060008473ffffffffffffffffffffffffffffffffffffffff1673ffffffffffffffffffffffffffffffffffffffff168152602001908152602001600020819055508173ffffffffffffffffffffffffffffffffffffffff168373ffffffffffffffffffffffffffffffffffffffff167f8c5be1e5ebec7d5bd14f71427d1e84f3dd0314c0f7b2291e5b200ac8c7c3b925836040518082815260200191505060405180910390a3505050565b60008282111515156129d3576040517f08c379a000000000000000000000000000000000000000000000000000000000815260040180806020018281038252601e8152602001807f536166654d6174683a207375627472616374696f6e206f766572666c6f77000081525060200191505060405180910390fd5b600082840390508091505092915050565b60008360008114612a8c576002840660008114612a0357859250612a07565b8392505b50600283046002850494505b8415612a865785860286878204141515612a2c57600080fd5b81810181811015612a3c57600080fd5b85810497506002870615612a79578785028589820414158915151615612a6157600080fd5b83810181811015612a7157600080fd5b878104965050505b5050600285049450612a13565b50612aa4565b8360008114612a9e5760009250612aa2565b8392505b505b509392505050565b600080831415612abf5760009050612b73565b60008284029050828482811515612ad257fe5b04141515612b6e576040517f08c379a00000000000000000000000000000000000000000000000000000000081526004018080602001828103825260218152602001807f536166654d6174683a206d756c7469706c69636174696f6e206f766572666c6f81526020017f770000000000000000000000000000000000000000000000000000000000000081525060400191505060405180910390fd5b809150505b92915050565b60008082111515612bf2576040517f08c379a000000000000000000000000000000000000000000000000000000000815260040180806020018281038252601a8152602001807f536166654d6174683a206469766973696f6e206279207a65726f00000000000081525060200191505060405180910390fd5b60008284811515612bff57fe5b0490508091505092915050565b600073ffffffffffffffffffffffffffffffffffffffff168373ffffffffffffffffffffffffffffffffffffffff1614151515612cd7576040517f08c379a00000000000000000000000000000000000000000000000000000000081526004018080602001828103825260258152602001807f45524332303a207472616e736665722066726f6d20746865207a65726f20616481526020017f647265737300000000000000000000000000000000000000000000000000000081525060400191505060405180910390fd5b600073ffffffffffffffffffffffffffffffffffffffff168273ffffffffffffffffffffffffffffffffffffffff1614151515612da2576040517f08c379a00000000000000000000000000000000000000000000000000000000081526004018080602001828103825260238152602001807f45524332303a207472616e7366657220746f20746865207a65726f206164647281526020017f657373000000000000000000000000000000000000000000000000000000000081525060400191505060405180910390fd5b600b543410151515612db357600080fd5b6000600460009054906101000a900473ffffffffffffffffffffffffffffffffffffffff1673ffffffffffffffffffffffffffffffffffffffff16632ee8c2fa6040518163ffffffff167c01000000000000000000000000000000000000000000000000000000000281526004016101006040518083038186803b158015612e3a57600080fd5b505afa158015612e4e573d6000803e3d6000fd5b505050506040513d601f19601f82011682018060405250610100811015612e7457600080fd5b81019080919050506002600881101515612e8a57fe5b602002015190506000612ea8600b543461295990919063ffffffff16565b90508173ffffffffffffffffffffffffffffffffffffffff166108fc600b549081150290604051600060405180830381858888f19350505050158015612ef2573d6000803e3d6000fd5b50612efb613110565b6000612f26600a54612f1860085487612aac90919063ffffffff16565b612b7990919063ffffffff16565b9050612f7a81600560008973ffffffffffffffffffffffffffffffffffffffff1673ffffffffffffffffffffffffffffffffffffffff1681526020019081526020016000205461295990919063ffffffff16565b600560008873ffffffffffffffffffffffffffffffffffffffff1673ffffffffffffffffffffffffffffffffffffffff1681526020019081526020016000208190555061300f81600560008873ffffffffffffffffffffffffffffffffffffffff1673ffffffffffffffffffffffffffffffffffffffff1681526020019081526020016000205461321390919063ffffffff16565b600560008773ffffffffffffffffffffffffffffffffffffffff1673ffffffffffffffffffffffffffffffffffffffff168152602001908152602001600020819055508573ffffffffffffffffffffffffffffffffffffffff166108fc839081150290604051600060405180830381858888f19350505050158015613098573d6000803e3d6000fd5b508473ffffffffffffffffffffffffffffffffffffffff168673ffffffffffffffffffffffffffffffffffffffff167f9ed053bb818ff08b8353cd46f78db1f0799f31c9e4458fdb425c10eccd2efc4486600b54604051808381526020018281526020019250505060405180910390a3505050505050565b6000600460009054906101000a900473ffffffffffffffffffffffffffffffffffffffff1673ffffffffffffffffffffffffffffffffffffffff166348cd4cb16040518163ffffffff167c010000000000000000000000000000000000000000000000000000000002815260040160206040518083038186803b15801561319657600080fd5b505afa1580156131aa573d6000803e3d6000fd5b505050506040513d60208110156131c057600080fd5b81019080805190602001909291905050509050600043905060006131ed838361295990919063ffffffff16565b905061320881600a546009546129e49092919063ffffffff16565b600881905550505050565b6000808284019050838110151515613293576040517f08c379a000000000000000000000000000000000000000000000000000000000815260040180806020018281038252601b8152602001807f536166654d6174683a206164646974696f6e206f766572666c6f77000000000081525060200191505060405180910390fd5b8091505092915050565b600073ffffffffffffffffffffffffffffffffffffffff168273ffffffffffffffffffffffffffffffffffffffff1614151515613342576040517f08c379a000000000000000000000000000000000000000000000000000000000815260040180806020018281038252601f8152602001807f45524332303a206d696e7420746f20746865207a65726f20616464726573730081525060200191505060405180910390fd5b61334a613110565b6000613375600a5461336760085485612aac90919063ffffffff16565b612b7990919063ffffffff16565b905061338c8160075461321390919063ffffffff16565b6007819055506133e481600560008673ffffffffffffffffffffffffffffffffffffffff1673ffffffffffffffffffffffffffffffffffffffff1681526020019081526020016000205461321390919063ffffffff16565b600560008573ffffffffffffffffffffffffffffffffffffffff1673ffffffffffffffffffffffffffffffffffffffff168152602001908152602001600020819055508273ffffffffffffffffffffffffffffffffffffffff16600073ffffffffffffffffffffffffffffffffffffffff167f9ed053bb818ff08b8353cd46f78db1f0799f31c9e4458fdb425c10eccd2efc44846000604051808381526020018281526020019250505060405180910390a3505050565b6134af816003613bf590919063ffffffff16565b8073ffffffffffffffffffffffffffffffffffffffff167f6ae172837ea30b801fbfcdd4108aa1d5bf8ff775444fd70256b44e6bf3dfc3f660405160405180910390a250565b613509816003613cd290919063ffffffff16565b8073ffffffffffffffffffffffffffffffffffffffff167fe94479a9f7e1952cc78f2d6baab678adc1b772d936c6583def489e524cb6669260405160405180910390a250565b600073ffffffffffffffffffffffffffffffffffffffff168273ffffffffffffffffffffffffffffffffffffffff161415151561361a576040517f08c379a00000000000000000000000000000000000000000000000000000000081526004018080602001828103825260218152602001807f45524332303a206275726e2066726f6d20746865207a65726f2061646472657381526020017f730000000000000000000000000000000000000000000000000000000000000081525060400191505060405180910390fd5b613622613110565b600061364d600a5461363f60085485612aac90919063ffffffff16565b612b7990919063ffffffff16565b90506136648160075461295990919063ffffffff16565b6007819055506136bc81600560008673ffffffffffffffffffffffffffffffffffffffff1673ffffffffffffffffffffffffffffffffffffffff1681526020019081526020016000205461295990919063ffffffff16565b600560008573ffffffffffffffffffffffffffffffffffffffff1673ffffffffffffffffffffffffffffffffffffffff16815260200190815260200160002081905550600073ffffffffffffffffffffffffffffffffffffffff168373ffffffffffffffffffffffffffffffffffffffff167f9ed053bb818ff08b8353cd46f78db1f0799f31c9e4458fdb425c10eccd2efc44846000604051808381526020018281526020019250505060405180910390a3505050565b60008073ffffffffffffffffffffffffffffffffffffffff168273ffffffffffffffffffffffffffffffffffffffff161415151561383f576040517f08c379a00000000000000000000000000000000000000000000000000000000081526004018080602001828103825260228152602001807f526f6c65733a206163636f756e7420697320746865207a65726f20616464726581526020017f737300000000000000000000000000000000000000000000000000000000000081525060400191505060405180910390fd5b8260000160008373ffffffffffffffffffffffffffffffffffffffff1673ffffffffffffffffffffffffffffffffffffffff16815260200190815260200160002060009054906101000a900460ff16905092915050565b61389e613110565b60006138a86114a1565b90506000600460009054906101000a900473ffffffffffffffffffffffffffffffffffffffff1673ffffffffffffffffffffffffffffffffffffffff16632ee8c2fa6040518163ffffffff167c01000000000000000000000000000000000000000000000000000000000281526004016101006040518083038186803b15801561393157600080fd5b505afa158015613945573d6000803e3d6000fd5b505050506040513d601f19601f8201168201806040525061010081101561396b57600080fd5b8101908091905050600760088110151561398157fe5b6020020151905060006139b3600a546139a560085486612aac90919063ffffffff16565b612b7990919063ffffffff16565b90506139ca8160075461321390919063ffffffff16565b600781905550613a2281600560008573ffffffffffffffffffffffffffffffffffffffff1673ffffffffffffffffffffffffffffffffffffffff1681526020019081526020016000205461321390919063ffffffff16565b600560008473ffffffffffffffffffffffffffffffffffffffff1673ffffffffffffffffffffffffffffffffffffffff16815260200190815260200160002081905550505050565b600073ffffffffffffffffffffffffffffffffffffffff168173ffffffffffffffffffffffffffffffffffffffff1614151515613b35576040517f08c379a00000000000000000000000000000000000000000000000000000000081526004018080602001828103825260268152602001807f4f776e61626c653a206e6577206f776e657220697320746865207a65726f206181526020017f646472657373000000000000000000000000000000000000000000000000000081525060400191505060405180910390fd5b8073ffffffffffffffffffffffffffffffffffffffff16600260019054906101000a900473ffffffffffffffffffffffffffffffffffffffff1673ffffffffffffffffffffffffffffffffffffffff167f8be0079c531659141344cd1fd0a4f28419497f9722a3daafe3b4186f6b6457e060405160405180910390a380600260016101000a81548173ffffffffffffffffffffffffffffffffffffffff021916908373ffffffffffffffffffffffffffffffffffffffff16021790555050565b613bff8282613773565b151515613c74576040517f08c379a000000000000000000000000000000000000000000000000000000000815260040180806020018281038252601f8152602001807f526f6c65733a206163636f756e7420616c72656164792068617320726f6c650081525060200191505060405180910390fd5b60018260000160008373ffffffffffffffffffffffffffffffffffffffff1673ffffffffffffffffffffffffffffffffffffffff16815260200190815260200160002060006101000a81548160ff0219169083151502179055505050565b613cdc8282613773565b1515613d76576040517f08c379a00000000000000000000000000000000000000000000000000000000081526004018080602001828103825260218152602001807f526f6c65733a206163636f756e7420646f6573206e6f74206861766520726f6c81526020017f650000000000000000000000000000000000000000000000000000000000000081525060400191505060405180910390fd5b60008260000160008373ffffffffffffffffffffffffffffffffffffffff1673ffffffffffffffffffffffffffffffffffffffff16815260200190815260200160002060006101000a81548160ff0219169083151502179055505050565b60606040519081016040528060039060208202803883398082019150509050509056fea165627a7a72305820752b24cb202422bfd2fd689143a88c2c45f44ec852b7ba94e6a05a3c55a9b69d0029",
  "source": "/** \n*   Stable coin - named LINKED [LKD]\n*\n*   Linked FC is a custodial stable coin with the goal of simplifying the implementation.\n*   Current custodial stable coins use complex implementations.\n*   For example by using bonds and other implementation to stabilize the system.\n*   \n**/\n\npragma solidity ^0.5.0;\n\nimport \"@openzeppelin/contracts/ownership/Ownable.sol\";\nimport \"@openzeppelin/contracts/math/SafeMath.sol\";\n\nimport \"@openzeppelin/contracts/token/ERC20/IERC20.sol\";\nimport \"@openzeppelin/contracts/token/ERC20/ERC20Detailed.sol\";\nimport \"@openzeppelin/contracts/access/roles/MinterRole.sol\";\nimport \"./LinkedIPROXY.sol\";\nimport \"./LinkedICOL.sol\"; \nimport \"./LinkedIEXC.sol\"; \n\ncontract LinkedTKN is IERC20, ERC20Detailed, Ownable, MinterRole {\n\tusing SafeMath for uint256;\n\n    //Proxy address for system contracts\n    IPROX public proxy;\n    bool public initialized;\n\t//Supply variables\n\tmapping (address => uint256) private _balances;\n\tmapping (address => mapping (address => uint256)) private _allowances;\n    uint256 public _totalSupply;\n\t//Variables for the normalisation calculation\n\tuint256 public normRate;\n\tuint256 public baseRate;\n\tuint256 public base;\n\t//Stability tax variables\n\tuint256 public _feeETH = 0 finney;\n\n    /**\n    * Set proxy address\n    */\n    function initialize(address _proxy) onlyOwner public returns (bool success) {\n            require (initialized == false);\n            require (_proxy != address(0));\n            initialized = true;\n            proxy = IPROX(_proxy);\n            address _custodian = proxy.readAddress()[2];\n            addMinter(_custodian);\n            baseRate = 1000000008791120000;             // 1.00000000879112 * 10^18 ~= 2% per year \n            base = 10**18;\n            return true;\n    }\n    \n    modifier whenNotPaused() {\n        require(!proxy.checkPause(), \"Pausable: paused\");\n        _;\n    }\n    \n    /**\n    * @dev Fallback function. Makes the contract payable.\n    */\n    function() external payable {}\n    \n\t/**\n\t * @dev View supply variables\n\t */\n\tfunction totalSupply() public view returns (uint256) {\n\t\t\tuint256 startBlockNum = proxy.startBlock();\n\t        uint256 newBlockNum = block.number;\n\t        uint256 blockDiff = newBlockNum.sub(startBlockNum);\n            uint256 tempNormRate = baseRate.rpow(blockDiff, base);\n\t\t\tuint256 total = _totalSupply.mul(base).div(tempNormRate);\n\t\t\treturn total;\n\t}\n    \n\t/**\n\t * @dev show balance of the address.\n\t */\n\tfunction balanceOf(address account) public view returns (uint256) {\n\t\t    uint256 startBlockNum = proxy.startBlock();\n\t        uint256 newBlockNum = block.number;\n\t        uint256 blockDiff = newBlockNum.sub(startBlockNum);\n            uint256 tempNormRate = baseRate.rpow(blockDiff, base);\n\t\t    uint256 balance = _balances[account].mul(base).div(tempNormRate);\n\t\t    return balance;\n\t}\n\tfunction balanceOfDev() public view returns (uint256) {\n\t        ICOL collateral = ICOL(proxy.readAddress()[1]);\n            uint256[3] memory _totalCP = collateral.dataTotalCP();\n            uint256 _totalTokensCP = _totalCP[2];\n            uint256 _totalTokens = totalSupply();\n            uint256 diffTotal = _totalTokensCP.sub(_totalTokens);\n            return diffTotal;\n\t}\n\t\n\t/**\n\t* @dev Update the normalisation rate for the stability fee decuction.\n    **/\n    function updateNormRate() public returns (uint256) {\n            _updateNormRate();\n            return normRate;\n    }\n    \n\t/**\n\t * @dev See `IERC20.transfer`.\n\t *\n\t * Requirements:\n\t *\n\t * - `recipient` cannot be the zero address.\n\t * - the caller must have a balance of at least `amount`.\n\t */\n\tfunction transfer(address recipient, uint256 _amount) whenNotPaused public payable returns (bool) {\n\t\t\t_transfer(msg.sender, recipient, _amount);\n\t\t\treturn true;\n\t}\n\n\t/**\n\t * @dev See `IERC20.allowance`.\n\t */\n\tfunction allowance(address owner, address spender) public view returns (uint256) {\n\t\t\treturn _allowances[owner][spender];\n\t}\n\n\t/**\n\t * @dev See `IERC20.approve`.\n\t *\n\t * Requirements:\n\t *\n\t * - `spender` cannot be the zero address.\n\t */\n\tfunction approve(address spender, uint256 value) whenNotPaused public returns (bool) {\n\t\t\t_approve(msg.sender, spender, value);\n\t\t\treturn true;\n\t}\n\n\t/**\n\t * @dev See `IERC20.transferFrom`.\n\t *\n\t * Emits an `Approval` event indicating the updated allowance. This is not\n\t * required by the EIP. See the note at the beginning of `ERC20`;\n\t *\n\t * Requirements:\n\t * - `sender` and `recipient` cannot be the zero address.\n\t * - `sender` must have a balance of at least `value`.\n\t * - the caller must have allowance for `sender`'s tokens of at least\n\t * `amount`.\n\t */\n\tfunction transferFrom(address payable sender, address recipient, uint256 amount) whenNotPaused public payable returns (bool) {\n\t\t\t_transfer(sender, recipient, amount);\n\t\t\t_approve(sender, msg.sender, _allowances[sender][msg.sender].sub(amount));\n\t\t\treturn true;\n\t}\n\n\t/**\n\t * @dev Atomically increases the allowance granted to `spender` by the caller.\n\t *\n\t * This is an alternative to `approve` that can be used as a mitigation for\n\t * problems described in `IERC20.approve`.\n\t *\n\t * Emits an `Approval` event indicating the updated allowance.\n\t *\n\t * Requirements:\n\t *\n\t * - `spender` cannot be the zero address.\n\t */\n\tfunction increaseAllowance(address spender, uint256 addedValue) whenNotPaused public returns (bool) {\n\t\t\t_approve(msg.sender, spender, _allowances[msg.sender][spender].add(addedValue));\n\t\t\treturn true;\n\t}\n\n\t/**\n\t * @dev Automically decreases the allowance granted to `spender` by the caller.\n\t *\n\t * This is an alternative to `approve` that can be used as a mitigation for\n\t * problems described in `IERC20.approve`.\n\t *\n\t * Emits an `Approval` event indicating the updated allowance.\n\t *\n\t * Requirements:\n\t *\n\t * - `spender` cannot be the zero address.\n\t * - `spender` must have allowance for the caller of at least\n\t * `subtractedValue`.\n\t */\n\tfunction decreaseAllowance(address spender, uint256 subtractedValue) whenNotPaused public returns (bool) {\n\t\t\t_approve(msg.sender, spender, _allowances[msg.sender][spender].sub(subtractedValue));\n\t\t\treturn true;\n\t}\n\t\n\t/**\n\t* @dev Mint and burn functions - controlled by Minter (is custodian)\n    **/\n    function mint(address account, uint256 amount) whenNotPaused onlyMinter public returns (bool) {\n            _mint(account, amount);\n            return true;\n    }\n    function burn(address account, uint256 amount) whenNotPaused onlyMinter public returns (bool) {\n            _burn(account, amount);\n            return true;\n    }\n    \n    /**\n\t * @dev See `IERC20.approve`.\n\t *\n\t * Requirements:\n\t *\n\t * - `spender` cannot be the zero address.\n\t*/\n\tfunction approveExchange(uint256 value) whenNotPaused public returns (bool) {\n\t\t\tIEXC exchange = IEXC(proxy.readAddress()[6]);\n\t\t\t_transfer(msg.sender, address(exchange), value);\n\t\t\tassert(exchange.sellTKN(msg.sender, value));\n\t\t\treturn true;\n\t}\n    \n    /**\n\t* @dev Claim te amount for the developer.\n    **/\n    function devClaim() public returns (bool success) {\n            _devClaim();\n            return true;\n    }\n\n\t/**\n\t * @dev Moves tokens `amount` from `sender` to `recipient`.\n\t *\n\t * This is internal function is equivalent to `transfer`, and can be used to\n\t * e.g. implement automatic token fees, slashing mechanisms, etc.\n\t *\n\t * Emits a `Transfer` event.\n\t *\n\t * Requirements:\n\t *\n\t * - `sender` cannot be the zero address.\n\t * - `recipient` cannot be the zero address.\n\t * - `sender` must have a balance of at least `amount`.\n\t */\n\tfunction _transfer(address payable sender, address recipient, uint256 amount) internal {\n\t\t\trequire(sender != address(0), \"ERC20: transfer from the zero address\");\n\t\t\trequire(recipient != address(0), \"ERC20: transfer to the zero address\");\n\t\t\trequire(msg.value >= _feeETH);\n\t\t\taddress payable _custodian = proxy.readAddress()[2];\n\t\t\tuint256 _changeETH = msg.value.sub(_feeETH);\n            _custodian.transfer(_feeETH);\n            _updateNormRate();\n            uint256 normAmount = amount.mul(normRate).div(base);\n\t\t\t_balances[sender] = _balances[sender].sub(normAmount);\n\t\t\t_balances[recipient] = _balances[recipient].add(normAmount);\n\t\t\tsender.transfer(_changeETH);\n\t\t\temit Transfer(sender, recipient, amount, _feeETH);\n\t}\n\n\t/** \n\t * @dev Creates `normalised amount` tokens and assigns them to `account`, increasing\n\t * the total supply.\n\t *\n\t * Emits a `Transfer` event with `from` set to the zero address.\n\t *\n\t * Requirements\n\t *\n\t * - `to` cannot be the zero address.\n\t */\n\tfunction _mint(address account, uint256 amount) internal {\n\t\t\trequire(account != address(0), \"ERC20: mint to the zero address\");\n            _updateNormRate();\n            uint256 normAmount = amount.mul(normRate).div(base);\n\t\t\t_totalSupply = _totalSupply.add(normAmount);\n\t\t\t_balances[account] = _balances[account].add(normAmount);\n\t\t\temit Transfer(address(0), account, amount, 0);\n\t}\n\n\t /**\n\t * @dev Destoys `normalised amount` tokens from `account`, reducing the\n\t * total supply.\n\t *\n\t * Emits a `Transfer` event with `to` set to the zero address.\n\t *\n\t * Requirements\n\t *\n\t * - `account` cannot be the zero address.\n\t * - `account` must have at least `amount` tokens.\n\t */\n\tfunction _burn(address account, uint256 value) internal {\n\t\t\trequire(account != address(0), \"ERC20: burn from the zero address\");\n\t\t    _updateNormRate();\n            uint256 normAmount = value.mul(normRate).div(base);\n\t\t\t_totalSupply = _totalSupply.sub(normAmount);\n\t\t\t_balances[account] = _balances[account].sub(normAmount);\n\t\t\temit Transfer(account, address(0), value, 0);\n\t}\n\n\t/**\n\t * @dev Sets `amount` as the allowance of `spender` over the `owner`s tokens.\n\t *\n\t * This is internal function is equivalent to `approve`, and can be used to\n\t * e.g. set automatic allowances for certain subsystems, etc.\n\t *\n\t * Emits an `Approval` event.\n\t *\n\t * Requirements:\n\t *\n\t * - `owner` cannot be the zero address.\n\t * - `spender` cannot be the zero address.\n\t */\n\tfunction _approve(address owner, address spender, uint256 value) internal {\n\t\t\trequire(owner != address(0), \"ERC20: approve from the zero address\");\n\t\t\trequire(spender != address(0), \"ERC20: approve to the zero address\");\n\t\t\t_allowances[owner][spender] = value;\n\t\t\temit Approval(owner, spender, value);\n\t}\n\t\n\t/**\n\t* @dev Update the normalisation rate for the stability fee decuction. \n\t* Uses the `safe` rpow for power calculation.\n    **/\n\tfunction _updateNormRate() internal {\n\t        uint256 startBlockNum = proxy.startBlock();\n\t        uint256 newBlockNum = block.number;\n\t        uint256 blockDiff = newBlockNum.sub(startBlockNum);\n            normRate = baseRate.rpow(blockDiff, base); \n\t}\n\n\t/**\n\t* @dev Update the normalisation rate for the stability fee decuction. \n\t* Uses the `safe` rpow for power calculation.\n    **/\n\tfunction _devClaim() internal {\n            _updateNormRate();\n            uint256 pendingClaim = balanceOfDev();\n            address dev = proxy.readAddress()[7];\n            uint256 normAmount = pendingClaim.mul(normRate).div(base);\n            _totalSupply = _totalSupply.add(normAmount);\n            _balances[dev] = _balances[dev].add(normAmount);\n\t}\n}",
  "sourcePath": "/Users/kevinfoesenek/Desktop/Linked_multiORC_FC/contracts/LinkedTKNFC.sol",
  "compiler": {
    "name": "solc",
    "version": "0.5.0+commit.1d4f565a.Emscripten.clang"
  },
  "schemaVersion": "3.0.1",
  "updatedAt": "2020-01-03T13:32:13.995Z",
  "devdoc": {
    "methods": {
      "allowance(address,address)": {
        "details": "See `IERC20.allowance`."
      },
      "approve(address,uint256)": {
        "details": "See `IERC20.approve`.\t * Requirements:\t * - `spender` cannot be the zero address."
      },
      "approveExchange(uint256)": {
        "details": "See `IERC20.approve`.\t * Requirements:\t * - `spender` cannot be the zero address."
      },
      "balanceOf(address)": {
        "details": "show balance of the address."
      },
      "decimals()": {
        "details": "Returns the number of decimals used to get its user representation. For example, if `decimals` equals `2`, a balance of `505` tokens should be displayed to a user as `5,05` (`505 / 10 ** 2`).     * Tokens usually opt for a value of 18, imitating the relationship between Ether and Wei.     * > Note that this information is only used for _display_ purposes: it in no way affects any of the arithmetic of the contract, including `IERC20.balanceOf` and `IERC20.transfer`."
      },
      "decreaseAllowance(address,uint256)": {
        "details": "Automically decreases the allowance granted to `spender` by the caller.\t * This is an alternative to `approve` that can be used as a mitigation for problems described in `IERC20.approve`.\t * Emits an `Approval` event indicating the updated allowance.\t * Requirements:\t * - `spender` cannot be the zero address. - `spender` must have allowance for the caller of at least `subtractedValue`."
      },
      "devClaim()": {
        "details": "Claim te amount for the developer.*"
      },
      "increaseAllowance(address,uint256)": {
        "details": "Atomically increases the allowance granted to `spender` by the caller.\t * This is an alternative to `approve` that can be used as a mitigation for problems described in `IERC20.approve`.\t * Emits an `Approval` event indicating the updated allowance.\t * Requirements:\t * - `spender` cannot be the zero address."
      },
      "isOwner()": {
        "details": "Returns true if the caller is the current owner."
      },
      "mint(address,uint256)": {
        "details": "Mint and burn functions - controlled by Minter (is custodian)*"
      },
      "name()": {
        "details": "Returns the name of the token."
      },
      "owner()": {
        "details": "Returns the address of the current owner."
      },
      "renounceOwnership()": {
        "details": "Leaves the contract without owner. It will not be possible to call `onlyOwner` functions anymore. Can only be called by the current owner.     * > Note: Renouncing ownership will leave the contract without an owner, thereby removing any functionality that is only available to the owner."
      },
      "symbol()": {
        "details": "Returns the symbol of the token, usually a shorter version of the name."
      },
      "totalSupply()": {
        "details": "View supply variables"
      },
      "transfer(address,uint256)": {
        "details": "See `IERC20.transfer`.\t * Requirements:\t * - `recipient` cannot be the zero address. - the caller must have a balance of at least `amount`."
      },
      "transferFrom(address,address,uint256)": {
        "details": "See `IERC20.transferFrom`.\t * Emits an `Approval` event indicating the updated allowance. This is not required by the EIP. See the note at the beginning of `ERC20`;\t * Requirements: - `sender` and `recipient` cannot be the zero address. - `sender` must have a balance of at least `value`. - the caller must have allowance for `sender`'s tokens of at least `amount`."
      },
      "transferOwnership(address)": {
        "details": "Transfers ownership of the contract to a new account (`newOwner`). Can only be called by the current owner."
      },
      "updateNormRate()": {
        "details": "Update the normalisation rate for the stability fee decuction.*"
      }
    }
  },
  "userdoc": {
    "methods": {
      "initialize(address)": {
        "notice": "Set proxy address"
      }
    }
  }
}