{
  "contractName": "LinkedCOL",
  "abi": [
    {
      "anonymous": false,
      "inputs": [
        {
          "indexed": false,
          "internalType": "address",
          "name": "account",
          "type": "address"
        },
        {
          "indexed": false,
          "internalType": "uint256",
          "name": "id",
          "type": "uint256"
        }
      ],
      "name": "CloseCP",
      "type": "event",
      "signature": "0xc4e1df4952dc60d5bb87ac41461f223bc08e05506be88ef67a63471f4518e8a1"
    },
    {
      "anonymous": false,
      "inputs": [
        {
          "indexed": false,
          "internalType": "address",
          "name": "account",
          "type": "address"
        },
        {
          "indexed": false,
          "internalType": "uint256",
          "name": "id",
          "type": "uint256"
        }
      ],
      "name": "OpenCP",
      "type": "event",
      "signature": "0xc2bde2869d34f0d99f3f33fcdb12ab7030894b9d89b00e07d779c852ba12abb2"
    },
    {
      "anonymous": false,
      "inputs": [
        {
          "indexed": true,
          "internalType": "address",
          "name": "previousOwner",
          "type": "address"
        },
        {
          "indexed": true,
          "internalType": "address",
          "name": "newOwner",
          "type": "address"
        }
      ],
      "name": "OwnershipTransferred",
      "type": "event",
      "signature": "0x8be0079c531659141344cd1fd0a4f28419497f9722a3daafe3b4186f6b6457e0"
    },
    {
      "anonymous": false,
      "inputs": [
        {
          "indexed": false,
          "internalType": "address",
          "name": "sender",
          "type": "address"
        },
        {
          "indexed": false,
          "internalType": "address",
          "name": "receiver",
          "type": "address"
        },
        {
          "indexed": false,
          "internalType": "uint256",
          "name": "id",
          "type": "uint256"
        }
      ],
      "name": "TransferCP",
      "type": "event",
      "signature": "0x204f9e99011ae31c4c782355672297ed6532e9ca30f9c825943e82a205dd15e4"
    },
    {
      "anonymous": false,
      "inputs": [
        {
          "indexed": false,
          "internalType": "uint256",
          "name": "Rate",
          "type": "uint256"
        }
      ],
      "name": "UpdateRate",
      "type": "event",
      "signature": "0xc04ab144c3f6fd32b71825eb92c20af3c8b2f2b6680dfaf3645b527f098c245b"
    },
    {
      "payable": true,
      "stateMutability": "payable",
      "type": "fallback"
    },
    {
      "constant": true,
      "inputs": [
        {
          "internalType": "address",
          "name": "",
          "type": "address"
        },
        {
          "internalType": "uint256",
          "name": "",
          "type": "uint256"
        }
      ],
      "name": "CP",
      "outputs": [
        {
          "internalType": "uint256",
          "name": "amountETH",
          "type": "uint256"
        },
        {
          "internalType": "uint256",
          "name": "amountToken",
          "type": "uint256"
        },
        {
          "internalType": "bool",
          "name": "closed",
          "type": "bool"
        },
        {
          "internalType": "uint256",
          "name": "liquidation",
          "type": "uint256"
        },
        {
          "internalType": "uint256",
          "name": "liqrange",
          "type": "uint256"
        },
        {
          "internalType": "uint256",
          "name": "liqid",
          "type": "uint256"
        },
        {
          "internalType": "uint256",
          "name": "interestBlock",
          "type": "uint256"
        }
      ],
      "payable": false,
      "stateMutability": "view",
      "type": "function",
      "signature": "0xb371b409"
    },
    {
      "constant": true,
      "inputs": [
        {
          "internalType": "uint256",
          "name": "",
          "type": "uint256"
        },
        {
          "internalType": "uint256",
          "name": "",
          "type": "uint256"
        }
      ],
      "name": "_LiqInfo",
      "outputs": [
        {
          "internalType": "uint256",
          "name": "id",
          "type": "uint256"
        },
        {
          "internalType": "address",
          "name": "account",
          "type": "address"
        }
      ],
      "payable": false,
      "stateMutability": "view",
      "type": "function",
      "signature": "0x7b7cea9c"
    },
    {
      "constant": true,
      "inputs": [
        {
          "internalType": "uint256",
          "name": "",
          "type": "uint256"
        }
      ],
      "name": "_LiqRange",
      "outputs": [
        {
          "internalType": "uint256",
          "name": "",
          "type": "uint256"
        }
      ],
      "payable": false,
      "stateMutability": "view",
      "type": "function",
      "signature": "0x95921b48"
    },
    {
      "constant": true,
      "inputs": [
        {
          "internalType": "address",
          "name": "",
          "type": "address"
        }
      ],
      "name": "index",
      "outputs": [
        {
          "internalType": "uint256",
          "name": "",
          "type": "uint256"
        }
      ],
      "payable": false,
      "stateMutability": "view",
      "type": "function",
      "signature": "0x18def8ef"
    },
    {
      "constant": true,
      "inputs": [],
      "name": "initialized",
      "outputs": [
        {
          "internalType": "bool",
          "name": "",
          "type": "bool"
        }
      ],
      "payable": false,
      "stateMutability": "view",
      "type": "function",
      "signature": "0x158ef93e"
    },
    {
      "constant": true,
      "inputs": [],
      "name": "isOwner",
      "outputs": [
        {
          "internalType": "bool",
          "name": "",
          "type": "bool"
        }
      ],
      "payable": false,
      "stateMutability": "view",
      "type": "function",
      "signature": "0x8f32d59b"
    },
    {
      "constant": true,
      "inputs": [],
      "name": "liqPer",
      "outputs": [
        {
          "internalType": "uint256",
          "name": "",
          "type": "uint256"
        }
      ],
      "payable": false,
      "stateMutability": "view",
      "type": "function",
      "signature": "0x74534f59"
    },
    {
      "constant": true,
      "inputs": [],
      "name": "minCol",
      "outputs": [
        {
          "internalType": "uint256",
          "name": "",
          "type": "uint256"
        }
      ],
      "payable": false,
      "stateMutability": "view",
      "type": "function",
      "signature": "0xca6c868f"
    },
    {
      "constant": true,
      "inputs": [],
      "name": "owner",
      "outputs": [
        {
          "internalType": "address",
          "name": "",
          "type": "address"
        }
      ],
      "payable": false,
      "stateMutability": "view",
      "type": "function",
      "signature": "0x8da5cb5b"
    },
    {
      "constant": true,
      "inputs": [],
      "name": "proxy",
      "outputs": [
        {
          "internalType": "contract IPROX",
          "name": "",
          "type": "address"
        }
      ],
      "payable": false,
      "stateMutability": "view",
      "type": "function",
      "signature": "0xec556889"
    },
    {
      "constant": true,
      "inputs": [],
      "name": "rate",
      "outputs": [
        {
          "internalType": "uint256",
          "name": "",
          "type": "uint256"
        }
      ],
      "payable": false,
      "stateMutability": "view",
      "type": "function",
      "signature": "0x2c4e722e"
    },
    {
      "constant": true,
      "inputs": [],
      "name": "remFund",
      "outputs": [
        {
          "internalType": "uint256",
          "name": "",
          "type": "uint256"
        }
      ],
      "payable": false,
      "stateMutability": "view",
      "type": "function",
      "signature": "0x568fc314"
    },
    {
      "constant": false,
      "inputs": [],
      "name": "renounceOwnership",
      "outputs": [],
      "payable": false,
      "stateMutability": "nonpayable",
      "type": "function",
      "signature": "0x715018a6"
    },
    {
      "constant": true,
      "inputs": [],
      "name": "tldata",
      "outputs": [
        {
          "internalType": "uint256",
          "name": "_totalCPs",
          "type": "uint256"
        },
        {
          "internalType": "uint256",
          "name": "_supplyCPETH",
          "type": "uint256"
        },
        {
          "internalType": "uint256",
          "name": "_supplyCPToken",
          "type": "uint256"
        }
      ],
      "payable": false,
      "stateMutability": "view",
      "type": "function",
      "signature": "0x47178907"
    },
    {
      "constant": false,
      "inputs": [
        {
          "internalType": "address",
          "name": "newOwner",
          "type": "address"
        }
      ],
      "name": "transferOwnership",
      "outputs": [],
      "payable": false,
      "stateMutability": "nonpayable",
      "type": "function",
      "signature": "0xf2fde38b"
    },
    {
      "constant": false,
      "inputs": [
        {
          "internalType": "address",
          "name": "_proxy",
          "type": "address"
        }
      ],
      "name": "initialize",
      "outputs": [
        {
          "internalType": "bool",
          "name": "success",
          "type": "bool"
        }
      ],
      "payable": false,
      "stateMutability": "nonpayable",
      "type": "function",
      "signature": "0xc4d66de8"
    },
    {
      "constant": false,
      "inputs": [
        {
          "internalType": "uint256",
          "name": "newRate",
          "type": "uint256"
        }
      ],
      "name": "updateRate",
      "outputs": [
        {
          "internalType": "bool",
          "name": "success",
          "type": "bool"
        }
      ],
      "payable": false,
      "stateMutability": "nonpayable",
      "type": "function",
      "signature": "0x69ea1771"
    },
    {
      "constant": true,
      "inputs": [
        {
          "internalType": "address",
          "name": "account",
          "type": "address"
        },
        {
          "internalType": "uint256",
          "name": "id",
          "type": "uint256"
        }
      ],
      "name": "individualCPdata",
      "outputs": [
        {
          "internalType": "uint256[3]",
          "name": "",
          "type": "uint256[3]"
        }
      ],
      "payable": false,
      "stateMutability": "view",
      "type": "function",
      "signature": "0x03d02566"
    },
    {
      "constant": true,
      "inputs": [],
      "name": "dataTotalCP",
      "outputs": [
        {
          "internalType": "uint256[3]",
          "name": "",
          "type": "uint256[3]"
        }
      ],
      "payable": false,
      "stateMutability": "view",
      "type": "function",
      "signature": "0x64babf3e"
    },
    {
      "constant": false,
      "inputs": [
        {
          "internalType": "uint256",
          "name": "amount",
          "type": "uint256"
        }
      ],
      "name": "openCP",
      "outputs": [
        {
          "internalType": "bool",
          "name": "success",
          "type": "bool"
        }
      ],
      "payable": true,
      "stateMutability": "payable",
      "type": "function",
      "signature": "0x11000492"
    },
    {
      "constant": false,
      "inputs": [
        {
          "internalType": "address",
          "name": "recipient",
          "type": "address"
        },
        {
          "internalType": "uint256",
          "name": "id",
          "type": "uint256"
        }
      ],
      "name": "transfer",
      "outputs": [
        {
          "internalType": "bool",
          "name": "",
          "type": "bool"
        }
      ],
      "payable": false,
      "stateMutability": "nonpayable",
      "type": "function",
      "signature": "0xa9059cbb"
    },
    {
      "constant": false,
      "inputs": [
        {
          "internalType": "uint256",
          "name": "id",
          "type": "uint256"
        }
      ],
      "name": "depositETHCP",
      "outputs": [
        {
          "internalType": "bool",
          "name": "success",
          "type": "bool"
        }
      ],
      "payable": true,
      "stateMutability": "payable",
      "type": "function",
      "signature": "0x93983eec"
    },
    {
      "constant": false,
      "inputs": [
        {
          "internalType": "uint256",
          "name": "amount",
          "type": "uint256"
        },
        {
          "internalType": "uint256",
          "name": "id",
          "type": "uint256"
        }
      ],
      "name": "withdrawETHCP",
      "outputs": [
        {
          "internalType": "bool",
          "name": "success",
          "type": "bool"
        }
      ],
      "payable": true,
      "stateMutability": "payable",
      "type": "function",
      "signature": "0x6503cf0d"
    },
    {
      "constant": false,
      "inputs": [
        {
          "internalType": "uint256",
          "name": "amount",
          "type": "uint256"
        },
        {
          "internalType": "uint256",
          "name": "id",
          "type": "uint256"
        }
      ],
      "name": "depositTokenCP",
      "outputs": [
        {
          "internalType": "bool",
          "name": "success",
          "type": "bool"
        }
      ],
      "payable": true,
      "stateMutability": "payable",
      "type": "function",
      "signature": "0xe42e7c9b"
    },
    {
      "constant": false,
      "inputs": [
        {
          "internalType": "uint256",
          "name": "amount",
          "type": "uint256"
        },
        {
          "internalType": "uint256",
          "name": "id",
          "type": "uint256"
        }
      ],
      "name": "withdrawTokenCP",
      "outputs": [
        {
          "internalType": "bool",
          "name": "success",
          "type": "bool"
        }
      ],
      "payable": true,
      "stateMutability": "payable",
      "type": "function",
      "signature": "0x7a338cb7"
    },
    {
      "constant": false,
      "inputs": [
        {
          "internalType": "address",
          "name": "account",
          "type": "address"
        },
        {
          "internalType": "uint256",
          "name": "id",
          "type": "uint256"
        }
      ],
      "name": "liquidateCP",
      "outputs": [
        {
          "internalType": "bool",
          "name": "success",
          "type": "bool"
        }
      ],
      "payable": true,
      "stateMutability": "payable",
      "type": "function",
      "signature": "0xf6ad4e9c"
    },
    {
      "constant": false,
      "inputs": [
        {
          "internalType": "uint256",
          "name": "id",
          "type": "uint256"
        }
      ],
      "name": "interestClaim",
      "outputs": [
        {
          "internalType": "bool",
          "name": "success",
          "type": "bool"
        }
      ],
      "payable": false,
      "stateMutability": "nonpayable",
      "type": "function",
      "signature": "0xe16c8c68"
    }
  ],
  "bytecode": "0x6080604052336000806101000a81548173ffffffffffffffffffffffffffffffffffffffff021916908373ffffffffffffffffffffffffffffffffffffffff1602179055506000809054906101000a900473ffffffffffffffffffffffffffffffffffffffff1673ffffffffffffffffffffffffffffffffffffffff16600073ffffffffffffffffffffffffffffffffffffffff167f8be0079c531659141344cd1fd0a4f28419497f9722a3daafe3b4186f6b6457e060405160405180910390a3615fa5806100cf6000396000f3fe6080604052600436106101b9576000357c0100000000000000000000000000000000000000000000000000000000900480637b7cea9c11610109578063c4d66de8116100a7578063e42e7c9b11610081578063e42e7c9b146108e1578063ec55688914610931578063f2fde38b14610988578063f6ad4e9c146109d9576101b9565b8063c4d66de8146107fa578063ca6c868f14610863578063e16c8c681461088e576101b9565b806393983eec116100e357806393983eec1461065557806395921b481461069b578063a9059cbb146106ea578063b371b4091461075d576101b9565b80637b7cea9c146105435780638da5cb5b146105cf5780638f32d59b14610626576101b9565b8063568fc3141161017657806369ea17711161015057806369ea17711461045e578063715018a6146104b157806374534f59146104c85780637a338cb7146104f3576101b9565b8063568fc3141461039057806364babf3e146103bb5780636503cf0d1461040e576101b9565b806303d02566146101bb5780631100049214610252578063158ef93e1461029857806318def8ef146102c75780632c4e722e1461032c5780634717890714610357575b005b3480156101c757600080fd5b50610214600480360360408110156101de57600080fd5b81019080803573ffffffffffffffffffffffffffffffffffffffff16906020019092919080359060200190929190505050610a3f565b6040518082600360200280838360005b8381101561023f578082015181840152602081019050610224565b5050505090500191505060405180910390f35b61027e6004803603602081101561026857600080fd5b8101908080359060200190929190505050610b97565b604051808215151515815260200191505060405180910390f35b3480156102a457600080fd5b506102ad610df3565b604051808215151515815260200191505060405180910390f35b3480156102d357600080fd5b50610316600480360360208110156102ea57600080fd5b81019080803573ffffffffffffffffffffffffffffffffffffffff169060200190929190505050610e06565b6040518082815260200191505060405180910390f35b34801561033857600080fd5b50610341610e1e565b6040518082815260200191505060405180910390f35b34801561036357600080fd5b5061036c610e24565b60405180848152602001838152602001828152602001935050505060405180910390f35b34801561039c57600080fd5b506103a5610e3c565b6040518082815260200191505060405180910390f35b3480156103c757600080fd5b506103d0610e42565b6040518082600360200280838360005b838110156103fb5780820151818401526020810190506103e0565b5050505090500191505060405180910390f35b6104446004803603604081101561042457600080fd5b810190808035906020019092919080359060200190929190505050610ead565b604051808215151515815260200191505060405180910390f35b34801561046a57600080fd5b506104976004803603602081101561048157600080fd5b81019080803590602001909291905050506116a6565b604051808215151515815260200191505060405180910390f35b3480156104bd57600080fd5b506104c661192e565b005b3480156104d457600080fd5b506104dd611a67565b6040518082815260200191505060405180910390f35b6105296004803603604081101561050957600080fd5b810190808035906020019092919080359060200190929190505050611a6d565b604051808215151515815260200191505060405180910390f35b34801561054f57600080fd5b506105866004803603604081101561056657600080fd5b81019080803590602001909291908035906020019092919050505061224a565b604051808381526020018273ffffffffffffffffffffffffffffffffffffffff1673ffffffffffffffffffffffffffffffffffffffff1681526020019250505060405180910390f35b3480156105db57600080fd5b506105e461229b565b604051808273ffffffffffffffffffffffffffffffffffffffff1673ffffffffffffffffffffffffffffffffffffffff16815260200191505060405180910390f35b34801561063257600080fd5b5061063b6122c4565b604051808215151515815260200191505060405180910390f35b6106816004803603602081101561066b57600080fd5b810190808035906020019092919050505061231b565b604051808215151515815260200191505060405180910390f35b3480156106a757600080fd5b506106d4600480360360208110156106be57600080fd5b8101908080359060200190929190505050612a26565b6040518082815260200191505060405180910390f35b3480156106f657600080fd5b506107436004803603604081101561070d57600080fd5b81019080803573ffffffffffffffffffffffffffffffffffffffff16906020019092919080359060200190929190505050612a3e565b604051808215151515815260200191505060405180910390f35b34801561076957600080fd5b506107b66004803603604081101561078057600080fd5b81019080803573ffffffffffffffffffffffffffffffffffffffff16906020019092919080359060200190929190505050612c30565b604051808881526020018781526020018615151515815260200185815260200184815260200183815260200182815260200197505050505050505060405180910390f35b34801561080657600080fd5b506108496004803603602081101561081d57600080fd5b81019080803573ffffffffffffffffffffffffffffffffffffffff169060200190929190505050612c8c565b604051808215151515815260200191505060405180910390f35b34801561086f57600080fd5b50610878612dd7565b6040518082815260200191505060405180910390f35b34801561089a57600080fd5b506108c7600480360360208110156108b157600080fd5b8101908080359060200190929190505050612ddd565b604051808215151515815260200191505060405180910390f35b610917600480360360408110156108f757600080fd5b810190808035906020019092919080359060200190929190505050612df2565b604051808215151515815260200191505060405180910390f35b34801561093d57600080fd5b50610946613714565b604051808273ffffffffffffffffffffffffffffffffffffffff1673ffffffffffffffffffffffffffffffffffffffff16815260200191505060405180910390f35b34801561099457600080fd5b506109d7600480360360208110156109ab57600080fd5b81019080803573ffffffffffffffffffffffffffffffffffffffff16906020019092919050505061373a565b005b610a25600480360360408110156109ef57600080fd5b81019080803573ffffffffffffffffffffffffffffffffffffffff169060200190929190803590602001909291905050506137c0565b604051808215151515815260200191505060405180910390f35b610a47615e22565b610a4f615e22565b600260008573ffffffffffffffffffffffffffffffffffffffff1673ffffffffffffffffffffffffffffffffffffffff16815260200190815260200160002060008481526020019081526020016000206000015481600060038110610ab057fe5b602002018181525050600260008573ffffffffffffffffffffffffffffffffffffffff1673ffffffffffffffffffffffffffffffffffffffff16815260200190815260200160002060008481526020019081526020016000206001015481600160038110610b1a57fe5b602002018181525050600260008573ffffffffffffffffffffffffffffffffffffffff1673ffffffffffffffffffffffffffffffffffffffff16815260200190815260200160002060008481526020019081526020016000206006015481600260038110610b8457fe5b6020020181815250508091505092915050565b6000600560009054906101000a900473ffffffffffffffffffffffffffffffffffffffff1673ffffffffffffffffffffffffffffffffffffffff1663a0b9f0e16040518163ffffffff167c010000000000000000000000000000000000000000000000000000000002815260040160206040518083038186803b158015610c1d57600080fd5b505afa158015610c31573d6000803e3d6000fd5b505050506040513d6020811015610c4757600080fd5b810190808051906020019092919050505015610ccb576040517f08c379a00000000000000000000000000000000000000000000000000000000081526004018080602001828103825260108152602001807f5061757361626c653a207061757365640000000000000000000000000000000081525060200191505060405180910390fd5b6000600160003373ffffffffffffffffffffffffffffffffffffffff1673ffffffffffffffffffffffffffffffffffffffff1681526020019081526020016000205490506000610d4b6064610d3d600a54610d2f348961434690919063ffffffff16565b6143d590919063ffffffff16565b61434690919063ffffffff16565b90506000610d646103e88361434690919063ffffffff16565b9050610d70818461445b565b610d7c83868484614555565b7fc2bde2869d34f0d99f3f33fcdb12ab7030894b9d89b00e07d779c852ba12abb23384604051808373ffffffffffffffffffffffffffffffffffffffff1673ffffffffffffffffffffffffffffffffffffffff1681526020018281526020019250505060405180910390a160019350505050919050565b600560149054906101000a900460ff1681565b60016020528060005260406000206000915090505481565b60095481565b60068060000154908060010154908060020154905083565b600c5481565b610e4a615e22565b610e52615e22565b60066000015481600060038110610e6557fe5b60200201818152505060066001015481600160038110610e8157fe5b60200201818152505060066002015481600260038110610e9d57fe5b6020020181815250508091505090565b6000600560009054906101000a900473ffffffffffffffffffffffffffffffffffffffff1673ffffffffffffffffffffffffffffffffffffffff1663a0b9f0e16040518163ffffffff167c010000000000000000000000000000000000000000000000000000000002815260040160206040518083038186803b158015610f3357600080fd5b505afa158015610f47573d6000803e3d6000fd5b505050506040513d6020811015610f5d57600080fd5b810190808051906020019092919050505015610fe1576040517f08c379a00000000000000000000000000000000000000000000000000000000081526004018080602001828103825260108152602001807f5061757361626c653a207061757365640000000000000000000000000000000081525060200191505060405180910390fd5b600061104984600260003373ffffffffffffffffffffffffffffffffffffffff1673ffffffffffffffffffffffffffffffffffffffff168152602001908152602001600020600086815260200190815260200160002060000154614be090919063ffffffff16565b10156110bd576040517f08c379a00000000000000000000000000000000000000000000000000000000081526004018080602001828103825260158152602001807f6e6f7420656e6f75676820636f6c6c61746572616c000000000000000000000081525060200191505060405180910390fd5b6000600560009054906101000a900473ffffffffffffffffffffffffffffffffffffffff1673ffffffffffffffffffffffffffffffffffffffff16632ee8c2fa6040518163ffffffff167c010000000000000000000000000000000000000000000000000000000002815260040160e06040518083038186803b15801561114357600080fd5b505afa158015611157573d6000803e3d6000fd5b505050506040513d601f19601f8201168201806040525060e081101561117c57600080fd5b810190809190505060026007811061119057fe5b6020020151905060006111ff85600260003373ffffffffffffffffffffffffffffffffffffffff1673ffffffffffffffffffffffffffffffffffffffff168152602001908152602001600020600087815260200190815260200160002060000154614be090919063ffffffff16565b90506000600260003373ffffffffffffffffffffffffffffffffffffffff1673ffffffffffffffffffffffffffffffffffffffff16815260200190815260200160002060008681526020019081526020016000206001015490506000600260003373ffffffffffffffffffffffffffffffffffffffff1673ffffffffffffffffffffffffffffffffffffffff16815260200190815260200160002060008781526020019081526020016000206004015490506000600260003373ffffffffffffffffffffffffffffffffffffffff1673ffffffffffffffffffffffffffffffffffffffff168152602001908152602001600020600088815260200190815260200160002060050154905060006003600084815260200190815260200160002054905061132b3389614c69565b611336838383614e84565b60008514156113ba5761134a888a86615090565b7fc4e1df4952dc60d5bb87ac41461f223bc08e05506be88ef67a63471f4518e8a13389604051808373ffffffffffffffffffffffffffffffffffffffff1673ffffffffffffffffffffffffffffffffffffffff1681526020018281526020019250505060405180910390a16115b2565b60006113f660646113e8600a546113da8a8a61434690919063ffffffff16565b6143d590919063ffffffff16565b61434690919063ffffffff16565b9050600061140f6103e88361434690919063ffffffff16565b905061141b818b61445b565b81600260003373ffffffffffffffffffffffffffffffffffffffff1673ffffffffffffffffffffffffffffffffffffffff16815260200190815260200160002060008c81526020019081526020016000206003018190555080600260003373ffffffffffffffffffffffffffffffffffffffff1673ffffffffffffffffffffffffffffffffffffffff16815260200190815260200160002060008c8152602001908152602001600020600401819055506003600082815260200190815260200160002054600260003373ffffffffffffffffffffffffffffffffffffffff1673ffffffffffffffffffffffffffffffffffffffff16815260200190815260200160002060008c81526020019081526020016000206005018190555086600260003373ffffffffffffffffffffffffffffffffffffffff1673ffffffffffffffffffffffffffffffffffffffff16815260200190815260200160002060008c8152602001908152602001600020600001819055506115a68b600660010154614be090919063ffffffff16565b60066001018190555050505b8573ffffffffffffffffffffffffffffffffffffffff1663a9059cbb338b6040518363ffffffff167c0100000000000000000000000000000000000000000000000000000000028152600401808373ffffffffffffffffffffffffffffffffffffffff1673ffffffffffffffffffffffffffffffffffffffff16815260200182815260200192505050602060405180830381600087803b15801561165557600080fd5b505af1158015611669573d6000803e3d6000fd5b505050506040513d602081101561167f57600080fd5b810190808051906020019092919050505061169657fe5b6001965050505050505092915050565b6000600560009054906101000a900473ffffffffffffffffffffffffffffffffffffffff1673ffffffffffffffffffffffffffffffffffffffff1663a0b9f0e16040518163ffffffff167c010000000000000000000000000000000000000000000000000000000002815260040160206040518083038186803b15801561172c57600080fd5b505afa158015611740573d6000803e3d6000fd5b505050506040513d602081101561175657600080fd5b8101908080519060200190929190505050156117da576040517f08c379a00000000000000000000000000000000000000000000000000000000081526004018080602001828103825260108152602001807f5061757361626c653a207061757365640000000000000000000000000000000081525060200191505060405180910390fd5b600560009054906101000a900473ffffffffffffffffffffffffffffffffffffffff1673ffffffffffffffffffffffffffffffffffffffff16632ee8c2fa6040518163ffffffff167c010000000000000000000000000000000000000000000000000000000002815260040160e06040518083038186803b15801561185e57600080fd5b505afa158015611872573d6000803e3d6000fd5b505050506040513d601f19601f8201168201806040525060e081101561189757600080fd5b81019080919050506003600781106118ab57fe5b602002015173ffffffffffffffffffffffffffffffffffffffff163373ffffffffffffffffffffffffffffffffffffffff16146118e757600080fd5b816009819055507fc04ab144c3f6fd32b71825eb92c20af3c8b2f2b6680dfaf3645b527f098c245b826040518082815260200191505060405180910390a160019050919050565b6119366122c4565b6119a8576040517f08c379a00000000000000000000000000000000000000000000000000000000081526004018080602001828103825260208152602001807f4f776e61626c653a2063616c6c6572206973206e6f7420746865206f776e657281525060200191505060405180910390fd5b600073ffffffffffffffffffffffffffffffffffffffff166000809054906101000a900473ffffffffffffffffffffffffffffffffffffffff1673ffffffffffffffffffffffffffffffffffffffff167f8be0079c531659141344cd1fd0a4f28419497f9722a3daafe3b4186f6b6457e060405160405180910390a360008060006101000a81548173ffffffffffffffffffffffffffffffffffffffff021916908373ffffffffffffffffffffffffffffffffffffffff160217905550565b600b5481565b6000600560009054906101000a900473ffffffffffffffffffffffffffffffffffffffff1673ffffffffffffffffffffffffffffffffffffffff1663a0b9f0e16040518163ffffffff167c010000000000000000000000000000000000000000000000000000000002815260040160206040518083038186803b158015611af357600080fd5b505afa158015611b07573d6000803e3d6000fd5b505050506040513d6020811015611b1d57600080fd5b810190808051906020019092919050505015611ba1576040517f08c379a00000000000000000000000000000000000000000000000000000000081526004018080602001828103825260108152602001807f5061757361626c653a207061757365640000000000000000000000000000000081525060200191505060405180910390fd5b6000600560009054906101000a900473ffffffffffffffffffffffffffffffffffffffff1673ffffffffffffffffffffffffffffffffffffffff16632ee8c2fa6040518163ffffffff167c010000000000000000000000000000000000000000000000000000000002815260040160e06040518083038186803b158015611c2757600080fd5b505afa158015611c3b573d6000803e3d6000fd5b505050506040513d601f19601f8201168201806040525060e0811015611c6057600080fd5b8101908091905050600260078110611c7457fe5b602002015190506000611ce385600260003373ffffffffffffffffffffffffffffffffffffffff1673ffffffffffffffffffffffffffffffffffffffff1681526020019081526020016000206000878152602001908152602001600020600101546155e690919063ffffffff16565b90506000600260003373ffffffffffffffffffffffffffffffffffffffff1673ffffffffffffffffffffffffffffffffffffffff16815260200190815260200160002060008681526020019081526020016000206000015490506000611d796064611d6b600a54611d5d868861434690919063ffffffff16565b6143d590919063ffffffff16565b61434690919063ffffffff16565b90506000600260003373ffffffffffffffffffffffffffffffffffffffff1673ffffffffffffffffffffffffffffffffffffffff16815260200190815260200160002060008881526020019081526020016000206004015490506000600260003373ffffffffffffffffffffffffffffffffffffffff1673ffffffffffffffffffffffffffffffffffffffff16815260200190815260200160002060008981526020019081526020016000206005015490506000600360008481526020019081526020016000205490506000611e5a6103e88661434690919063ffffffff16565b905060008711611ed2576040517f08c379a00000000000000000000000000000000000000000000000000000000081526004018080602001828103825260118152602001807f6e6f7420656e6f75676820746f6b656e7300000000000000000000000000000081525060200191505060405180910390fd5b8460095411611f49576040517f08c379a00000000000000000000000000000000000000000000000000000000081526004018080602001828103825260158152602001807f6e6f7420656e6f75676820636f6c6c61746572616c000000000000000000000081525060200191505060405180910390fd5b611f53338b614c69565b611f6b8b6006600201546155e690919063ffffffff16565b600660020181905550611f7f848484614e84565b611f89818b61445b565b84600260003373ffffffffffffffffffffffffffffffffffffffff1673ffffffffffffffffffffffffffffffffffffffff16815260200190815260200160002060008c81526020019081526020016000206003018190555086600260003373ffffffffffffffffffffffffffffffffffffffff1673ffffffffffffffffffffffffffffffffffffffff16815260200190815260200160002060008c81526020019081526020016000206001018190555080600260003373ffffffffffffffffffffffffffffffffffffffff1673ffffffffffffffffffffffffffffffffffffffff16815260200190815260200160002060008c8152602001908152602001600020600401819055506003600082815260200190815260200160002054600260003373ffffffffffffffffffffffffffffffffffffffff1673ffffffffffffffffffffffffffffffffffffffff16815260200190815260200160002060008c81526020019081526020016000206005018190555043600260003373ffffffffffffffffffffffffffffffffffffffff1673ffffffffffffffffffffffffffffffffffffffff16815260200190815260200160002060008c8152602001908152602001600020600601819055508773ffffffffffffffffffffffffffffffffffffffff166340c10f19338d6040518363ffffffff167c0100000000000000000000000000000000000000000000000000000000028152600401808373ffffffffffffffffffffffffffffffffffffffff1673ffffffffffffffffffffffffffffffffffffffff16815260200182815260200192505050602060405180830381600087803b1580156121f757600080fd5b505af115801561220b573d6000803e3d6000fd5b505050506040513d602081101561222157600080fd5b810190808051906020019092919050505061223857fe5b60019850505050505050505092915050565b6004602052816000526040600020602052806000526040600020600091509150508060000154908060010160009054906101000a900473ffffffffffffffffffffffffffffffffffffffff16905082565b60008060009054906101000a900473ffffffffffffffffffffffffffffffffffffffff16905090565b60008060009054906101000a900473ffffffffffffffffffffffffffffffffffffffff1673ffffffffffffffffffffffffffffffffffffffff163373ffffffffffffffffffffffffffffffffffffffff1614905090565b6000600560009054906101000a900473ffffffffffffffffffffffffffffffffffffffff1673ffffffffffffffffffffffffffffffffffffffff1663a0b9f0e16040518163ffffffff167c010000000000000000000000000000000000000000000000000000000002815260040160206040518083038186803b1580156123a157600080fd5b505afa1580156123b5573d6000803e3d6000fd5b505050506040513d60208110156123cb57600080fd5b81019080805190602001909291905050501561244f576040517f08c379a00000000000000000000000000000000000000000000000000000000081526004018080602001828103825260108152602001807f5061757361626c653a207061757365640000000000000000000000000000000081525060200191505060405180910390fd5b6000600260003373ffffffffffffffffffffffffffffffffffffffff1673ffffffffffffffffffffffffffffffffffffffff168152602001908152602001600020600084815260200190815260200160002060000154116124fb576040517f08c379a0000000000000000000000000000000000000000000000000000000008152600401808060200182810382526021815260200180615ee46021913960400191505060405180910390fd5b6000600560009054906101000a900473ffffffffffffffffffffffffffffffffffffffff1673ffffffffffffffffffffffffffffffffffffffff16632ee8c2fa6040518163ffffffff167c010000000000000000000000000000000000000000000000000000000002815260040160e06040518083038186803b15801561258157600080fd5b505afa158015612595573d6000803e3d6000fd5b505050506040513d601f19601f8201168201806040525060e08110156125ba57600080fd5b81019080919050506002600781106125ce57fe5b60200201519050600061263d34600260003373ffffffffffffffffffffffffffffffffffffffff1673ffffffffffffffffffffffffffffffffffffffff1681526020019081526020016000206000878152602001908152602001600020600001546155e690919063ffffffff16565b90506000600260003373ffffffffffffffffffffffffffffffffffffffff1673ffffffffffffffffffffffffffffffffffffffff168152602001908152602001600020600086815260200190815260200160002060010154905060006126d360646126c5600a546126b7878761434690919063ffffffff16565b6143d590919063ffffffff16565b61434690919063ffffffff16565b90506000600260003373ffffffffffffffffffffffffffffffffffffffff1673ffffffffffffffffffffffffffffffffffffffff16815260200190815260200160002060008881526020019081526020016000206004015490506000600260003373ffffffffffffffffffffffffffffffffffffffff1673ffffffffffffffffffffffffffffffffffffffff168152602001908152602001600020600089815260200190815260200160002060050154905060006003600084815260200190815260200160002054905060006127b46103e88661434690919063ffffffff16565b90506127c0338b614c69565b6127d8346006600101546155e690919063ffffffff16565b6006600101819055506127ec848484614e84565b6127f6818b61445b565b84600260003373ffffffffffffffffffffffffffffffffffffffff1673ffffffffffffffffffffffffffffffffffffffff16815260200190815260200160002060008c8152602001908152602001600020600301819055506128b434600260003373ffffffffffffffffffffffffffffffffffffffff1673ffffffffffffffffffffffffffffffffffffffff16815260200190815260200160002060008d8152602001908152602001600020600001546155e690919063ffffffff16565b600260003373ffffffffffffffffffffffffffffffffffffffff1673ffffffffffffffffffffffffffffffffffffffff16815260200190815260200160002060008c81526020019081526020016000206000018190555080600260003373ffffffffffffffffffffffffffffffffffffffff1673ffffffffffffffffffffffffffffffffffffffff16815260200190815260200160002060008c8152602001908152602001600020600401819055506003600082815260200190815260200160002054600260003373ffffffffffffffffffffffffffffffffffffffff1673ffffffffffffffffffffffffffffffffffffffff16815260200190815260200160002060008c8152602001908152602001600020600501819055508773ffffffffffffffffffffffffffffffffffffffff166108fc349081150290604051600060405180830381858888f19350505050158015612a14573d6000803e3d6000fd5b50600198505050505050505050919050565b60036020528060005260406000206000915090505481565b6000600560009054906101000a900473ffffffffffffffffffffffffffffffffffffffff1673ffffffffffffffffffffffffffffffffffffffff1663a0b9f0e16040518163ffffffff167c010000000000000000000000000000000000000000000000000000000002815260040160206040518083038186803b158015612ac457600080fd5b505afa158015612ad8573d6000803e3d6000fd5b505050506040513d6020811015612aee57600080fd5b810190808051906020019092919050505015612b72576040517f08c379a00000000000000000000000000000000000000000000000000000000081526004018080602001828103825260108152602001807f5061757361626c653a207061757365640000000000000000000000000000000081525060200191505060405180910390fd5b612b7c3383614c69565b612b8733848461566e565b7f204f9e99011ae31c4c782355672297ed6532e9ca30f9c825943e82a205dd15e4338484604051808473ffffffffffffffffffffffffffffffffffffffff1673ffffffffffffffffffffffffffffffffffffffff1681526020018373ffffffffffffffffffffffffffffffffffffffff1673ffffffffffffffffffffffffffffffffffffffff168152602001828152602001935050505060405180910390a16001905092915050565b6002602052816000526040600020602052806000526040600020600091509150508060000154908060010154908060020160009054906101000a900460ff16908060030154908060040154908060050154908060060154905087565b6000612c966122c4565b612d08576040517f08c379a00000000000000000000000000000000000000000000000000000000081526004018080602001828103825260208152602001807f4f776e61626c653a2063616c6c6572206973206e6f7420746865206f776e657281525060200191505060405180910390fd5b60001515600560149054906101000a900460ff16151514612d2857600080fd5b600073ffffffffffffffffffffffffffffffffffffffff168273ffffffffffffffffffffffffffffffffffffffff161415612d6257600080fd5b81600560006101000a81548173ffffffffffffffffffffffffffffffffffffffff021916908373ffffffffffffffffffffffffffffffffffffffff1602179055506096600a81905550606e600b819055506001600560146101000a81548160ff02191690831515021790555060019050919050565b600a5481565b6000612de93383614c69565b60019050919050565b6000600560009054906101000a900473ffffffffffffffffffffffffffffffffffffffff1673ffffffffffffffffffffffffffffffffffffffff1663a0b9f0e16040518163ffffffff167c010000000000000000000000000000000000000000000000000000000002815260040160206040518083038186803b158015612e7857600080fd5b505afa158015612e8c573d6000803e3d6000fd5b505050506040513d6020811015612ea257600080fd5b810190808051906020019092919050505015612f26576040517f08c379a00000000000000000000000000000000000000000000000000000000081526004018080602001828103825260108152602001807f5061757361626c653a207061757365640000000000000000000000000000000081525060200191505060405180910390fd5b6000600560009054906101000a900473ffffffffffffffffffffffffffffffffffffffff1673ffffffffffffffffffffffffffffffffffffffff16632ee8c2fa6040518163ffffffff167c010000000000000000000000000000000000000000000000000000000002815260040160e06040518083038186803b158015612fac57600080fd5b505afa158015612fc0573d6000803e3d6000fd5b505050506040513d601f19601f8201168201806040525060e0811015612fe557600080fd5b8101908091905050600260078110612ff957fe5b602002015190506000600560009054906101000a900473ffffffffffffffffffffffffffffffffffffffff1673ffffffffffffffffffffffffffffffffffffffff16632ee8c2fa6040518163ffffffff167c010000000000000000000000000000000000000000000000000000000002815260040160e06040518083038186803b15801561308657600080fd5b505afa15801561309a573d6000803e3d6000fd5b505050506040513d601f19601f8201168201806040525060e08110156130bf57600080fd5b81019080919050506000600781106130d357fe5b60200201519050600061314286600260003373ffffffffffffffffffffffffffffffffffffffff1673ffffffffffffffffffffffffffffffffffffffff168152602001908152602001600020600088815260200190815260200160002060010154614be090919063ffffffff16565b90506000600260003373ffffffffffffffffffffffffffffffffffffffff1673ffffffffffffffffffffffffffffffffffffffff168152602001908152602001600020600087815260200190815260200160002060000154905060006131d860646131ca600a546131bc868861434690919063ffffffff16565b6143d590919063ffffffff16565b61434690919063ffffffff16565b90506000600260003373ffffffffffffffffffffffffffffffffffffffff1673ffffffffffffffffffffffffffffffffffffffff16815260200190815260200160002060008981526020019081526020016000206004015490506000600260003373ffffffffffffffffffffffffffffffffffffffff1673ffffffffffffffffffffffffffffffffffffffff16815260200190815260200160002060008a815260200190815260200160002060050154905060006003600084815260200190815260200160002054905060006132b96103e88661434690919063ffffffff16565b90508b8873ffffffffffffffffffffffffffffffffffffffff166370a08231336040518263ffffffff167c0100000000000000000000000000000000000000000000000000000000028152600401808273ffffffffffffffffffffffffffffffffffffffff1673ffffffffffffffffffffffffffffffffffffffff16815260200191505060206040518083038186803b15801561335557600080fd5b505afa158015613369573d6000803e3d6000fd5b505050506040513d602081101561337f57600080fd5b8101908080519060200190929190505050101561339b57600080fd5b8460095411613412576040517f08c379a00000000000000000000000000000000000000000000000000000000081526004018080602001828103825260158152602001807f6e6f7420656e6f75676820636f6c6c61746572616c000000000000000000000081525060200191505060405180910390fd5b61341c338c614c69565b6134348c600660020154614be090919063ffffffff16565b600660020181905550613448848484614e84565b613452818c61445b565b84600260003373ffffffffffffffffffffffffffffffffffffffff1673ffffffffffffffffffffffffffffffffffffffff16815260200190815260200160002060008d81526020019081526020016000206003018190555086600260003373ffffffffffffffffffffffffffffffffffffffff1673ffffffffffffffffffffffffffffffffffffffff16815260200190815260200160002060008d81526020019081526020016000206001018190555080600260003373ffffffffffffffffffffffffffffffffffffffff1673ffffffffffffffffffffffffffffffffffffffff16815260200190815260200160002060008d8152602001908152602001600020600401819055506003600082815260200190815260200160002054600260003373ffffffffffffffffffffffffffffffffffffffff1673ffffffffffffffffffffffffffffffffffffffff16815260200190815260200160002060008d81526020019081526020016000206005018190555043600260003373ffffffffffffffffffffffffffffffffffffffff1673ffffffffffffffffffffffffffffffffffffffff16815260200190815260200160002060008d8152602001908152602001600020600601819055508873ffffffffffffffffffffffffffffffffffffffff16639dc29fac338e6040518363ffffffff167c0100000000000000000000000000000000000000000000000000000000028152600401808373ffffffffffffffffffffffffffffffffffffffff1673ffffffffffffffffffffffffffffffffffffffff16815260200182815260200192505050602060405180830381600087803b1580156136c057600080fd5b505af11580156136d4573d6000803e3d6000fd5b505050506040513d60208110156136ea57600080fd5b810190808051906020019092919050505061370157fe5b6001995050505050505050505092915050565b600560009054906101000a900473ffffffffffffffffffffffffffffffffffffffff1681565b6137426122c4565b6137b4576040517f08c379a00000000000000000000000000000000000000000000000000000000081526004018080602001828103825260208152602001807f4f776e61626c653a2063616c6c6572206973206e6f7420746865206f776e657281525060200191505060405180910390fd5b6137bd81615cde565b50565b6000600560009054906101000a900473ffffffffffffffffffffffffffffffffffffffff1673ffffffffffffffffffffffffffffffffffffffff1663a0b9f0e16040518163ffffffff167c010000000000000000000000000000000000000000000000000000000002815260040160206040518083038186803b15801561384657600080fd5b505afa15801561385a573d6000803e3d6000fd5b505050506040513d602081101561387057600080fd5b8101908080519060200190929190505050156138f4576040517f08c379a00000000000000000000000000000000000000000000000000000000081526004018080602001828103825260108152602001807f5061757361626c653a207061757365640000000000000000000000000000000081525060200191505060405180910390fd5b6000600560009054906101000a900473ffffffffffffffffffffffffffffffffffffffff1673ffffffffffffffffffffffffffffffffffffffff16632ee8c2fa6040518163ffffffff167c010000000000000000000000000000000000000000000000000000000002815260040160e06040518083038186803b15801561397a57600080fd5b505afa15801561398e573d6000803e3d6000fd5b505050506040513d601f19601f8201168201806040525060e08110156139b357600080fd5b81019080919050506002600781106139c757fe5b602002015190506000600560009054906101000a900473ffffffffffffffffffffffffffffffffffffffff1673ffffffffffffffffffffffffffffffffffffffff16632ee8c2fa6040518163ffffffff167c010000000000000000000000000000000000000000000000000000000002815260040160e06040518083038186803b158015613a5457600080fd5b505afa158015613a68573d6000803e3d6000fd5b505050506040513d601f19601f8201168201806040525060e0811015613a8d57600080fd5b8101908091905050600060078110613aa157fe5b602002015190506000600260008773ffffffffffffffffffffffffffffffffffffffff1673ffffffffffffffffffffffffffffffffffffffff16815260200190815260200160002060008681526020019081526020016000206000015490506000600260008873ffffffffffffffffffffffffffffffffffffffff1673ffffffffffffffffffffffffffffffffffffffff16815260200190815260200160002060008781526020019081526020016000206001015490506000600260008973ffffffffffffffffffffffffffffffffffffffff1673ffffffffffffffffffffffffffffffffffffffff16815260200190815260200160002060008881526020019081526020016000206004015490506000600260008a73ffffffffffffffffffffffffffffffffffffffff1673ffffffffffffffffffffffffffffffffffffffff1681526020019081526020016000206000898152602001908152602001600020600501549050600060036000848152602001908152602001600020549050600954600260008c73ffffffffffffffffffffffffffffffffffffffff1673ffffffffffffffffffffffffffffffffffffffff16815260200190815260200160002060008b8152602001908152602001600020600301541015613ceb576040517f08c379a00000000000000000000000000000000000000000000000000000000081526004018080602001828103825260168152602001807f61626f7665206c69717569646174696f6e20726174650000000000000000000081525060200191505060405180910390fd5b613d136064613d05600b54876143d590919063ffffffff16565b61434690919063ffffffff16565b613d28600954876143d590919063ffffffff16565b106140aa576000613d6b6064613d5d600b54613d4f6009548a61434690919063ffffffff16565b6143d590919063ffffffff16565b61434690919063ffffffff16565b90506000613d828288614be090919063ffffffff16565b9050858873ffffffffffffffffffffffffffffffffffffffff166370a08231336040518263ffffffff167c0100000000000000000000000000000000000000000000000000000000028152600401808273ffffffffffffffffffffffffffffffffffffffff1673ffffffffffffffffffffffffffffffffffffffff16815260200191505060206040518083038186803b158015613e1e57600080fd5b505afa158015613e32573d6000803e3d6000fd5b505050506040513d6020811015613e4857600080fd5b81019080805190602001909291905050501015613eb0576040517f08c379a0000000000000000000000000000000000000000000000000000000008152600401808060200182810382526026815260200180615f4b6026913960400191505060405180910390fd5b613eba8c8c614c69565b613ec58b8888615090565b613ed0858585614e84565b8873ffffffffffffffffffffffffffffffffffffffff1663a9059cbb33846040518363ffffffff167c0100000000000000000000000000000000000000000000000000000000028152600401808373ffffffffffffffffffffffffffffffffffffffff1673ffffffffffffffffffffffffffffffffffffffff16815260200182815260200192505050602060405180830381600087803b158015613f7357600080fd5b505af1158015613f87573d6000803e3d6000fd5b505050506040513d6020811015613f9d57600080fd5b8101908080519060200190929190505050613fb457fe5b8873ffffffffffffffffffffffffffffffffffffffff1663a9059cbb8d836040518363ffffffff167c0100000000000000000000000000000000000000000000000000000000028152600401808373ffffffffffffffffffffffffffffffffffffffff1673ffffffffffffffffffffffffffffffffffffffff16815260200182815260200192505050602060405180830381600087803b15801561405757600080fd5b505af115801561406b573d6000803e3d6000fd5b505050506040513d602081101561408157600080fd5b810190808051906020019092919050505061409857fe5b60019950505050505050505050614340565b60006140e8600b546140da60646140cc6009548b6143d590919063ffffffff16565b6143d590919063ffffffff16565b61434690919063ffffffff16565b9050808773ffffffffffffffffffffffffffffffffffffffff166370a08231336040518263ffffffff167c0100000000000000000000000000000000000000000000000000000000028152600401808273ffffffffffffffffffffffffffffffffffffffff1673ffffffffffffffffffffffffffffffffffffffff16815260200191505060206040518083038186803b15801561418457600080fd5b505afa158015614198573d6000803e3d6000fd5b505050506040513d60208110156141ae57600080fd5b81019080805190602001909291905050501015614216576040517f08c379a0000000000000000000000000000000000000000000000000000000008152600401808060200182810382526026815260200180615ebe6026913960400191505060405180910390fd5b6142298186614be090919063ffffffff16565b600c819055506142398b8b614c69565b6142448a8787615090565b61424f848484614e84565b8773ffffffffffffffffffffffffffffffffffffffff1663a9059cbb33886040518363ffffffff167c0100000000000000000000000000000000000000000000000000000000028152600401808373ffffffffffffffffffffffffffffffffffffffff1673ffffffffffffffffffffffffffffffffffffffff16815260200182815260200192505050602060405180830381600087803b1580156142f257600080fd5b505af1158015614306573d6000803e3d6000fd5b505050506040513d602081101561431c57600080fd5b810190808051906020019092919050505061433357fe5b6000985050505050505050505b92915050565b60008082116143bd576040517f08c379a000000000000000000000000000000000000000000000000000000000815260040180806020018281038252601a8152602001807f536166654d6174683a206469766973696f6e206279207a65726f00000000000081525060200191505060405180910390fd5b60008284816143c857fe5b0490508091505092915050565b6000808314156143e85760009050614455565b60008284029050828482816143f957fe5b0414614450576040517f08c379a0000000000000000000000000000000000000000000000000000000008152600401808060200182810382526021815260200180615f056021913960400191505060405180910390fd5b809150505b92915050565b614482600160036000858152602001908152602001600020546155e690919063ffffffff16565b6003600084815260200190815260200160002081905550806004600084815260200190815260200160002060006003600086815260200190815260200160002054815260200190815260200160002060000181905550336004600084815260200190815260200160002060006003600086815260200190815260200160002054815260200190815260200160002060010160006101000a81548173ffffffffffffffffffffffffffffffffffffffff021916908373ffffffffffffffffffffffffffffffffffffffff1602179055505050565b6000600560009054906101000a900473ffffffffffffffffffffffffffffffffffffffff1673ffffffffffffffffffffffffffffffffffffffff16632ee8c2fa6040518163ffffffff167c010000000000000000000000000000000000000000000000000000000002815260040160e06040518083038186803b1580156145db57600080fd5b505afa1580156145ef573d6000803e3d6000fd5b505050506040513d601f19601f8201168201806040525060e081101561461457600080fd5b810190809190505060026007811061462857fe5b602002015190506000600560009054906101000a900473ffffffffffffffffffffffffffffffffffffffff1673ffffffffffffffffffffffffffffffffffffffff16632ee8c2fa6040518163ffffffff167c010000000000000000000000000000000000000000000000000000000002815260040160e06040518083038186803b1580156146b557600080fd5b505afa1580156146c9573d6000803e3d6000fd5b505050506040513d601f19601f8201168201806040525060e08110156146ee57600080fd5b810190809190505060026007811061470257fe5b60200201519050614732600a546147246009548861434690919063ffffffff16565b6143d590919063ffffffff16565b6147466064346143d590919063ffffffff16565b116147b9576040517f08c379a00000000000000000000000000000000000000000000000000000000081526004018080602001828103825260158152602001807f6e6f7420656e6f75676820636f6c6c61746572616c000000000000000000000081525060200191505060405180910390fd5b60405180606001604052806147dd60016006600001546155e690919063ffffffff16565b81526020016147fa346006600101546155e690919063ffffffff16565b8152602001614817876006600201546155e690919063ffffffff16565b815250600660008201518160000155602082015181600101556040820151816002015590505060018060003373ffffffffffffffffffffffffffffffffffffffff1673ffffffffffffffffffffffffffffffffffffffff1681526020019081526020016000206000828254019250508190555034600260003373ffffffffffffffffffffffffffffffffffffffff1673ffffffffffffffffffffffffffffffffffffffff16815260200190815260200160002060008881526020019081526020016000206000018190555083600260003373ffffffffffffffffffffffffffffffffffffffff1673ffffffffffffffffffffffffffffffffffffffff16815260200190815260200160002060008881526020019081526020016000206003018190555084600260003373ffffffffffffffffffffffffffffffffffffffff1673ffffffffffffffffffffffffffffffffffffffff16815260200190815260200160002060008881526020019081526020016000206001018190555082600260003373ffffffffffffffffffffffffffffffffffffffff1673ffffffffffffffffffffffffffffffffffffffff1681526020019081526020016000206000888152602001908152602001600020600401819055506003600084815260200190815260200160002054600260003373ffffffffffffffffffffffffffffffffffffffff1673ffffffffffffffffffffffffffffffffffffffff16815260200190815260200160002060008881526020019081526020016000206005018190555043600260003373ffffffffffffffffffffffffffffffffffffffff1673ffffffffffffffffffffffffffffffffffffffff1681526020019081526020016000206000888152602001908152602001600020600601819055508073ffffffffffffffffffffffffffffffffffffffff166108fc349081150290604051600060405180830381858888f19350505050158015614af3573d6000803e3d6000fd5b508173ffffffffffffffffffffffffffffffffffffffff166340c10f1933876040518363ffffffff167c0100000000000000000000000000000000000000000000000000000000028152600401808373ffffffffffffffffffffffffffffffffffffffff1673ffffffffffffffffffffffffffffffffffffffff16815260200182815260200192505050602060405180830381600087803b158015614b9757600080fd5b505af1158015614bab573d6000803e3d6000fd5b505050506040513d6020811015614bc157600080fd5b8101908080519060200190929190505050614bd857fe5b505050505050565b600082821115614c58576040517f08c379a000000000000000000000000000000000000000000000000000000000815260040180806020018281038252601e8152602001807f536166654d6174683a207375627472616374696f6e206f766572666c6f77000081525060200191505060405180910390fd5b600082840390508091505092915050565b6000600560009054906101000a900473ffffffffffffffffffffffffffffffffffffffff1673ffffffffffffffffffffffffffffffffffffffff16632ee8c2fa6040518163ffffffff167c010000000000000000000000000000000000000000000000000000000002815260040160e06040518083038186803b158015614cef57600080fd5b505afa158015614d03573d6000803e3d6000fd5b505050506040513d601f19601f8201168201806040525060e0811015614d2857600080fd5b8101908091905050600460078110614d3c57fe5b6020020151905043600260008573ffffffffffffffffffffffffffffffffffffffff1673ffffffffffffffffffffffffffffffffffffffff1681526020019081526020016000206000848152602001908152602001600020600601819055508073ffffffffffffffffffffffffffffffffffffffff166368a7e30b84846040518363ffffffff167c0100000000000000000000000000000000000000000000000000000000028152600401808373ffffffffffffffffffffffffffffffffffffffff1673ffffffffffffffffffffffffffffffffffffffff16815260200182815260200192505050602060405180830381600087803b158015614e3e57600080fd5b505af1158015614e52573d6000803e3d6000fd5b505050506040513d6020811015614e6857600080fd5b8101908080519060200190929190505050614e7f57fe5b505050565b614e8c615e44565b600460008581526020019081526020016000206000838152602001908152602001600020604051806040016040529081600082015481526020016001820160009054906101000a900473ffffffffffffffffffffffffffffffffffffffff1673ffffffffffffffffffffffffffffffffffffffff1673ffffffffffffffffffffffffffffffffffffffff16815250509050614f4460016003600087815260200190815260200160002054614be090919063ffffffff16565b6003600086815260200190815260200160002081905550806004600086815260200190815260200160002060008581526020019081526020016000206000820151816000015560208201518160010160006101000a81548173ffffffffffffffffffffffffffffffffffffffff021916908373ffffffffffffffffffffffffffffffffffffffff1602179055509050506004600085815260200190815260200160002060008381526020019081526020016000206000808201600090556001820160006101000a81549073ffffffffffffffffffffffffffffffffffffffff021916905550508260026000836020015173ffffffffffffffffffffffffffffffffffffffff1673ffffffffffffffffffffffffffffffffffffffff1681526020019081526020016000206000836000015181526020019081526020016000206005018190555050505050565b6000600560009054906101000a900473ffffffffffffffffffffffffffffffffffffffff1673ffffffffffffffffffffffffffffffffffffffff16632ee8c2fa6040518163ffffffff167c010000000000000000000000000000000000000000000000000000000002815260040160e06040518083038186803b15801561511657600080fd5b505afa15801561512a573d6000803e3d6000fd5b505050506040513d601f19601f8201168201806040525060e081101561514f57600080fd5b810190809190505060026007811061516357fe5b602002015190506000600560009054906101000a900473ffffffffffffffffffffffffffffffffffffffff1673ffffffffffffffffffffffffffffffffffffffff16632ee8c2fa6040518163ffffffff167c010000000000000000000000000000000000000000000000000000000002815260040160e06040518083038186803b1580156151f057600080fd5b505afa158015615204573d6000803e3d6000fd5b505050506040513d601f19601f8201168201806040525060e081101561522957600080fd5b810190809190505060006007811061523d57fe5b60200201519050828173ffffffffffffffffffffffffffffffffffffffff166370a08231336040518263ffffffff167c0100000000000000000000000000000000000000000000000000000000028152600401808273ffffffffffffffffffffffffffffffffffffffff1673ffffffffffffffffffffffffffffffffffffffff16815260200191505060206040518083038186803b1580156152de57600080fd5b505afa1580156152f2573d6000803e3d6000fd5b505050506040513d602081101561530857600080fd5b8101908080519060200190929190505050101561538d576040517f08c379a00000000000000000000000000000000000000000000000000000000081526004018080602001828103825260118152602001807f6e6f7420656e6f75676820746f6b656e7300000000000000000000000000000081525060200191505060405180910390fd5b60405180606001604052806153b16001600660000154614be090919063ffffffff16565b81526020016153ce86600660010154614be090919063ffffffff16565b81526020016153eb85600660020154614be090919063ffffffff16565b81525060066000820151816000015560208201518160010155604082015181600201559050506040518060e00160405280600081526020016000815260200160011515815260200160008152602001600081526020016000815260200143815250600260003373ffffffffffffffffffffffffffffffffffffffff1673ffffffffffffffffffffffffffffffffffffffff1681526020019081526020016000206000878152602001908152602001600020600082015181600001556020820151816001015560408201518160020160006101000a81548160ff021916908315150217905550606082015181600301556080820151816004015560a0820151816005015560c082015181600601559050508173ffffffffffffffffffffffffffffffffffffffff16639dc29fac33856040518363ffffffff167c0100000000000000000000000000000000000000000000000000000000028152600401808373ffffffffffffffffffffffffffffffffffffffff1673ffffffffffffffffffffffffffffffffffffffff16815260200182815260200192505050602060405180830381600087803b15801561559e57600080fd5b505af11580156155b2573d6000803e3d6000fd5b505050506040513d60208110156155c857600080fd5b81019080805190602001909291905050506155df57fe5b5050505050565b600080828401905083811015615664576040517f08c379a000000000000000000000000000000000000000000000000000000000815260040180806020018281038252601b8152602001807f536166654d6174683a206164646974696f6e206f766572666c6f77000000000081525060200191505060405180910390fd5b8091505092915050565b6000600260008573ffffffffffffffffffffffffffffffffffffffff1673ffffffffffffffffffffffffffffffffffffffff16815260200190815260200160002060008381526020019081526020016000206000015490506000600260008673ffffffffffffffffffffffffffffffffffffffff1673ffffffffffffffffffffffffffffffffffffffff16815260200190815260200160002060008481526020019081526020016000206001015490506000600260008773ffffffffffffffffffffffffffffffffffffffff1673ffffffffffffffffffffffffffffffffffffffff16815260200190815260200160002060008581526020019081526020016000206003015490506000600260008873ffffffffffffffffffffffffffffffffffffffff1673ffffffffffffffffffffffffffffffffffffffff16815260200190815260200160002060008681526020019081526020016000206004015490506000600260008973ffffffffffffffffffffffffffffffffffffffff1673ffffffffffffffffffffffffffffffffffffffff16815260200190815260200160002060008781526020019081526020016000206005015490506000600160008973ffffffffffffffffffffffffffffffffffffffff1673ffffffffffffffffffffffffffffffffffffffff16815260200190815260200160002054905060001515600260008b73ffffffffffffffffffffffffffffffffffffffff1673ffffffffffffffffffffffffffffffffffffffff168152602001908152602001600020600089815260200190815260200160002060020160009054906101000a900460ff16151514615944576040517f08c379a000000000000000000000000000000000000000000000000000000000815260040180806020018281038252600c8152602001807f435020697320636c6f736564000000000000000000000000000000000000000081525060200191505060405180910390fd5b600073ffffffffffffffffffffffffffffffffffffffff168973ffffffffffffffffffffffffffffffffffffffff1614156159ca576040517f08c379a0000000000000000000000000000000000000000000000000000000008152600401808060200182810382526025815260200180615f266025913960400191505060405180910390fd5b600073ffffffffffffffffffffffffffffffffffffffff168873ffffffffffffffffffffffffffffffffffffffff161415615a50576040517f08c379a0000000000000000000000000000000000000000000000000000000008152600401808060200182810382526023815260200180615e756023913960400191505060405180910390fd5b8760046000858152602001908152602001600020600084815260200190815260200160002060010160006101000a81548173ffffffffffffffffffffffffffffffffffffffff021916908373ffffffffffffffffffffffffffffffffffffffff1602179055506040518060e0016040528060008152602001600081526020016001151581526020016000815260200160008152602001600081526020016000815250600260008b73ffffffffffffffffffffffffffffffffffffffff1673ffffffffffffffffffffffffffffffffffffffff1681526020019081526020016000206000898152602001908152602001600020600082015181600001556020820151816001015560408201518160020160006101000a81548160ff021916908315150217905550606082015181600301556080820151816004015560a0820151816005015560c0820151816006015590505060018060008a73ffffffffffffffffffffffffffffffffffffffff1673ffffffffffffffffffffffffffffffffffffffff168152602001908152602001600020600082825401925050819055506040518060e0016040528087815260200186815260200160001515815260200185815260200184815260200183815260200143815250600260008a73ffffffffffffffffffffffffffffffffffffffff1673ffffffffffffffffffffffffffffffffffffffff1681526020019081526020016000206000838152602001908152602001600020600082015181600001556020820151816001015560408201518160020160006101000a81548160ff021916908315150217905550606082015181600301556080820151816004015560a0820151816005015560c08201518160060155905050505050505050505050565b600073ffffffffffffffffffffffffffffffffffffffff168173ffffffffffffffffffffffffffffffffffffffff161415615d64576040517f08c379a0000000000000000000000000000000000000000000000000000000008152600401808060200182810382526026815260200180615e986026913960400191505060405180910390fd5b8073ffffffffffffffffffffffffffffffffffffffff166000809054906101000a900473ffffffffffffffffffffffffffffffffffffffff1673ffffffffffffffffffffffffffffffffffffffff167f8be0079c531659141344cd1fd0a4f28419497f9722a3daafe3b4186f6b6457e060405160405180910390a3806000806101000a81548173ffffffffffffffffffffffffffffffffffffffff021916908373ffffffffffffffffffffffffffffffffffffffff16021790555050565b6040518060600160405280600390602082028038833980820191505090505090565b604051806040016040528060008152602001600073ffffffffffffffffffffffffffffffffffffffff168152509056fe45524332303a207472616e7366657220746f20746865207a65726f20616464726573734f776e61626c653a206e6577206f776e657220697320746865207a65726f2061646472657373436f6c6c61746572616c3a203c2031313025207c206e6f7420656e6f75676820746f6b656e736e6f7420616e2061637469766520636f6c6c61746572616c20706f736974696f6e536166654d6174683a206d756c7469706c69636174696f6e206f766572666c6f7745524332303a207472616e736665722066726f6d20746865207a65726f2061646472657373436f6c6c61746572616c3a203e2031313025207c206e6f7420656e6f75676820746f6b656e73a265627a7a723158206737a4313a7b22f409b93e10e6703e2b4064ace17ded2c41fb558a5bdbbfa83164736f6c634300050d0032",
  "source": "/** \n *  Collateral contract for the linkedFC stablecoin.\n *  This contract enables opening a collateral position\n *  and minting tokens.\n * \n */\n\npragma solidity ^0.5.0;\n \nimport \"@openzeppelin/contracts/math/SafeMath.sol\";\nimport \"@openzeppelin/contracts/ownership/Ownable.sol\";\nimport \"@openzeppelin/contracts/token/ERC20/IERC20.sol\";\n\nimport \"./LinkedIPROXY.sol\";\nimport \"./LinkedICUST.sol\";\nimport \"./LinkedITAX.sol\";\n\npragma solidity ^0.5.0;\n\ncontract LinkedCOL is Ownable {\n    using SafeMath for uint256;\n    \n    struct userCP {\n        uint256 amountETH;\n        uint256 amountToken;\n        bool closed;\n        uint256 liquidation;\n        uint256 liqrange;\n        uint256 liqid;\n        uint256 interestBlock;\n    }\n    struct overviewCP {\n        uint256 id;\n        address account;\n    }\n    struct totalData {\n        uint256 _totalCPs;\n        uint256 _supplyCPETH;\n        uint256 _supplyCPToken;\n    }\n    \n    mapping (address => uint256) public index; \n    mapping (address => mapping (uint256 => userCP)) public CP; \n    mapping (uint256 => uint256) public _LiqRange;\n    mapping (uint256 => mapping(uint256 => overviewCP)) public _LiqInfo;\n\n    //Proxy address for system contracts\n    IPROX public proxy;\n    bool public initialized;\n    //Collateral data\n    totalData public tldata;\n    uint256 public rate; \n    uint256 public minCol;\n    uint256 public liqPer;\n    uint256 public remFund;\n\n    event UpdateRate(uint256 Rate);\n    event OpenCP(address account, uint256 id);\n    event CloseCP(address account, uint256 id);\n    event TransferCP(address sender, address receiver, uint256 id);\n\n    /**\n    * Set proxy address\n    */\n    function initialize(address _proxy) onlyOwner public returns (bool success) {\n            require (initialized == false);\n            require (_proxy != address(0));\n            proxy = IPROX(_proxy);\n            minCol = 150;\n            liqPer = 110;\n            initialized = true;\n            return true;\n    }\n    \n    modifier whenNotPaused() {\n        require(!proxy.checkPause(), \"Pausable: paused\");\n        _;\n    }\n  \n    /**\n    * @dev Fallback function. Makes the contract payable.\n    */\n    function() external payable {}\n  \n    /**\n    *  @dev Updates the rate for a peg to 1 USD based on the oracle contract.\n    */\n    function updateRate(uint newRate) whenNotPaused public returns (bool success) {\n            require(msg.sender == proxy.readAddress()[3]);\n            rate = newRate;\n            emit UpdateRate(newRate);\n            return true;\n    }\n    \n    /**\n    *  @dev Check balace of individual CPs - used by tax contract\n    */\n    function individualCPdata(address account, uint256 id) public view returns (uint256[3] memory) {\n            uint256[3] memory _CPData;\n            _CPData[0] = CP[account][id].amountETH;\n            _CPData[1] = CP[account][id].amountToken;\n            _CPData[2] = CP[account][id].interestBlock;\n            return _CPData;\n    }\n       \n    /**\n    *  @dev Check variables of total CPs\n    **/\n    function dataTotalCP() public view returns (uint256[3] memory) {\n            uint256[3] memory _totalData;\n            _totalData[0] = tldata._totalCPs;\n            _totalData[1] = tldata._supplyCPETH;\n            _totalData[2] = tldata._supplyCPToken;\n            return _totalData;\n    }\n    \n    /**\n    *  @dev Open collateral position and generate tokens\n    */\n    function openCP(uint amount) whenNotPaused payable public returns (bool success) {\n            uint256 _index = index[msg.sender];\n            uint256 liq = amount.div(msg.value).mul(minCol).div(100);\n            uint256 liqGroup = liq.div(1000);\n            _liqArrayAdd(liqGroup, _index);\n            _openCP(_index, amount, liq, liqGroup);\n            emit OpenCP(msg.sender, _index);\n            return true;\n    }\n    \n    /**\n    *  @dev Transfer collateral position to new user\n    */\n    function transfer(address recipient, uint256 id) whenNotPaused public returns (bool) {\n\t\t\t_interestClaim(msg.sender, id);\n\t\t\t_transfer(msg.sender, recipient, id);\n\t\t\temit TransferCP(msg.sender, recipient, id);\n\t\t\treturn true;\n\t}\n\n    /**\n    *  @dev Deposit ETH in existing CP \n    */\n    function depositETHCP(uint id) whenNotPaused payable public returns (bool success) {\n            require(CP[msg.sender][id].amountETH > 0, \"not an active collateral position\");\n            address payable custodian = proxy.readAddress()[2];\n            uint256 newAmountETH = CP[msg.sender][id].amountETH.add(msg.value);\n            uint256 AmountTokens = CP[msg.sender][id].amountToken;\n            uint256 liq = AmountTokens.div(newAmountETH).mul(minCol).div(100);\n            uint256 liqGroup = CP[msg.sender][id].liqrange;\n            uint256 liqId = CP[msg.sender][id].liqid;\n            uint256 lastLigId = _LiqRange[liqGroup];\n            uint256 newliqGroup = liq.div(1000);\n            _interestClaim(msg.sender, id);\n            tldata._supplyCPETH = tldata._supplyCPETH.add(msg.value);\n            _liqArrayDelete(liqGroup, liqId, lastLigId);\n            _liqArrayAdd(newliqGroup, id);\n            CP[msg.sender][id].liquidation = liq;\n            CP[msg.sender][id].amountETH = CP[msg.sender][id].amountETH.add(msg.value);\n            CP[msg.sender][id].liqrange = newliqGroup;\n            CP[msg.sender][id].liqid = _LiqRange[newliqGroup];\n            custodian.transfer(msg.value);\n            return true;\n    }\n    /**\n    *  @dev Witdraw ETH from existing CP || close CP when all of ETH is withdrawn\n    */\n    function withdrawETHCP(uint256 amount, uint id) whenNotPaused payable public returns (bool success) {\n            require(CP[msg.sender][id].amountETH.sub(amount) >= 0, \"not enough collateral\");\n            ICUST custodian = ICUST(proxy.readAddress()[2]);\n            uint256 newAmountETH = CP[msg.sender][id].amountETH.sub(amount);\n            uint256 AmountTokens = CP[msg.sender][id].amountToken;\n            uint256 liqGroup = CP[msg.sender][id].liqrange;\n            uint256 liqId = CP[msg.sender][id].liqid;\n            uint256 lastLigId = _LiqRange[liqGroup];\n            _interestClaim(msg.sender, id);\n            _liqArrayDelete(liqGroup, liqId, lastLigId);\n            if (newAmountETH == 0) {\n                _closeCP(id, amount, AmountTokens);\n                emit CloseCP(msg.sender, id);\n            } else {\n                uint256 liq = AmountTokens.div(newAmountETH).mul(minCol).div(100);\n                uint256 newliqGroup = liq.div(1000);\n                _liqArrayAdd(newliqGroup, id);\n                CP[msg.sender][id].liquidation = liq;\n                CP[msg.sender][id].liqrange = newliqGroup;\n                CP[msg.sender][id].liqid = _LiqRange[newliqGroup];\n                CP[msg.sender][id].amountETH = newAmountETH;\n                tldata._supplyCPETH = tldata._supplyCPETH.sub(amount);\n            }\n            assert(custodian.transfer(msg.sender, amount));\n            return true;\n    }\n    \n    /**\n    *  @dev Burn tokens from existing CP holder \n    */\n    function depositTokenCP(uint256 amount, uint id) whenNotPaused payable public returns (bool success) {\n            ICUST custodian = ICUST(proxy.readAddress()[2]);\n            IERC20 token = IERC20(proxy.readAddress()[0]);\n            uint256 newAmountTokens = CP[msg.sender][id].amountToken.sub(amount);\n            uint256 AmountETH = CP[msg.sender][id].amountETH;\n            uint256 liq = newAmountTokens.div(AmountETH).mul(minCol).div(100);\n            uint256 liqGroup = CP[msg.sender][id].liqrange;\n            uint256 liqId = CP[msg.sender][id].liqid;\n            uint256 lastLigId = _LiqRange[liqGroup];\n            uint256 newliqGroup = liq.div(1000);\n            require(token.balanceOf(msg.sender) >= amount);\n            require(rate > liq, \"not enough collateral\");\n            _interestClaim(msg.sender, id);\n            tldata._supplyCPToken = tldata._supplyCPToken.sub(amount);\n            _liqArrayDelete(liqGroup, liqId, lastLigId);\n            _liqArrayAdd(newliqGroup, id);\n            CP[msg.sender][id].liquidation = liq;\n            CP[msg.sender][id].amountToken = newAmountTokens;\n            CP[msg.sender][id].liqrange = newliqGroup;\n            CP[msg.sender][id].liqid = _LiqRange[newliqGroup];\n            CP[msg.sender][id].interestBlock = block.number;\n            assert(custodian.burn(msg.sender, amount));\n            return true;\n    }\n    /**\n    *  @dev Mint new tokens from existing CP \n    */\n    function withdrawTokenCP(uint256 amount, uint id) whenNotPaused payable public returns (bool success) {\n            ICUST custodian = ICUST(proxy.readAddress()[2]);\n            uint256 newAmountTokens = CP[msg.sender][id].amountToken.add(amount);\n            uint256 AmountETH = CP[msg.sender][id].amountETH;\n            uint256 liq = newAmountTokens.div(AmountETH).mul(minCol).div(100);\n            uint256 liqGroup = CP[msg.sender][id].liqrange;\n            uint256 liqId = CP[msg.sender][id].liqid;\n            uint256 lastLigId = _LiqRange[liqGroup];\n            uint256 newliqGroup = liq.div(1000);\n            require(newAmountTokens > 0, \"not enough tokens\");\n            require(rate > liq, \"not enough collateral\");\n            _interestClaim(msg.sender, id);\n            tldata._supplyCPToken = tldata._supplyCPToken.add(amount);\n            _liqArrayDelete(liqGroup, liqId, lastLigId);\n            _liqArrayAdd(newliqGroup, id);\n            CP[msg.sender][id].liquidation = liq;\n            CP[msg.sender][id].amountToken = newAmountTokens;\n            CP[msg.sender][id].liqrange = newliqGroup;\n            CP[msg.sender][id].liqid = _LiqRange[newliqGroup];\n            CP[msg.sender][id].interestBlock = block.number;\n            assert(custodian.mint(msg.sender, amount));\n            return true;\n    }\n\n    /**\n    *  @dev Liquidate existing CP if rate < 150% - discount for liquidator rest to original holder.\n    *       If ETH is insufficient for the liquidation then the rest of the tokens will be reegistered \n    *       in the removal fund. For later removal - possible by ETH fee on token transfers.\n    */\n    function liquidateCP(address account, uint id) whenNotPaused payable public returns (bool success) {\n            ICUST custodian = ICUST(proxy.readAddress()[2]);\n            IERC20 token = IERC20(proxy.readAddress()[0]);\n            uint256 amountETH = CP[account][id].amountETH;\n            uint256 amountTokens = CP[account][id].amountToken;\n            uint256 liqGroup = CP[account][id].liqrange;\n            uint256 liqId = CP[account][id].liqid;\n            uint256 lastLigId = _LiqRange[liqGroup];\n            require(CP[account][id].liquidation >= rate, \"above liquidation rate\");\n            if (amountETH.mul(rate) >= amountTokens.mul(liqPer).div(100)) {\n                uint256 amountLiquidator = amountTokens.div(rate).mul(liqPer).div(100);\n                uint256 rest = amountETH.sub(amountLiquidator);\n                require(token.balanceOf(msg.sender) >= amountTokens, \"Collateral: > 110% | not enough tokens\");\n                _interestClaim(account, id);\n                _closeCP(id, amountETH, amountTokens);\n                _liqArrayDelete(liqGroup, liqId, lastLigId);\n                assert(custodian.transfer(msg.sender, amountLiquidator)); \n                assert(custodian.transfer(account, rest)); \n                return true;\n            } else {\n                uint256 availableToken = amountETH.mul(rate).mul(100).div(liqPer);\n                require(token.balanceOf(msg.sender) >= availableToken, \"Collateral: < 110% | not enough tokens\");\n                remFund =  amountTokens.sub(availableToken);\n                _interestClaim(account, id);\n                _closeCP(id, amountETH, amountTokens);\n                _liqArrayDelete(liqGroup, liqId, lastLigId);\n                assert(custodian.transfer(msg.sender, amountETH)); \n                return false;\n            }\n            \n    }\n    \n    \n    \n    \n    \n    /**\n    *  @dev Claim interest earned by the CP holder.\n    */\n    function interestClaim(uint256 id) public returns (bool success)  {\n           _interestClaim(msg.sender, id);\n           return true;\n    }\n\n        /**\n    *  @dev Internal functions called by the above functions.\n    */\n    function _openCP(uint256 _index, uint256 amount, uint256 liq, uint256 liqGroup) internal {\n            ICUST cust = ICUST(proxy.readAddress()[2]);\n            address payable custodian = proxy.readAddress()[2];\n            require(msg.value.mul(100) > amount.div(rate).mul(minCol), \"not enough collateral\");\n            tldata = totalData({\n                _totalCPs: tldata._totalCPs.add(1),\n                _supplyCPETH: tldata._supplyCPETH.add(msg.value),\n                _supplyCPToken: tldata._supplyCPToken.add(amount)\n                });\n            index[msg.sender] += 1;\n            CP[msg.sender][_index].amountETH = msg.value;\n            CP[msg.sender][_index].liquidation = liq;\n            CP[msg.sender][_index].amountToken = amount;\n            CP[msg.sender][_index].liqrange = liqGroup;\n            CP[msg.sender][_index].liqid = _LiqRange[liqGroup];\n            CP[msg.sender][_index].interestBlock = block.number;\n            custodian.transfer(msg.value);\n            assert(cust.mint(msg.sender, amount));\n    }\n    \n    function _closeCP(uint256 id, uint256 amountETH, uint256 amountTokens) internal {\n            ICUST custodian = ICUST(proxy.readAddress()[2]);\n            IERC20 token = IERC20(proxy.readAddress()[0]);\n            require(token.balanceOf(msg.sender) >= amountTokens, \"not enough tokens\");\n            tldata = totalData({\n                _totalCPs: tldata._totalCPs.sub(1),\n                _supplyCPETH: tldata._supplyCPETH.sub(amountETH),\n                _supplyCPToken: tldata._supplyCPToken.sub(amountTokens)\n                });\n            CP[msg.sender][id] = userCP({\n                amountETH: 0,\n                amountToken: 0,\n                closed: true,\n                liquidation: 0,\n                liqrange: 0,\n                liqid: 0,\n                interestBlock: block.number\n            });\n            assert(custodian.burn(msg.sender, amountTokens));\n    }\n   \n    function _liqArrayAdd(uint256 newliqGroup, uint256 id) internal {\n            _LiqRange[newliqGroup] = _LiqRange[newliqGroup].add(1);\n            _LiqInfo[newliqGroup][_LiqRange[newliqGroup]].id = id;\n            _LiqInfo[newliqGroup][_LiqRange[newliqGroup]].account = msg.sender;\n    }\n    \n    function _liqArrayDelete(uint256 _group, uint256 _id, uint256 _lastId) internal {\n            overviewCP memory lastLigInfo = _LiqInfo[_group][_lastId];\n            _LiqRange[_group] = _LiqRange[_group].sub(1);\n            _LiqInfo[_group][_id] = lastLigInfo;\n            delete _LiqInfo[_group][_lastId];\n            CP[lastLigInfo.account][lastLigInfo.id].liqid = _id;\n    }\n \n    function _transfer(address sender, address recipient, uint256 id) internal {\n            uint256 amountETH = CP[sender][id].amountETH;\n            uint256 amountToken = CP[sender][id].amountToken;\n            uint256 liq = CP[sender][id].liquidation;\n            uint256 liqRange = CP[sender][id].liqrange;\n            uint256 liqID = CP[sender][id].liqid;\n            uint256 _index = index[recipient];\n            require(CP[sender][id].closed == false, \"CP is closed\");\n            require(sender != address(0), \"ERC20: transfer from the zero address\");\n\t\t\trequire(recipient != address(0), \"ERC20: transfer to the zero address\");\n            _LiqInfo[liqRange][liqID].account = recipient;\n            CP[sender][id] = userCP({\n                amountETH: 0,\n                amountToken: 0,\n                closed: true,\n                liquidation: 0,\n                liqrange: 0,\n                liqid: 0,\n                interestBlock: 0\n            });\n            index[recipient] += 1;\n            CP[recipient][_index] = userCP({\n                amountETH: amountETH,\n                amountToken: amountToken,\n                closed: false,\n                liquidation: liq,\n                liqrange: liqRange,\n                liqid: liqID,\n                interestBlock: block.number\n            });\n    }\n    \n    function _interestClaim(address receiver, uint256 id) internal {\n            ITAX tax = ITAX(proxy.readAddress()[4]);\n            CP[receiver][id].interestBlock = block.number;\n            assert(tax.claimInterest(receiver, id));\n    }\n}",
  "sourcePath": "/Users/kevinfoesenek/Desktop/Linked_multiORC_FC/contracts/LinkedCP.sol",
  "compiler": {
    "name": "solc",
    "version": "0.5.13+commit.5b0b510c.Emscripten.clang"
  },
  "schemaVersion": "3.0.1",
  "updatedAt": "2019-12-12T09:35:26.255Z",
  "devdoc": {
    "methods": {
      "dataTotalCP()": {
        "details": "Check variables of total CPs*"
      },
      "depositETHCP(uint256)": {
        "details": "Deposit ETH in existing CP "
      },
      "depositTokenCP(uint256,uint256)": {
        "details": "Burn tokens from existing CP holder "
      },
      "individualCPdata(address,uint256)": {
        "details": "Check balace of individual CPs - used by tax contract"
      },
      "interestClaim(uint256)": {
        "details": "Claim interest earned by the CP holder."
      },
      "isOwner()": {
        "details": "Returns true if the caller is the current owner."
      },
      "liquidateCP(address,uint256)": {
        "details": "Liquidate existing CP if rate < 150% - discount for liquidator rest to original holder.      If ETH is insufficient for the liquidation then the rest of the tokens will be reegistered       in the removal fund. For later removal - possible by ETH fee on token transfers."
      },
      "openCP(uint256)": {
        "details": "Open collateral position and generate tokens"
      },
      "owner()": {
        "details": "Returns the address of the current owner."
      },
      "renounceOwnership()": {
        "details": "Leaves the contract without owner. It will not be possible to call `onlyOwner` functions anymore. Can only be called by the current owner.     * > Note: Renouncing ownership will leave the contract without an owner, thereby removing any functionality that is only available to the owner."
      },
      "transfer(address,uint256)": {
        "details": "Transfer collateral position to new user"
      },
      "transferOwnership(address)": {
        "details": "Transfers ownership of the contract to a new account (`newOwner`). Can only be called by the current owner."
      },
      "updateRate(uint256)": {
        "details": "Updates the rate for a peg to 1 USD based on the oracle contract."
      },
      "withdrawETHCP(uint256,uint256)": {
        "details": "Witdraw ETH from existing CP || close CP when all of ETH is withdrawn"
      },
      "withdrawTokenCP(uint256,uint256)": {
        "details": "Mint new tokens from existing CP "
      }
    }
  },
  "userdoc": {
    "methods": {
      "initialize(address)": {
        "notice": "Set proxy address"
      }
    }
  }
}